:100000000C9463000C948B000C948B000C948B006C
:100010000C948B000C948B000C948B000C94F402C9
:100020000C948B000C948B000C948B000C948B0024
:100030000C948B000C948B000C948B000C948B0014
:100040000C94A7090C948B000C94C2020C949C0293
:100050000C948B000C948B000C948B000C948B00F4
:100060000C948B000C948B000000000024002700EF
:100070002A0000000000250028002B0000000000DE
:1000800023002600290004040404040404040202DA
:100090000202020203030303030301020408102007
:1000A0004080010204081020010204081020000012
:1000B0000008000201000003040700000000000027
:1000C00000004A173E1711241FBECFEFD8E0DEBF55
:1000D000CDBF24E0A6E9B2E001C01D92AC3BB2075F
:1000E000E1F712E0A0E0B1E0E6E5FBE302C0059035
:1000F0000D92A639B107D9F710E0C2E6D0E004C0EE
:100100002197FE010E947E1AC136D107C9F70E94CD
:10011000F1090C949E1D0C940000CF92DF92EF9297
:10012000FF920F931F93CF93DF936C017A018B01A2
:10013000C0E0D0E0CE15DF0581F0D8016D918D01D2
:10014000D601ED91FC910190F081E02DC601099559
:10015000892B11F02196EECF7E01C701DF91CF915F
:100160001F910F91FF90EF90DF90CF900895089529
:1001700080E090E00895FC01538D448D252F30E000
:10018000842F90E0821B930B541710F0CF960895A4
:1001900001970895FC01918D828D981761F0828DF1
:1001A000DF01A80FB11D5D968C91928D9F5F9F73AB
:1001B000928F90E008958FEF9FEF0895FC01918D4D
:1001C000828D981731F0828DE80FF11D858D90E0BA
:1001D00008958FEF9FEF0895FC01918D228D892F57
:1001E00090E0805C9F4F821B91098F73992708953F
:1001F00089EB92E00E94EC0021E0892B09F420E0D9
:10020000822F0895FC01848DDF01A80FB11DA35A30
:10021000BF4F2C91848D90E001968F739927848F26
:10022000A689B7892C93A089B1898C918370806449
:100230008C93938D848D981306C00288F389E02DEA
:1002400080818F7D80830895EF92FF920F931F939B
:10025000CF93DF93EC0181E0888F9B8D8C8D981379
:1002600005C0E889F989808185FD26C0F62E0B8DB1
:1002700010E00F5F1F4F0F731127E02E8C8DE812D7
:100280000CC00FB607FCFACFE889F989808185FF99
:10029000F5CFCE010E940201F1CF8B8DFE01E80F58
:1002A000F11DE35AFF4FF0829FB7F8940B8FEA8954
:1002B000FB89808180620AC09FB7F894EE89FF892C
:1002C0006083E889F98980818370806480839FBF1F
:1002D00081E090E0DF91CF911F910F91FF90EF901F
:1002E0000895CF93DF93EC01888D8823C9F0EA89C4
:1002F000FB89808185FD05C0A889B9898C9186FD1F
:100300000FC00FB607FCF5CF808185FFF2CFA8891B
:10031000B9898C9185FFEDCFCE010E940201E7CF14
:10032000DF91CF91089580E090E0892B29F00E9421
:10033000F80081110C94000008950E94801D0F9315
:100340001F93CF93DF93EC0188819981009729F067
:100350002A813B812617370788F48B016F5F7F4F17
:100360000E94BA1C009761F0998388831B830A83DB
:100370002C813D81232B11F4FC01108281E001C00E
:1003800080E0DF91CF911F910F91089560E08DE0A3
:100390000C94A607809196029091970290939D02EB
:1003A00080939C02892B19F487E791E002C082E9CF
:1003B00091E00E94750610929B0210929A028CEABC
:1003C00091E00E9475061092990210924D041092CD
:1003D0004C040895109298021092990280919A020A
:1003E00090919B028130910551F482E090E09093CE
:1003F0009B0280939A0281ED91E00C94750602971E
:1004000011F40C94CA0108950C94CA01EF92FF9262
:100410000F931F93CF93DF936115710511F480E063
:100420001CC041155105C1F07B01EC018C819D81FF
:100430008A01080F191FB801CE010E949F0188236D
:1004400071F3288139818C819D81B701820F931FBF
:100450000E94971D1D830C8381E0DF91CF911F9136
:100460000F91FF90EF900895CF93DF93EC01888177
:100470009981009711F00E94311C198218821D8207
:100480001C821B821A82DF91CF910895EF92FF9216
:100490000F931F93CF93DF93EC017B018A01BA0185
:1004A0000E949F01811104C0CE010E94340207C046
:1004B0001D830C83B701888199810E94971DCE010D
:1004C000DF91CF911F910F91FF90EF900895CF93FF
:1004D000DF9300D0CDB7DEB7FC011182108213820A
:1004E00012821582148269831A82BE016F5F7F4F68
:1004F000FB0101900020E9F73197AF01461B570B34
:100500000E9446020F900F90DF91CF910895FC0159
:100510001182108213821282158214826115710574
:1005200051F0FB0101900020E9F73197AF01461B24
:10053000570B0C94460208951F920F920FB60F921C
:1005400011242F933F934F935F936F937F938F93D8
:100550009F93AF93BF93EF93FF9389EB92E00E9439
:100560000201FF91EF91BF91AF919F918F917F9188
:100570006F915F914F913F912F910F900FBE0F9010
:100580001F9018951F920F920FB60F9211242F9360
:100590008F939F93EF93FF93E091C902F091CA026A
:1005A0008081E091CF02F091D00282FD12C0908153
:1005B0008091D2028F5F8F732091D302821751F006
:1005C000E091D202F0E0E754FD4F958F8093D20284
:1005D00001C08081FF91EF919F918F912F910F909A
:1005E0000FBE0F901F9018951F920F920FB60F928B
:1005F00011242F933F934F935F936F937F938F9328
:100600009F93AF93BF93EF93FF93809157030E9403
:100610007D0720915B0330915C032F5F3F4F309348
:100620005C0320935B0390915A03953618F096E093
:1006300090935603909156039430C9F128F4923068
:1006400069F09330D1F05EC0953009F451C0963016
:1006500009F058C091E09093270451C0811152C015
:1006600020915B0330915C032436310508F442C0CD
:100670001092270410925A031CC0813009F042C026
:10068000E0915A0391E09E0F90935A03F0E020917D
:100690005B0330915C03EE0FFF1FEA5AFC4F30877B
:1006A000278310925C0310925B0394E029C08111B0
:1006B00017C0E0915A0391E09E0F90935A03F0E027
:1006C00020915B0330915C03EE0FFF1FEA5AFC4F51
:1006D0003087278310925C0310925B0393E010C075
:1006E00020915B0330915C032536310558F007C03B
:1006F000811108C010925C0310925B0303C095E067
:1007000090935603909159039923B9F081110AC02F
:1007100080915803882321F08091580361E009C03B
:100720002D9A0BC080915803882331F08091580393
:1007300060E00E94A60701C02D98FF91EF91BF9144
:10074000AF919F918F917F916F915F914F913F9169
:100750002F910F900FBE0F901F901895CF92DF92A0
:10076000EF92FF92CF93DF93EC01072E000C880BE2
:10077000990B0E9491186B017C0120E030E040E46D
:100780005FE30E94F01820E030E048E452E40E9469
:10079000F11A0E94631BC617D707D4F020E030E09F
:1007A00040EA5FE3C701B6010E94F01820E030E0A4
:1007B00048E452E40E94F11A20E030E040E85FE3B0
:1007C0000E94851A0E94631B21E06C177D070CF4C0
:1007D00020E0822F90E0DF91CF91FF90EF90DF90AB
:1007E000CF9008951F93CF93DF93EC01162F0E94B3
:1007F000AE19181739F0612FCE01DF91CF911F91FB
:100800000C94B619DF91CF911F9108950C94AE19F5
:10081000CF92DF92EF92FF920F931F93CF936B01D2
:100820007C01CB010E940604C82FC60101960E94DC
:100830000604182FC60102960E940604082FC6015E
:1008400003960E940604412F50E060E070E0762F8E
:10085000652F542F44274C0F511D611D711D10E051
:1008600020E030E0980111270027400F511F621F40
:10087000731F90E0A0E0B0E0B82FAA27992788273F
:100880008A019B01080F191F2A1F3B1FC901B801CC
:10089000CF911F910F91FF90EF90DF90CF9008952F
:1008A000CF92DF92EF92FF92CF93DF93EC016A0138
:1008B0007B01642F0E94F2039927F7FC9A958F2DF4
:1008C0007E2D6D2DCE0101960E94F203B70199276E
:1008D00077FD9095892FCE0102960E94F2036F2D2D
:1008E000772788279927CE010396DF91CF91FF9034
:1008F000EF90DF90CF900C94F203CF92DF92EF92C3
:10090000FF920F931F93CF93DF93FC0123853485D0
:10091000232BA1F1EC010E940F090F811885298575
:100920003A85C880D980EA80FB80AB01BC01401BBE
:10093000510B620B730B4C155D056E057F05F0F0D6
:100940004C81411103C01C861B860AC0D901C80115
:100950008C0D9D1DAE1DBF1D8F839887A987BA87FB
:10096000ED81FE81309751F0CE01DF91CF911F9143
:100970000F91FF90EF90DF90CF900994DF91CF918E
:100980001F910F91FF90EF90DF90CF900895CF933C
:10099000DF93EC010E940F096F83788789879A871C
:1009A00081E090E09C878B87DF91CF91089585E06F
:1009B00090E090939D0280939C028AEF91E00E94C8
:1009C000750681E090E090939B0280939A028DE1FE
:1009D00092E00E9475061092990281E494E00C94D2
:1009E000C704CF93C82F84E090E090939D0280933A
:1009F0009C0285E492E00E9475061092A002C1114B
:100A000015C061E08DE00E94A60788E893E1A0E0B0
:100A1000B0E08093340490933504A0933604B093EF
:100A2000370484E394E0CF910C94C704CF910895E8
:100A30008FE090E00E94060420919C0230919D027C
:100A40002230310561F4811102C00C94F10410923E
:100A50009D0210929C0287E791E00C947506211587
:100A6000310531F410929702109296020C94D7043B
:100A70002530310511F40C94CA010895CF93C82F85
:100A800083E090E090939D0280939C0283E692E045
:100A90000E947506C11115C061E08DE00E94A60795
:100AA00088EE93E0A0E0B0E08093340490933504A6
:100AB000A0933604B093370484E394E0CF910C9470
:100AC000C704CF910895CF93DF93FC01C189D289E8
:100AD0001C161D062CF583E892E00E9463064AE08E
:100AE000BE010D2E000C880B990B0E94830688E135
:100AF00091E00E94630680919C0290919D02029772
:100B000009F063C0C130D10521F481E00E943E05A7
:100B10005CC0229709F059C081E00E94F10455C0E1
:100B20008CE892E00E94750680919C0290919D0253
:100B30008130910589F485E00E947D07019709F0D5
:100B400044C082E090E090939D0280939C0282E9F1
:100B500091E00E94750635C09C0122503109223077
:100B6000310570F485E00E947D07892B71F51092A4
:100B70009D0210929C0287E791E00E9475060AC0D0
:100B8000049719F585E00E947D07892B51F481E0D7
:100B90008093A00281E090E0909381048093800490
:100BA00014C08091A002882381F082E090E09093AD
:100BB0009D0280939C0282E991E00E94750610924A
:100BC000A002109281041092800481E08093880436
:100BD00080917E040E947D0790938A04809389040B
:100BE00010928B0410928C0410928D0410928E043B
:100BF0001092900410928F0410929104109292041B
:100C0000DF91CF91089580919C0290919D02009771
:100C100051F481E090E090939D0280939C028BE1DF
:100C200091E00C9475068230910519F480E00C94E3
:100C30003E050597F1F480919A0290919B028130D4
:100C4000910539F481E08093990281E494E00C9459
:100C5000C704029771F460E070E0CB010E940804C1
:100C6000AB01BC0184E090E00E94500481E08093DD
:100C700099020895833081F028F4813099F0823010
:100C8000A1F008958730A9F08830B9F08430D1F40C
:100C9000809180008F7D03C0809180008F7780934A
:100CA0008000089584B58F7702C084B58F7D84BDA0
:100CB00008958091B0008F7703C08091B0008F7D40
:100CC0008093B0000895009769F0FC010190002026
:100CD000E9F73197AF01481B590BBC0189EB92E052
:100CE0000C948D0080E090E00895CF93DF930E94F4
:100CF0006306EC0188E191E00E9463068C0F9D1F62
:100D0000DF91CF9108958F929F92AF92BF920F93F0
:100D10001F93CF93DF93CDB7DEB7A1970FB6F894AB
:100D2000DEBF0FBECDBF19A2423008F44AE08E01EB
:100D30000F5D1F4F842E912CA12CB12CA501940185
:100D40000E94251AE62FB901CA0101501109EA30A3
:100D500014F4E05D01C0E95CD801EC93232B242B53
:100D6000252B61F7C8010E946306A1960FB6F8947F
:100D7000DEBF0FBECDBFDF91CF911F910F91BF900E
:100D8000AF909F908F900895FC01809132049091D4
:100D90003304892B21F421E0309749F413C080916A
:100DA0002E0490912F04309731F421E0FC018081D2
:100DB000882341F006C0BF010E948E1D21E0892BCF
:100DC00009F020E0822F0895809128049091290451
:100DD000009711F00C944E1860E070E0CB0108957C
:100DE000CF93DF93FC01448155816081718189EB50
:100DF00092E00E948D00EC0188E191E00E94630680
:100E00008C0F9D1FDF91CF9108958F929F92AF928B
:100E1000BF92CF92DF92EF92FF920F931F93CF93E7
:100E2000DF93FC0120813181E091B502F091B6029F
:100E30002E173F070CF04FC0F901EE0FFF1FA091D6
:100E4000B302B091B402EA0FFB1FA080B180217001
:100E500033276901F1E0CF26232B19F42CE93FEF6A
:100E600002C024E630E07A018B01EC014901840ED6
:100E7000951EB401C5010E94AE03892B99F48E0C16
:100E80009F1CB401C5010E94AE03892B71F4B70108
:100E9000680D791DC5010E94AE03892BF9F023E08E
:100EA00030E005C021E030E002C022E030E0F8018F
:100EB000808191810196821793071CF4918380832E
:100EC00008C0F80111821082888199810196998366
:100ED0008883C60105C081E090E002C08FEF9FEFDC
:100EE000DF91CF911F910F91FF90EF90DF90CF9006
:100EF000BF90AF909F908F900895CF93DF93282F4E
:100F000030E0F901E255FF4F8491F901E656FF4FB9
:100F1000D491F901EA57FF4FC491CC2391F081118C
:100F20000E943A06EC2FF0E0EE0FFF1FE458FF4F4F
:100F3000A591B491EC91ED2381E090E021F480E063
:100F400002C080E090E0DF91CF9108951F93CF938E
:100F5000DF93282F30E0F901E255FF4F8491F9012A
:100F6000E656FF4FD491F901EA57FF4FC491CC23C5
:100F7000C1F0162F81110E943A06EC2FF0E0EE0F1F
:100F8000FF1FEE58FF4FA591B4919FB7F894111130
:100F900004C08C91D095D82302C0EC91DE2BDC9359
:100FA0009FBFDF91CF911F91089580917904909117
:100FB0007A04892BD1F01092660410927A04109270
:100FC000790480915004882311F061E001C060E051
:100FD00080914E040E94A607E0916204F0916304A0
:100FE000309719F08EE494E009940895CF93DF933D
:100FF00090E0FC01E656FF4F2491FC01EA57FF4FB9
:101000008491882361F190E0880F991FFC01E859D1
:10101000FF4FC591D491FC01EE58FF4FA591B491BB
:10102000611109C09FB7F894888120958223888335
:10103000EC912E230BC0623061F49FB7F894888145
:10104000322F309583238883EC912E2B2C939FBFD6
:1010500006C08FB7F894E8812E2B28838FBFDF91CD
:10106000CF9108951F93CF93DF93182FEB0161E089
:101070000E94F607209711F460E004C0CF3FD1052D
:1010800039F461E0812FDF91CF911F910C94A60775
:10109000E12FF0E0E255FF4FE491E330F9F048F43E
:1010A000E130B9F0E230A1F584B5806284BDC8BDFD
:1010B00034C0E730E9F0E83019F1E43049F58091C7
:1010C0008000806280938000D0938B00C0938A0060
:1010D00024C084B5806884BDC7BD1FC080918000D6
:1010E000806880938000D0938900C093880015C0E9
:1010F0008091B00080688093B000C093B3000DC0B1
:101100008091B00080628093B000C093B40005C0AD
:10111000C038D1050CF0B5CFAFCFDF91CF911F9183
:1011200008958093610480914E0490914F04833020
:10113000910559F09C01255031092230310528F0E4
:101140002450310923303105B0F4209179043091D5
:101150007A042130310599F43091500420916104D2
:10116000332329F06FEF70E0621B710902C0622F18
:1011700070E00C9432082FEF20936104E6CF0895BD
:101180008091790490917A04019719F181E080931C
:10119000660481E090E090937A04809379049091C2
:1011A000500480916104992329F06FEF70E0681B6F
:1011B000710902C0682F70E080914E040E943208CD
:1011C000E0916204F0916304309719F08EE494E0AA
:1011D000099408953FB7F8948091A5029091A602D2
:1011E000A091A702B091A80226B5A89B05C02F3FE9
:1011F00019F00196A11DB11D3FBFBA2FA92F982F3D
:101200008827820F911DA11DB11DBC01CD0142E0B7
:10121000660F771F881F991F4A95D1F708952FB73A
:10122000F8946091A1027091A2028091A302909122
:10123000A4022FBF0895CF93DF93C82F10926604A6
:101240000E940F0960936704709368048093690497
:1012500090936A041092770410927804C0937B04F0
:1012600010927D0410927C04C0917904D0917A048C
:1012700082E090E090937A04809379048091500406
:10128000882311F061E001C060E080914E040E946B
:10129000A607229759F0E0916204F0916304309719
:1012A00029F08EE494E0DF91CF910994DF91CF9102
:1012B00008950F931F93CF93DF938C01C62F109245
:1012C00066040E940F09609367047093680480931A
:1012D000690490936A04109274041092730410933A
:1012E0007604009375041092770481E0809378046B
:1012F000C0937B0410927D0410927C04C091790409
:10130000D0917A0482E090E090937A0480937904FB
:1013100080915004882311F061E001C060E0809169
:101320004E040E94A607229769F0E0916204F091B2
:101330006304309739F08EE494E0DF91CF911F91F0
:101340000F910994DF91CF911F910F9108951F92F2
:101350000F920FB60F9211242F933F938F939F9369
:10136000AF93BF938091A1029091A202A091A3029A
:10137000B091A4023091B70423E0230F2D3720F45D
:101380000196A11DB11D05C026E8230F0296A11DDF
:10139000B11D2093B7048093A1029093A202A09361
:1013A000A302B093A4028091A5029091A602A091FD
:1013B000A702B091A8020196A11DB11D8093A502BC
:1013C0009093A602A093A702B093A802BF91AF91F9
:1013D0009F918F913F912F910F900FBE0F901F9073
:1013E0001895CF93DF93CDB7DEB760970FB6F8941B
:1013F000DEBF0FBECDBF789484B5826084BD84B556
:10140000816084BD85B5826085BD85B5816085BDFF
:1014100080916E00816080936E00109281008091B7
:10142000810082608093810080918100816080933F
:101430008100809180008160809380008091B10064
:1014400084608093B1008091B00081608093B0008F
:1014500080917A00846080937A0080917A00826023
:1014600080937A0080917A00816080937A008091E5
:101470007A00806880937A001092C100E091C902DE
:10148000F091CA0282E08083E091C502F091C60229
:101490001082E091C702F091C8028FEC8083109215
:1014A000D102E091CD02F091CE0286E08083E091FE
:1014B000CB02F091CC02808180618083E091CB02ED
:1014C000F091CC02808188608083E091CB02F09122
:1014D000CC02808180688083E091CB02F091CC02C5
:1014E00080818F7D808362E087E00E94F60761E063
:1014F00086E00E94F60761E08DE00E94F60761E059
:1015000084E00E94F60760E086E00E94A60760E0A3
:101510008DE00E94A60760E084E00E94A6078BE0B1
:1015200090E00E94060490E0009711F488E893E1AF
:10153000092E000CAA0BBB0B80939B0490939C0478
:10154000A0939D04B0939E0483E096E09093A4043E
:101550008093A30488E195E09093A6048093A5046A
:1015600086EC91E090933A048093390484E092E011
:10157000909347048093460488E090E00E9406041C
:10158000811109C080E190E00E94060491E0811180
:1015900090E0892F81950E9491088AEE91E09093C6
:1015A00065048093640483E695E0909387048093B8
:1015B000860481E08093880480917E040E947D07E8
:1015C00090938A048093890410928B0410928C0467
:1015D00010928D0410928E041092900410928F0439
:1015E000109291041092920412E0212E312C0AEFF5
:1015F000402E512C612C712C809194040E947D0707
:101600008C018091A7049091A8040817190751F044
:101610000E940F096093A9047093AA048093AB04FD
:101620009093AC040E940F09C090A904D090AA0422
:10163000E090AB04F090AC04DC01CB018C199D0967
:10164000AE09BF09C0909704D0909804E090990427
:10165000F0909A04C816D906EA06FB0608F099C06D
:101660008091AD049091AE040817190709F45BC08E
:101670001093AE040093AD0480919604882321F06A
:101680000115110521F024C00130110509F581E093
:1016900090E09093B6048093B504E0919F04F0919C
:1016A000A004309719F084E994E009958091B3047F
:1016B000811175C021E02093B3040E940F0960934B
:1016C000AF047093B0048093B1049093B20467C0E8
:1016D0001092B6041092B504E091A104F091A20416
:1016E000309719F084E994E009958091B304882338
:1016F00069F08091B404811109C0E091A304F091D4
:10170000A404309719F084E994E009951092B30489
:101710001092B4041092AF041092B0041092B1046D
:101720001092B2043CC00E940F09C090AF04D09048
:10173000B004E090B104F090B204DC01CB018C194C
:101740009D09AE09BF09C0909B04D0909C04E09015
:101750009D04F0909E04C816D906EA06FB06F8F42C
:101760008091B3048823D9F08091B404811117C00B
:1017700081E08093B4043092B6042092B504E091E5
:10178000A504F091A604309751F084E994E00995FE
:1017900006C0AFEFBFEFB093B604A093B5041093AB
:1017A000A8040093A7048DE593E09093B40280937E
:1017B000B30280915A0390E09093B6028093B502F1
:1017C0008091270490E09093B8028093B7028091B3
:1017D0005603853009F051C180915F0390916003F9
:1017E000885891098D35910588F480915A03843089
:1017F00041F480916103909162038097479708F4C8
:10180000ACC580915A03843408F08EC580915A0388
:101810008A3108F460C080915D0390915E03843F3B
:10182000914080F41092B2021092B1028FEF9FEFBC
:10183000DC018093AD029093AE02A093AF02B0930F
:10184000B00245C080915F039091600385974B97EC
:1018500008F041C0E3E6F3E082E090E0C12CD12C37
:101860007601AC014F5F5F4F20915A0330E0421781
:1018700053075CF4DF0112972D913C9127503109F9
:101880002730310508F4B0C5CA01019795958795B1
:101890009093B2028093B1020C972CF41092B20292
:1018A0001092B10218C0C092AD02D092AE02E09286
:1018B000AF02F092B00284E090E00C943817C0922E
:1018C000AD02D092AE02E092AF02F092B0028BE095
:1018D00090E00C94381780915A038A3180F08091FF
:1018E0005D0390915E038032934008F49BCF80911A
:1018F0005F0390916003C697869708F492C5809124
:101900005A03823230F180915F0390916003069711
:101910000797F8F4E3E6F3E082E090E0C12CD12CE5
:1019200076019C012F5F3F4F40915A0350E02417EE
:1019300035070CF4C4C50197959587959093B2022D
:101940008093B10240970CF0D4C51092B20210926D
:10195000B10218861F8281E090E09A83898380918A
:101960005A038D3060F049E753E0BE01695F7F4F55
:10197000CE0101960E940507892B09F4D4C518866B
:101980001F8281E090E09A8389838091B5029091D3
:10199000B602181619060CF043C6E091B302F09196
:1019A000B4023A8229828281938189974E9708F006
:1019B00037C683E090E09A838983848195810B9771
:1019C0000A9708F02DC64CEB51E0BE01695F7F4FCE
:1019D000CE0101960E940507892B09F021C64CEB28
:1019E00051E0BE01695F7F4FCE0101960E9405075D
:1019F000019709F015C6812C912C540100E010E0EC
:101A00002091B5023091B60289819A81821793079D
:101A10000CF4EBC51093B2020093B1028092AD02B8
:101A20009092AE02A092AF02B092B0023092AA029F
:101A30002092A9026091AD027091AE028091AF0236
:101A40009091B00240E10E94830688E191E00E94FB
:101A500063068090AD029090AE02A090AF02B0906D
:101A6000B002FFEF8F169F06AF06BF0609F0CBC688
:101A700082E08093560310925A0380918804882351
:101A800009F469C080917E040E947D078C018091D9
:101A9000890490918A040817190759F180918004EC
:101AA0009091810408171907A9F48091910481117C
:101AB0000DC091E0909391040E940F0960938B04F4
:101AC00070938C0480938D0490938E04A1E0A09376
:101AD00092040FC080919204882359F080918F0462
:101AE0009091900401969093900480938F041092AB
:101AF000920480919104882351F10E940F09C090B3
:101B00008B04D0908C04E0908D04F0908E04DC0166
:101B1000CB018C199D09AE09BF09C0908204D090F9
:101B20008304E0908404F09085048C159D05AE0537
:101B3000BF0568F01092880410929104E091860429
:101B4000F0918704309719F08EE794E0099510938F
:101B50008A04009389048091790490917A04029711
:101B600009F0A0C120914E0430914F04233031057B
:101B700071F0C90105978230910548F004970297EA
:101B800030F081E02B30310519F080E001C081E0B8
:101B900090917B04992321F0811102C010927B0463
:101BA000809177048823E9F00E940F0900916B046B
:101BB00010916C0420916D0430916E04DC01CB0116
:101BC000801B910BA20BB30B00916F04109170045A
:101BD000209171043091720480179107A207B30716
:101BE00078F4809178048823C1F0209173043091B7
:101BF00074048091750490917604281739076CF06D
:101C00000E94D507E0916404F0916504309709F4CF
:101C100049C18EE494E0099545C10E940F090091E5
:101C20006704109168042091690430916A04601B74
:101C3000710B820B930B40917B04411158C0409172
:101C40006604442371F1C0905104D0905204E09096
:101C50005304F09054046C157D058E059F0508F41F
:101C600021C180917304909174040196909374043F
:101C700080937304109266048091550490915604E9
:101C8000A0915704B0915804080F191F2A1F3B1F39
:101C900000936704109368042093690430936A04E6
:101CA0003DC0C0905504D0905604E0905704F09089
:101CB00058046C157D058E059F0508F4F3C0B1E04E
:101CC000B09366048091510490915204A091530402
:101CD000B0915404080F191F2A1F3B1F009367047B
:101CE000109368042093690430936A0475C02091AE
:101CF0007C0430917D0421153105E1F400915504F7
:101D000010915604209157043091580460177107C0
:101D10008207930718F081E090E059C08091500449
:101D2000882311F061E001C060E080914E040E94C0
:101D3000A607B8C021303105C1F5C0905904D09034
:101D40005A04E0905B04F0905C046C157D058E05F0
:101D50009F0528F030927D0420927C0469C00E9487
:101D60008F184B015C01C701B6010E948F189B01BF
:101D7000AC01C501B4010E94F11A6B017C016091B4
:101D8000610470E080E090E00E9491184B015C01DA
:101D9000A7019601C701B6010E94F0189B01AC0192
:101DA000C501B4010E94F01877C02230310511F549
:101DB0000091510410915204209153043091540425
:101DC000601771078207930738F083E090E09093E3
:101DD0007D0480937C042CC0909150048091610418
:101DE000992329F06FEF70E0681B710957C0682FC5
:101DF00070E054C02330310509F054C0C0905D0438
:101E0000D0905E04E0905F04F09060046C157D0556
:101E10008E059F05C0F08091730490917404019623
:101E2000909374048093730410927D0410927C0448
:101E30000E940F096093670470936804809369049B
:101E400090936A042FC00E948F184B015C01C70158
:101E5000B6010E948F189B01AC01C501B4010E941C
:101E6000F11A4B015C016091610470E080E090E048
:101E70000E9491186B017C01A5019401C501B40178
:101E80000E94F018A70196010E94F0189B01AC0176
:101E9000C701B6010E94841A0E94631B80914E0400
:101EA0000E94320889E090E00E940604082F11E0A9
:101EB000811101C010E08AE090E00E9406042091A8
:101EC0009C0230919D022130310531F0A90143502F
:101ED00051094230510578F58091790490917A0446
:101EE000029709F400C1002309F140925104509275
:101EF00052046092530470925404409255045092DC
:101F000056046092570470925804409259045092BB
:101F10005A0460925B0470925C0440925D0450929B
:101F20005E0460925F0470926004DAC084EF91E016
:101F3000A0E0B0E0C5C02230310529F4882341F08B
:101F40000E94D507D0C02115310529F48823C1F39B
:101F50000E94C008C8C02530310509F0C4C0809176
:101F60009902882309F47BC0809198028111BBC03B
:101F700091E0909398020E94D5070E94EA084B01D5
:101F80005C0184EFC82EDD24D394E12CF12C0E9457
:101F9000EA08DC01CB0188199909AA09BB09883E26
:101FA0009340A105B10598F3A1E0CA1AD108E10850
:101FB000F108B8EE8B0EB3E09B1EA11CB11CC1143E
:101FC000D104E104F10419F7002309F1409251040E
:101FD00050925204609253047092540440925504FB
:101FE00050925604609257047092580440925904DB
:101FF00050925A0460925B0470925C0440925D04BB
:1020000050925E0460925F047092600414C084EF8A
:1020100091E0A0E0B0E08093510490935204A0932B
:102020005304B09354048093550490935604A093A2
:102030005704B093580480919A0290919B0281308A
:10204000910521F4612F81E090E006C0029709F02C
:102050004AC0612F82E090E00E94590944C08091FB
:10206000790490917A040297F1F1002329F18EE32B
:1020700090E0A0E0B0E08093510490935204A093CC
:102080005304B09354048093550490935604A09342
:102090005704B09358048093590490935A04A09322
:1020A0005B04B0935C0480935D0490935E04A09302
:1020B0005F04B093600414C08DE790E0A0E0B0E04E
:1020C0008093510490935204A0935304B09354040A
:1020D0008093550490935604A0935704B0935804EA
:1020E000812F0E941B0984E394E00E947D0480916B
:1020F0009C0290919D02009711F0059711F460E009
:1021000001C061E084E00E94A60781E494E00E949F
:102110007D0489EB92E00E94EC00892B09F401C157
:1021200089EB92E00E94CA00682F8132B9F481E005
:1021300090E090939F0280939E0240E050E06AE11D
:1021400071E08EE294E00E94460240E050E06AE1D5
:1021500071E088E294E00E944602E3C08C3729F4E3
:1021600030929F0220929E02DCC08F3309F0B5C0EE
:1021700010929F0210929E026AE371E0CE010196D6
:102180000E948702409132045091330460912E04E2
:1021900070912F04CE0101960E940602811104C0A5
:1021A000CE0101960E943402CE0101960E94F006F3
:1021B00089819A810E94311C67E471E0CE01019609
:1021C0000E94870240912C0450912D0460912804B4
:1021D00070912904CE0101960E940602811104C06B
:1021E000CE0101960E943402CE0101960E94F006B3
:1021F00089819A810E94311C84E591E00E94C40685
:10220000882331F030929702209296020E94D704E0
:1022100088E591E00E94C4068823D1F00E94E4067C
:102220006F3F710519F014F06FEF70E08B0177FFCD
:1022300002C000E010E0602F88E090E00E94F2030E
:1022400061E080E190E00E94F203802F0E949108FB
:102250008DE591E00E94C406882331F00E94E406D7
:1022600089E090E00E94F20382E691E00E94C406B9
:10227000882331F00E94E4068AE090E00E94F20395
:1022800087E691E00E94C406882341F00E94E4069C
:10229000AB01BC018BE090E00E9450048BE691E022
:1022A0000E94C406882331F00E94E4068FE090E08B
:1022B0000E94F2038FE691E00E94C406882319F081
:1022C00080E00E94F10483E791E00E94C406882325
:1022D00041F180E00E943E0524C080919E029091D1
:1022E0009F028130910559F4CE0101960E94670248
:1022F0004D815E8169817A818EE294E00CC0029703
:1023000081F4CE0101960E9467024D815E81698150
:102310007A8188E294E00E94060289819A810E9473
:10232000311C0E94930168C98091610390916203FE
:10233000825491098E9708F069CA80E090E040E0ED
:1023400050E0BA01FC01ED59FC4F20813181295048
:10235000310929303105C8F059CA80916303909141
:1023600064030997099708F04CCA1092B2021092C0
:10237000B1028FEF9FEFDC018093AD029093AE022C
:10238000A093AF02B093B00271C5FC01EB59FC4FB2
:10239000208131812751310922313105C0F4440FA8
:1023A000551F661F771F416004968038910551F6CE
:1023B00080E290E09093B2028093B1024093AD022C
:1023C0005093AE026093AF027093B0024FC520816C
:1023D0003181265031092730310508F017CA440FE2
:1023E000551F661F771FE0CF2081318123513109AE
:1023F0002F30310548F4CC0CDD1CEE1CFF1C68941A
:10240000C0F8029634962DCA208131812A503109B4
:102410002930310508F05FCACC0CDD1CEE1CFF1C16
:10242000F0CF8091610390916203C697869708F080
:1024300066CAE5E6F3E083E090E0C12CD12C76019A
:10244000AC014F5F5F4F20915A0330E042175307B2
:1024500054F4DF0112972D913C912C5031092B300F
:10246000310580F0CA010197959587959093B20246
:102470008093B1020C970CF022CA1092B202109213
:10248000B1023DCA20813181255231092B313105FC
:1024900048F4CC0CDD1CEE1CFF1C6894C0F80296BE
:1024A0003496CECF208131812C5031092A3031052C
:1024B00008F025CACC0CDD1CEE1CFF1CF0CFDF01A0
:1024C00012974D915C9111974E5151094731510529
:1024D000D8F4CC0CDD1CEE1CFF1C6894C0F84081C5
:1024E000518134964350510945305105D0F0C9010E
:1024F00022CAC092AD02D092AE02E092AF02F09238
:10250000B0028CE090E0B4C44D915C914C50510904
:102510004B30510508F01DCACC0CDD1CEE1CFF1C15
:10252000DECF0296FEC949E753E0BE01695F7F4FE7
:10253000CE0101960E940507019709F020CA49E7DC
:1025400053E0BE01695F7F4FCE0101960E940507EF
:10255000892B09F014CA812C912C540100E010E061
:1025600080915A0390E029813A812817390774F540
:1025700049E753E0BE01695F7F4FCE0101960E949B
:1025800005077C0149E753E0BE01695F7F4FCE013B
:1025900001960E940507B1E0EB16F10451F4892B76
:1025A00009F0EDC9880C991CAA1CBB1C689480F822
:1025B0000AC0EF2809F0E3C9019709F0E0C9880CC7
:1025C000991CAA1CBB1C0F5F1F4FCACF1093B202ED
:1025D0000093B1028092AD029092AE02A092AF023F
:1025E000B092B00281E090E043C44CEB51E0BE01F8
:1025F000695F7F4FCE0101960E9405077C01033081
:10260000110509F0CAC04CEB51E0BE01695F7F4F74
:10261000CE0101960E940507E816F90609F4BDC02F
:10262000E091B302F091B40282819381C6978697BC
:10263000E0F4848195814B974597B8F4DF011696B5
:102640007F0126ECE20EF11C20E030E040E050E09B
:1026500060E070E080E090E00D911C9111970950CE
:1026600011090830110508F425C180915A038933F6
:10267000E8F0828193818957910983359105B0F4FF
:1026800084819581CA97899788F49F012A5F3F4F7B
:10269000C12CD12C760143E050E0D9016D917C91A1
:1026A0006A5071096930710508F440C180915A037C
:1026B000823231F4828193810A97099708F483C1A9
:1026C000828193818957910983359105D0F4809156
:1026D0005A038132B0F084819581CA97899788F432
:1026E0009F012A5F3F4FC12CD12C760143E050E07F
:1026F000D9016D917C916A5071096930710508F4B6
:1027000081C1828193818C549109C59778F480911D
:102710005A03843031F4848195818097479708F477
:10272000D4C180915A03843408F0B6C180915A0311
:10273000863428F1828193810C970B9700F5848170
:10274000958109970997D8F4868197818C974F973F
:10275000B0F48085918589974D9788F49F01265F15
:102760003F4FC12CD12C760145E050E0D9016D914D
:102770007C916C5071096B30710508F4F5C1809142
:102780005A03883508F491C2828193818558910952
:102790008B35910508F431C288C24CEB51E0BE0183
:1027A000695F7F4FCE0101960E9405076C010330DF
:1027B000110569F44CEB51E0BE01695F7F4FCE011A
:1027C00001960E940507C816D90609F029CFE11421
:1027D000F10459F4CA94CD2809F022CF880C991C31
:1027E000AA1CBB1C689480F80BC0EA94EF2809F07F
:1027F00017CFCD2809F014CF880C991CAA1CBB1C3C
:102800000F5F1F4FFDC800919C0210919D02053083
:10281000110571F160E070E0CB010E9408046B01CA
:102820007C0164E070E080E090E00E9408048C1479
:102830009D04AE04BF0471F40115110559F481E043
:1028400090E090939D0280939C028BE191E00E9426
:1028500075060EC986169706A806B90609F008C9B6
:102860000230110509F004C980E00E943E0500C94C
:1028700080919A0290919B028130910571F4B5018B
:10288000A40180E090E00E94500421E0209399028E
:1028900081E494E00E94C704EBC8029709F0E8C8FD
:1028A000B501A40184E090E00E94500481E080938F
:1028B0009902DEC812960D911C91139701511109CE
:1028C0000D30110528F501E00E94471A2160149689
:1028D000AE15BF0509F0C0CE2093AD023093AE0215
:1028E0004093AF025093B00200E20E94621A20931C
:1028F000AB023093AC0285E090E09093AA02809303
:10290000A90280E390E09093B2028093B10292C852
:1029100012960D911C911397045011090530110561
:1029200008F0A3CE01E00E94471AD1CFD901129638
:102930006D917C911397665171096131710598F51C
:10294000D701C601880F991FAA1FBB1F6C017D010B
:102950006894C0F84E5F5F4F2C5F3F4F4B3351057B
:1029600009F09BCE9F012A583F4FD9012D913C91F0
:102970002A5031092930310508F098CE2CE130E099
:102980003093B2022093B102C092AD02D092AE0257
:10299000E092AF02F092B002EAE0F0E0F093AA0217
:1029A000E093A90247C8D90112966D917C911397C3
:1029B000665071096730710508F078CECC0CDD1CCB
:1029C000EE1CFF1CC7CF20915A03CF01820F911D2F
:1029D000820F911DDC0112978D919C910A970997A6
:1029E00008F06ECE1092B2021092B1028FEF9FEFFC
:1029F000DC018093AD029093AE02A093AF02B0933E
:102A0000B00247C0D90112966D917C91139766511F
:102A100071096131710568F5D701C601880F991FE9
:102A2000AA1FBB1F6C017D016894C0F84E5F5F4F09
:102A30002C5F3F4F4332510509F05ACE9F012A5B6C
:102A40003F4FD9012D913C912A5031092930310550
:102A500008F057CE20E130E03093B2022093B1026B
:102A6000C092AD02D092AE02E092AF02F092B002FC
:102A700010C0D90112966D917C911397665071091F
:102A80006730710508F03DCECC0CDD1CEE1CFF1C40
:102A9000CDCF86E090E0ECC1848195818954910985
:102AA000C39708F043CE9F012A5F3F4FBF016A578B
:102AB0007F4FC12CD12C7601D9014D915C914950A9
:102AC000510949305105B8F031CE86819781099777
:102AD000099708F026CE1092B2021092B1028FEF41
:102AE0009FEFDC018093AD029093AE02A093AF0202
:102AF000B093B00227C0D90112964D915C91139703
:102B0000465151094131510500F5D701C601880FE1
:102B1000991FAA1FBB1F6C017D016894C0F82C5F30
:102B20003F4F2617370741F620E230E03093B202DC
:102B30002093B102C092AD02D092AE02E092AF02F9
:102B4000F092B00287E090E093C112964D915C91B3
:102B50001397465051094730510508F0E7CDCC0C8A
:102B6000DD1CEE1CFF1CDBCFD90112966D917C9110
:102B700013976E5171096731710578F5D701C60158
:102B8000880F991FAA1FBB1F6C017D016894C0F8B4
:102B90004E5F5F4F2C5F3F4F4534510509F0E6CD46
:102BA0009F0126573F4FD9012D913C912C5031095F
:102BB0002B30310508F0E3CD20E230E03093B20253
:102BC0002093B102C092AD02D092AE02E092AF0269
:102BD000F092B00288E090E04BC1D90112966D915D
:102BE0007C911397695071096930710508F0C7CD60
:102BF000CC0CDD1CEE1CFF1CCBCF84819581825454
:102C000091098E9708F051C08F01045C1F4F8DE130
:102C100090E020E030E040915A0350E044505109E8
:102C200084179507ACF4A80142505109DA014D917F
:102C30005C91495051094830510510F136C0D80116
:102C40004D915C91485151094231510558F1CB01E8
:102C50000197959587959093B2028093B1028A97D8
:102C600024F1C901330FAA0BBB0B8093AD029093E3
:102C7000AE02A093AF02B093B002E9E0F0E08ECED6
:102C8000BC016F5F7F4FD8014D915C914750510956
:102C900047305105A0F6220F331F216002960C5FCA
:102CA0001F4FB9CF220F331FF9CF80915A038032C3
:102CB000E1F48281938106970697B8F48481958127
:102CC0000997099790F49F012A5F3F4FBF01625C0B
:102CD0007F4FC12CD12C7601D9014D915C9146508A
:102CE00051094630510508F486C08091B502909193
:102CF000B6029C878B87069714F40C94380DDF017D
:102D00001296BA87A98725ECC22E2DE9D22E2CE186
:102D1000E22E21E8F22E03E010E0E985FA856481D5
:102D20007581A080B18080E090E00E948F186D874F
:102D30007E878F87988BB50180E090E00E948F1886
:102D40004B015C012DEC3CEC4CE45FE30E94F0187D
:102D50009B01AC016D857E858F8598890E948A18BC
:102D600087FD19C02DEC3CEC4CE45FE36D857E855E
:102D70008F8598890E94F0189B01AC01C501B401B0
:102D80000E948A18E82F880FFF0BEE27FF0FEE1F17
:102D9000FF27319602C0E0E0F0E0A701960163E969
:102DA00071E080E091E00E94151A6F01FF0FEE08BC
:102DB000FF08C626D726E826F9260F5F1F4F89850C
:102DC0009A8502969A878987AB85BC850A171B0767
:102DD00009F0A3CFC092AD02D092AE02E092AF0252
:102DE000F092B00280E290E09093B2028093B10240
:102DF000EFEFFFEFD3CDD90112964D915C91139770
:102E0000495151094331510508F5D701C601880FD1
:102E1000991FAA1FBB1F6C017D016894C0F82C5F2D
:102E20003F4F2617370709F057CF2EE030E0309399
:102E3000B2022093B102C092AD02D092AE02E092F3
:102E4000AF02F092B0028FE090E012C0D90112966A
:102E50004D915C911397495051094930510508F043
:102E600044CFCC0CDD1CEE1CFF1CD9CF83E090E0DE
:102E70009093AA028093A9020C941A0D80912804C1
:102E8000909129040E94311C80912E0490912F046E
:102E90000C94311CCF92DF92EF92FF92CF93DF938D
:102EA000E9EBF2E01382128288EEC82E83E0D82E7E
:102EB000E12CF12CC482D582E682F7828AE091E08F
:102EC0009183808385EC90E09587848784EC90E003
:102ED0009787868780EC90E0918B808B81EC90E0E7
:102EE000938B828B82EC90E0958B848B86EC90E0C8
:102EF000978B868B118E128E138E148EC4E9D4E0BC
:102F00008CE090E09983888381E08A8382E390E07B
:102F1000A0E0B0E08B839C83AD83BE8388E893E11F
:102F2000A0E0B0E08F839887A987BA871C861B86AC
:102F30001E861D86188A1F861A8A198A62E08CE00E
:102F40000E94F60781E090E09C8B8B8B9A8F898F93
:102F50001D8A1E8A1F8A188E1B8E1C8E1D8E1E8E29
:102F60001F8E18A21AA219A2E6E5F3E027E021833A
:102F70001382CEE7D4E025E030E0398328839B83B9
:102F80008A83CC82DD82EE82FF821986188662E017
:102F900085E00E94F6071A8685E00E947D079C87DF
:102FA0008B871D861E861F86188A1A8A198A1B8A95
:102FB0001C8AEEE4F4E086E090E091838083128244
:102FC00084EF91E0A0E0B0E083839483A583B6838F
:102FD00087839087A187B287138614861586168605
:102FE0001786108A118A128A8FEF838B158A148AAA
:102FF000178A168A108E118E128E138E148E158ECD
:10300000168E178E10A211A212A213A214A216A23B
:1030100015A210A617A211A612A614A613A615A6ED
:1030200017A616A661E086E00E94F60760E086E03B
:103030000E94A607E1E4F4E088E99AE3A0E0B0E0AA
:1030400080839183A283B3831482168215821782B0
:1030500010861186128614861386E4E3F4E0C0829B
:10306000D182E282F3821482168215821782108640
:1030700011861286148613866AE171E08EE294E06E
:103080000E9487026AE171E088E294E0DF91CF91CB
:10309000FF90EF90DF90CF900C9487021F93FC017C
:1030A00099278827BC01E89411911032E9F319306F
:1030B00010F01E30C8F31B3251F01D3249F46894F1
:1030C00006C00E947518610F711D811D911D11911F
:1030D00010531A30B0F33EF4909580957095619539
:1030E0007F4F8F4F9F4F1F910895592F482F372F94
:1030F000262F660F771F881F991F660F771F881F5F
:10310000991F620F731F841F951F660F771F881FFB
:10311000991F08950E94CC1808F481E00895E8945E
:1031200009C097FB3EF490958095709561957F4F0F
:103130008F4F9F4F9923A9F0F92F96E9BB279395BD
:10314000F695879577956795B795F111F8CFFAF4CD
:10315000BB0F11F460FF1BC06F5F7F4F8F4F9F4FFE
:1031600016C0882311F096E911C0772321F09EE85C
:10317000872F762F05C0662371F096E8862F70E0C2
:1031800060E02AF09A95660F771F881FDAF7880F9C
:103190009695879597F90895990F0008550FAA0BF2
:1031A000E0E8FEEF16161706E807F907C0F012165A
:1031B0001306E407F50798F0621B730B840B950B5D
:1031C00039F40A2661F0232B242B252B21F40895B2
:1031D0000A2609F4A140A6958FEF811D811D08954F
:1031E0000E9403190C9474190E94661938F00E9409
:1031F0006D1920F0952311F00C945D190C9463194E
:1032000011240C94A8190E94851970F3959FC1F39D
:10321000950F50E0551F629FF001729FBB27F00D84
:10322000B11D639FAA27F00DB11DAA1F649F6627D9
:10323000B00DA11D661F829F2227B00DA11D621F28
:10324000739FB00DA11D621F839FA00D611D221FE2
:10325000749F3327A00D611D231F849F600D211DC6
:10326000822F762F6A2F11249F5750409AF0F1F049
:1032700088234AF0EE0FFF1FBB1F661F771F881FB2
:1032800091505040A9F79E3F510580F00C945D1974
:103290000C94A8195F3FE4F3983ED4F38695779594
:1032A0006795B795F795E7959F5FC1F7FE2B880F58
:1032B000911D9695879597F9089597F99F6780E8EE
:1032C00070E060E008959FEF80EC089500240A9478
:1032D0001616170618060906089500240A941216F1
:1032E0001306140605060895092E0394000C11F424
:1032F000882352F0BB0F40F4BF2B11F460FF04C0D1
:103300006F5F7F4F8F4F9F4F089557FD9058440F29
:10331000551F59F05F3F71F04795880F97FB991F34
:1033200061F09F3F79F087950895121613061406F1
:10333000551FF2CF4695F1DF08C01616170618067E
:10334000991FF1CF86957105610508940895E89459
:10335000BB2766277727CB0197F90895F999FECF08
:1033600092BD81BDF89A992780B50895262FF999C5
:10337000FECF1FBA92BD81BD20BD0FB6F894FA9A58
:10338000F99A0FBE019608950E94061AA59F900D06
:10339000B49F900DA49F800D911D112408952F922C
:1033A0003F924F925F926F927F928F929F92AF92D5
:1033B000BF92CF92DF92EF92FF920F931F93CF9322
:1033C000DF93CDB7DEB7CA1BDB0B0FB6F894DEBFB9
:1033D0000FBECDBF09942A88398848885F846E84DF
:1033E0007D848C849B84AA84B984C884DF80EE8029
:1033F000FD800C811B81AA81B981CE0FD11D0FB632
:10340000F894DEBF0FBECDBFED010895A29FB001BD
:10341000B39FC001A39F700D811D1124911DB29F08
:10342000700D811D1124911D0895DB018F939F93D1
:103430000E94C419BF91AF91A29F800D911DA39FBF
:10344000900DB29F900D11240895A1E21A2EAA1B8F
:10345000BB1BFD010DC0AA1FBB1FEE1FFF1FA21744
:10346000B307E407F50720F0A21BB30BE40BF50B41
:10347000661F771F881F991F1A9469F760957095CA
:10348000809590959B01AC01BD01CF0108950F93EC
:10349000083090F0982F872F762F652F542F432FC9
:1034A000322F22270850F4CF220F331F441F551FFD
:1034B000661F771F881F991F0A95B2F70F9108950D
:1034C00097FB10F8169400080F93083098F00850F6
:1034D000232F342F452F562F672F782F892F902D8C
:1034E000F4CF059497958795779567955795479568
:1034F000379527950A95AAF70F910895EE0FFF1FAC
:103500000590F491E02D09945058BB27AA270E94FA
:103510009C1A0C9474190E94661938F00E946D1957
:1035200020F039F49F3F19F426F40C9463190EF43B
:10353000E095E7FB0C945D19E92F0E94851958F37B
:10354000BA17620773078407950720F079F4A6F588
:103550000C94A7190EF4E0950B2EBA2FA02D0B0199
:10356000B90190010C01CA01A0011124FF27591BC8
:1035700099F0593F50F4503E68F11A16F040A22FCE
:10358000232F342F4427585FF3CF4695379527953F
:10359000A795F0405395C9F77EF41F16BA0B620B3E
:1035A000730B840BBAF09150A1F0FF0FBB1F661F85
:1035B000771F881FC2F70EC0BA0F621F731F841FC8
:1035C00048F4879577956795B795F7959E3F08F0EE
:1035D000B0CF9395880F08F09927EE0F97958795B0
:1035E00008950E94051B0C9474190E946D1958F0DF
:1035F0000E94661940F029F45F3F29F00C945D1990
:1036000051110C94A8190C9463190E94851968F340
:103610009923B1F3552391F3951B550BBB27AA278B
:1036200062177307840738F09F5F5F4F220F331FC5
:10363000441FAA1FA9F335D00E2E3AF0E0E832D08D
:1036400091505040E695001CCAF72BD0FE2F29D090
:10365000660F771F881FBB1F261737074807AB0762
:10366000B0E809F0BB0B802DBF01FF2793585F4FD7
:103670003AF09E3F510578F00C945D190C94A8190E
:103680005F3FE4F3983ED4F3869577956795B795B9
:10369000F7959F5FC9F7880F911D9695879597F9C4
:1036A0000895E1E0660F771F881FBB1F621773073D
:1036B0008407BA0720F0621B730B840BBA0BEE1F52
:1036C00088F7E09508950E946A1B6894B1110C94E4
:1036D000A81908950E948D1988F09F5798F0B92F66
:1036E0009927B751B0F0E1F0660F771F881F991F37
:1036F0001AF0BA95C9F714C0B13091F00E94A71919
:10370000B1E008950C94A719672F782F8827B85F28
:1037100039F0B93FCCF3869577956795B395D9F78E
:103720003EF490958095709561957F4F8F4F9F4F98
:1037300008950F931F93CF93DF938230910510F478
:1037400082E090E0E091BA04F091BB0420E030E028
:10375000A0E0B0E0309719F14081518102811381DE
:1037600048175907C8F08417950769F4109731F086
:1037700012960C93129713961C9327C00093BA04C9
:103780001093BB0422C02115310519F042175307CD
:1037900018F49A01BD01EF01DF01F801DBCF21151B
:1037A0003105F9F0281B390B2430310580F48A816A
:1037B0009B816115710521F0FB019383828304C015
:1037C0009093BB048093BA04FE01329644C0FE017C
:1037D000E20FF31F8193919322503109398328839B
:1037E0003AC02091B8043091B904232B41F42091C0
:1037F0000201309103013093B9042093B804209161
:103800000001309101012115310541F42DB73EB77A
:103810004091040150910501241B350BE091B8043F
:10382000F091B904E217F307A0F42E1B3F0B281701
:10383000390778F0AC014E5F5F4F2417350748F029
:103840004E0F5F1F5093B9044093B8048193919336
:1038500002C0E0E0F0E0CF01DF91CF911F910F9126
:103860000895CF93DF93009709F481C0FC0132974C
:1038700013821282A091BA04B091BB04109781F414
:1038800020813181820F931F2091B8043091B904B7
:103890002817390751F5F093B904E093B80467C0CD
:1038A000ED0120E030E0CE17DF0740F44A815B8174
:1038B0009E0141155105F1F0EA01F5CFD383C28392
:1038C00040815181840F951FC817D90759F4888109
:1038D0009981840F951F0296918380838A819B81B1
:1038E000938382832115310529F4F093BB04E0937F
:1038F000BA043DC0E901FB83EA8349915991C40FA1
:10390000D51FEC17FD0761F480819181840F951F0D
:103910000296E90199838883828193819B838A83BC
:10392000E0E0F0E012968D919C911397009719F0CA
:10393000FD01DC01F7CF8D919C9111979D012E5FC8
:103940003F4F820F931F2091B8043091B90428177C
:10395000390769F4309729F41092BB041092BA0425
:1039600002C013821282B093B904A093B804DF910D
:10397000CF910895A0E0B0E0E0ECFCE10C94D31905
:10398000EC01009721F4CB010E94991BB4C0FC010B
:10399000E60FF71F9C0122503109E217F30708F4E4
:1039A000A8C0D9010D911C91119706171707B0F007
:1039B0000530110508F49BC0C801049786179707C6
:1039C00008F495C002501109061B170B01931193BF
:1039D0006D937C93CF010E94311C89C05B01A01ABA
:1039E000B10A4C01800E911EA091BA04B091BB04A3
:1039F000612C712CE12CF12C109709F446C08D91AB
:103A00009C911197A815B905B1F56C0142E0C40E5F
:103A1000D11CCA14DB0478F14C018A189B0864019C
:103A200042E0C40ED11C1296BC9012971396AC9132
:103A3000B5E0CB16D10440F0B282A383918280829C
:103A4000D9016D937C9309C00E5F1F4F800F911FAA
:103A5000F90191838083EB2DFA2FE114F10431F009
:103A6000D7011396FC93EE93129741C0F093BB04D9
:103A7000E093BA043CC06816790608F43C017D0165
:103A800012960D90BC91A02DB7CF8091B804909163
:103A9000B90488169906E1F466167706C8F4809191
:103AA000000190910101009741F48DB79EB74091BC
:103AB000040150910501841B950BE817F907C8F420
:103AC000F093B904E093B804F901718360830FC0E7
:103AD000CB010E94991B7C01009759F0A801BE01FF
:103AE0000E94851DCE010E94311CC70104C0CE0179
:103AF00002C080E090E0CDB7DEB7EEE00C94EF19A5
:103B000081E090E0F8940C949E1DFB01DC0102C062
:103B100001900D9241505040D8F70895FB01DC010F
:103B20008D91019080190110D9F3990B0895FB0133
:103B3000DC0101900D920020E1F7089510E0C2E64B
:103B4000D0E004C0FE010E947E1A2196C336D10740
:063B5000C9F7F894FFCF55
:103B56000000BC0480000000000024018D00BB00B2
:103B66007101EC00CA00DE000D0A00737461746511
:103B7600206368616E67656420746F2053544154F6
:103B8600455F424F4F54494E470053657269616C19
:103B960020636D643A200053657269616C2076611A
:103BA6006C3A2000524543004C454442004C454483
:103BB60054004C454453004C5054004C5041005264
:103BC60042540053485400737461746520636861FD
:103BD6006E67656420746F2053544154455F4F46A9
:103BE60046007374617465206368616E676564205E
:103BF600746F2053544154455F4F4E0070726F6787
:103C06005374617465206368616E67656420746FC0
:103C16002050524F475F53544154455F4E4F4E45D7
:103C26000070726F675374617465206368616E67B4
:103C3600656420746F2050524F475F53544154457A
:103C46005F434F44455F4F46460073746174652079
:103C56006368616E67656420746F205354415445F0
:103C66005F50524F4752414D4D494E470070726F5B
:103C7600675374617465206368616E676564207458
:103C86006F2050524F475F53544154455F434F4452
:103C9600455F4F4E007374617465206368616E679B
:103CA600656420746F2053544154455F5245424F1A
:103CB6004F54007374617465206368616E67656450
:103CC60020746F2053544154455F53485554444F14
:103CD600574E0070756C7365733A20006E6F2070D6
:063CE600756C73657300AC
:00000001FF
