:100000000C9452010C947A010C947A010C947A01AC
:100010000C947A010C947A010C947A010C942E03BE
:100020000C947A010C947A010C947A010C947A0164
:100030000C947A010C947A010C947A010C947A0154
:100040000C947B0A0C947A010C94FC020C94D6025A
:100050000C947A010C947A010C947A010C947A0134
:100060000C947A010C947A0131392E30322E3036CC
:1000700000423D00302E31004E3D00564552004CAE
:100080005041004C505400524543004C45445300ED
:100090004C454454004C454442004C45444F0053A9
:1000A000657269616C2076616C3A200053657269F3
:1000B000616C20636D643A20007374617465206321
:1000C00068616E67656420746F2053544154455FC6
:1000D000424F4F54494E4700737461746520636802
:1000E000616E67656420746F2053544154455F53BB
:1000F000485554444F574E007374617465206368CB
:10010000616E67656420746F2053544154455F529B
:1001100045424F4F540070726F675374617465208D
:100120006368616E67656420746F2050524F475F4B
:1001300053544154455F434F44455F4F4E007374E1
:10014000617465206368616E67656420746F205315
:10015000544154455F50524F4752414D4D494E47CF
:100160000070726F675374617465206368616E67B5
:10017000656420746F2050524F475F53544154457B
:100180005F4E4F4E45007374617465206368616E05
:1001900067656420746F2053544154455F4F4E008F
:1001A0007374617465206368616E67656420746F41
:1001B0002053544154455F4F464600737461746543
:1001C000206368616E67656420746F2053544154E6
:1001D000455F4F46460070726F67537461746520C7
:1001E0006368616E67656420746F2050524F475F8B
:1001F00053544154455F434F44455F4F4646007357
:1002000074617465206368616E67656420746F2033
:1002100053544154455F4F464600737461746520E2
:100220006368616E67656420746F20535441544560
:100230005F4F4E006E6F2070756C73657300707544
:100240006C7365733A200000000000240027002A28
:100250000000000000250028002B00000000002303
:100260000026002900040404040404040402020219
:1002700002020203030303030301020408102040E7
:100280008001020408102001020408102000000070
:100290000800020100000304070000000000000045
:1002A0000000A31711241FBECFEFD8E0DEBFCDBFE3
:1002B00011E0A0E0B1E0E4E3F8E302C005900D92A4
:1002C000A631B107D9F723E0A6E1B1E001C01D9244
:1002D000A036B207E1F711E0C2E5D1E004C02197F2
:1002E000FE010E94C519C135D107C9F70E94C50A90
:1002F0000C94181C0C940000CF92DF92EF92FF92A6
:100300000F931F93CF93DF936C017A018B01C0E0B1
:10031000D0E0CE15DF0581F0D8016D918D01D601B9
:10032000ED91FC910190F081E02DC6010995892B9A
:1003300011F02196EECF7E01C701DF91CF911F9181
:100340000F91FF90EF90DF90CF900895089580E097
:1003500090E00895FC01538D448D252F30E0842FCB
:1003600090E0821B930B541710F0CF9608950197DD
:100370000895FC01918D828D981761F0828DDF01C7
:10038000A80FB11D5D968C91928D9F5F9F73928F88
:1003900090E008958FEF9FEF0895FC01918D828D7D
:1003A000981731F0828DE80FF11D858D90E008954A
:1003B0008FEF9FEF0895FC01918D228D892F90E0A2
:1003C000805C9F4F821B91098F73992708958AE45F
:1003D00091E00E94DB0121E0892B09F420E0822FCB
:1003E0000895FC01848DDF01A80FB11DA35ABF4FF2
:1003F0002C91848D90E001968F739927848FA68924
:10040000B7892C93A089B1898C91837080648C9377
:10041000938D848D981306C00288F389E02D808126
:100420008F7D80830895EF92FF920F931F93CF9358
:10043000DF93EC0181E0888F9B8D8C8D981305C034
:10044000E889F989808185FD26C0F62E0B8D10E0A4
:100450000F5F1F4F0F731127E02E8C8DE8120CC019
:100460000FB607FCFACFE889F989808185FFF5CFBF
:10047000CE010E94F101F1CF8B8DFE01E80FF11D3D
:10048000E35AFF4FF0829FB7F8940B8FEA89FB89FC
:10049000808180620AC09FB7F894EE89FF896083EB
:1004A000E889F98980818370806480839FBF81E0BF
:1004B00090E0DF91CF911F910F91FF90EF90089501
:1004C000CF93DF93EC01888D8823C9F0EA89FB89FB
:1004D000808185FD05C0A889B9898C9186FD0FC0F2
:1004E0000FB607FCF5CF808185FFF2CFA889B989C7
:1004F0008C9185FFEDCFCE010E94F101E7CFDF9116
:10050000CF91089580E090E0892B29F00E94E701C7
:1005100081110C94000008950E94131C60E08DE08E
:100520000C947A0861E089E00C947A0860E089E034
:100530000C947A08809116019091170190931D01F7
:1005400080931C0110921B0110921A01892B19F43F
:1005500080EA91E002C086E891E00E94A70781E668
:1005600091E00E94A707109219011092D2021092F6
:10057000D1020895109218011092190180911A0168
:1005800090911B018130910551F482E090E09093AD
:100590001B0180931A0186ED91E00C94A707029746
:1005A00011F40C949A0208950C949A021F920F92DF
:1005B0000FB60F9211242F933F934F935F936F9336
:1005C0007F938F939F93AF93BF93EF93FF938AE4AF
:1005D00091E00E94F101FF91EF91BF91AF919F9146
:1005E0008F917F916F915F914F913F912F910F90DC
:1005F0000FBE0F901F9018951F920F920FB60F927B
:1006000011242F938F939F93EF93FF93E0915A01BF
:10061000F0915B018081E0916001F091610182FDC8
:1006200012C09081809163018F5F8F73209164016C
:10063000821751F0E0916301F0E0E65BFE4F958F89
:100640008093630101C08081FF91EF919F918F9111
:100650002F910F900FBE0F901F9018951F920F9221
:100660000FB60F9211242F933F934F935F936F9385
:100670007F938F939F93AF93BF93EF93FF9380915B
:10068000E8010E943B082091EC013091ED012F5FC1
:100690003F4F3093ED012093EC019091EB019536A3
:1006A00018F096E09093E7019091E7019430C9F13A
:1006B00028F4923069F09330D1F05EC0953009F49F
:1006C00051C0963009F058C091E09093B80251C0E3
:1006D000811152C02091EC013091ED012436310599
:1006E00008F442C01092B8021092EB011CC0813095
:1006F00009F042C0E091EB0191E09E0F9093EB0175
:10070000F0E02091EC013091ED01EE0FFF1FE95177
:10071000FE4F308727831092ED011092EC0194E098
:1007200029C0811117C0E091EB0191E09E0F9093D9
:10073000EB01F0E02091EC013091ED01EE0FFF1F95
:10074000E951FE4F308727831092ED011092EC01A2
:1007500093E010C02091EC013091ED012536310578
:1007600058F007C0811108C01092ED011092EC0101
:1007700003C095E09093E7019091EA019923B9F0C5
:1007800081110AC08091E901882321F08091E9015B
:1007900061E009C02D9A0BC08091E901882331F0F6
:1007A0008091E90160E00E947A0801C02D98FF91D4
:1007B000EF91BF91AF919F918F917F916F915F91D9
:1007C0004F913F912F910F900FBE0F901F90189552
:1007D000CF92DF92EF92FF92CF93DF93EC01072E3F
:1007E000000C880B990B0E94F61A6B017C0120E02B
:1007F00030E040E45FE30E94A61B20E030E048E4E4
:1008000052E40E944C1A0E94BE1AC617D707D4F0B1
:1008100020E030E040EA5FE3C701B6010E94A61B7A
:1008200020E030E048E452E40E944C1A20E030E03E
:1008300040E85FE30E94DB190E94BE1A21E06C17BA
:100840007D070CF420E0822F90E0DF91CF91FF90A4
:10085000EF90DF90CF9008951F93CF93DF93EC013B
:10086000162F0E943B19181739F0612FCE01DF9126
:10087000CF911F910C944319DF91CF911F9108954F
:100880000C943B1980911C0190911D010197A1F0DE
:1008900081E090E090931D0180931C0189EB90E032
:1008A0000E94A707109206031092050310920D03F1
:1008B000109216030C9464080895CF92DF92EF9281
:1008C000FF920F931F93CF936B017C01CB010E948A
:1008D0004004C82FC60101960E944004182FC6018B
:1008E00002960E944004082FC60103960E9440040D
:1008F000412F50E060E070E0762F652F542F4427A1
:100900004C0F511D611D711D10E020E030E0980179
:1009100011270027400F511F621F731F90E0A0E0B6
:10092000B0E0B82FAA27992788278A019B01080FD2
:10093000191F2A1F3B1FC901B801CF911F910F91A9
:10094000FF90EF90DF90CF900895CF92DF92EF92DB
:10095000FF92CF93DF93EC016A017B01642F0E9429
:100960002C049927F7FC9A958F2D7E2D6D2DCE01A5
:1009700001960E942C04B701992777FD9095892F45
:10098000CE0102960E942C046F2D77278827992785
:10099000CE010396DF91CF91FF90EF90DF90CF9043
:1009A0000C942C04CF92DF92EF92FF920F931F933F
:1009B000CF93DF93FC0123853485232BA1F1EC0138
:1009C0000E94E3090F81188529853A85C880D9805E
:1009D000EA80FB80AB01BC01401B510B620B730B27
:1009E0004C155D056E057F05F0F04C81411103C08B
:1009F0001C861B860AC0D901C8018C0D9D1DAE1D29
:100A0000BF1D8F839887A987BA87ED81FE813097B4
:100A100051F0CE01DF91CF911F910F91FF90EF9098
:100A2000DF90CF900994DF91CF911F910F91FF90AC
:100A3000EF90DF90CF900895CF93DF93EC010E9469
:100A4000E3096F83788789879A8781E090E09C87A4
:100A50008B87DF91CF91089580911C0190911D01AA
:100A6000909317018093160185E090E090931D010B
:100A700080931C0181E090E090931B0180931A0108
:100A80008EE391E00E94A70786E191E00E94A7070C
:100A90001092190186EC92E00C941C05CF932091E2
:100AA0001C0130911D012430310561F1C82F84E013
:100AB00090E090931D0180931C0188EF90E00E94CC
:100AC000A707109206031092050310920D031092CF
:100AD00016030E946408CC23A9F061E08DE00E9417
:100AE0007A0888E893E1A0E0B0E08093B90290939F
:100AF000BA02A093BB02B093BC0289EB92E0CF9103
:100B00000C941C05CF91089580E190E00E94400470
:100B100020911C0130911D012230310569F48111B1
:100B200003C081E00C944E0510921D0110921C012F
:100B30008BEB91E00C94A7072115310531F410924D
:100B40001701109216010C942C052530310511F473
:100B50000C949A020895CF9320911C0130911D01AD
:100B60002330310571F1C82F83E090E090931D018F
:100B700080931C0188ED90E00E94A70781E090E03F
:100B8000909306038093050310920D0310921603B1
:100B90000E946408CC23A9F061E08DE00E947A08ED
:100BA00088EE93E0A0E0B0E08093B9029093BA029F
:100BB000A093BB02B093BC0289EB92E0CF910C945E
:100BC0001C05CF9108958F929F92AF92BF92EF92A2
:100BD000FF920F931F93CF93DF93CDB7DEB7A1970B
:100BE0000FB6F894DEBF0FBECDBFFC01018912899C
:100BF00010161106F4F58EE392E00E948C0798011E
:100C0000012E000C440B550B19A27E01F1E2EF0EF0
:100C1000F11C8AE0882E912CA12CB12CCA01B901BB
:100C2000A50194010E946119605DF70162937F0143
:100C3000211531054105510589F7CF010E947A0739
:100C400082E191E00E947A0780911C0190911D0140
:100C5000029709F03FC00130110521F480E00E94A5
:100C6000AB0538C002301105A9F580E00E944E05A1
:100C700031C084E392E00E94A70785E00E943B0810
:100C8000892B89F482E090E090931D0180931C01F0
:100C90008AE192E00E94A70781E090E0909306032A
:100CA0008093050311C085E00E943B08019791F4F1
:100CB00010921D0110921C018FEF91E00E94A70776
:100CC000109206031092050310920D031092160362
:100CD0000E946408A1960FB6F894DEBF0FBECDBF88
:100CE000DF91CF911F910F91FF90EF90BF90AF9048
:100CF0009F908F90089580911C0190911D01009705
:100D000011F40C9442048230910519F481E00C94A2
:100D1000AB050597F1F480911A0190911B01813088
:100D2000910539F481E08093190186EC92E00C94EE
:100D30001C05029771F460E070E0CB010E945D0435
:100D4000AB01BC0184E090E00E94A50481E08093A7
:100D500019010895CF92DF92EF92FF920F931F93A4
:100D6000CF93DF93EC0188810E943B088C018B8933
:100D70009C890817190731F00E94E3096D8B7E8B5F
:100D80008F8B988F0E94E309CD88DE88EF88F88CDE
:100D9000DC01CB018C199D09AE09BF09CB80DC8039
:100DA000ED80FE80C816D906EA06FB0608F06AC088
:100DB000898D9A8D08171907E9F11A8F098F8A8191
:100DC000882321F00115110521F019C0013011050A
:100DD000B1F481E090E09AA389A3EB85FC8530977C
:100DE00011F0CE0109958F8D811150C081E08F8F58
:100DF0000E94E3096B8F7C8F8D8F9E8F47C01AA254
:100E000019A2ED85FE85309711F0CE0109958F8DE1
:100E1000882349F088A1811106C0EF85F8893097B1
:100E200011F0CE0109951F8E18A21B8E1C8E1D8EEF
:100E30001E8E2CC00E94E309CB8CDC8CED8CFE8CCA
:100E4000DC01CB018C199D09AE09BF09CF80D88484
:100E5000E984FA84C816D906EA06FB06B8F48F8D31
:100E60008823A1F088A1811111C081E088A382E0CC
:100E700090E09AA389A3E989FA89309739F0CE01E5
:100E8000099504C08FEF9FEF9AA389A31C8B0B8B4E
:100E9000DF91CF911F910F91FF90EF90DF90CF9056
:100EA0000895833081F028F4813099F08230A1F0E8
:100EB00008958730A9F08830B9F08430D1F480915A
:100EC00080008F7D03C0809180008F7780938000A9
:100ED000089584B58F7702C084B58F7D84BD089551
:100EE0008091B0008F7703C08091B0008F7D809398
:100EF000B0000895009769F0FC0101900020E9F727
:100F00003197AF01481B590BBC018AE491E00C9466
:100F10007C0180E090E008950F931F93CF93DF93BF
:100F20008C01C0E0D0E0F801EC0FFD1F6491662356
:100F300041F08AE491E00E941302892B11F021967E
:100F4000F2CFCE01DF91CF911F910F910895CF93F2
:100F5000DF930E948C07EC0182E191E00E947A0706
:100F60008C0F9D1FDF91CF910895CF93DF930E9447
:100F70007A07EC0182E191E00E947A078C0F9D1FB5
:100F8000DF91CF9108958F929F92AF92BF92CF92AF
:100F9000DF92EF92FF920F931F93CF93DF93FC01A9
:100FA00020813181E0914601F09147012E173F07E2
:100FB0000CF04FC0F901EE0FFF1FA0914401B0915A
:100FC0004501EA0FFB1FA080B18021703327690122
:100FD000F1E0CF26232B19F42CE93FEF02C024E6E1
:100FE00030E07A018B01EC014901840E951EB401B9
:100FF000C5010E94E803892B99F48E0C9F1CB40153
:10100000C5010E94E803892B71F4B701680D791DB1
:10101000C5010E94E803892BF9F023E030E005C008
:1010200021E030E002C022E030E0F80180819181CF
:101030000196821793071CF49183808308C0F801FE
:101040001182108288819981019699838883C601D3
:1010500005C081E090E002C08FEF9FEFDF91CF915C
:101060001F910F91FF90EF90DF90CF90BF90AF90C6
:101070009F908F900895CF93DF93282F30E0F90150
:10108000E357FD4F8491F901E758FD4FD491F901E1
:10109000EB59FD4FC491CC2391F081110E9451076F
:1010A000EC2FF0E0EE0FFF1FE55AFD4FA591B49134
:1010B000EC91ED2381E090E021F480E002C080E03B
:1010C00090E0DF91CF910895CF93DF93C3E0D3E019
:1010D00081E08A8788810E943B089C878B871D86D8
:1010E0001E861F86188A1A8A198A1B8A1C8ADF9113
:1010F000CF9108951F93CF93DF93282F30E0F9010C
:10110000E357FD4F8491F901E758FD4FD491F90160
:10111000EB59FD4FC491CC23C1F0162F81110E94D1
:101120005107EC2FF0E0EE0FFF1FEF5AFD4FA59196
:10113000B4919FB7F894111104C08C91D095D82325
:1011400002C0EC91DE2BDC939FBFDF91CF911F910A
:1011500008958091FE029091FF02892BD1F01092A8
:10116000EB021092FF021092FE028091D5028823BA
:1011700011F061E001C060E08091D3020E947A0822
:10118000E091E702F091E802309719F083ED92E0E8
:1011900009940895CF93DF9390E0FC01E758FD4F49
:1011A0002491FC01EB59FD4F8491882361F190E07B
:1011B000880F991FFC01E95BFD4FC591D491FC019B
:1011C000EF5AFD4FA591B491611109C09FB7F894F2
:1011D0008881209582238883EC912E230BC0623076
:1011E00061F49FB7F8948881322F309583238883E8
:1011F000EC912E2B2C939FBF06C08FB7F894E881FB
:101200002E2B28838FBFDF91CF9108951F93CF930B
:10121000DF93182FEB0161E00E94CA08209711F4B8
:1012200060E004C0CF3FD10539F461E0812FDF9148
:10123000CF911F910C947A08E12FF0E0E357FD4F16
:10124000E491E330F9F048F4E130B9F0E230A1F58F
:1012500084B5806284BDC8BD34C0E730E9F0E830B1
:1012600019F1E43049F5809180008062809380001C
:10127000D0938B00C0938A0024C084B5806884BD5D
:10128000C7BD1FC080918000806880938000D0938C
:101290008900C093880015C08091B0008068809359
:1012A000B000C093B3000DC08091B0008062809305
:1012B000B000C093B40005C0C038D1050CF0B5CF64
:1012C000AFCFDF91CF911F9108958093E602809177
:1012D000D3029091D4028330910559F09C0125509E
:1012E00031092230310528F02450310923303105ED
:1012F000B0F42091FE023091FF022130310599F4C3
:101300003091D5022091E602332329F06FEF70E08F
:10131000621B710902C0622F70E00C9406092FEF66
:101320002093E602E6CF08958091FE029091FF029D
:10133000019719F181E08093EB0281E090E09093B6
:10134000FF028093FE029091D5028091E6029923DC
:1013500029F06FEF70E0681B710902C0682F70E020
:101360008091D3020E940609E091E702F091E80221
:10137000309719F083ED92E0099408953FB7F894FF
:101380008091360190913701A0913801B0913901D7
:1013900026B5A89B05C02F3F19F00196A11DB11DD0
:1013A0003FBFBA2FA92F982F8827820F911DA11D0B
:1013B000B11DBC01CD0142E0660F771F881F991F48
:1013C0004A95D1F708952FB7F89460913201709142
:1013D000330180913401909135012FBF0895CF934F
:1013E000DF93C82F1092EB020E94E3096093EC0296
:1013F0007093ED028093EE029093EF021092FC0244
:101400001092FD02C0930003109202031092010398
:10141000C091FE02D091FF0282E090E09093FF0223
:101420008093FE028091D502882311F061E001C013
:1014300060E08091D3020E947A08229759F0E091EF
:10144000E702F091E802309729F083ED92E0DF9116
:10145000CF910994DF91CF9108950F931F93CF936C
:10146000DF938C01C62F1092EB020E94E309609378
:10147000EC027093ED028093EE029093EF021092D3
:10148000F9021092F8021093FB020093FA021092F4
:10149000FC0281E08093FD02C093000310920203DE
:1014A00010920103C091FE02D091FF0282E090E011
:1014B0009093FF028093FE028091D502882311F061
:1014C00061E001C060E08091D3020E947A08229717
:1014D00069F0E091E702F091E802309739F083ED8E
:1014E00092E0DF91CF911F910F910994DF91CF91FD
:1014F0001F910F9108951F920F920FB60F92112412
:101500002F933F938F939F93AF93BF93809132011B
:1015100090913301A0913401B091350130915F0376
:1015200023E0230F2D3720F40196A11DB11D05C026
:1015300026E8230F0296A11DB11D20935F0380931F
:10154000320190933301A0933401B093350180911F
:10155000360190913701A0913801B091390101967F
:10156000A11DB11D8093360190933701A0933801DE
:10157000B0933901BF91AF919F918F913F912F917E
:101580000F900FBE0F901F901895CF93DF93CDB79C
:10159000DEB72C970FB6F894DEBF0FBECDBF7894A0
:1015A00084B5826084BD84B5816084BD85B5826068
:1015B00085BD85B5816085BD80916E008160809319
:1015C0006E00109281008091810082608093810082
:1015D0008091810081608093810080918000816092
:1015E000809380008091B10084608093B1008091ED
:1015F000B00081608093B00080917A008460809315
:101600007A0080917A00826080937A0080917A00DB
:10161000816080937A0080917A00806880937A005C
:101620001092C100E0915A01F0915B0182E0808349
:10163000E0915601F09157011082E0915801F0912C
:1016400059018FEC808310926201E0915E01F0916C
:101650005F0186E08083E0915C01F0915D01808113
:1016600080618083E0915C01F0915D018081886000
:101670008083E0915C01F0915D01808180688083CE
:10168000E0915C01F0915D0180818F7D808362E05B
:1016900087E00E94CA0862E085E00E94CA0861E013
:1016A0008DE00E94CA0861E084E00E94CA0861E0FF
:1016B00089E00E94CA0860E086E00E947A0860E043
:1016C0008DE00E947A0860E084E00E947A0861E080
:1016D00089E00E947A086CE070E080E090E00E946F
:1016E0005D048B0189E090E00E944004F82E88E0C0
:1016F00090E00E944004811116C048E853E160E088
:1017000070E08CE090E00E94A5046FEF89E090E02B
:101710000E94431961E088E090E00E944319FF2491
:10172000FA9408E813E1C801110FAA0BBB0B8093D0
:10173000430390934403A0934503B09346038BE780
:1017400096E090934C0380934B0384E895E090934C
:101750004E0380934D0386E992E090932503809396
:10176000240382E992E09093270380932603F89460
:1017700082E08093B0008093B10094E69093B30030
:101780001092B2008093700078948093E7011092D9
:10179000EB018091E80160E00E94CA088EE892E0C7
:1017A0009093BF028093BE0284ED92E09093CC02AE
:1017B0008093CB028F2D0E9465098AEB92E0909373
:1017C000EA028093E90283EE95E090930C03809304
:1017D0000B03109206031092050310920D03109252
:1017E00016030E946408A0E22A2E312CBAEF4B2E79
:1017F000512C612C712C8CE393E00E94AA0689E1A4
:1018000093E00E94AA068EEE91E0909345018093AA
:1018100044018091EB0190E0909347018093460151
:101820008091B80290E090934901809348018091A3
:10183000E701853009F0E4C08091F0019091F10159
:10184000885891098D35910588F48091EB01843099
:1018500041F48091F2019091F3018097479708F449
:101860007DC58091EB01843408F05FC58091EB0168
:101870008A3108F4DBC58091EE019091EF01843F3D
:10188000914098F410924301109242018FEF9FEF24
:10189000DC0180933E0190933F01A0934001B093FF
:1018A0004101ABE0B0E00C9497178091F00190916A
:1018B000F10185974B9708F0B9C5E4EFF1E082E0BC
:1018C00090E040E050E0BA018C010F5F1F4F209183
:1018D000EB0130E0021713076CF49F01225031092D
:1018E000D9012D913C91275031092730310508F459
:1018F00082C5C80101979595879590934301809380
:1019000042010C972CF410924301109242018EC5B3
:1019100040933E0150933F01609340017093410119
:1019200084E090E00AC0C0923E01D0923F01E09274
:101930004001F09241018CE090E090933B01809354
:101940003A0180903E0190903F01A0904001B090FC
:101950004101BFEF8B169B06AB06BB0609F44BC0DB
:1019600000911C0110911D010530110521F160E06D
:1019700070E0CB010E945D046B017C0164E070E0CB
:1019800080E090E00E945D048C149D04AE04BF04CE
:1019900031F40115110519F40E9442042CC0861679
:1019A0009706A806B90639F50230110521F581E040
:1019B0000E94AB0520C080911A0190911B018130DB
:1019C000910571F4B501A40180E090E00E94A504A6
:1019D00081E08093190186EC92E00E941C050BC007
:1019E000029749F4B501A40184E090E00E94A504A7
:1019F00081E08093190182E08093E7011092EB016E
:101A000080910D03882309F469C0809103030E942B
:101A10003B088C0180910E0390910F030817190762
:101A200059F1809105039091060308171907A9F44D
:101A30008091160381110DC081E0809316030E94EE
:101A4000E309609310037093110380931203909342
:101A5000130381E0809317030FC08091170388233D
:101A600059F08091140390911503019690931503FA
:101A7000809314031092170380911603882351F169
:101A80000E94E309C0901003D0901103E09012036C
:101A9000F0901303DC01CB018C199D09AE09BF093D
:101AA000C0900703D0900803E0900903F0900A0368
:101AB0008C159D05AE05BF0568F010920D031092C0
:101AC0001603E0910B03F0910C03309719F083E0BB
:101AD00093E0099510930F0300930E038091FE028B
:101AE0009091FF02029709F0A2C12091D302309198
:101AF000D4022330310571F0C90105978230910578
:101B000048F00497029730F081E02B30310519F04E
:101B100080E001C081E090910003992321F08111C0
:101B200002C0109200038091FC028823E9F00E9419
:101B3000E3090091F0021091F1022091F20230913C
:101B4000F302DC01CB01801B910BA20BB30B0091C4
:101B5000F4021091F5022091F6023091F7028017FD
:101B60009107A207B30778F48091FD028823C1F0A2
:101B70002091F8023091F9028091FA029091FB02D3
:101B8000281739076CF00E94A908E091E902F0914A
:101B9000EA02309709F44BC183ED92E0099547C101
:101BA0000E94E3090091EC021091ED022091EE02F7
:101BB0003091EF02601B710B820B930B409100037D
:101BC000411158C04091EB02442371F1C090D602FC
:101BD000D090D702E090D802F090D9026C157D0524
:101BE0008E059F0508F423C18091F8029091F902B7
:101BF00001969093F9028093F8021092EB02809183
:101C0000DA029091DB02A091DC02B091DD02080FB4
:101C1000191F2A1F3B1F0093EC021093ED02209323
:101C2000EE023093EF023DC0C090DA02D090DB02AA
:101C3000E090DC02F090DD026C157D058E059F05BD
:101C400008F4F5C081E08093EB028091D602909178
:101C5000D702A091D802B091D902080F191F2A1FEC
:101C60003B1F0093EC021093ED022093EE023093A1
:101C7000EF0277C020910103309102032115310555
:101C8000E1F40091DA021091DB022091DC02309144
:101C9000DD02601771078207930718F081E090E07A
:101CA0001EC08091D502882311F061E001C060E080
:101CB0008091D3020E947A08BAC021303105D1F553
:101CC000C090DE02D090DF02E090E002F090E102EE
:101CD0006C157D058E059F0538F082E090E09093AD
:101CE00002038093010369C00E94F41A4B015C0156
:101CF000C701B6010E94F41A9B01AC01C501B401F1
:101D00000E944C1A6B017C016091E60270E080E059
:101D100090E00E94F61A4B015C01A7019601C701F1
:101D2000B6010E94A61B9B01AC01C501B4010E9433
:101D3000A61B77C02230310511F50091D602109113
:101D4000D7022091D8023091D9026017710782071B
:101D5000930738F0E3E0F0E0F0930203E09301032F
:101D60002CC09091D5028091E602992329F06FEF63
:101D700070E0681B710957C0682F70E054C02330B1
:101D8000310509F054C0C090E202D090E302E09027
:101D9000E402F090E5026C157D058E059F05C0F00C
:101DA0008091F8029091F90201969093F902809344
:101DB000F80210920203109201030E94E30960935B
:101DC000EC027093ED028093EE029093EF022FC02D
:101DD0000E94F41A4B015C01C701B6010E94F41A7B
:101DE0009B01AC01C501B4010E944C1A4B015C017E
:101DF0006091E60270E080E090E00E94F61A6B01CC
:101E00007C01A5019401C501B4010E94A61BA70194
:101E100096010E94A61B9B01AC01C701B6010E945E
:101E2000DA190E94BE1A8091D3020E94060981E14C
:101E300090E00E944004F82E8AE090E00E94400466
:101E4000082F11E0811101C010E08BE090E00E94AA
:101E5000400420911C0130911D012130310531F0E9
:101E6000A901435051094230510588F5F11034C0A1
:101E70008091FE029091FF02029709F405C10023B0
:101E800009F14092D6025092D7026092D802709225
:101E9000D9024092DA025092DB026092DC02709228
:101EA000DD024092DE025092DF026092E002709208
:101EB000E1024092E2025092E3026092E4027092E8
:101EC000E502DFC084EF91E0A0E0B0E0CAC02230BC
:101ED000310551F4FF2019F00E94A908D5C08111E5
:101EE000FBCF0E949409D0C02115310529F4F110CF
:101EF000F3CF8111F6CFF0CF2530310509F0C4C002
:101F000080911901882309F47BC080911801811107
:101F1000BBC081E0809318010E94A9080E94BE09FD
:101F20004B015C0154EFC52EDD24D394E12CF12C40
:101F30000E94BE09DC01CB0188199909AA09BB09D5
:101F4000883E9340A105B10598F391E0C91AD108E4
:101F5000E108F108A8EE8A0EA3E09A1EA11CB11CAC
:101F6000C114D104E104F10419F7002309F14092EE
:101F7000D6025092D7026092D8027092D902409253
:101F8000DA025092DB026092DC027092DD02409233
:101F9000DE025092DF026092E0027092E102409213
:101FA000E2025092E3026092E4027092E50214C0F1
:101FB00084EF91E0A0E0B0E08093D6029093D70246
:101FC000A093D802B093D9028093DA029093DB02F7
:101FD000A093DC02B093DD0280911A0190911B0165
:101FE0008130910521F4612F81E090E006C00297D5
:101FF00009F04AC0612F82E090E00E942D0A44C09F
:102000008091FE029091FF020297F1F1002329F1E5
:102010008EE390E0A0E0B0E08093D6029093D702E8
:10202000A093D802B093D9028093DA029093DB0296
:10203000A093DC02B093DD028093DE029093DF0276
:10204000A093E002B093E1028093E2029093E30256
:10205000A093E402B093E50214C08DE790E0A0E005
:10206000B0E08093D6029093D702A093D802B093A9
:10207000D9028093DA029093DB02A093DC02B09342
:10208000DD02812F0E94EF0989EB92E00E94D204C9
:1020900080911C0190911D01009711F0059711F49A
:1020A00060E001C061E084E00E947A0886EC92E082
:1020B0000E94D2048AE491E00E94DB01892B09F49A
:1020C00031C18AE491E00E94B9018F33A9F481E023
:1020D00090E0909331018093300188E0E8E2F1E0F4
:1020E000DF01282F1D922A95E9F7E0E2F1E0DF01F8
:1020F0001D928A95E9F708C08C3759F482E090E088
:10210000909331018093300110921F0110921E01B3
:1021100009C1813209F0DEC0109231011092300104
:1021200010921F0110921E018CEA90E00E948C0711
:1021300088E291E00E94B5078FE990E00E948C0749
:1021400080E291E00E94B5076AE970E088E291E0E0
:102150000E941519892B41F480E291E00E94D01869
:10216000682F81E190E02FC065E970E088E291E09E
:102170000E941519892BC1F480E291E00E94D018C9
:102180008F3F910519F014F08FEF90E08C0197FFCD
:1021900002C000E010E0602F89E090E00E942C0473
:1021A000802F0E946509BEC060E970E088E291E07E
:1021B0000E941519892B51F480E291E00E94D018F9
:1021C000682F8AE090E00E942C04ACC06BE870E0BD
:1021D00088E291E00E941519892B41F480E291E098
:1021E0000E94D018682F8BE090E0EDCF67E870E098
:1021F00088E291E00E941519892B49F482E090E071
:1022000090931701809316010E942C058BC063E800
:1022100070E088E291E00E941519892B59F480E260
:1022200091E00E94EE18AB01BC018CE090E00E94AE
:10223000A50478C06FE770E088E291E00E9415196C
:10224000892B41F480E291E00E94D018682F80E150
:1022500090E0B9CF6BE770E088E291E00E94151939
:10226000892B09F05FC088E790E00E948C07E4E7C3
:10227000F0E064918AE491E00E941302E5E7F0E067
:1022800064918AE491E00E941302E6E7F0E0649131
:102290008AE491E00E94130284E191E00E94B50774
:1022A00081E790E00E948C0708E610E040E7E42E0A
:1022B00040E0F42EF80164918AE491E00E94130258
:1022C0000F5F1F4FE016F106A9F784E191E00E942D
:1022D000B50728C0209130013091310121303105FE
:1022E00079F420911E0130911F01A9014F5F5F4FCA
:1022F00050931F0140931E01F901E85DFE4F11C08C
:102300002230310579F420911E0130911F01A9017D
:102310004F5F5F4F50931F0140931E01F901E05E34
:10232000FE4F80830E94820266CA8091F2019091E2
:10233000F301825491098E9708F098CA80E090E0EA
:1023400040E050E0BA01FC01EC50FE4F20813181A9
:102350002950310929303105D8F088CA8091F4011B
:102360009091F5010997099708F07BCA10924301F3
:10237000109242018FEF9FEFDC0180933E0190931A
:102380003F01A0934001B0934101A3E0B0E0CFC56D
:10239000FC01EA50FE4F2081318127513109223161
:1023A0003105E0F4440F551F661F771F4160049606
:1023B0008038910541F630924301209242014093CA
:1023C0003E0150933F016093400170934101A3E0AF
:1023D000B0E0B0933B01A0933A01B3CA20813181B0
:1023E000265031092730310508F040CA440F551FE7
:1023F000661F771FDCCF20813181235131092F30B7
:10240000310540F4440F551F661F771F4160029647
:1024100034965ACA208131812A5031092930310538
:1024200028F4440F551F661F771FF1CF8091EB01F1
:102430008A3108F468C08091EE019091EF018032FA
:10244000934008F41FCA8091F0019091F101C69762
:10245000869708F058C08091F2019091F301C697D9
:10246000869708F050C0E6EFF1E083E090E040E0AE
:1024700050E0BA018C010F5F1F4F2091EB0130E05B
:102480000217130764F49F0122503109D9012D91DD
:102490003C912C5031092B303105D0F0C801019707
:1024A0009595879590934301809342010C972CF466
:1024B000109243011092420126C040933E01509376
:1024C0003F016093400170934101EBE0F0E0D3C223
:1024D00020813181255231092B31310540F4440FDF
:1024E000551F661F771F416002963496C3CF208127
:1024F00031812C5031092A30310528F4440F551F01
:10250000661F771FF1CF8091EB01823208F44EC035
:102510008091F0019091F1010697079708F046C06D
:10252000E4EFF1E082E090E0C12CD12C76019C0137
:102530002F5F3F4F4091EB0150E024173507CCF45B
:10254000DF0112974D915C9111974E51510947311E
:102550005105F0F4CC0CDD1CEE1CFF1C6894C0F897
:102560004081518134964350510945305105E0F086
:10257000C9010197959587959093430180934201F6
:1025800040970CF0D0C910924301109242010EC046
:102590004D915C914C5051094B30510538F4CC0CA5
:1025A000DD1CEE1CFF1CDCCF0296C1CF1C821B82FF
:1025B00081E090E09A8389838091EB018D3078F4FB
:1025C0001C821B8281E090E09A838983809146017E
:1025D00090914701181619060CF46CC0C3C049E766
:1025E00053E0BE016D5F7F4FCE0101960E94C3078D
:1025F000892B31F749E753E0BE016D5F7F4FCE0174
:1026000001960E94C3070197D9F649E753E0BE013E
:102610006D5F7F4FCE0101960E94C307892B81F623
:10262000812C912C540100E010E08091EB0190E0AE
:1026300029813A812817390774F549E753E0BE012B
:102640006D5F7F4FCE0101960E94C3077C0149E771
:1026500053E0BE016D5F7F4FCE0101960E94C3071C
:10266000F1E0EF16F10451F4892B09F0A9CF880CA1
:10267000991CAA1CBB1C689480F80AC0EF2809F0BA
:102680009FCF019709F09CCF880C991CAA1CBB1CFA
:102690000F5F1F4FCACF10934301009342018092F6
:1026A0003E0190923F01A0924001B092410181E031
:1026B00090E043C9E0914401F091450182E090E04F
:1026C0009A8389838281938189974E9708F04AC0C3
:1026D00083E090E09A838983848195810B970A97A0
:1026E00008F040C04CEB51E0BE016D5F7F4FCE0162
:1026F00001960E94C307892BA9F54CEB51E0BE015E
:102700006D5F7F4FCE0101960E94C307019751F57F
:10271000812C912C540100E010E020914601309171
:10272000470189819A81821793070CF00EC14CEB07
:1027300051E0BE016D5F7F4FCE0101960E94C3073D
:102740007C010330110509F0CAC04CEB51E0BE0119
:102750006D5F7F4FCE0101960E94C307E816F90610
:1027600009F4BDC0E0914401F0914501828193815B
:10277000C6978697E0F4848195814B974597B8F486
:10278000DF0116967F0196ECE90EF11C20E030E0A7
:1027900040E050E060E070E080E090E00D911C913E
:1027A0001197095011090830110508F4DEC0809115
:1027B000EB018933E8F08281938189579109833550
:1027C0009105B0F484819581CA97899788F49F0117
:1027D0002A5F3F4FC12CD12C760143E050E0D90154
:1027E0006D917C916A5071096930710508F4FAC0E5
:1027F0008091EB01823231F4828193810A970997AB
:1028000008F43FC1828193818957910983359105ED
:10281000D0F48091EB018132B0F084819581CA9728
:10282000899788F49F012A5F3F4FC12CD12C7601F4
:1028300043E050E0D9016D917C916A507109693093
:10284000710508F43FC1828193818C549109C59729
:1028500078F48091EB01843031F484819581809704
:10286000479708F492C18091EB01843408F074C159
:102870008091EB01863428F1828193810C970B972C
:1028800000F58481958109970997D8F4868197810D
:102890008C974F97B0F48085918589974D9788F4F0
:1028A0009F01265F3F4FC12CD12C760145E050E0BF
:1028B000D9016D917C916C5071096B30710508F4F0
:1028C000B4C18091EB01883508F450C282819381B4
:1028D000855891098B35910508F4EFC147C24CEB3F
:1028E00051E0BE016D5F7F4FCE0101960E94C3078C
:1028F0006C010330110569F44CEB51E0BE016D5FD2
:102900007F4FCE0101960E94C307C816D90609F071
:1029100029CFE114F10459F4CA94CD2809F022CF4B
:10292000880C991CAA1CBB1C689480F80BC0EA9404
:10293000EF2809F017CFCD2809F014CF880C991C87
:10294000AA1CBB1C0F5F1F4FE8CE109343010093DE
:10295000420180923E0190923F01A0924001B092CC
:10296000410182E090E00C949D0C12960D911C9117
:102970001397015111090D30110530F501E00E9446
:102980008E1921601496AE15BF0509F007CF20936C
:102990003E0130933F01409340015093410100E2DA
:1029A0000E94A91920933C0130933D0185E090E0FD
:1029B00090933B0180933A0180E390E09093430130
:1029C000809342010C94A10C12960D911C911397C7
:1029D000045011090530110508F0E9CE01E00E940C
:1029E0008E19D0CFD90112966D917C9113976651B3
:1029F00071096131710578F5D701C601880F991FFA
:102A0000AA1FBB1F6C017D016894C0F84E5F5F4F29
:102A10002C5F3F4F4B33510509F0E1CE9F012A58FF
:102A20003F4FD9012D913C912A5031092930310570
:102A300008F0DECE2CE130E03093430120934201D8
:102A4000C0923E01D0923F01E0924001F0924101DC
:102A5000EAE0F0E010C0D90112966D917C911397D5
:102A6000665071096730710508F0C2CECC0CDD1CD0
:102A7000EE1CFF1CCBCFF0933B01E0933A010C948A
:102A8000A10C2091EB01CF01820F911D820F911DAE
:102A9000DC0112978D919C910A97099708F0B2CEAC
:102AA00010924301109242018FEF9FEFDC0180935F
:102AB0003E0190933F01A0934001B093410186E015
:102AC00090E03BC2D90112966D917C9113976651AB
:102AD00071096131710580F5D701C601880F991F11
:102AE000AA1FBB1F6C017D016894C0F84E5F5F4F49
:102AF0002C5F3F4F4332510509F09CCE9F012A5B6A
:102B00003F4FD9012D913C912A503109293031058F
:102B100008F099CE20E130E0309343012093420148
:102B2000C0923E01D0923F01E0924001F0924101FB
:102B300086E090E00C949D0CD90112966D917C91E9
:102B40001397665071096730710508F07CCECC0C84
:102B5000DD1CEE1CFF1CCACF84819581895491092C
:102B6000C39708F085CE9F012A5F3F4FBF016A5788
:102B70007F4FC12CD12C7601D9014D915C914950E8
:102B8000510949305105C8F073CE86819781099764
:102B9000099708F068CE10924301109242018FEF1E
:102BA0009FEFDC0180933E0190933F01A093400191
:102BB000B093410187E090E0C0C1D90112964D91D8
:102BC0005C911397465151094131510518F1129604
:102BD0004D915C911397465051094730510508F0CB
:102BE00047CECC0CDD1CEE1CFF1C2C5F3F4F261784
:102BF000370711F63092430120924201C0923E0104
:102C0000D0923F01E0924001F092410187E090E0D4
:102C10000C949D0CD701C601880F991FAA1FBB1FDA
:102C20006C017D016894C0F8E0CFD90112966D91D6
:102C30007C9113976E5171096731710570F5D70159
:102C4000C601880F991FAA1FBB1F6C017D016894E4
:102C5000C0F84E5F5F4F2C5F3F4F4534510509F080
:102C600027CE9F0126573F4FD9012D913C912C50E3
:102C700031092B30310508F024CE309243012092E7
:102C80004201C0923E01D0923F01E0924001F09299
:102C9000410188E090E00C949D0CD90112966D9151
:102CA0007C911397695071096930710508F009CE5C
:102CB000CC0CDD1CEE1CFF1CCCCF84819581825492
:102CC00091098E9708F052C08F01045C1F4F8DE16F
:102CD00090E020E030E04091EB0150E04450510999
:102CE00084179507ACF4A80142505109DA014D91BF
:102CF0005C91495051094830510518F137C0D8014D
:102D00004D915C91485151094231510560F1CB011F
:102D100001979595879590934301809342018A97F7
:102D20002CF1C901330FAA0BBB0B80933E0190938A
:102D30003F01A0934001B093410189E090E00C94E1
:102D40009D0CBC016F5F7F4FD8014D915C91475046
:102D500051094730510598F6220F331F2160029622
:102D60000C5F1F4FB8CF220F331FF9CF8091EB01BB
:102D70008032E1F48281938106970697B8F48481CA
:102D800095810997099790F49F012A5F3F4FBF01F2
:102D9000625C7F4FC12CD12C7601D9014D915C91A1
:102DA000465051094630510508F485C080914601CE
:102DB0009091470198878F83069714F40C94FB0C2D
:102DC000DF011296BE83AD8375ECC72E7DE9D72E49
:102DD0007CE1E72E71E8F72E03E010E0ED81FE8143
:102DE00064817581A080B18080E090E00E94F41A37
:102DF00069877A878B879C87B50180E090E00E9485
:102E0000F41A4B015C012DEC3CEC4CE45FE30E94B6
:102E1000A61B9B01AC0169857A858B859C850E94E8
:102E2000471A87FD19C02DEC3CEC4CE45FE3698543
:102E30007A858B859C850E94A61B9B01AC01C501F0
:102E4000B4010E94471AE82F880FFF0BEE27FF0FEF
:102E5000EE1FFF27319602C0E0E0F0E0A7019601E7
:102E600063E971E080E091E00E9451196F01FF0F6A
:102E7000EE08FF08C626D726E826F9260F5F1F4F63
:102E80008D819E8102969E838D83AF81B885A01728
:102E9000B10709F0A3CFC0923E01D0923F01E0926A
:102EA0004001F092410130924301209242018FEFA4
:102EB0009FEF0C949D0CD90112964D915C91139744
:102EC000495151094331510510F5D701C601880F09
:102ED000991FAA1FBB1F6C017D016894C0F82C5F6D
:102EE0003F4F2617370709F058CF2EE030E03093D8
:102EF000430120934201C0923E01D0923F01E092F3
:102F00004001F09241018FE090E00C949D0CD901BA
:102F100012964D915C9113974950510949305105D2
:102F200008F044CFCC0CDD1CEE1CFF1CD8CFB093B6
:102F30003B01A0933A010C94FB0C90933B018093CE
:102F40003A010C94FB0C7F928F929F92AF92BF92AA
:102F5000CF92DF92EF92FF920F931F93CF93DF9365
:102F6000EAE4F1E01382128288EEC82E83E0D82EC4
:102F7000E12CF12CC482D582E682F78284E091E0D4
:102F80009183808385EC90E09587848784EC90E042
:102F90009787868780EC90E0918B808B81EC90E026
:102FA000938B828B82EC90E0958B848B86EC90E007
:102FB000978B868B118E128E138E148ECCE3D3E0FA
:102FC0008CE090E099838883772473947A8292E3EB
:102FD000892E912CA12CB12C8B829C82AD82BE8239
:102FE000CF82D886E986FA861C861B861E861D86B9
:102FF000188A1F861A8A198A62E00E94CA0801E0AC
:1030000010E01C8B0B8B1A8F098F1D8A1E8A1F8A5A
:10301000188E1B8E1C8E1D8E1E8E1F8E18A21AA23D
:1030200019A2C9E1D3E088E090E0998388837A828D
:103030008B829C82AD82BE82CF82D886E986FA8658
:103040001C861B861E861D86188A1F861A8A198A68
:1030500062E00E94CA081C8B0B8B1A8F098F1D8A95
:103060001E8A1F8A188E1B8E1C8E1D8E1E8E1F8E12
:1030700018A21AA219A2E7EEF1E087E08183138279
:10308000C3E0D3E085E090E0998388831B821A82B5
:10309000CC82DD82EE82FF821986188662E00E9471
:1030A000CA081A8685E00E943B089C878B871D868C
:1030B0001E861F86188A1A8A198A1B8A1C8AE3EDC3
:1030C000F2E086E090E091838083128284EF91E0C9
:1030D000A0E0B0E083839483A583B6838783908741
:1030E000A187B28713861486158616861786108ADE
:1030F000118A128A8FEF838B158A148A178A168A8F
:10310000108E118E128E138E148E158E168E178EB3
:1031100010A211A212A213A214A216A215A210A606
:1031200017A211A612A614A613A615A617A616A6D0
:1031300061E086E00E94CA0860E086E00E947A08AA
:10314000E6ECF2E088E99AE3A0E0B0E080839183C6
:10315000A283B38314821682158217821086118689
:10316000128614861386E9EBF2E0C082D182E282F5
:10317000F3821482168215821782108611861286B7
:1031800014861386DF91CF911F910F91FF90EF90DE
:10319000DF90CF90BF90AF909F908F907F900895D9
:1031A000FC0188279927E89421912032E9F32930FE
:1031B00010F02E30C8F32B3241F02D3239F46894E0
:1031C00004C00E943319820F911D219120532A308F
:1031D000C0F31EF4909581959F4F08951F93FC01B5
:1031E00099278827BC01E89411911032E9F319302E
:1031F00010F01E30C8F31B3251F01D3249F46894B0
:1032000006C00E941E19610F711D811D911D119133
:1032100010531A30B0F33EF49095809570956195F7
:103220007F4F8F4F9F4F1F910895FB01DC018D91C0
:10323000059080190110D9F3990B0895592F482F43
:10324000372F262F660F771F881F991F660F771F4E
:10325000881F991F620F731F841F951F660F771FAA
:10326000881F991F08957AE0979F902D879F802D42
:10327000910D11240895F999FECF92BD81BDF89A60
:10328000992780B50895262FF999FECF1FBA92BDD0
:1032900081BD20BD0FB6F894FA9AF99A0FBE019637
:1032A0000895DB018F939F930E948319BF91AF9183
:1032B000A29F800D911DA39F900DB29F900D112490
:1032C0000895A1E21A2EAA1BBB1BFD010DC0AA1F67
:1032D000BB1FEE1FFF1FA217B307E407F50720F07F
:1032E000A21BB30BE40BF50B661F771F881F991FFA
:1032F0001A9469F760957095809590959B01AC0143
:10330000BD01CF0108950E94CB19A59F900DB49FD8
:10331000900DA49F800D911D112408950F930830E6
:1033200090F0982F872F762F652F542F432F322F11
:1033300022270850F4CF220F331F441F551F661F4A
:10334000771F881F991F0A95B2F70F91089597FB71
:1033500010F8169400080F93083098F00850232FA7
:10336000342F452F562F672F782F892F902DF4CF8C
:1033700005949795879577956795579547953795D0
:1033800027950A95AAF70F910895EE0FFF1F059054
:10339000F491E02D0994A29FB001B39FC001A39FB7
:1033A000700D811D1124911DB29F700D811D11247E
:1033B000911D08955058BB27AA270E94F2190C941A
:1033C0006C1B0E945E1B38F00E94651B20F039F4D4
:1033D0009F3F19F426F40C945B1B0EF4E095E7FB79
:1033E0000C94551BE92F0E947D1B58F3BA176207F6
:1033F00073078407950720F079F4A6F50C949F1BBA
:103400000EF4E0950B2EBA2FA02D0B01B9019001FF
:103410000C01CA01A0011124FF27591B99F0593F43
:1034200050F4503E68F11A16F040A22F232F342F8B
:103430004427585FF3CF469537952795A795F040D9
:103440005395C9F77EF41F16BA0B620B730B840BEE
:10345000BAF09150A1F0FF0FBB1F661F771F881FA6
:10346000C2F70EC0BA0F621F731F841F48F48795FE
:1034700077956795B795F7959E3F08F0B0CF9395F0
:10348000880F08F09927EE0F9795879508950E9469
:10349000311B08F481E008950E94601A0C946C1BA3
:1034A0000E94651B58F00E945E1B40F029F45F3FAC
:1034B00029F00C94551B51110C94A01B0C945B1B10
:1034C0000E947D1B68F39923B1F3552391F3951B5B
:1034D000550BBB27AA2762177307840738F09F5F35
:1034E0005F4F220F331F441FAA1FA9F335D00E2EA2
:1034F0003AF0E0E832D091505040E695001CCAF70F
:103500002BD0FE2F29D0660F771F881FBB1F2617D1
:1035100037074807AB07B0E809F0BB0B802DBF01A8
:10352000FF2793585F4F3AF09E3F510578F00C9477
:10353000551B0C94A01B5F3FE4F3983ED4F3869593
:1035400077956795B795F7959F5FC9F7880F911D98
:103550009695879597F90895E1E0660F771F881F84
:10356000BB1F621773078407BA0720F0621B730B37
:10357000840BBA0BEE1F88F7E09508950E94C51AD8
:103580006894B1110C94A01B08950E94851B88F0CB
:103590009F5798F0B92F9927B751B0F0E1F0660F17
:1035A000771F881F991F1AF0BA95C9F714C0B13058
:1035B00091F00E949F1BB1E008950C949F1B672F10
:1035C000782F8827B85F39F0B93FCCF38695779587
:1035D0006795B395D9F73EF4909580957095619570
:1035E0007F4F8F4F9F4F0895E89409C097FB3EF49B
:1035F00090958095709561957F4F8F4F9F4F992340
:10360000A9F0F92F96E9BB279395F69587957795BD
:103610006795B795F111F8CFFAF4BB0F11F460FF7D
:103620001BC06F5F7F4F8F4F9F4F16C0882311F0D5
:1036300096E911C0772321F09EE8872F762F05C0E9
:10364000662371F096E8862F70E060E02AF09A9584
:10365000660F771F881FDAF7880F9695879597F979
:103660000895990F0008550FAA0BE0E8FEEF161613
:103670001706E807F907C0F012161306E407F50766
:1036800098F0621B730B840B950B39F40A2661F0DA
:10369000232B242B252B21F408950A2609F4A1407D
:1036A000A6958FEF811D811D089597F99F6780E88A
:1036B00070E060E008959FEF80EC089500240A9484
:1036C0001616170618060906089500240A941216FD
:1036D0001306140605060895092E0394000C11F430
:1036E000882352F0BB0F40F4BF2B11F460FF04C0DD
:1036F0006F5F7F4F8F4F9F4F089557FD9058440F36
:10370000551F59F05F3F71F04795880F97FB991F40
:1037100061F09F3F79F087950895121613061406FD
:10372000551FF2CF4695F1DF08C01616170618068A
:10373000991FF1CF86957105610508940895E89465
:10374000BB2766277727CB0197F908950E94B91BFD
:103750000C946C1B0E945E1B38F00E94651B20F0CD
:10376000952311F00C94551B0C945B1B11240C94A5
:10377000A01B0E947D1B70F3959FC1F3950F50E035
:10378000551F629FF001729FBB27F00DB11D639F13
:10379000AA27F00DB11DAA1F649F6627B00DA11DB9
:1037A000661F829F2227B00DA11D621F739FB00D5F
:1037B000A11D621F839FA00D611D221F749F3327CF
:1037C000A00D611D231F849F600D211D822F762F68
:1037D0006A2F11249F5750409AF0F1F088234AF045
:1037E000EE0FFF1FBB1F661F771F881F91505040B1
:1037F000A9F79E3F510580F00C94551B0C94A01B1B
:103800005F3FE4F3983ED4F3869577956795B79537
:10381000F795E7959F5FC1F7FE2B880F911D969551
:10382000879597F9089581E090E0F8940C94181C1E
:04383000F894FFCF3A
:103834000000000013027C01AA016002DB01B9014F
:06384400CD010D0A000099
:00000001FF
