:100000000C9463000C948B000C948B000C948B006C
:100010000C948B000C948B000C948B000C94F402C9
:100020000C948B000C948B000C948B000C948B0024
:100030000C948B000C948B000C948B000C948B0014
:100040000C94A7090C948B000C94C2020C949C0293
:100050000C948B000C948B000C948B000C948B00F4
:100060000C948B000C948B000000000024002700EF
:100070002A0000000000250028002B0000000000DE
:1000800023002600290004040404040404040202DA
:100090000202020203030303030301020408102007
:1000A0004080010204081020010204081020000012
:1000B0000008000201000003040700000000000027
:1000C000000067175B1711241FBECFEFD8E0DEBF1B
:1000D000CDBF24E0AAEAB2E001C01D92A03DB20764
:1000E000E1F712E0A0E0B1E0E0E9FBE302C0059037
:1000F0000D92AA3AB107D9F710E0C2E6D0E004C0E9
:100100002197FE010E949B1AC136D107C9F70E94B0
:10011000F1090C94BB1D0C940000CF92DF92EF927A
:10012000FF920F931F93CF93DF936C017A018B01A2
:10013000C0E0D0E0CE15DF0581F0D8016D918D01D2
:10014000D601ED91FC910190F081E02DC601099559
:10015000892B11F02196EECF7E01C701DF91CF915F
:100160001F910F91FF90EF90DF90CF900895089529
:1001700080E090E00895FC01538D448D252F30E000
:10018000842F90E0821B930B541710F0CF960895A4
:1001900001970895FC01918D828D981761F0828DF1
:1001A000DF01A80FB11D5D968C91928D9F5F9F73AB
:1001B000928F90E008958FEF9FEF0895FC01918D4D
:1001C000828D981731F0828DE80FF11D858D90E0BA
:1001D00008958FEF9FEF0895FC01918D228D892F57
:1001E00090E0805C9F4F821B91098F73992708953F
:1001F0008DEC92E00E94EC0021E0892B09F420E0D4
:10020000822F0895FC01848DDF01A80FB11DA35A30
:10021000BF4F2C91848D90E001968F739927848F26
:10022000A689B7892C93A089B1898C918370806449
:100230008C93938D848D981306C00288F389E02DEA
:1002400080818F7D80830895EF92FF920F931F939B
:10025000CF93DF93EC0181E0888F9B8D8C8D981379
:1002600005C0E889F989808185FD26C0F62E0B8DB1
:1002700010E00F5F1F4F0F731127E02E8C8DE812D7
:100280000CC00FB607FCFACFE889F989808185FF99
:10029000F5CFCE010E940201F1CF8B8DFE01E80F58
:1002A000F11DE35AFF4FF0829FB7F8940B8FEA8954
:1002B000FB89808180620AC09FB7F894EE89FF892C
:1002C0006083E889F98980818370806480839FBF1F
:1002D00081E090E0DF91CF911F910F91FF90EF901F
:1002E0000895CF93DF93EC01888D8823C9F0EA89C4
:1002F000FB89808185FD05C0A889B9898C9186FD1F
:100300000FC00FB607FCF5CF808185FFF2CFA8891B
:10031000B9898C9185FFEDCFCE010E940201E7CF14
:10032000DF91CF91089580E090E0892B29F00E9421
:10033000F80081110C94000008950E949D1D0F93F8
:100340001F93CF93DF93EC0188819981009729F067
:100350002A813B812617370788F48B016F5F7F4F17
:100360000E94D71C009761F0998388831B830A83BE
:100370002C813D81232B11F4FC01108281E001C00E
:1003800080E0DF91CF911F910F91089560E08DE0A3
:100390000C94A6078091AA029091AB029093B102AF
:1003A0008093B002892B19F48AE891E002C085EAB3
:1003B00091E00E9475061092AF021092AE028FEB90
:1003C00091E00E9475061092AD02109261041092A5
:1003D000600408951092AC021092AD028091AE02BA
:1003E0009091AF028130910551F482E090E09093BA
:1003F000AF028093AE0284EE91E00C9475060297F2
:1004000011F40C94CA0108950C94CA01EF92FF9262
:100410000F931F93CF93DF936115710511F480E063
:100420001CC041155105C1F07B01EC018C819D81FF
:100430008A01080F191FB801CE010E949F0188236D
:1004400071F3288139818C819D81B701820F931FBF
:100450000E94B41D1D830C8381E0DF91CF911F9119
:100460000F91FF90EF900895CF93DF93EC01888177
:100470009981009711F00E944E1C198218821D82EA
:100480001C821B821A82DF91CF910895EF92FF9216
:100490000F931F93CF93DF93EC017B018A01BA0185
:1004A0000E949F01811104C0CE010E94340207C046
:1004B0001D830C83B701888199810E94B41DCE01F0
:1004C000DF91CF911F910F91FF90EF900895CF93FF
:1004D000DF9300D0CDB7DEB7FC011182108213820A
:1004E00012821582148269831A82BE016F5F7F4F68
:1004F000FB0101900020E9F73197AF01461B570B34
:100500000E9446020F900F90DF91CF910895FC0159
:100510001182108213821282158214826115710574
:1005200051F0FB0101900020E9F73197AF01461B24
:10053000570B0C94460208951F920F920FB60F921C
:1005400011242F933F934F935F936F937F938F93D8
:100550009F93AF93BF93EF93FF938DEC92E00E9434
:100560000201FF91EF91BF91AF919F918F917F9188
:100570006F915F914F913F912F910F900FBE0F9010
:100580001F9018951F920F920FB60F9211242F9360
:100590008F939F93EF93FF93E091DD02F091DE0242
:1005A0008081E091E302F091E40282FD12C090812B
:1005B0008091E6028F5F8F732091E702821751F0DE
:1005C000E091E602F0E0E353FD4F958F8093E60261
:1005D00001C08081FF91EF919F918F912F910F909A
:1005E0000FBE0F901F9018951F920F920FB60F928B
:1005F00011242F933F934F935F936F937F938F9328
:100600009F93AF93BF93EF93FF9380916B030E94EF
:100610007D0720916F03309170032F5F3F4F309320
:10062000700320936F0390916E03953618F096E057
:1006300090936A0390916A039430C9F128F4923040
:1006400069F09330D1F05EC0953009F451C0963016
:1006500009F058C091E090933B0451C0811152C001
:1006600020916F03309170032436310508F442C0A5
:1006700010923B0410926E031CC0813009F042C0FE
:10068000E0916E0391E09E0F90936E03F0E0209155
:100690006F0330917003EE0FFF1FE659FC4F308758
:1006A00027831092700310926F0394E029C0811188
:1006B00017C0E0916E0391E09E0F90936E03F0E0FF
:1006C00020916F0330917003EE0FFF1FE659FC4F2E
:1006D000308727831092700310926F0393E010C04D
:1006E00020916F03309170032536310558F007C013
:1006F000811108C01092700310926F0303C095E03F
:1007000090936A0390916D039923B9F081110AC007
:1007100080916C03882321F080916C0361E009C013
:100720002D9A0BC080916C03882331F080916C036B
:1007300060E00E94A60701C02D98FF91EF91BF9144
:10074000AF919F918F917F916F915F914F913F9169
:100750002F910F900FBE0F901F901895CF92DF92A0
:10076000EF92FF92CF93DF93EC01072E000C880BE2
:10077000990B0E94AE186B017C0120E030E040E450
:100780005FE30E940D1920E030E048E452E40E944B
:100790000E1B0E94801BC617D707D4F020E030E064
:1007A00040EA5FE3C701B6010E940D1920E030E086
:1007B00048E452E40E940E1B20E030E040E85FE392
:1007C0000E94A21A0E94801B21E06C177D070CF486
:1007D00020E0822F90E0DF91CF91FF90EF90DF90AB
:1007E000CF9008951F93CF93DF93EC01162F0E94B3
:1007F000CB19181739F0612FCE01DF91CF911F91DE
:100800000C94D319DF91CF911F9108950C94CB19BB
:10081000CF92DF92EF92FF920F931F93CF936B01D2
:100820007C01CB010E940604C82FC60101960E94DC
:100830000604182FC60102960E940604082FC6015E
:1008400003960E940604412F50E060E070E0762F8E
:10085000652F542F44274C0F511D611D711D10E051
:1008600020E030E0980111270027400F511F621F40
:10087000731F90E0A0E0B0E0B82FAA27992788273F
:100880008A019B01080F191F2A1F3B1FC901B801CC
:10089000CF911F910F91FF90EF90DF90CF9008952F
:1008A000CF92DF92EF92FF92CF93DF93EC016A0138
:1008B0007B01642F0E94F2039927F7FC9A958F2DF4
:1008C0007E2D6D2DCE0101960E94F203B70199276E
:1008D00077FD9095892FCE0102960E94F2036F2D2D
:1008E000772788279927CE010396DF91CF91FF9034
:1008F000EF90DF90CF900C94F203CF92DF92EF92C3
:10090000FF920F931F93CF93DF93FC0123853485D0
:10091000232BA1F1EC010E940F090F811885298575
:100920003A85C880D980EA80FB80AB01BC01401BBE
:10093000510B620B730B4C155D056E057F05F0F0D6
:100940004C81411103C01C861B860AC0D901C80115
:100950008C0D9D1DAE1DBF1D8F839887A987BA87FB
:10096000ED81FE81309751F0CE01DF91CF911F9143
:100970000F91FF90EF90DF90CF900994DF91CF918E
:100980001F910F91FF90EF90DF90CF900895CF933C
:10099000DF93EC010E940F096F83788789879A871C
:1009A00081E090E09C878B87DF91CF91089585E06F
:1009B00090E09093B1028093B0028DE092E00E94AB
:1009C000750681E090E09093AF028093AE0280E3E1
:1009D00092E00E9475061092AD0285E594E00C94B9
:1009E000C7048FE090E00E9406042091B00230918D
:1009F000B1022230310551F5811120C084E090E030
:100A00009093B1028093B00288E592E00E9475064F
:100A10001092B40261E08DE00E94A60788E893E19D
:100A2000A0E0B0E08093480490934904A0934A0466
:100A3000B0934B0488E494E00C94C7041092B10284
:100A40001092B0028AE891E00C94750621153105E8
:100A500031F41092AB021092AA020C94D704253004
:100A6000310511F40C94CA010895CF93C82F83E087
:100A700090E09093B1028093B00286E792E00E94EA
:100A80007506C11115C061E08DE00E94A60788EED1
:100A900093E0A0E0B0E08093480490934904A093D1
:100AA0004A04B0934B0488E494E0CF910C94C704BB
:100AB000CF910895CF93DF93FC01C189D2891C1691
:100AC0001D0674F586E992E00E9463064AE0BE01C5
:100AD0000D2E000C880B990B0E94830684E291E096
:100AE0000E9463068091B0029091B102029709F0D2
:100AF0006CC0C130D10521F481E00E94350565C08C
:100B0000229709F062C084E090E09093B102809354
:100B1000B00288E592E00E9475061092B40255C0BA
:100B20008FE992E00E9475068091B0029091B10227
:100B30008130910589F485E00E947D07019709F0D5
:100B400044C082E090E09093B1028093B00285EAC5
:100B500091E00E94750635C09C0122503109223077
:100B6000310570F485E00E947D07892B71F51092A4
:100B7000B1021092B0028AE891E00E9475060AC0A4
:100B8000049719F585E00E947D07892B51F481E0D7
:100B90008093B40281E090E0909395048093940454
:100BA00014C08091B402882381F082E090E0909399
:100BB000B1028093B00285EA91E00E94750610921E
:100BC000B402109295041092940481E080939C04E6
:100BD000809192040E947D0790939E0480939D04CF
:100BE00010929F041092A0041092A1041092A204EB
:100BF0001092A4041092A3041092A5041092A604CB
:100C0000DF91CF9108958091B0029091B102009749
:100C100051F481E090E09093B1028093B00287E2BA
:100C200091E00C9475068230910519F480E00C94E3
:100C300035050597F1F48091AE029091AF028130B5
:100C4000910539F481E08093AD0285E594E00C9440
:100C5000C704029771F460E070E0CB010E940804C1
:100C6000AB01BC0184E090E00E94500481E08093DD
:100C7000AD020895833081F028F4813099F08230FC
:100C8000A1F008958730A9F08830B9F08430D1F40C
:100C9000809180008F7D03C0809180008F7780934A
:100CA0008000089584B58F7702C084B58F7D84BDA0
:100CB00008958091B0008F7703C08091B0008F7D40
:100CC0008093B0000895009769F0FC010190002026
:100CD000E9F73197AF01481B590BBC018DEC92E04D
:100CE0000C948D0080E090E00895CF93DF930E94F4
:100CF0006306EC0184E291E00E9463068C0F9D1F65
:100D0000DF91CF9108958F929F92AF92BF920F93F0
:100D10001F93CF93DF93CDB7DEB7A1970FB6F894AB
:100D2000DEBF0FBECDBF19A2423008F44AE08E01EB
:100D30000F5D1F4F842E912CA12CB12CA501940185
:100D40000E94421AE62FB901CA0101501109EA3086
:100D500014F4E05D01C0E95CD801EC93232B242B53
:100D6000252B61F7C8010E946306A1960FB6F8947F
:100D7000DEBF0FBECDBFDF91CF911F910F91BF900E
:100D8000AF909F908F900895FC01809146049091C0
:100D90004704892B21F421E0309749F413C0809156
:100DA000420490914304309731F421E0FC018081AA
:100DB000882341F006C0BF010E94AB1D21E0892BB2
:100DC00009F020E0822F089580913C0490913D0429
:100DD000009711F00C946B1860E070E0CB0108955F
:100DE000CF93DF93FC0144815581608171818DEC4B
:100DF00092E00E948D00EC0184E291E00E94630683
:100E00008C0F9D1FDF91CF9108958F929F92AF928B
:100E1000BF92CF92DF92EF92FF920F931F93CF93E7
:100E2000DF93FC0120813181E091C902F091CA0277
:100E30002E173F070CF04FC0F901EE0FFF1FA091D6
:100E4000C702B091C802EA0FFB1FA080B1802170D9
:100E500033276901F1E0CF26232B19F42CE93FEF6A
:100E600002C024E630E07A018B01EC014901840ED6
:100E7000951EB401C5010E94AE03892B99F48E0C16
:100E80009F1CB401C5010E94AE03892B71F4B70108
:100E9000680D791DC5010E94AE03892BF9F023E08E
:100EA00030E005C021E030E002C022E030E0F8018F
:100EB000808191810196821793071CF4918380832E
:100EC00008C0F80111821082888199810196998366
:100ED0008883C60105C081E090E002C08FEF9FEFDC
:100EE000DF91CF911F910F91FF90EF90DF90CF9006
:100EF000BF90AF909F908F900895CF93DF93282F4E
:100F000030E0F901E255FF4F8491F901E656FF4FB9
:100F1000D491F901EA57FF4FC491CC2391F081118C
:100F20000E943A06EC2FF0E0EE0FFF1FE458FF4F4F
:100F3000A591B491EC91ED2381E090E021F480E063
:100F400002C080E090E0DF91CF9108951F93CF938E
:100F5000DF93282F30E0F901E255FF4F8491F9012A
:100F6000E656FF4FD491F901EA57FF4FC491CC23C5
:100F7000C1F0162F81110E943A06EC2FF0E0EE0F1F
:100F8000FF1FEE58FF4FA591B4919FB7F894111130
:100F900004C08C91D095D82302C0EC91DE2BDC9359
:100FA0009FBFDF91CF911F91089580918D04909103
:100FB0008E04892BD1F010927A0410928E04109234
:100FC0008D0480916404882311F061E001C060E029
:100FD000809162040E94A607E0917604F091770464
:100FE000309719F082E694E009940895CF93DF9347
:100FF00090E0FC01E656FF4F2491FC01EA57FF4FB9
:101000008491882361F190E0880F991FFC01E859D1
:10101000FF4FC591D491FC01EE58FF4FA591B491BB
:10102000611109C09FB7F894888120958223888335
:10103000EC912E230BC0623061F49FB7F894888145
:10104000322F309583238883EC912E2B2C939FBFD6
:1010500006C08FB7F894E8812E2B28838FBFDF91CD
:10106000CF9108951F93CF93DF93182FEB0161E089
:101070000E94F607209711F460E004C0CF3FD1052D
:1010800039F461E0812FDF91CF911F910C94A60775
:10109000E12FF0E0E255FF4FE491E330F9F048F43E
:1010A000E130B9F0E230A1F584B5806284BDC8BDFD
:1010B00034C0E730E9F0E83019F1E43049F58091C7
:1010C0008000806280938000D0938B00C0938A0060
:1010D00024C084B5806884BDC7BD1FC080918000D6
:1010E000806880938000D0938900C093880015C0E9
:1010F0008091B00080688093B000C093B3000DC0B1
:101100008091B00080628093B000C093B40005C0AD
:10111000C038D1050CF0B5CFAFCFDF91CF911F9183
:1011200008958093750480916204909163048330E4
:10113000910559F09C01255031092230310528F0E4
:101140002450310923303105B0F420918D043091C1
:101150008E042130310599F4309164042091750496
:10116000332329F06FEF70E0621B710902C0622F18
:1011700070E00C9432082FEF20937504E6CF0895A9
:1011800080918D0490918E04019719F181E08093F4
:101190007A0481E090E090938E0480938D04909186
:1011A000640480917504992329F06FEF70E0681B47
:1011B000710902C0682F70E0809162040E943208B9
:1011C000E0917604F0917704309719F082E694E08C
:1011D000099408953FB7F8948091B9029091BA02AA
:1011E000A091BB02B091BC0226B5A89B05C02F3FC1
:1011F00019F00196A11DB11D3FBFBA2FA92F982F3D
:101200008827820F911DA11DB11DBC01CD0142E0B7
:10121000660F771F881F991F4A95D1F708952FB73A
:10122000F8946091B5027091B6028091B7029091E6
:10123000B8022FBF0895CF93DF93C82F10927A047E
:101240000E940F0960937B0470937C0480937D045B
:1012500090937E0410928B0410928C04C0938F04A0
:101260001092910410929004C0918D04D0918E043C
:1012700082E090E090938E0480938D0480916404CA
:10128000882311F061E001C060E0809162040E9457
:10129000A607229759F0E0917604F09177043097F1
:1012A00029F082E694E0DF91CF910994DF91CF910C
:1012B00008950F931F93CF93DF938C01C62F109245
:1012C0007A040E940F0960937B0470937C048093DE
:1012D0007D0490937E0410928804109287041093EA
:1012E0008A040093890410928B0481E080938C041B
:1012F000C0938F041092910410929004C0918D04B9
:10130000D0918E0482E090E090938E0480938D04BF
:1013100080916404882311F061E001C060E0809155
:1013200062040E94A607229769F0E0917604F0918A
:101330007704309739F082E694E0DF91CF911F91E6
:101340000F910994DF91CF911F910F9108951F92F2
:101350000F920FB60F9211242F933F938F939F9369
:10136000AF93BF938091B5029091B602A091B7025E
:10137000B091B8023091CB0423E0230F2D3720F435
:101380000196A11DB11D05C026E8230F0296A11DDF
:10139000B11D2093CB048093B5029093B602A09325
:1013A000B702B093B8028091B9029091BA02A091AD
:1013B000BB02B091BC020196A11DB11D8093B90280
:1013C0009093BA02A093BB02B093BC02BF91AF91BD
:1013D0009F918F913F912F910F900FBE0F901F9073
:1013E0001895CF93DF93CDB7DEB760970FB6F8941B
:1013F000DEBF0FBECDBF789484B5826084BD84B556
:10140000816084BD85B5826085BD85B5816085BDFF
:1014100080916E00816080936E00109281008091B7
:10142000810082608093810080918100816080933F
:101430008100809180008160809380008091B10064
:1014400084608093B1008091B00081608093B0008F
:1014500080917A00846080937A0080917A00826023
:1014600080937A0080917A00816080937A008091E5
:101470007A00806880937A001092C100E091DD02CA
:10148000F091DE0282E08083E091D902F091DA02ED
:101490001082E091DB02F091DC028FEC80831092ED
:1014A000E502E091E102F091E20286E08083E091C2
:1014B000DF02F091E002808180618083E091DF02B1
:1014C000F091E002808188608083E091DF02F091FA
:1014D000E002808180688083E091DF02F091E00289
:1014E00080818F7D808362E087E00E94F60762E062
:1014F00085E00E94F60761E08DE00E94F60761E05A
:1015000084E00E94F60760E086E00E94A60760E0A3
:101510008DE00E94A60760E084E00E94A6078BE0B1
:1015200090E00E94060490E0009711F488E893E1AF
:10153000092E000CAA0BBB0B8093AF049093B00450
:10154000A093B104B093B20483E096E09093B80402
:101550008093B70481EF94E09093BA048093B90428
:1015600086EC91E090934E0480934D0484E092E0E9
:1015700090935B0480935A0488E090E00E940604F4
:10158000811109C080E190E00E94060491E0811180
:1015900090E0892F81950E9491088AEE91E09093C6
:1015A0007904809378048AE595E090939B04809376
:1015B0009A0481E080939C04809192040E947D07AC
:1015C00090939E0480939D0410929F041092A00417
:1015D0001092A1041092A2041092A4041092A304E9
:1015E0001092A5041092A60412E0212E312C0AEFCD
:1015F000402E512C612C712C8091A8040E947D07F3
:101600008C018091BB049091BC040817190751F01C
:101610000E940F096093BD047093BE048093BF04C1
:101620009093C0040E940F09C090BD04D090BE04E6
:10163000E090BF04F090C004DC01CB018C199D093F
:10164000AE09BF09C090AB04D090AC04E090AD04EB
:10165000F090AE04C816D906EA06FB0608F099C059
:101660008091C1049091C2040817190709F45BC066
:101670001093C2040093C1048091AA04882321F02E
:101680000115110521F024C00130110509F581E093
:1016900090E09093CA048093C904E091B304F09160
:1016A000B404309719F088EA94E009958091C70452
:1016B000811175C021E02093C7040E940F09609337
:1016C000C3047093C4048093C5049093C60467C098
:1016D0001092CA041092C904E091B504F091B604C6
:1016E000309719F088EA94E009958091C70488231F
:1016F00069F08091C804811109C0E091B704F091AC
:10170000B804309719F088EA94E009951092C7045C
:101710001092C8041092C3041092C4041092C5041D
:101720001092C6043CC00E940F09C090C304D09020
:10173000C404E090C504F090C604DC01CB018C1910
:101740009D09AE09BF09C090AF04D090B004E090ED
:10175000B104F090B204C816D906EA06FB06F8F404
:101760008091C7048823D9F08091C804811117C0E3
:1017700081E08093C8043092CA042092C904E091A9
:10178000B904F091BA04309751F088EA94E00995D1
:1017900006C0AFEFBFEFB093CA04A093C904109383
:1017A000BC040093BB0481E793E09093C80280934C
:1017B000C70280916E0390E09093CA028093C902A1
:1017C00080913B0490E09093CC028093CB02809177
:1017D0006A03853009F051C18091730390917403BD
:1017E000885891098D35910588F480916E03843075
:1017F00041F480917503909176038097479708F4A0
:10180000C9C580916E03843408F0ABC580916E0326
:101810008A3108F460C08091710390917203843F13
:10182000914080F41092C6021092C5028FEF9FEF94
:10183000DC018093C1029093C202A093C302B093D3
:10184000C40245C0809173039091740385974B97B0
:1018500008F041C0E7E7F3E082E090E0C12CD12C32
:101860007601AC014F5F5F4F20916E0330E042176D
:1018700053075CF4DF0112972D913C9127503109F9
:101880002730310508F4CDC5CA0101979595879594
:101890009093C6028093C5020C972CF41092C60256
:1018A0001092C50218C0C092C102D092C202E0924A
:1018B000C302F092C40284E090E00C945517C092E9
:1018C000C102D092C202E092C302F092C4028BE045
:1018D00090E00C94551780916E038A3180F08091CE
:1018E0007103909172038032934008F49BCF8091F2
:1018F000730390917403C697869708F4AFC58091DF
:101900006E03823230F180917303909174030697D5
:101910000797F8F4E7E7F3E082E090E0C12CD12CE0
:1019200076019C012F5F3F4F40916E0350E02417DA
:1019300035070CF4E1C50197959587959093C602FC
:101940008093C50240970CF0F1C51092C602109228
:10195000C50218861F8281E090E09A838983809176
:101960006E038D3060F049E753E0BE01695F7F4F41
:10197000CE0101960E940507892B09F4F1C518864E
:101980001F8281E090E09A8389838091C9029091BF
:10199000CA02181619060CF060C6E091C702F09151
:1019A000C8023A8229828281938189974E9708F0F2
:1019B00054C683E090E09A838983848195810B9754
:1019C0000A9708F04AC64CEB51E0BE01695F7F4FB1
:1019D000CE0101960E940507892B09F03EC64CEB0B
:1019E00051E0BE01695F7F4FCE0101960E9405075D
:1019F000019709F032C6812C912C540100E010E0CF
:101A00002091C9023091CA0289819A818217930775
:101A10000CF408C61093C6020093C5028092C1025E
:101A20009092C202A092C302B092C4023092BE024F
:101A30002092BD026091C1027091C2028091C302E6
:101A40009091C40240E10E94830684E291E00E94EA
:101A500063068090C1029090C202A090C302B09031
:101A6000C402FFEF8F169F06AF06BF0609F0E8C657
:101A700082E080936A0310926E0380919C04882315
:101A800009F469C0809192040E947D078C018091C5
:101A90009D0490919E040817190759F180919404B0
:101AA0009091950408171907A9F48091A504811154
:101AB0000DC091E09093A5040E940F0960939F04CC
:101AC0007093A0048093A1049093A204A1E0A0933A
:101AD000A6040FC08091A604882359F08091A30426
:101AE0009091A40401969093A4048093A30410926F
:101AF000A6048091A504882351F10E940F09C0908B
:101B00009F04D090A004E090A104F090A204DC0116
:101B1000CB018C199D09AE09BF09C0909604D090E5
:101B20009704E0909804F09099048C159D05AE05FB
:101B3000BF0568F010929C041092A504E0919A04ED
:101B4000F0919B04309719F082E994E00995109385
:101B50009E0400939D0480918D0490918E040297C1
:101B600009F0A0C120916204309163042330310553
:101B700071F0C90105978230910548F004970297EA
:101B800030F081E02B30310519F080E001C081E0B8
:101B900090918F04992321F0811102C010928F043B
:101BA00080918B048823E9F00E940F0900917F0443
:101BB000109180042091810430918204DC01CB01DA
:101BC000801B910BA20BB30B009183041091840432
:101BD000209185043091860480179107A207B307EE
:101BE00078F480918C048823C1F02091870430918F
:101BF00088048091890490918A04281739076CF031
:101C00000E94D507E0917804F0917904309709F4A7
:101C100049C182E694E0099545C10E940F090091EF
:101C20007B0410917C0420917D0430917E04601B24
:101C3000710B820B930B40918F04411158C040915E
:101C40007A04442371F1C0906504D0906604E0905A
:101C50006704F09068046C157D058E059F0508F4F7
:101C600021C1809187049091880401969093880403
:101C70008093870410927A048091690490916A0499
:101C8000A0916B04B0916C04080F191F2A1F3B1F11
:101C900000937B0410937C0420937D0430937E0496
:101CA0003DC0C0906904D0906A04E0906B04F0904D
:101CB0006C046C157D058E059F0508F4F3C0B1E03A
:101CC000B0937A048091650490916604A0916704B2
:101CD000B0916804080F191F2A1F3B1F00937B0453
:101CE00010937C0420937D0430937E0475C0209172
:101CF00090043091910421153105E1F400916904BB
:101D000010916A0420916B0430916C046017710784
:101D10008207930718F081E090E059C08091640435
:101D2000882311F061E001C060E0809162040E94AC
:101D3000A607B8C021303105C1F5C0906D04D09020
:101D40006E04E0906F04F09070046C157D058E05B4
:101D50009F0528F0309291042092900469C00E945F
:101D6000AC184B015C01C701B6010E94AC189B0185
:101D7000AC01C501B4010E940E1B6B017C01609196
:101D8000750470E080E090E00E94AE184B015C01A9
:101D9000A7019601C701B6010E940D199B01AC0174
:101DA000C501B4010E940D1977C02230310511F52B
:101DB00000916504109166042091670430916804D5
:101DC000601771078207930738F083E090E09093E3
:101DD0009104809390042CC09091640480917504C8
:101DE000992329F06FEF70E0681B710957C0682FC5
:101DF00070E054C02330310509F054C0C090710424
:101E0000D0907204E0907304F09074046C157D051A
:101E10008E059F05C0F080918704909188040196FB
:101E200090938804809387041092910410929004F8
:101E30000E940F0960937B0470937C0480937D045F
:101E400090937E042FC00E94AC184B015C01C70127
:101E5000B6010E94AC189B01AC01C501B4010E94FF
:101E60000E1B4B015C016091750470E080E090E016
:101E70000E94AE186B017C01A5019401C501B4015B
:101E80000E940D19A70196010E940D199B01AC013A
:101E9000C701B6010E94A11A0E94801B80916204B2
:101EA0000E94320881E190E00E940604F82E89E049
:101EB00090E00E940604082F11E0811101C010E09B
:101EC0008AE090E00E9406042091B0023091B102B5
:101ED0002130310531F0A9014350510942305105FB
:101EE00088F5F11034C080918D0490918E04029792
:101EF00009F405C1002309F140926504509266047B
:101F000060926704709268044092690450926A0477
:101F100060926B0470926C0440926D0450926E0457
:101F200060926F0470927004409271045092720437
:101F30006092730470927404DFC084EF91E0A0E0BB
:101F4000B0E0CAC02230310551F4FF2019F00E94E0
:101F5000D507D5C08111FBCF0E94C008D0C0211584
:101F6000310529F4F110F3CF8111F6CFF0CF2530F0
:101F7000310509F0C4C08091AD02882309F47BC00B
:101F80008091AC028111BBC091E09093AC020E94A1
:101F9000D5070E94EA084B015C0184EFC82EDD24BE
:101FA000D394E12CF12C0E94EA08DC01CB018819C2
:101FB0009909AA09BB09883E9340A105B10598F388
:101FC000A1E0CA1AD108E108F108B8EE8B0EB3E01F
:101FD0009B1EA11CB11CC114D104E104F10419F72A
:101FE000002309F1409265045092660460926704F0
:101FF000709268044092690450926A0460926B0483
:1020000070926C0440926D0450926E0460926F0462
:102010007092700440927104509272046092730442
:102020007092740414C084EF91E0A0E0B0E080935B
:10203000650490936604A0936704B093680480934A
:10204000690490936A04A0936B04B0936C0480912C
:10205000AE029091AF028130910521F4612F81E0B1
:1020600090E006C0029709F04AC0612F82E090E03C
:102070000E94590944C080918D0490918E0402976A
:10208000F1F1002329F18EE390E0A0E0B0E080932D
:10209000650490936604A0936704B09368048093EA
:1020A000690490936A04A0936B04B0936C048093CA
:1020B0006D0490936E04A0936F04B09370048093AA
:1020C000710490937204A0937304B093740414C0C9
:1020D0008DE790E0A0E0B0E0809365049093660403
:1020E000A0936704B09368048093690490936A0492
:1020F000A0936B04B0936C04812F0E941B0988E4A9
:1021000094E00E947D048091B0029091B10200970A
:1021100011F0059711F460E001C061E084E00E94D5
:10212000A60785E594E00E947D048DEC92E00E9474
:10213000EC00892B09F412C18DEC92E00E94CA00D8
:10214000682F8132B9F481E090E09093B3028093DC
:10215000B20240E050E066E271E082E494E00E9466
:10216000460240E050E066E271E08CE394E00E94B9
:102170004602F4C08C3729F43092B3022092B202A6
:10218000EDC08F3309F0C6C01092B3021092B202B4
:1021900066E471E0CE0101960E94870240914604F8
:1021A000509147046091420470914304CE0101961E
:1021B0000E940602811104C0CE0101960E943402E1
:1021C000CE0101960E94F00689819A810E944E1CE0
:1021D00063E571E0CE0101960E94870240914004C0
:1021E0005091410460913C0470913D04CE010196F0
:1021F0000E940602811104C0CE0101960E943402A1
:10220000CE0101960E94F00689819A810E944E1C9F
:1022100080E691E00E94C406882329F00E94E4062B
:1022200081E190E02BC085E691E00E94C4068823FE
:10223000D9F00E94E4066F3F710519F014F06FEFBA
:1022400070E08B0177FF02C000E010E0602F88E0B3
:1022500090E00E94F20361E080E190E00E94F203CE
:10226000802F0E9491087AC08AE691E00E94C406FD
:10227000882339F00E94E40689E090E00E94F2038E
:102280006DC08FE691E00E94C406882329F00E9469
:10229000E4068AE090E0F2CF84E791E00E94C40671
:1022A000882339F03092AB022092AA020E94D70410
:1022B00055C088E791E00E94C406882349F00E9437
:1022C000E406AB01BC018BE090E00E94500446C0E4
:1022D0008CE791E00E94C406882329F00E94E4065E
:1022E0008FE090E0CBCF80E891E00E94C406882385
:1022F000A9F184E891E00E9463068EE091E00E94DB
:10230000750687E891E00E94630686E091E00E94EE
:10231000750624C08091B2029091B302813091057C
:1023200059F4CE0101960E9467024D815E81698158
:102330007A8182E494E00CC0029781F4CE01019688
:102340000E9467024D815E8169817A818CE394E00D
:102350000E94060289819A810E944E1C0E9493016C
:102360004BC98091750390917603825491098E97A1
:1023700008F04CCA80E090E040E050E0BA01FC0177
:10238000E958FC4F2081318129503109293031052C
:10239000C8F03CCA80917703909178030997099718
:1023A00008F02FCA1092C6021092C5028FEF9FEF5D
:1023B000DC018093C1029093C202A093C302B09348
:1023C000C40271C5FC01E758FC4F208131812751BF
:1023D000310922313105C0F4440F551F661F771FA4
:1023E000416004968038910551F680E290E0909328
:1023F000C6028093C5024093C1025093C20260930B
:10240000C3027093C4024FC5208131812650310927
:102410002730310508F0FAC9440F551F661F771F92
:10242000E0CF20813181235131092F30310548F42B
:10243000CC0CDD1CEE1CFF1C6894C0F80296349690
:1024400010CA208131812A5031092930310508F024
:1024500042CACC0CDD1CEE1CFF1CF0CF8091750332
:1024600090917603C697869708F049CAE9E7F3E0AA
:1024700083E090E0C12CD12C7601AC014F5F5F4F1F
:1024800020916E0330E04217530754F4DF01129796
:102490002D913C912C5031092B30310580F0CA012F
:1024A0000197959587959093C6028093C5020C97E6
:1024B0000CF005CA1092C6021092C50220CA2081F3
:1024C0003181255231092B31310548F4CC0CDD1C0A
:1024D000EE1CFF1C6894C0F802963496CECF208183
:1024E00031812C5031092A30310508F008CACC0C52
:1024F000DD1CEE1CFF1CF0CFDF0112974D915C91AB
:1025000011974E51510947315105D8F4CC0CDD1CBF
:10251000EE1CFF1C6894C0F84081518134964350F2
:10252000510945305105D0F0C90105CAC092C10218
:10253000D092C202E092C302F092C4028CE090E01A
:10254000B4C44D915C914C5051094B30510508F089
:1025500000CACC0CDD1CEE1CFF1CDECF0296E1C9CC
:1025600049E753E0BE01695F7F4FCE0101960E94AB
:102570000507019709F003CA49E753E0BE01695F07
:102580007F4FCE0101960E940507892B09F0F7C9FC
:10259000812C912C540100E010E080916E0390E0BA
:1025A00029813A812817390774F549E753E0BE01BC
:1025B000695F7F4FCE0101960E9405077C0149E7C4
:1025C00053E0BE01695F7F4FCE0101960E9405076F
:1025D000B1E0EB16F10451F4892B09F0D0C9880C55
:1025E000991CAA1CBB1C689480F80AC0EF2809F04B
:1025F000C6C9019709F0C3C9880C991CAA1CBB1C49
:102600000F5F1F4FCACF1093C6020093C50280927E
:10261000C1029092C202A092C302B092C40281E0B1
:1026200090E043C44CEB51E0BE01695F7F4FCE01A7
:1026300001960E9405077C010330110509F0CAC00C
:102640004CEB51E0BE01695F7F4FCE0101960E94C5
:102650000507E816F90609F4BDC0E091C702F0913C
:10266000C80282819381C6978697E0F48481958120
:102670004B974597B8F4DF0116967F0126ECE20EE2
:10268000F11C20E030E040E050E060E070E080E0ED
:1026900090E00D911C911197095011090830110516
:1026A00008F425C180916E038933E8F0828193811B
:1026B0008957910983359105B0F484819581CA9732
:1026C000899788F49F012A5F3F4FC12CD12C760156
:1026D00043E050E0D9016D917C916A5071096930F5
:1026E000710508F440C180916E03823231F4828119
:1026F00093810A97099708F483C18281938189574E
:10270000910983359105D0F480916E038132B0F048
:1027100084819581CA97899788F49F012A5F3F4FEA
:10272000C12CD12C760143E050E0D9016D917C9110
:102730006A5071096930710508F481C18281938101
:102740008C549109C59778F480916E03843031F4EC
:10275000848195818097479708F4D4C180916E0356
:10276000843408F0B6C180916E03863428F18281EA
:1027700093810C970B9700F58481958109970997B0
:10278000D8F4868197818C974F97B0F48085918596
:1027900089974D9788F49F01265F3F4FC12CD12C1C
:1027A000760145E050E0D9016D917C916C50710942
:1027B0006B30710508F4F5C180916E03883508F41B
:1027C00091C282819381855891098B35910508F4D6
:1027D00031C288C24CEB51E0BE01695F7F4FCE0130
:1027E00001960E9405076C010330110569F44CEB5A
:1027F00051E0BE01695F7F4FCE0101960E9405073F
:10280000C816D90609F029CFE114F10459F4CA9485
:10281000CD2809F022CF880C991CAA1CBB1C6894F7
:1028200080F80BC0EA94EF2809F017CFCD2809F003
:1028300014CF880C991CAA1CBB1C0F5F1F4FE0C84B
:102840000091B0021091B1020530110571F160E004
:1028500070E0CB010E9408046B017C0164E070E031
:1028600080E090E00E9408048C149D04AE04BF0434
:1028700071F40115110559F481E090E09093B102D3
:102880008093B00287E291E00E947506F1C8861637
:102890009706A806B90609F0EBC80230110509F041
:1028A000E7C880E00E943505E3C88091AE029091B0
:1028B000AF028130910571F4B501A40180E090E090
:1028C0000E94500421E02093AD0285E594E00E942F
:1028D000C704CEC8029709F0CBC8B501A40184E0B3
:1028E00090E00E94500481E08093AD02C1C812962E
:1028F0000D911C911397015111090D30110528F507
:1029000001E00E94641A21601496AE15BF0509F01B
:10291000C0CE2093C1023093C2024093C3025093B1
:10292000C40200E20E947F1A2093BF023093C002CB
:1029300085E090E09093BE028093BD0280E390E03A
:102940009093C6028093C50275C812960D911C9192
:102950001397045011090530110508F0A3CE01E0CA
:102960000E94641AD1CFD90112966D917C91139770
:10297000665171096131710598F5D701C601880F5B
:10298000991FAA1FBB1F6C017D016894C0F84E5FA0
:102990005F4F2C5F3F4F4B33510509F09BCE9F019A
:1029A0002A583F4FD9012D913C912A5031092930A5
:1029B000310508F098CE2CE130E03093C602209328
:1029C000C502C092C102D092C202E092C302F0924C
:1029D000C402EAE0F0E0F093BE02E093BD022AC830
:1029E000D90112966D917C911397665071096730E9
:1029F000710508F078CECC0CDD1CEE1CFF1CC7CF97
:102A000020916E03CF01820F911D820F911DDC0179
:102A100012978D919C910A97099708F06ECE1092AB
:102A2000C6021092C5028FEF9FEFDC018093C102B6
:102A30009093C202A093C302B093C40247C0D901CD
:102A400012966D917C9113976651710961317105F0
:102A500068F5D701C601880F991FAA1FBB1F6C011B
:102A60007D016894C0F84E5F5F4F2C5F3F4F43324B
:102A7000510509F05ACE9F012A5B3F4FD9012D9194
:102A80003C912A5031092930310508F057CE20E118
:102A900030E03093C6022093C502C092C102D092AA
:102AA000C202E092C302F092C40210C0D901129691
:102AB0006D917C911397665071096730710508F02C
:102AC0003DCECC0CDD1CEE1CFF1CCDCF86E090E093
:102AD000ECC18481958189549109C39708F043CE54
:102AE0009F012A5F3F4FBF016A577F4FC12CD12CF6
:102AF0007601D9014D915C914950510949305105F8
:102B0000B8F031CE868197810997099708F026CED3
:102B10001092C6021092C5028FEF9FEFDC018093E6
:102B2000C1029093C202A093C302B093C40227C013
:102B3000D90112964D915C9113974651510941313B
:102B4000510500F5D701C601880F991FAA1FBB1FA9
:102B50006C017D016894C0F82C5F3F4F2617370742
:102B600041F620E230E03093C6022093C502C092C5
:102B7000C102D092C202E092C302F092C40287E086
:102B800090E093C112964D915C9113974650510974
:102B90004730510508F0E7CDCC0CDD1CEE1CFF1CC6
:102BA000DBCFD90112966D917C9113976E5171090B
:102BB0006731710578F5D701C601880F991FAA1FE3
:102BC000BB1F6C017D016894C0F84E5F5F4F2C5FA6
:102BD0003F4F4534510509F0E6CD9F0126573F4F41
:102BE000D9012D913C912C5031092B30310508F041
:102BF000E3CD20E230E03093C6022093C502C092BC
:102C0000C102D092C202E092C302F092C40288E0F4
:102C100090E04BC1D90112966D917C911397695048
:102C200071096930710508F0C7CDCC0CDD1CEE1CB4
:102C3000FF1CCBCF84819581825491098E9708F037
:102C400051C08F01045C1F4F8DE190E020E030E027
:102C500040916E0350E04450510984179507ACF43D
:102C6000A80142505109DA014D915C914950510936
:102C70004830510510F136C0D8014D915C91485152
:102C800051094231510558F1CB010197959587952E
:102C90009093C6028093C5028A9724F1C901330F2D
:102CA000AA0BBB0B8093C1029093C202A093C302F4
:102CB000B093C402E9E0F0E08ECEBC016F5F7F4FBD
:102CC000D8014D915C914750510947305105A0F60C
:102CD000220F331F216002960C5F1F4FB9CF220FC6
:102CE000331FF9CF80916E038032E1F482819381AA
:102CF00006970697B8F4848195810997099790F40F
:102D00009F012A5F3F4FBF01625C7F4FC12CD12CD6
:102D10007601D9014D915C914650510946305105DB
:102D200008F486C08091C9029091CA029C878B8763
:102D3000069714F40C94380DDF011296BA87A98710
:102D400025ECC22E2DE9D22E2CE1E22E21E8F22E26
:102D500003E010E0E985FA8564817581A080B18087
:102D600080E090E00E94AC186D877E878F87988BFB
:102D7000B50180E090E00E94AC184B015C012DECA5
:102D80003CEC4CE45FE30E940D199B01AC016D85A6
:102D90007E858F8598890E94A71887FD19C02DEC24
:102DA0003CEC4CE45FE36D857E858F8598890E94BD
:102DB0000D199B01AC01C501B4010E94A718E82FB1
:102DC000880FFF0BEE27FF0FEE1FFF27319602C083
:102DD000E0E0F0E0A701960163E971E080E091E0B6
:102DE0000E94321A6F01FF0FEE08FF08C626D72691
:102DF000E826F9260F5F1F4F89859A8502969A87E4
:102E00008987AB85BC850A171B0709F0A3CFC09241
:102E1000C102D092C202E092C302F092C40280E2E8
:102E200090E09093C6028093C502EFEFFFEFD3CD01
:102E3000D90112964D915C91139749515109433133
:102E4000510508F5D701C601880F991FAA1FBB1F9E
:102E50006C017D016894C0F82C5F3F4F261737073F
:102E600009F057CF2EE030E03093C6022093C50220
:102E7000C092C102D092C202E092C302F092C40298
:102E80008FE090E012C0D90112964D915C9113979A
:102E9000495051094930510508F044CFCC0CDD1C94
:102EA000EE1CFF1CD9CF83E090E09093BE0280938C
:102EB000BD020C941A0D80913C0490913D040E9437
:102EC0004E1C80914204909143040C944E1CCF926E
:102ED000DF92EF92FF92CF93DF93EDECF2E013825B
:102EE000128288EEC82E83E0D82EE12CF12CC48209
:102EF000D582E682F78286E191E09183808385EC3A
:102F000090E09587848784EC90E09787868780ECB3
:102F100090E0918B808B81EC90E0938B828B82ECA4
:102F200090E0958B848B86EC90E0978B868B118E4E
:102F3000128E138E148EC8EAD4E08CE090E0998350
:102F4000888381E08A8382E390E0A0E0B0E08B8315
:102F50009C83AD83BE8388E893E1A0E0B0E08F83DB
:102F60009887A987BA871C861B861E861D86188AA5
:102F70001F861A8A198A62E08CE00E94F60781E0B7
:102F800090E09C8B8B8B9A8F898F1D8A1E8A1F8A5B
:102F9000188E1B8E1C8E1D8E1E8E1F8E18A21AA2BE
:102FA00019A2EAE6F3E027E021831382C2E9D4E024
:102FB00025E030E0398328839B838A83CC82DD82BD
:102FC000EE82FF821986188662E085E00E94F6078D
:102FD0001A8685E00E947D079C878B871D861E864A
:102FE0001F86188A1A8A198A1B8A1C8AE2E6F4E06C
:102FF00086E090E091838083128284EF91E0A0E0EC
:10300000B0E083839483A583B68387839087A18769
:10301000B28713861486158616861786108A118A3B
:10302000128A8FEF838B158A148A178A168A108E5C
:10303000118E128E138E148E158E168E178E10A270
:1030400011A212A213A214A216A215A210A617A2D0
:1030500011A612A614A613A615A617A616A661E019
:1030600086E00E94F60760E086E00E94A607E5E59C
:10307000F4E088E99AE3A0E0B0E080839183A28342
:10308000B3831482168215821782108611861286E7
:1030900014861386E8E4F4E0C082D182E282F382EF
:1030A0001482168215821782108611861286148663
:1030B000138666E271E082E494E00E94870266E291
:1030C00071E08CE394E0DF91CF91FF90EF90DF907F
:1030D000CF900C9487021F93FC0199278827BC018D
:1030E000E89411911032E9F3193010F01E30C8F352
:1030F0001B3251F01D3249F4689406C00E949218A8
:10310000610F711D811D911D119110531A30B0F383
:103110003EF490958095709561957F4F8F4F9F4FAE
:103120001F910895592F482F372F262F660F771F8D
:10313000881F991F660F771F881F991F620F731FC3
:10314000841F951F660F771F881F991F08950E947F
:10315000E91808F481E00895E89409C097FB3EF46B
:1031600090958095709561957F4F8F4F9F4F9923D4
:10317000A9F0F92F96E9BB279395F6958795779552
:103180006795B795F111F8CFFAF4BB0F11F460FF12
:103190001BC06F5F7F4F8F4F9F4F16C0882311F06A
:1031A00096E911C0772321F09EE8872F762F05C07E
:1031B000662371F096E8862F70E060E02AF09A9519
:1031C000660F771F881FDAF7880F9695879597F90E
:1031D0000895990F0008550FAA0BE0E8FEEF1616A8
:1031E0001706E807F907C0F012161306E407F507FB
:1031F00098F0621B730B840B950B39F40A2661F06F
:10320000232B242B252B21F408950A2609F4A14011
:10321000A6958FEF811D811D08950E9420190C94A1
:1032200091190E94831938F00E948A1920F0952381
:1032300011F00C947A190C94801911240C94C5196E
:103240000E94A21970F3959FC1F3950F50E0551F8E
:10325000629FF001729FBB27F00DB11D639FAA27EB
:10326000F00DB11DAA1F649F6627B00DA11D661F3A
:10327000829F2227B00DA11D621F739FB00DA11D5B
:10328000621F839FA00D611D221F749F3327A00D15
:10329000611D231F849F600D211D822F762F6A2FB1
:1032A00011249F5750409AF0F1F088234AF0EE0F16
:1032B000FF1FBB1F661F771F881F91505040A9F743
:1032C0009E3F510580F00C947A190C94C5195F3F0C
:1032D000E4F3983ED4F3869577956795B795F7957F
:1032E000E7959F5FC1F7FE2B880F911D96958795F7
:1032F00097F9089597F99F6780E870E060E0089576
:103300009FEF80EC089500240A94161617061806FD
:103310000906089500240A941216130614060506D9
:103320000895092E0394000C11F4882352F0BB0F6A
:1033300040F4BF2B11F460FF04C06F5F7F4F8F4FCD
:103340009F4F089557FD9058440F551F59F05F3F08
:1033500071F04795880F97FB991F61F09F3F79F0B7
:1033600087950895121613061406551FF2CF469539
:10337000F1DF08C0161617061806991FF1CF8695BB
:103380007105610508940895E894BB27662777279F
:10339000CB0197F90895F999FECF92BD81BDF89AB6
:1033A000992780B50895262FF999FECF1FBA92BDAF
:1033B00081BD20BD0FB6F894FA9AF99A0FBE019616
:1033C00008950E94231AA59F900DB49F900DA49F6D
:1033D000800D911D112408952F923F924F925F927C
:1033E0006F927F928F929F92AF92BF92CF92DF9215
:1033F000EF92FF920F931F93CF93DF93CDB7DEB77A
:10340000CA1BDB0B0FB6F894DEBF0FBECDBF09940D
:103410002A88398848885F846E847D848C849B8464
:10342000AA84B984C884DF80EE80FD800C811B8172
:10343000AA81B981CE0FD11D0FB6F894DEBF0FBEA1
:10344000CDBFED010895A29FB001B39FC001A39F1E
:10345000700D811D1124911DB29F700D811D1124CD
:10346000911D0895DB018F939F930E94E119BF91F5
:10347000AF91A29F800D911DA39F900DB29F900DC3
:1034800011240895A1E21A2EAA1BBB1BFD010DC039
:10349000AA1FBB1FEE1FFF1FA217B307E407F50704
:1034A00020F0A21BB30BE40BF50B661F771F881FE0
:1034B000991F1A9469F760957095809590959B0176
:1034C000AC01BD01CF0108950F93083090F0982F03
:1034D000872F762F652F542F432F322F2227085006
:1034E000F4CF220F331F441F551F661F771F881FFD
:1034F000991F0A95B2F70F91089597FB10F816944B
:1035000000080F93083098F00850232F342F452FD0
:10351000562F672F782F892F902DF4CF05949795EC
:1035200087957795679557954795379527950A9588
:10353000AAF70F910895EE0FFF1F0590F491E02D6B
:1035400009945058BB27AA270E94B91A0C949119C4
:103550000E94831938F00E948A1920F039F49F3FA5
:1035600019F426F40C9480190EF4E095E7FB0C9402
:103570007A19E92F0E94A21958F3BA176207730744
:103580008407950720F079F4A6F50C94C4190EF47D
:10359000E0950B2EBA2FA02D0B01B90190010C0163
:1035A000CA01A0011124FF27591B99F0593F50F47B
:1035B000503E68F11A16F040A22F232F342F4427D3
:1035C000585FF3CF469537952795A795F0405395CB
:1035D000C9F77EF41F16BA0B620B730B840BBAF09B
:1035E0009150A1F0FF0FBB1F661F771F881FC2F706
:1035F0000EC0BA0F621F731F841F48F4879577951A
:103600006795B795F7959E3F08F0B0CF9395880FD3
:1036100008F09927EE0F9795879508950E94221B31
:103620000C9491190E948A1958F00E94831940F055
:1036300029F45F3F29F00C947A1951110C94C519A3
:103640000C9480190E94A21968F39923B1F35523B1
:1036500091F3951B550BBB27AA27621773078407A5
:1036600038F09F5F5F4F220F331F441FAA1FA9F33B
:1036700035D00E2E3AF0E0E832D091505040E69529
:10368000001CCAF72BD0FE2F29D0660F771F881F8A
:10369000BB1F261737074807AB07B0E809F0BB0B7D
:1036A000802DBF01FF2793585F4F3AF09E3F510591
:1036B00078F00C947A190C94C5195F3FE4F3983EA6
:1036C000D4F3869577956795B795F7959F5FC9F77A
:1036D000880F911D9695879597F90895E1E0660FFB
:1036E000771F881FBB1F621773078407BA0720F074
:1036F000621B730B840BBA0BEE1F88F7E0950895DD
:103700000E94871B6894B1110C94C51908950E94FA
:10371000AA1988F09F5798F0B92F9927B751B0F0A0
:10372000E1F0660F771F881F991F1AF0BA95C9F745
:1037300014C0B13091F00E94C419B1E008950C9406
:10374000C419672F782F8827B85F39F0B93FCCF3B9
:10375000869577956795B395D9F73EF490958095C2
:10376000709561957F4F8F4F9F4F08950F931F93D3
:10377000CF93DF938230910510F482E090E0E091E6
:10378000CE04F091CF0420E030E0A0E0B0E030972C
:1037900019F1408151810281138148175907C8F0FE
:1037A0008417950769F4109731F012960C931297CD
:1037B00013961C9327C00093CE041093CF0422C00D
:1037C0002115310519F04217530718F49A01BD016C
:1037D000EF01DF01F801DBCF21153105F9F0281BDE
:1037E000390B2430310580F48A819B816115710584
:1037F00021F0FB019383828304C09093CF048093D4
:10380000CE04FE01329644C0FE01E20FF31F819305
:10381000919322503109398328833AC02091CC04F6
:103820003091CD04232B41F420910201309103010A
:103830003093CD042093CC042091000130910101FC
:103840002115310541F42DB73EB740910401509147
:103850000501241B350BE091CC04F091CD04E21757
:10386000F307A0F42E1B3F0B2817390778F0AC01A3
:103870004E5F5F4F2417350748F04E0F5F1F509380
:10388000CD044093CC048193919302C0E0E0F0E03A
:10389000CF01DF91CF911F910F910895CF93DF93C7
:1038A000009709F481C0FC01329713821282A09123
:1038B000CE04B091CF04109781F420813181820F22
:1038C000931F2091CC043091CD042817390751F56E
:1038D000F093CD04E093CC0467C0ED0120E030E02C
:1038E000CE17DF0740F44A815B819E0141155105E7
:1038F000F1F0EA01F5CFD383C28340815181840F77
:10390000951FC817D90759F488819981840F951F8D
:103910000296918380838A819B8193838283211580
:10392000310529F4F093CF04E093CE043DC0E901C2
:10393000FB83EA8349915991C40FD51FEC17FD070A
:1039400061F480819181840F951F0296E90199832A
:103950008883828193819B838A83E0E0F0E01296E2
:103960008D919C911397009719F0FD01DC01F7CF21
:103970008D919C9111979D012E5F3F4F820F931F58
:103980002091CC043091CD042817390769F4309781
:1039900029F41092CF041092CE0402C01382128236
:1039A000B093CD04A093CC04DF91CF910895A0E013
:1039B000B0E0EDEDFCE10C94F019EC01009721F47E
:1039C000CB010E94B61BB4C0FC01E60FF71F9C019F
:1039D00022503109E217F30708F4A8C0D9010D916C
:1039E0001C91119706171707B0F00530110508F460
:1039F0009BC0C80104978617970708F495C002502A
:103A00001109061B170B019311936D937C93CF0142
:103A10000E944E1C89C05B01A01AB10A4C01800EA5
:103A2000911EA091CE04B091CF04612C712CE12C99
:103A3000F12C109709F446C08D919C911197A8150F
:103A4000B905B1F56C0142E0C40ED11CCA14DB0407
:103A500078F14C018A189B08640142E0C40ED11C25
:103A60001296BC9012971396AC91B5E0CB16D10488
:103A700040F0B282A38391828082D9016D937C93BE
:103A800009C00E5F1F4F800F911FF9019183808342
:103A9000EB2DFA2FE114F10431F0D7011396FC93CA
:103AA000EE93129741C0F093CF04E093CE043CC054
:103AB0006816790608F43C017D0112960D90BC91C0
:103AC000A02DB7CF8091CC049091CD048816990693
:103AD000E1F466167706C8F4809100019091010127
:103AE000009741F48DB79EB74091040150910501B4
:103AF000841B950BE817F907C8F4F093CD04E09305
:103B0000CC04F901718360830FC0CB010E94B61B06
:103B10007C01009759F0A801BE010E94A21DCE01B0
:103B20000E944E1CC70104C0CE0102C080E090E09C
:103B3000CDB7DEB7EEE00C940C1A81E090E0F8947B
:103B40000C94BB1DFB01DC0102C001900D924150A1
:103B50005040D8F70895FB01DC018D910190801948
:103B60000110D9F3990B0895FB01DC0101900D922E
:103B70000020E1F7089510E0C2E6D0E004C0FE01A5
:103B80000E949B1A2196C336D107C9F7F894FFCF3C
:103B90000000D004800031392E302E323700302E14
:103BA00031000000000024018D00BB007101EC0019
:103BB000CA00DE000D0A00737461746520636861D9
:103BC0006E67656420746F2053544154455F424FC3
:103BD0004F54494E470053657269616C20636D64B0
:103BE0003A200053657269616C2076616C3A20005E
:103BF0004C45444F004C454442004C454454004C15
:103C000045445300524543004C5054004C50410031
:103C1000564552004E3D00423D007374617465206C
:103C20006368616E67656420746F20535441544526
:103C30005F4F4646007374617465206368616E6708
:103C4000656420746F2053544154455F4F4E00709B
:103C5000726F675374617465206368616E67656431
:103C600020746F2050524F475F53544154455F4E6C
:103C70004F4E450070726F675374617465206368BE
:103C8000616E67656420746F2050524F475F5354D4
:103C90004154455F434F44455F4F4646007374614E
:103CA0007465206368616E67656420746F20535487
:103CB0004154455F50524F4752414D4D494E470088
:103CC00070726F675374617465206368616E6765B5
:103CD0006420746F2050524F475F53544154455FE6
:103CE000434F44455F4F4E007374617465206368B1
:103CF000616E67656420746F2053544154455F5270
:103D000045424F4F54007374617465206368616E5F
:103D100067656420746F2053544154455F53485580
:103D200054444F574E0070756C7365733A20006EA3
:0A3D30006F2070756C73657300005E
:00000001FF
