:100000000C941A010C9442010C9442010C9442018C
:100010000C9442010C9442010C9442010C94BA02DB
:100020000C9442010C9442010C9442010C94420144
:100030000C9442010C9442010C9442010C94420134
:100040000C94C1090C9442010C94A4010C947E01FF
:100050000C9442010C9442010C9442010C94420114
:100060000C9442010C944201505752004C504100F4
:100070004C505400524543004C4246004C424E0006
:100080004C504C004C54500053657269616C2076A2
:10009000616C3A200053657269616C20636D643A4B
:1000A00020007374617465206368616E6765642005
:1000B000746F2053544154455F424F4F54494E474B
:1000C000007374617465206368616E676564207491
:1000D0006F2053544154455F53485554444F574E35
:1000E000007374617465206368616E676564207471
:1000F0006F2053544154455F5245424F4F54007056
:10010000726F675374617465206368616E676564BC
:1001100020746F2050524F475F53544154455F4302
:100120004F44455F4F4E0070726F67537461746542
:10013000206368616E67656420746F2050524F477A
:100140005F53544154455F4E4F4E45007374617484
:1001500065206368616E67656420746F2053544145
:1001600054455F4F46460070726F67537461746503
:10017000206368616E67656420746F2050524F473A
:100180005F53544154455F434F44455F4F464600DB
:100190007374617465206368616E67656420746F51
:1001A0002053544154455F4F464600737461746553
:1001B000206368616E67656420746F2053544154F6
:1001C000455F4F4E006E6F2070756C7365730070E5
:1001D000756C7365733A200000000000240027004E
:1001E0002A0000000000250028002B00000000006D
:1001F0002300260029000404040404040404020269
:100200000202020203030303030301020408102095
:1002100040800102040810200102040810200000A0
:1002200000080002010000030407000000000000B5
:100230000000911011241FBECFEFD8E0DEBFCDBF6C
:1002400011E0A0E0B1E0EAEAF9E202C005900D9207
:10025000A631B107D9F723E0A6E1B1E001C01D92B4
:10026000AE35B207E1F711E0CAE1D1E004C0219751
:10027000FE010E948012C931D107C9F70E940B0A02
:100280000C94D3140C940000CF92DF92EF92FF9263
:100290000F931F93CF93DF936C017A018B01C0E022
:1002A000D0E0CE15DF0581F0D8016D918D01D6012A
:1002B000ED91FC910190F081E02DC6010995892B0B
:1002C00011F02196EECF7E01C701DF91CF911F91F2
:1002D0000F91FF90EF90DF90CF900895089580E008
:1002E00090E0089580E491E00E94070221E0892BCC
:1002F00009F420E0822F08950E94CE141F920F92DD
:100300000FB60F9211242F933F934F935F936F93E8
:100310007F938F939F93AF93BF93EF93FF9380E46B
:1003200091E00E942902FF91EF91BF91AF919F91BF
:100330008F917F916F915F914F913F912F910F908E
:100340000FBE0F901F9018951F920F920FB60F922D
:1003500011242F938F939F93EF93FF93E09150017C
:10036000F09151018081E0915601F091570182FD99
:1003700012C09081809159018F5F8F7320915A0133
:10038000821751F0E0915901F0E0E05CFE4F958F4B
:100390008093590101C08081FF91EF919F918F91CE
:1003A0002F910F900FBE0F901F901895FC01538D49
:1003B000448D252F30E0842F90E0821B930B54173F
:1003C00010F0CF96089501970895FC01918D828DCC
:1003D000981761F0828DDF01A80FB11D5D968C9199
:1003E000928D9F5F9F73928F90E008958FEF9FEFA4
:1003F0000895FC01918D828D981731F0828DE80F60
:10040000F11D858D90E008958FEF9FEF0895FC0119
:10041000918D228D892F90E0805C9F4F821B9109E6
:100420008F739927089580E090E0892B29F00E942E
:10043000720181110C940000089560E08DE00C942D
:10044000190861E089E00C94190860E089E00C94D7
:100450001908FC01848DDF01A80FB11DA35ABF4FFD
:100460002C91848D90E001968F739927848FA689B3
:10047000B7892C93A089B1898C91837080648C9307
:10048000938D848D981306C00288F389E02D8081B6
:100490008F7D80830895EF92FF920F931F93CF93E8
:1004A000DF93EC0181E0888F9B8D8C8D981305C0C4
:1004B000E889F989808185FD26C0F62E0B8D10E034
:1004C0000F5F1F4F0F731127E02E8C8DE8120CC0A9
:1004D0000FB607FCFACFE889F989808185FFF5CF4F
:1004E000CE010E942902F1CF8B8DFE01E80FF11D94
:1004F000E35AFF4FF0829FB7F8940B8FEA89FB898C
:10050000808180620AC09FB7F894EE89FF8960837A
:10051000E889F98980818370806480839FBF81E04E
:1005200090E0DF91CF911F910F91FF90EF90089590
:10053000CF93DF93EC01888D8823C9F0EA89FB898A
:10054000808185FD05C0A889B9898C9186FD0FC081
:100550000FB607FCF5CF808185FFF2CFA889B98956
:100560008C9185FFEDCFCE010E942902E7CFDF916C
:10057000CF9108951F920F920FB60F9211242F93CF
:100580003F934F935F936F937F938F939F93AF931B
:10059000BF93EF93FF938091DE010E94D7072091D4
:1005A000E2013091E3012F5F3F4F3093E30120934D
:1005B000E2019091E101953618F096E09093DD010B
:1005C0009091DD019430C9F128F4923069F09330B4
:1005D000D1F05EC0953009F451C0963009F058C092
:1005E00091E09093AE0251C0811152C02091E2017E
:1005F0003091E3012436310508F442C01092AE0276
:100600001092E1011CC0813009F042C0E091E1018B
:1006100091E09E0F9093E101F0E02091E201309192
:10062000E301EE0FFF1FE352FE4F30872783109246
:10063000E3011092E20194E029C0811117C0E0911A
:10064000E10191E09E0F9093E101F0E02091E20141
:100650003091E301EE0FFF1FE352FE4F30872783F7
:100660001092E3011092E20193E010C02091E201A8
:100670003091E3012536310558F007C0811108C0DB
:100680001092E3011092E20103C095E09093DD0126
:100690009091E0019923B9F081110AC08091DF01A6
:1006A000882321F08091DF0161E009C02D9A0BC001
:1006B0008091DF01882331F08091DF0160E00E94AA
:1006C000190801C02D98FF91EF91BF91AF919F91B3
:1006D0008F917F916F915F914F913F912F910F90EB
:1006E0000FBE0F901F9018951F93CF93DF93EC01CF
:1006F000162F0E942D12181739F0612FCE01DF91AD
:10070000CF911F910C943512DF91CF911F910895D5
:100710000C9435120C942D1210921B0110921A0198
:1007200089E090E00E948A030E940B0787E291E033
:100730000E949107109217011092C8021092C702EE
:1007400008950E949F07109216011092170189E0E8
:1007500090E00E948A030E940B0780911A019091F9
:100760001B018130910551F482E090E090931B01D0
:1007700080931A0187E691E00C949107029711F497
:100780000C948C0308950C948C0380911801909123
:100790001901019789F181E090E09093190180930C
:1007A000180189E090E00E948A030E940B0782EA08
:1007B00090E00E9491071092FC021092FB021092AE
:1007C0000C0381E0809303038091F9020E94D70714
:1007D000909305038093040310920603109207037D
:1007E000109208031092090310920B0310920A034F
:1007F00010920C0310920D030895CF92DF92EF92A6
:10080000FF920F931F93CF936B017C01CB010E944A
:100810008A03C82FC60101960E948A03182FC601B9
:1008200002960E948A03082FC60103960E948A033B
:10083000412F50E060E070E0762F652F542F442761
:100840004C0F511D611D711D10E020E030E098013A
:1008500011270027400F511F621F731F90E0A0E077
:10086000B0E0B82FAA27992788278A019B01080F93
:10087000191F2A1F3B1FC901B801CF911F910F916A
:10088000FF90EF90DF90CF900895CF92DF92EF929C
:10089000FF92CF93DF93EC016A017B01642F0E94EA
:1008A00074039927F7FC9A958F2D7E2D6D2DCE011F
:1008B00001960E947403B701992777FD9095892FBF
:1008C000CE0102960E9474036F2D772788279927FF
:1008D000CE010396DF91CF91FF90EF90DF90CF9004
:1008E0000C947403CF92DF92EF92FF920F931F93B9
:1008F000CF93DF93FC0123853485232BA1F1EC01F9
:100900000E94B5090F81188529853A85C880D9804C
:10091000EA80FB80AB01BC01401B510B620B730BE7
:100920004C155D056E057F05F0F04C81411103C04B
:100930001C861B860AC0D901C8018C0D9D1DAE1DE9
:10094000BF1D8F839887A987BA87ED81FE81309775
:1009500051F0CE01DF91CF911F910F91FF90EF9059
:10096000DF90CF900994DF91CF911F910F91FF906D
:10097000EF90DF90CF900895CF93DF93EC010E942A
:10098000B5096F83788789879A8781E090E09C8793
:100990008B87DF91CF9108958FEF0E940B0781E045
:1009A00090E090931B0180931A018FEF90E00E94DA
:1009B0009107109217018CEB92E00C94BC04CF933A
:1009C00020911801309119012430310561F1C82FAF
:1009D00084E090E0909319018093180189E090E001
:1009E0000E948A030E940B0781EE90E00E9491070B
:1009F00080E090E00E940008CC23A9F061E08DE047
:100A00000E94190884EF91E0A0E0B0E08093AF026B
:100A10009093B002A093B102B093B2028FEA92E039
:100A2000CF910C94BC04CF91089580911A019091BC
:100A30001B01892B09F581E190E00E948A03209136
:100A40001801309119012230310591F4811103C050
:100A500081E00C94DF04109219011092180160E0FB
:100A600083E190E00E9488038CE491E00C9491076C
:100A7000232B21F40C94CC040C948C030895CF9375
:100A800020911801309119012330310561F1C82FEF
:100A900083E090E0909319018093180189E090E041
:100AA0000E948A030E940B0781EC90E00E9491074C
:100AB00081E090E00E940008CC23A9F061E08DE085
:100AC0000E94190884E690E0A0E0B0E08093AF02B5
:100AD0009093B002A093B102B093B2028FEA92E079
:100AE000CF910C94BC04CF9108958F929F92AF92B6
:100AF000BF92EF92FF920F931F93CF93DF93CDB7E7
:100B0000DEB7A1970FB6F894DEBF0FBECDBFFC01D4
:100B10000189128910161106F4F58FEC91E00E94FC
:100B200076079801012E000C440B550B19A27E018B
:100B3000F1E2EF0EF11C8AE0882E912CA12CB12C51
:100B4000CA01B901A50194010E945312605DF70129
:100B500062937F01211531054105510589F7CF01C8
:100B60000E94640782E191E00E946407809118016D
:100B700090911901029709F03FC00130110521F44D
:100B800080E00E943F0538C002301105A9F580E0E1
:100B90000E94DF0431C085EC91E00E94910785E05E
:100BA0000E94D707892B91F482E090E0909319017D
:100BB0008093180161E083E190E00E9488038BEA52
:100BC00091E00E94910781E090E014C085E00E94CE
:100BD000D707019789F4109219011092180160E06B
:100BE00083E190E00E94880380E991E00E949107F0
:100BF00080E090E00E940008A1960FB6F894DEBF56
:100C00000FBECDBFDF91CF911F910F91FF90EF905D
:100C1000BF90AF909F908F90089580911A0190910E
:100C20001B01009769F480911801909119010097B8
:100C300011F40C94C5030297E9F481E00C943F058C
:100C40008130910539F481E0809317018CEB92E0BB
:100C50000C94BC04029771F460E070E0CB010E9438
:100C6000FD03AB01BC0184E090E00E94450481E0FB
:100C7000809317010895CF92DF92EF92FF920F9326
:100C80001F93CF93DF93EC0188810E94D7078C01DB
:100C90008B899C890817190731F00E94B5096D8B63
:100CA0007E8B8F8B988F0E94B509CD88DE88EF8868
:100CB000F88CDC01CB018C199D09AE09BF09CB80F2
:100CC000DC80ED80FE80C816D906EA06FB0608F037
:100CD0006AC0898D9A8D08171907E9F11A8F098F53
:100CE0008A81882321F00115110521F019C00130F6
:100CF0001105B1F481E090E09AA389A3EB85FC850E
:100D0000309711F0CE0109958F8D811150C081E08F
:100D10008F8F0E94B5096B8F7C8F8D8F9E8F47C000
:100D20001AA219A2ED85FE85309711F0CE01099522
:100D30008F8D882349F088A1811106C0EF85F8893D
:100D4000309711F0CE0109951F8E18A21B8E1C8EB4
:100D50001D8E1E8E2CC00E94B509CB8CDC8CED8CB8
:100D6000FE8CDC01CB018C199D09AE09BF09CF8037
:100D7000D884E984FA84C816D906EA06FB06B8F4D2
:100D80008F8D8823A1F088A1811111C081E088A3F3
:100D900082E090E09AA389A3E989FA89309739F033
:100DA000CE01099504C08FEF9FEF9AA389A31C8BF6
:100DB0000B8BDF91CF911F910F91FF90EF90DF9000
:100DC000CF900895833081F028F4813099F08230FB
:100DD000A1F008958730A9F08830B9F08430D1F4BB
:100DE000809180008F7D03C0809180008F778093F9
:100DF0008000089584B58F7702C084B58F7D84BD4F
:100E000008958091B0008F7703C08091B0008F7DEE
:100E10008093B00008958093DC028091C902909184
:100E2000CA028330910559F09C01255031092230C6
:100E3000310528F02450310923303105B0F42091D8
:100E4000F4023091F5022130310599F43091CB0252
:100E50002091DC02332329F06FEF70E0621B7109EF
:100E600002C0622F70E00C9431092FEF2093DC0256
:100E7000E6CF08958091F4029091F502019719F15F
:100E800081E08093E10281E090E09093F50280930D
:100E9000F4029091CB028091DC02992329F06FEF4C
:100EA00070E0681B710902C0682F70E08091C90270
:100EB0000E943109E091DD02F091DE02309719F0D5
:100EC00089EC92E009940895009769F0FC01019083
:100ED0000020E9F73197AF01481B590BBC0180E4B2
:100EE00091E00C94440180E090E008950F931F93EB
:100EF000CF93DF938C01C0E0D0E0F801EC0FFD1F31
:100F00006491662341F080E491E00E944B02892BBA
:100F100011F02196F2CFCE01DF91CF911F910F9169
:100F20000895CF93DF930E947607EC0182E191E070
:100F30000E9464078C0F9D1FDF91CF9108958F92BF
:100F40009F92AF92BF92CF92DF92EF92FF920E9458
:100F500090094B015C0184EFC82EDD24D394E12C71
:100F6000F12C0E949009DC01CB0188199909AA098A
:100F7000BB09883E9340A105B10598F321E0C21A50
:100F8000D108E108F10888EE880E83E0981EA11CC4
:100F9000B11CC114D104E104F10419F7FF90EF90E2
:100FA000DF90CF90BF90AF909F908F900895CF9398
:100FB000DF93282F30E0F901E25EFD4F8491F901C3
:100FC000E65FFD4FD491F901EA50FE4FC491CC2366
:100FD00091F081110E94E206EC2FF0E0EE0FFF1F6E
:100FE000E451FE4FA591B491EC91ED2381E090E0A6
:100FF00021F480E002C080E090E0DF91CF9108957D
:10100000CF93DF93C9EFD2E09B838A831B8A81E071
:101010008A8788810E94D7079C878B871D861E86BA
:101020001F86188A1A8A198A1B8A1C8ADF91CF9117
:1010300008951F93CF93DF93282F30E0F901E25EEC
:10104000FD4F8491F901E65FFD4FD491F901EA501B
:10105000FE4FC491CC23C1F0162F81110E94E206ED
:10106000EC2FF0E0EE0FFF1FEE51FE4FA591B49173
:101070009FB7F894111104C08C91D095D82302C069
:10108000EC91DE2BDC939FBFDF91CF911F910895F0
:101090008091F4029091F502892BD1F01092E10237
:1010A0001092F5021092F4028091CB02882311F085
:1010B00061E001C060E08091C9020E941908E091DE
:1010C000DD02F091DE02309719F089EC92E009948C
:1010D0000895CF93DF93C82F1092E1020E94B509C3
:1010E0006093E2027093E3028093E4029093E5023E
:1010F0001092F2021092F302C093F6021092F802DC
:101100001092F702C091F402D091F50282E090E0D3
:101110009093F5028093F4028091CB02882311F022
:1011200061E001C060E08091C9020E941908229725
:1011300059F0E091DD02F091DE02309729F089EC60
:1011400092E0DF91CF910994DF91CF9108950F93B1
:101150001F93CF93DF938C01C62F1092E1020E9460
:10116000B5096093E2027093E3028093E4029093E6
:10117000E5021092EF021092EE021093F10200933A
:10118000F0021092F20281E08093F302C093F60223
:101190001092F8021092F702C091F402D091F50279
:1011A00082E090E09093F5028093F4028091CB026C
:1011B000882311F061E001C060E08091C9020E94C3
:1011C0001908229769F0E091DD02F091DE02309774
:1011D00039F089EC92E0DF91CF911F910F91099442
:1011E000DF91CF911F910F910895CF93DF9390E0FE
:1011F000FC01E65FFD4F2491FC01EA50FE4F849113
:10120000882361F190E0880F991FFC01E852FE4F9E
:10121000C591D491FC01EE51FE4FA591B49161119D
:1012200009C09FB7F8948881209582238883EC9128
:101230002E230BC0623061F49FB7F8948881322F5F
:10124000309583238883EC912E2B2C939FBF06C06F
:101250008FB7F894E8812E2B28838FBFDF91CF9131
:1012600008951F93CF93DF93182FEB0161E00E9445
:10127000F508209711F460E004C0CF3FD10539F4A0
:1012800061E0812FDF91CF911F910C941908E12F1C
:10129000F0E0E25EFD4FE491E330F9F048F4E13034
:1012A000B9F0E230A1F584B5806284BDC8BD34C018
:1012B000E730E9F0E83019F1E43049F58091800039
:1012C000806280938000D0938B00C0938A0024C0FA
:1012D00084B5806884BDC7BD1FC0809180008068D0
:1012E00080938000D0938900C093880015C08091BE
:1012F000B00080688093B000C093B3000DC08091AF
:10130000B00080628093B000C093B40005C0C038C4
:10131000D1050CF0B5CFAFCFDF91CF911F910895DC
:101320003FB7F89480915A0390915B03A0915C03BE
:10133000B0915D0326B5A89B05C02F3F19F001961B
:10134000A11DB11D3FBFBA2FA92F982F8827820F4B
:10135000911DA11DB11DBC01CD0142E0660F771F9B
:10136000881F991F4A95D1F708952FB7F894609177
:1013700056037091570380915803909159032FBFE2
:1013800008951F920F920FB60F9211242F933F933F
:101390008F939F93AF93BF93809156039091570380
:1013A000A0915803B09159033091550323E0230FC6
:1013B0002D3720F40196A11DB11D05C026E8230F8D
:1013C0000296A11DB11D209355038093560390935F
:1013D0005703A0935803B093590380915A039091F7
:1013E0005B03A0915C03B0915D030196A11DB11D4B
:1013F00080935A0390935B03A0935C03B0935D03C7
:10140000BF91AF919F918F913F912F910F900FBE00
:101410000F901F901895CF93DF9300D000D000D08D
:10142000CDB7DEB7789484B5826084BD84B5816021
:1014300084BD85B5826085BD85B5816085BD80919F
:101440006E00816080936E00109281008091810017
:10145000826080938100809181008160809381000F
:10146000809180008160809380008091B1008460D1
:101470008093B1008091B00081608093B000809132
:101480007A00846080937A0080917A0082608093F1
:101490007A0080917A00816080937A0080917A004E
:1014A000806880937A001092C10061E08CE090E047
:1014B0000E948803E0915001F091510182E0808305
:1014C000E0914C01F0914D011082E0914E01F091BC
:1014D0004F018FEC808310925801E0915401F091FC
:1014E000550186E08083E0915201F09153018081A3
:1014F00080618083E0915201F09153018081886086
:101500008083E0915201F091530180818068808353
:10151000E0915201F091530180818F7D808362E0E0
:1015200087E00E94F50862E085E00E94F50861E02E
:101530008DE00E94F50861E084E00E94F50861E01A
:1015400089E00E94F50860E086E00E94190860E0EA
:101550008DE00E94190860E084E00E94190861E0B3
:1015600089E00E9419086DE070E080E090E00E9440
:10157000FD037A83698388E090E00E948A038111E9
:1015800016C048E853E160E070E08DE090E00E9412
:1015900045046FEF89E090E00E94880361E088E0F5
:1015A00090E00E94880328E833E13A832983E981A7
:1015B000FA81CF01FF0FAA0BBB0B809339039093E5
:1015C0003A03A0933B03B0933C038DE096E09093E5
:1015D00042038093410385E195E090934403809317
:1015E000430385E292E090931B0380931A0381E208
:1015F00092E090931D0380931C03F89482E0809303
:10160000B0008093B10094E69093B3001092B200C2
:101610008093700078948093DD011092E1018091B5
:10162000DE0160E00E94F5088DE192E09093B50242
:101630008093B40283EC93E09093C2028093C10242
:101640008AE090E00E948A030E940B0781EA93E0FF
:101650009093E0028093DF020E943A0785E795E0CD
:10166000909302038093010380E090E00E940008C1
:1016700082E190E00E948A03882339F083E190E0C0
:101680000E948A0381110E94C5033AEF432E512C18
:10169000612C712C82E393E00E943B068FE093E083
:1016A0000E943B0624EE31E030933B0120933A0147
:1016B0008091E101082F10E010933D0100933C015F
:1016C0008091AE0290E090933F0180933E01809123
:1016D000DD01853009F0E1C0063011050CF4D8C0F9
:1016E0008AEE91E09E838D8393E0292E312C25ECA8
:1016F000C22E2DE9D22E2CE1E22E21E8F22E201668
:1017000031060CF05EC0AD81BE816D917C91119768
:10171000FD013497208131813A83298380E090E074
:101720000E94AF134B015C01A981BA81BD0180E029
:1017300090E00E94AF1369837A838B839C832DECA6
:101740003CEC4CE45FE30E9461149B01AC01C501D9
:10175000B4010E94021387FD19C02DEC3CEC4CE44F
:101760005FE3C501B4010E9461149B01AC01698172
:101770007A818B819C810E940213E82F880FFF0BD6
:10178000EE27FF0FEE1FFF27319602C0E0E0F0E0EA
:10179000A701960163E971E080E091E00E944312A5
:1017A0006F01FF0FEE08FF08C626D726E826F926A8
:1017B000BFEF2B1A3B0AED81FE813296FE83ED834B
:1017C0009ECFC0923401D0923501E0923601F09262
:1017D000370120E230E030933901209338018FEF58
:1017E0009FEF90933101809330019FEFC916D90686
:1017F000E906F90609F44CC080911A0190911B0189
:10180000009751F560E070E0CB010E94FD034B01B1
:101810005C0164E070E080E090E00E94FD038C14C5
:101820009D04AE04BF0449F42091180130911901C0
:10183000232B19F40E94C5032BC06C157D058E0562
:101840009F0531F58091180190911901029701F5DA
:1018500081E00E943F051CC08130910571F4B70101
:10186000A60180E090E00E944504A1E0A09317014A
:101870008CEB92E00E94BC040BC0029749F4B701C4
:10188000A60184E090E00E944504B1E0B093170106
:1018900082E08093DD011092E101809103038823AF
:1018A00009F46EC08091F9020E94D7079A83898358
:1018B0008091040390910503E981FA81E817F90703
:1018C00059F18091FB029091FC02E817F907A9F405
:1018D00080910C0381110DC0F1E0F0930C030E9484
:1018E000B5096093060370930703809308039093F0
:1018F000090321E020930D030FC080910D0388237D
:1019000059F080910A0390910B03019690930B0379
:1019100080930A0310920D0380910C03882351F1E8
:101920000E94B50900910603109107032091080356
:1019300030910903DC01CB01801B910BA20BB30B8F
:101940000091FD021091FE022091FF0230910003F0
:1019500080179107A207B30768F010920303109253
:101960000C03E0910103F0910203309719F089EF25
:1019700092E0099589819A819093050380930403ED
:101980008091F4029091F502029709F0A8C180912C
:10199000C9029091CA028330910581F09C012550C3
:1019A00031092230310550F02450310922303105FF
:1019B00028F021E00B9719F020E001C021E0809190
:1019C000F602882321F0211102C01092F6028091C4
:1019D000F2028823E9F00E94B5090091E602109115
:1019E000E7022091E8023091E902DC01CB01801B83
:1019F000910BA20BB30B0091EA021091EB02209124
:101A0000EC023091ED0280179107A207B30778F43A
:101A10008091F3028823C1F02091EE023091EF0211
:101A20008091F0029091F102281739076CF00E9422
:101A30004808E091DF02F091E002309709F44FC1CD
:101A400089EC92E009954BC10E94B5090091E20230
:101A50001091E3022091E4023091E502601B710BCA
:101A6000820B930B4091F602411158C04091E10264
:101A7000442371F1C090CC02D090CD02E090CE0210
:101A8000F090CF026C157D058E059F0508F427C1E7
:101A90008091EE029091EF0201969093EF02809375
:101AA000EE021092E1028091D0029091D102A091B9
:101AB000D202B091D302080F191F2A1F3B1F0093B7
:101AC000E2021093E3022093E4023093E50241C066
:101AD000C090D002D090D102E090D202F090D30218
:101AE0006C157D058E059F0508F4F9C091E0909373
:101AF000E1028091CC029091CD02A091CE02B091F2
:101B0000CF02080F191F2A1F3B1F0093E2021093F8
:101B1000E3022093E4023093E5027BC02091F702B8
:101B20003091F8022115310501F50091D002109194
:101B3000D1022091D2023091D3026017710782073F
:101B4000930738F0E1E0F0E0F093F802E093F70259
:101B50008CC08091CB02882311F061E001C060E06D
:101B60008091C9020E941908BAC021303105D1F50F
:101B7000C090D402D090D502E090D602F090D70267
:101B80006C157D058E059F0538F022E030E030931E
:101B9000F8022093F70269C00E94AF134B015C0169
:101BA000C701B6010E94AF139B01AC01C501B4018E
:101BB0000E9407136B017C016091DC0270E080E001
:101BC00090E00E94B1134B015C01A7019601C7018F
:101BD000B6010E9461149B01AC01C501B4010E94D1
:101BE000611477C02230310511F50091CC021091BB
:101BF000CD022091CE023091CF026017710782078B
:101C0000930738F083E090E09093F8028093F70216
:101C10002CC08091CB026091DC02882331F0AFEFC1
:101C2000B0E0A61BB109BD0156C070E054C023301E
:101C3000310509F054C0C090D802D090D902E0908C
:101C4000DA02F090DB026C157D058E059F05C0F071
:101C50008091EE029091EF0201969093EF028093B3
:101C6000EE021092F8021092F7020E94B5096093FA
:101C7000E2027093E3028093E4029093E5022FC0A6
:101C80000E94AF134B015C01C701B6010E94AF1364
:101C90009B01AC01C501B4010E9407134B015C011B
:101CA0006091DC0270E080E090E00E94B1136B0173
:101CB0007C01A5019401C501B4010E946114A70132
:101CC00096010E9461149B01AC01C701B6010E94FC
:101CD00095120E9479138091C9020E9431098BE00C
:101CE00090E00E948A03182F8CE090E00E948A0303
:101CF0008D83B1E0B983811101C0198280911A01ED
:101D000090911B01892B09F059C080911801909185
:101D100019018130910531F09C01235031092230A5
:101D20003105A8F5123019F40E944808E9C08091E5
:101D3000F4029091F502029709F4E2C0ED81EE23DE
:101D400009F14092CC025092CD026092CE02709284
:101D5000CF024092D0025092D1026092D202709291
:101D6000D3024092D4025092D5026092D602709271
:101D7000D7024092D8025092D9026092DA02709251
:101D8000DB02BBC084EF91E0A0E0B0E0A6C08230EF
:101D9000910529F4123041F289E090E008C0892BC6
:101DA00009F0AEC0123009F4BFCF8AE090E00E9483
:101DB0008A030E940B070E943A07A2C08091170174
:101DC000882309F457C080911601811199C091E0D0
:101DD000909316010E9448080E949F07AD81AA2394
:101DE00009F14092CC025092CD026092CE027092E4
:101DF000CF024092D0025092D1026092D2027092F1
:101E0000D3024092D4025092D5026092D6027092D0
:101E1000D7024092D8025092D9026092DA027092B0
:101E2000DB0214C084EF91E0A0E0B0E08093CC022C
:101E30009093CD02A093CE02B093CF028093D002B4
:101E40009093D102A093D202B093D30280911A0151
:101E500090911B018130910521F4698181E090E02E
:101E600006C0029709F04CC0698182E090E00E94B0
:101E7000A70846C08091F4029091F502029709F4F8
:101E80003FC09D81992329F18EE390E0A0E0B0E06E
:101E90008093CC029093CD02A093CE02B093CF0258
:101EA0008093D0029093D102A093D202B093D30238
:101EB0008093D4029093D502A093D602B093D70218
:101EC0008093D8029093D902A093DA02B093DB02F8
:101ED00014C08DE790E0A0E0B0E08093CC02909336
:101EE000CD02A093CE02B093CF028093D002909304
:101EF000D102A093D202B093D30289810E946908D3
:101F00008FEA92E00E947204809118019091190169
:101F1000892B11F460E001C061E084E00E9419089F
:101F20008CEB92E00E94720480E491E00E94070230
:101F3000892B09F4F3C080E491E00E94E5018F331E
:101F4000A9F4A1E0B0E0B0932F01A0932E0188E0A6
:101F5000E6E2F1E0DF01282F1D922A95E9F7EEE194
:101F6000F1E0DF011D928A95E9F708C08C3759F43A
:101F7000E2E0F0E0F0932F01E0932E0110921D01BA
:101F800010921C01CBC0813209F0A0C010922F0129
:101F900010922E0110921D0110921C0185E990E013
:101FA0000E94760786E291E00E94640782E191E058
:101FB0000E94640788E890E00E9476078EE191E035
:101FC0000E94640782E191E00E94640764E870E087
:101FD00086E291E00E940712892B41F48EE191E0A4
:101FE0000E94C211682F8BE090E06DC060E870E045
:101FF00086E291E00E940712892B41F48EE191E084
:102000000E94C211682F8CE090E05DC06CE770E028
:1020100086E291E00E940712892B41F48EE191E063
:102020000E94C211682F89E090E04DC068E770E01F
:1020300086E291E00E940712892B41F48EE191E043
:102040000E94C211682F8AE090E03DC064E770E012
:1020500086E291E00E940712892B19F40E94CC04B9
:102060005DC060E770E086E291E00E940712892B74
:1020700059F48EE191E00E94E011AB01BC018DE0CA
:1020800090E00E9445044AC06CE670E086E291E070
:102090000E940712892B41F48EE191E00E94C21147
:1020A000682F81E190E00FC068E670E086E291E081
:1020B0000E940712892B91F58EE191E00E94C211D6
:1020C000682F82E190E00E94740328C020912E01C5
:1020D00030912F012130310579F420911C0130918C
:1020E0001D01A9014F5F5F4F50931D0140931C01DB
:1020F000F901EA5DFE4F11C02230310579F42091DB
:102100001C0130911D01A9014F5F5F4F50931D01CC
:1021100040931C01F901E25EFE4F80830E9413028E
:10212000B9CA7F928F929F92AF92BF92CF92DF9265
:10213000EF92FF920F931F93CF93DF93E0E4F1E0D0
:102140001382128288EEC82E83E0D82EE12CF12C67
:10215000C482D582E682F78284E091E09183808315
:1021600085EC90E09587848784EC90E0978786875C
:1021700080EC90E0918B808B81EC90E0938B828B54
:1021800082EC90E0958B848B86EC90E0978B868B2D
:10219000118E128E138E148EC2E3D3E082E090E093
:1021A00099838883772473947A8292E3892E912C81
:1021B000A12CB12C8B829C82AD82BE82CF82D8862C
:1021C000E986FA861C861B861E861D86188A1F864F
:1021D0001A8A198A62E00E94F50801E010E01C8B5F
:1021E0000B8B1A8F098F1D8A1E8A1F8A188E1B8ED1
:1021F0001C8E1D8E1E8E1F8E18A21AA219A2CFE051
:10220000D3E088E090E0998388837A828B829C82F5
:10221000AD82BE82CF82D886E986FA861C861B866E
:102220001E861D86188A1F861A8A198A62E00E94F5
:10223000F5081C8B0B8B1A8F098F1D8A1E8A1F8A2B
:10224000188E1B8E1C8E1D8E1E8E1F8E18A21AA21B
:1022500019A2EDEDF1E087E081831382C9EFD2E0AE
:1022600085E090E0998388831B821A82CC82DD828C
:10227000EE82FF821986188662E00E94F5081A86AF
:1022800085E00E94D7079C878B871D861E861F8648
:10229000188A1A8A198A1B8A1C8AE9ECF2E086E0FD
:1022A00090E091838083128284EF91E0A0E0B0E01F
:1022B00083839483A583B68387839087A187B2871E
:1022C00013861486158616861786108A118A128A36
:1022D0008FEF838B158A148A178A168A108E118EB7
:1022E000128E138E148E158E168E178E10A211A2BA
:1022F00012A213A214A216A215A210A617A211A62A
:1023000012A614A613A615A617A616A661E086E0C7
:102310000E94F50860E086E00E941908ECEBF2E00C
:1023200088E99AE3A0E0B0E080839183A283B3833D
:1023300014821682158217821086118612861486E0
:102340001386EFEAF2E084E690E0A0E0B0E080835C
:102350009183A283B383148216821582178210861A
:102360001186128614861386DF91CF911F910F91EB
:10237000FF90EF90DF90CF90BF90AF909F908F90A5
:102380007F900895FC0188279927E89421912032B5
:10239000E9F3293010F02E30C8F32B3241F02D3202
:1023A00039F4689404C00E942512820F911D219176
:1023B00020532A30C0F31EF4909581959F4F0895C5
:1023C0001F93FC0199278827BC01E89411911032D2
:1023D000E9F3193010F01E30C8F31B3251F01D32F2
:1023E00049F4689406C00E941012610F711D811D8E
:1023F000911D119110531A30B0F33EF490958095D1
:10240000709561957F4F8F4F9F4F1F910895FB01EE
:10241000DC018D91059080190110D9F3990B089575
:10242000592F482F372F262F660F771F881F991F88
:10243000660F771F881F991F620F731F841F951FD8
:10244000660F771F881F991F08957AE0979F902D38
:10245000879F802D910D11240895F999FECF92BD8B
:1024600081BDF89A992780B50895262FF999FECF56
:102470001FBA92BD81BD20BD0FB6F894FA9AF99AA1
:102480000FBE01960895DB018F939F930E947512F2
:10249000BF91AF91A29F800D911DA39F900DB29F00
:1024A000900D11240895A1E21A2EAA1BBB1BFD0159
:1024B0000DC0AA1FBB1FEE1FFF1FA217B307E40723
:1024C000F50720F0A21BB30BE40BF50B661F771F7B
:1024D000881F991F1A9469F760957095809590955B
:1024E0009B01AC01BD01CF0108950E948612A59FFA
:1024F000900DB49F900DA49F800D911D11240895FF
:10250000EE0FFF1F0590F491E02D0994A29FB001FA
:10251000B39FC001A39F700D811D1124911DB29F17
:10252000700D811D1124911D08955058BB27AA27B5
:102530000E94AD120C9427140E94191438F00E94C6
:10254000201420F039F49F3F19F426F40C9416144B
:102550000EF4E095E7FB0C941014E92F0E94381458
:1025600058F3BA17620773078407950720F079F4C8
:10257000A6F50C945A140EF4E0950B2EBA2FA02D4C
:102580000B01B90190010C01CA01A0011124FF2720
:10259000591B99F0593F50F4503E68F11A16F0401B
:1025A000A22F232F342F4427585FF3CF469537951A
:1025B0002795A795F0405395C9F77EF41F16BA0BDF
:1025C000620B730B840BBAF09150A1F0FF0FBB1F8D
:1025D000661F771F881FC2F70EC0BA0F621F731FD6
:1025E000841F48F4879577956795B795F7959E3F33
:1025F00008F0B0CF9395880F08F09927EE0F9795C4
:10260000879508950E94EC1308F481E008950E94D4
:102610001B130C9427140E94201458F00E941914C4
:1026200040F029F45F3F29F00C94101451110C94E0
:102630005B140C9416140E94381468F39923B1F3B8
:10264000552391F3951B550BBB27AA2762177307D8
:10265000840738F09F5F5F4F220F331F441FAA1F6C
:10266000A9F335D00E2E3AF0E0E832D09150504028
:10267000E695001CCAF72BD0FE2F29D0660F771FD6
:10268000881FBB1F261737074807AB07B0E809F0BC
:10269000BB0B802DBF01FF2793585F4F3AF09E3F41
:1026A000510578F00C9410140C945B145F3FE4F324
:1026B000983ED4F3869577956795B795F7959F5F84
:1026C000C9F7880F911D9695879597F90895E1E0D0
:1026D000660F771F881FBB1F621773078407BA072F
:1026E00020F0621B730B840BBA0BEE1F88F7E0958A
:1026F00008950E9480136894B1110C945B1408959E
:102700000E94401488F09F5798F0B92F9927B7512D
:10271000B0F0E1F0660F771F881F991F1AF0BA9585
:10272000C9F714C0B13091F00E945A14B1E0089575
:102730000C945A14672F782F8827B85F39F0B93F67
:10274000CCF3869577956795B395D9F73EF4909538
:102750008095709561957F4F8F4F9F4F0895E894B6
:1027600009C097FB3EF490958095709561957F4FD9
:102770008F4F9F4F9923A9F0F92F96E9BB27939587
:10278000F695879577956795B795F111F8CFFAF497
:10279000BB0F11F460FF1BC06F5F7F4F8F4F9F4FC8
:1027A00016C0882311F096E911C0772321F09EE826
:1027B000872F762F05C0662371F096E8862F70E08C
:1027C00060E02AF09A95660F771F881FDAF7880F66
:1027D0009695879597F90895990F0008550FAA0BBC
:1027E000E0E8FEEF16161706E807F907C0F0121624
:1027F0001306E407F50798F0621B730B840B950B27
:1028000039F40A2661F0232B242B252B21F408957B
:102810000A2609F4A140A6958FEF811D811D089518
:1028200097F99F6780E870E060E008959FEF80EC83
:10283000089500240A941616170618060906089526
:1028400000240A9412161306140605060895092E8C
:102850000394000C11F4882352F0BB0F40F4BF2BFB
:1028600011F460FF04C06F5F7F4F8F4F9F4F08953B
:1028700057FD9058440F551F59F05F3F71F0479531
:10288000880F97FB991F61F09F3F79F08795089516
:10289000121613061406551FF2CF4695F1DF08C035
:1028A000161617061806991FF1CF86957105610552
:1028B00008940895E894BB2766277727CB0197F9FA
:1028C00008950E9474140C9427140E94191438F06F
:1028D0000E94201420F0952311F00C9410140C94F5
:1028E000161411240C945B140E94381470F3959FF5
:1028F000C1F3950F50E0551F629FF001729FBB27F7
:10290000F00DB11D639FAA27F00DB11DAA1F649F92
:102910006627B00DA11D661F829F2227B00DA11D45
:10292000621F739FB00DA11D621F839FA00D611DCB
:10293000221F749F3327A00D611D231F849F600DEC
:10294000211D822F762F6A2F11249F5750409AF015
:10295000F1F088234AF0EE0FFF1FBB1F661F771FA1
:10296000881F91505040A9F79E3F510580F00C946C
:1029700010140C945B145F3FE4F3983ED4F38695F7
:1029800077956795B795F795E7959F5FC1F7FE2B0C
:10299000880F911D9695879597F9089581E090E0AD
:0A29A000F8940C94D314F894FFCFC0
:1029AA00000000004B024401D60198020702E5012B
:0629BA00F9010D0A000006
:00000001FF
