:100000000C941A010C9442010C9442010C9442018C
:100010000C9442010C9442010C9442010C94E702AE
:100020000C9442010C9442010C9442010C94420144
:100030000C9442010C9442010C9442010C94420134
:100040000C94820A0C9442010C94B5020C948F0219
:100050000C9442010C9442010C9442010C94420114
:100060000C9442010C944201505752004C504100F4
:100070004C505400524543004C504C004C545000DE
:100080004C4246004C424E0053657269616C2076CA
:10009000616C3A200053657269616C20636D643A4B
:1000A00020007374617465206368616E6765642005
:1000B000746F2053544154455F424F4F54494E474B
:1000C000007374617465206368616E676564207491
:1000D0006F2053544154455F53485554444F574E35
:1000E000007374617465206368616E676564207471
:1000F0006F2053544154455F5245424F4F54007056
:10010000726F675374617465206368616E676564BC
:1001100020746F2050524F475F53544154455F4302
:100120004F44455F4F4E0070726F67537461746542
:10013000206368616E67656420746F2050524F477A
:100140005F53544154455F4E4F4E45007374617484
:1001500065206368616E67656420746F2053544145
:1001600054455F4F46460070726F67537461746503
:10017000206368616E67656420746F2050524F473A
:100180005F53544154455F434F44455F4F464600DB
:100190007374617465206368616E67656420746F51
:1001A0002053544154455F4F464600737461746553
:1001B000206368616E67656420746F2053544154F6
:1001C000455F4F4E006E6F2070756C7365730070E5
:1001D000756C7365733A200000000000240027004E
:1001E0002A0000000000250028002B00000000006D
:1001F0002300260029000404040404040404020269
:100200000202020203030303030301020408102095
:1002100040800102040810200102040810200000A0
:1002200000080002010000030407000000000000B5
:100230000000561711241FBECFEFD8E0DEBFCDBFA0
:1002400011E0A0E0B1E0E2EAF7E302C005900D9210
:10025000A632B107D9F723E0A6E2B1E001C01D92B2
:10026000AE36B207E1F711E0CAE1D1E004C0219750
:10027000FE010E947C19C931D107C9F70E94CC0A3E
:100280000C94CF1B0C940000CF92DF92EF92FF9260
:100290000F931F93CF93DF936C017A018B01C0E022
:1002A000D0E0CE15DF0581F0D8016D918D01D6012A
:1002B000ED91FC910190F081E02DC6010995892B0B
:1002C00011F02196EECF7E01C701DF91CF911F91F2
:1002D0000F91FF90EF90DF90CF900895089580E008
:1002E00090E00895FC01538D448D252F30E0842F3C
:1002F00090E0821B930B541710F0CF96089501974E
:100300000895FC01918D828D981761F0828DDF0137
:10031000A80FB11D5D968C91928D9F5F9F73928FF8
:1003200090E008958FEF9FEF0895FC01918D828DED
:10033000981731F0828DE80FF11D858D90E00895BA
:100340008FEF9FEF0895FC01918D228D892F90E012
:10035000805C9F4F821B91098F739927089580E5D8
:1003600091E00E94A30121E0892B09F420E0822F73
:100370000895FC01848DDF01A80FB11DA35ABF4F62
:100380002C91848D90E001968F739927848FA68994
:10039000B7892C93A089B1898C91837080648C93E8
:1003A000938D848D981306C00288F389E02D808197
:1003B0008F7D80830895EF92FF920F931F93CF93C9
:1003C000DF93EC0181E0888F9B8D8C8D981305C0A5
:1003D000E889F989808185FD26C0F62E0B8D10E015
:1003E0000F5F1F4F0F731127E02E8C8DE8120CC08A
:1003F0000FB607FCFACFE889F989808185FFF5CF30
:10040000CE010E94B901F1CF8B8DFE01E80FF11DE5
:10041000E35AFF4FF0829FB7F8940B8FEA89FB896C
:10042000808180620AC09FB7F894EE89FF8960835B
:10043000E889F98980818370806480839FBF81E02F
:1004400090E0DF91CF911F910F91FF90EF90089571
:10045000CF93DF93EC01888D8823C9F0EA89FB896B
:10046000808185FD05C0A889B9898C9186FD0FC062
:100470000FB607FCF5CF808185FFF2CFA889B98937
:100480008C9185FFEDCFCE010E94B901E7CFDF91BE
:10049000CF91089580E090E0892B29F00E94AF0170
:1004A00081110C94000008950E94CA1B60E08DE049
:1004B0000C94DA0861E089E00C94DA0860E089E0E5
:1004C0000C94DA0810922B0110922A0187E291E035
:1004D0000E94CC07109227011092D8021092D702E6
:1004E00008950C9462020E94DA071092260110927D
:1004F000270180912A0190912B018130910551F4BF
:1005000082E090E090932B0180932A0187E691E0AE
:100510000C94CC07029711F40C94620208951F9278
:100520000F920FB60F9211242F933F934F935F9327
:100530006F937F938F939F93AF93BF93EF93FF93AB
:1005400080E591E00E94B901FF91EF91BF91AF91D9
:100550009F918F917F916F915F914F913F912F91DB
:100560000F900FBE0F901F9018951F920F920FB60D
:100570000F9211242F938F939F93EF93FF93E0910A
:100580006001F09161018081E0916601F091670165
:1005900082FD12C09081809169018F5F8F732091DD
:1005A0006A01821751F0E0916901F0E0E05BFE4FD3
:1005B000958F8093690101C08081FF91EF919F9198
:1005C0008F912F910F900FBE0F901F9018951F9233
:1005D0000F920FB60F9211242F933F934F935F9377
:1005E0006F937F938F939F93AF93BF93EF93FF93FB
:1005F0008091EE010E9498082091F2013091F30160
:100600002F5F3F4F3093F3012093F2019091F1015E
:10061000953618F096E09093ED019091ED019430AD
:10062000C9F128F4923069F09330D1F05EC0953072
:1006300009F451C0963009F058C091E09093BE0281
:1006400051C0811152C02091F2013091F301243642
:10065000310508F442C01092BE021092F1011CC094
:10066000813009F042C0E091F10191E09E0F90933A
:10067000F101F0E02091F2013091F301EE0FFF1F44
:10068000E351FE4F308727831092F3011092F2015D
:1006900094E029C0811117C0E091F10191E09E0F13
:1006A0009093F101F0E02091F2013091F301EE0F0F
:1006B000FF1FE351FE4F308727831092F301109202
:1006C000F20193E010C02091F2013091F301253640
:1006D000310558F007C0811108C01092F301109243
:1006E000F20103C095E09093ED019091F001992300
:1006F000B9F081110AC08091EF01882321F0809127
:10070000EF0161E009C02D9A0BC08091EF018823B1
:1007100031F08091EF0160E00E94DA0801C02D986D
:10072000FF91EF91BF91AF919F918F917F916F91C9
:100730005F914F913F912F910F900FBE0F901F909F
:100740001895CF92DF92EF92FF92CF93DF93EC0157
:10075000072E000C880B990B0E94AD1A6B017C01CF
:1007600020E030E040E45FE30E945D1B20E030E0E9
:1007700048E452E40E94031A0E94751AC617D7076C
:10078000D4F020E030E040EA5FE3C701B6010E9408
:100790005D1B20E030E048E452E40E94031A20E0B0
:1007A00030E040E85FE30E9492190E94751A21E050
:1007B0006C177D070CF420E0822F90E0DF91CF9141
:1007C000FF90EF90DF90CF9008951F93CF93DF932A
:1007D000EC01162F0E94F218181739F0612FCE0184
:1007E000DF91CF911F910C94FA18DF91CF911F9157
:1007F00008950C94FA180C94F218809128019091A5
:100800002901019789F181E090E09093290180937B
:10081000280189E090E00E94FB030E94460782EADB
:1008200090E00E94CC0710920C0310920B031092E0
:100830001C0381E080931303809109030E949808B0
:1008400090931503809314031092160310921703CC
:10085000109218031092190310921B0310921A039E
:1008600010921C0310921D030895CF92DF92EF9215
:10087000FF920F931F93CF936B017C01CB010E94DA
:10088000FB03C82FC60101960E94FB03182FC60167
:1008900002960E94FB03082FC60103960E94FB03E9
:1008A000412F50E060E070E0762F652F542F4427F1
:1008B0004C0F511D611D711D10E020E030E09801CA
:1008C00011270027400F511F621F731F90E0A0E007
:1008D000B0E0B82FAA27992788278A019B01080F23
:1008E000191F2A1F3B1FC901B801CF911F910F91FA
:1008F000FF90EF90DF90CF900895CF92DF92EF922C
:10090000FF92CF93DF93EC016A017B01642F0E9479
:10091000E5039927F7FC9A958F2D7E2D6D2DCE013D
:1009200001960E94E503B701992777FD9095892FDD
:10093000CE0102960E94E5036F2D7727882799271D
:10094000CE010396DF91CF91FF90EF90DF90CF9093
:100950000C94E503CF92DF92EF92FF920F931F93D7
:10096000CF93DF93FC0123853485232BA1F1EC0188
:100970000E94760A0F81188529853A85C880D9801A
:10098000EA80FB80AB01BC01401B510B620B730B77
:100990004C155D056E057F05F0F04C81411103C0DB
:1009A0001C861B860AC0D901C8018C0D9D1DAE1D79
:1009B000BF1D8F839887A987BA87ED81FE81309705
:1009C00051F0CE01DF91CF911F910F91FF90EF90E9
:1009D000DF90CF900994DF91CF911F910F91FF90FD
:1009E000EF90DF90CF900895CF93DF93EC010E94BA
:1009F000760A6F83788789879A8781E090E09C8761
:100A00008B87DF91CF91089589E090E00E94FB03EE
:100A10000E94460781E090E090932B0180932A0189
:100A20008FEF90E00E94CC07109227018CEC92E0AF
:100A30000C94F404CF9320912801309129012430A3
:100A4000310561F1C82F84E090E0909329018093F3
:100A5000280189E090E00E94FB030E94460781EE96
:100A600090E00E94CC0780E090E00E94C108CC2377
:100A7000A9F061E08DE00E94DA0884EF91E0A0E047
:100A8000B0E08093BF029093C002A093C102B093E4
:100A9000C2028FEB92E0CF910C94F404CF910895B1
:100AA00080912A0190912B01892B09F581E190E039
:100AB0000E94FB0320912801309129012230310549
:100AC00091F4811103C081E00C941A051092290160
:100AD0001092280160E083E190E00E94F9038CE429
:100AE00091E00C94CC07232B21F40C9404050C9476
:100AF00062020895CF93209128013091290123307B
:100B0000310561F1C82F83E090E090932901809333
:100B1000280189E090E00E94FB030E94460781ECD7
:100B200090E00E94CC0781E090E00E94C108CC23B5
:100B3000A9F061E08DE00E94DA0884E690E0A0E090
:100B4000B0E08093BF029093C002A093C102B09323
:100B5000C2028FEB92E0CF910C94F404CF910895F0
:100B60008F929F92AF92BF92EF92FF920F931F933B
:100B7000CF93DF93CDB7DEB7A1970FB6F894DEBF62
:100B80000FBECDBFFC010189128910161106F4F5C4
:100B90008FEC91E00E94B1079801012E000C440BEC
:100BA000550B19A27E01F1E2EF0EF11C8AE0882EAE
:100BB000912CA12CB12CCA01B901A50194010E946C
:100BC0001819605DF70162937F0121153105410518
:100BD000510589F7CF010E949F0782E291E00E94B0
:100BE0009F078091280190912901029709F03FC049
:100BF0000130110521F480E00E947A0538C00230EE
:100C00001105A9F580E00E941A0531C085EC91E03C
:100C10000E94CC0785E00E949808892B91F482E01D
:100C200090E0909329018093280161E083E190E0B6
:100C30000E94F9038BEA91E00E94CC0781E090E0EA
:100C400014C085E00E949808019789F41092290148
:100C50001092280160E083E190E00E94F90380E9AE
:100C600091E00E94CC0780E090E00E94C108A1962C
:100C70000FB6F894DEBF0FBECDBFDF91CF911F91AD
:100C80000F91FF90EF90BF90AF909F908F9008953D
:100C900080912A0190912B01009769F4809128019D
:100CA00090912901009711F40C94FD030297E9F447
:100CB00081E00C947A058130910539F481E08093CC
:100CC00027018CEC92E00C94F404029771F460E03C
:100CD00070E0CB010E943504AB01BC0184E090E0E0
:100CE0000E947D0481E0809327010895CF92DF92D6
:100CF000EF92FF920F931F93CF93DF93EC018881C4
:100D00000E9498088C018B899C890817190731F07B
:100D10000E94760A6D8B7E8B8F8B988F0E94760A4D
:100D2000CD88DE88EF88F88CDC01CB018C199D0919
:100D3000AE09BF09CB80DC80ED80FE80C816D906E5
:100D4000EA06FB0608F06AC0898D9A8D0817190714
:100D5000E9F11A8F098F8A81882321F00115110585
:100D600021F019C001301105B1F481E090E09AA39F
:100D700089A3EB85FC85309711F0CE0109958F8D05
:100D8000811150C081E08F8F0E94760A6B8F7C8F1B
:100D90008D8F9E8F47C01AA219A2ED85FE853097D0
:100DA00011F0CE0109958F8D882349F088A181111A
:100DB00006C0EF85F889309711F0CE0109951F8E96
:100DC00018A21B8E1C8E1D8E1E8E2CC00E94760AB1
:100DD000CB8CDC8CED8CFE8CDC01CB018C199D095D
:100DE000AE09BF09CF80D884E984FA84C816D90631
:100DF000EA06FB06B8F48F8D8823A1F088A1811143
:100E000011C081E088A382E090E09AA389A3E989D8
:100E1000FA89309739F0CE01099504C08FEF9FEF22
:100E20009AA389A31C8B0B8BDF91CF911F910F91FC
:100E3000FF90EF90DF90CF900895833081F028F4F9
:100E4000813099F08230A1F008958730A9F0883080
:100E5000B9F08430D1F4809180008F7D03C08091FF
:100E600080008F7780938000089584B58F7702C0CB
:100E700084B58F7D84BD08958091B0008F7703C0C5
:100E80008091B0008F7D8093B00008958093EC0234
:100E90008091D9029091DA028330910559F09C013A
:100EA000255031092230310528F0245031092330F2
:100EB0003105B0F420910403309105032130310550
:100EC00099F43091DB022091EC02332329F06FEF8B
:100ED00070E0621B710902C0622F70E00C94F2098D
:100EE0002FEF2093EC02E6CF0895809104039091B8
:100EF0000503019719F181E08093F10281E090E010
:100F000090930503809304039091DB028091EC029F
:100F1000992329F06FEF70E0681B710902C0682FF8
:100F200070E08091D9020E94F209E091ED02F09107
:100F3000EE02309719F089ED92E009940895009738
:100F400069F0FC0101900020E9F73197AF01481BDF
:100F5000590BBC0180E591E00C94440180E090E0E5
:100F600008950F931F93CF93DF938C01C0E0D0E0DF
:100F7000F801EC0FFD1F6491662341F080E591E0DC
:100F80000E94DB01892B11F02196F2CFCE01DF9177
:100F9000CF911F910F910895CF93DF930E94B107D6
:100FA000EC0182E291E00E949F078C0F9D1FDF9170
:100FB000CF9108958F929F92AF92BF92CF92DF927E
:100FC000EF92FF920E94510A4B015C0184EFC82E00
:100FD000DD24D394E12CF12C0E94510ADC01CB01D9
:100FE00088199909AA09BB09883E9340A105B10552
:100FF00098F321E0C21AD108E108F10888EE880EC2
:1010000083E0981EA11CB11CC114D104E104F104B9
:1010100019F7FF90EF90DF90CF90BF90AF909F9027
:101020008F900895CF93DF930E949F07EC0182E297
:1010300091E00E949F078C0F9D1FDF91CF91089533
:101040008F929F92AF92BF92CF92DF92EF92FF92D8
:101050000F931F93CF93DF93FC0120813181E091A7
:101060004C01F0914D012E173F070CF04FC0F901D4
:10107000EE0FFF1FA0914A01B0914B01EA0FFB1F39
:10108000A080B180217033276901F1E0CF26232BA6
:1010900019F42CE93FEF02C024E630E07A018B011D
:1010A000EC014901840E951EB401C5010E94A10303
:1010B000892B99F48E0C9F1CB401C5010E94A103D9
:1010C000892B71F4B701680D791DC5010E94A10338
:1010D000892BF9F023E030E005C021E030E002C0C8
:1010E00022E030E0F8018081918101968217930718
:1010F0001CF49183808308C0F801118210828881DA
:101100009981019699838883C60105C081E090E0AA
:1011100002C08FEF9FEFDF91CF911F910F91FF9052
:10112000EF90DF90CF90BF90AF909F908F900895F9
:10113000CF93DF93282F30E0F901E25EFD4F8491D9
:10114000F901E65FFD4FD491F901EA50FE4FC491D9
:10115000CC2391F081110E941D07EC2FF0E0EE0FDF
:10116000FF1FE451FE4FA591B491EC91ED2381E076
:1011700090E021F480E002C080E090E0DF91CF9128
:101180000895CF93DF93C9E0D3E09B838A831B8AC2
:1011900081E08A8788810E9498089C878B871D86BA
:1011A0001E861F86188A1A8A198A1B8A1C8ADF9152
:1011B000CF9108951F93CF93DF93282F30E0F9014B
:1011C000E25EFD4F8491F901E65FFD4FD491F90194
:1011D000EA50FE4FC491CC23C1F0162F81110E941A
:1011E0001D07EC2FF0E0EE0FFF1FEE51FE4FA59113
:1011F000B4919FB7F894111104C08C91D095D82365
:1012000002C0EC91DE2BDC939FBFDF91CF911F9149
:1012100008958091040390910503892BD1F01092D9
:10122000F10210920503109204038091DB028823DF
:1012300011F061E001C060E08091D9020E94DA08FB
:10124000E091ED02F091EE02309719F089ED92E015
:1012500009940895CF93DF93C82F1092F1020E9452
:10126000760A6093F2027093F3028093F4029093F3
:10127000F5021092020310920303C093060310922A
:10128000080310920703C0910403D091050382E084
:1012900090E090930503809304038091DB02882300
:1012A00011F061E001C060E08091D9020E94DA088B
:1012B000229759F0E091ED02F091EE02309729F07B
:1012C00089ED92E0DF91CF910994DF91CF9108955C
:1012D0000F931F93CF93DF938C01C62F1092F102CF
:1012E0000E94760A6093F2027093F3028093F402F4
:1012F0009093F5021092FF021092FE0210930103E8
:10130000009300031092020381E080930303C093D3
:1013100006031092080310920703C0910403D091B2
:10132000050382E090E0909305038093040380918D
:10133000DB02882311F061E001C060E08091D902F6
:101340000E94DA08229769F0E091ED02F091EE0236
:10135000309739F089ED92E0DF91CF911F910F9195
:101360000994DF91CF911F910F910895CF93DF934F
:1013700090E0FC01E65FFD4F2491FC01EA50FE4F36
:101380008491882361F190E0880F991FFC01E85255
:10139000FE4FC591D491FC01EE51FE4FA591B49141
:1013A000611109C09FB7F8948881209582238883B2
:1013B000EC912E230BC0623061F49FB7F8948881C2
:1013C000322F309583238883EC912E2B2C939FBF53
:1013D00006C08FB7F894E8812E2B28838FBFDF914A
:1013E000CF9108951F93CF93DF93182FEB0161E006
:1013F0000E94B609209711F460E004C0CF3FD105E8
:1014000039F461E0812FDF91CF911F910C94DA08BC
:10141000E12FF0E0E25EFD4FE491E330F9F048F4B3
:10142000E130B9F0E230A1F584B5806284BDC8BD79
:1014300034C0E730E9F0E83019F1E43049F5809143
:101440008000806280938000D0938B00C0938A00DC
:1014500024C084B5806884BDC7BD1FC08091800052
:10146000806880938000D0938900C093880015C065
:101470008091B00080688093B000C093B3000DC02D
:101480008091B00080628093B000C093B40005C02A
:10149000C038D1050CF0B5CFAFCFDF91CF911F9100
:1014A00008953FB7F89480916A0390916B03A091DF
:1014B0006C03B0916D0326B5A89B05C02F3F19F0B2
:1014C0000196A11DB11D3FBFBA2FA92F982F8827C4
:1014D000820F911DA11DB11DBC01CD0142E0660F1F
:1014E000771F881F991F4A95D1F708952FB7F89451
:1014F000609166037091670380916803909169031E
:101500002FBF08951F920F920FB60F9211242F93A1
:101510003F938F939F93AF93BF9380916603909176
:101520006703A0916803B09169033091650323E0DC
:10153000230F2D3720F40196A11DB11D05C026E80B
:10154000230F0296A11DB11D2093650380936603AE
:1015500090936703A0936803B093690380916A0333
:1015600090916B03A0916C03B0916D030196A11D46
:10157000B11D80936A0390936B03A0936C03B093A7
:101580006D03BF91AF919F918F913F912F910F90DC
:101590000FBE0F901F901895CF93DF93CDB7DEB796
:1015A0002C970FB6F894DEBF0FBECDBF789484B5EC
:1015B000826084BD84B5816084BD85B5826085BD4F
:1015C00085B5816085BD80916E00816080936E00DD
:1015D00010928100809181008260809381008091CF
:1015E0008100816080938100809180008160809380
:1015F00080008091B10084608093B1008091B00040
:1016000081608093B00080917A00846080937A003A
:1016100080917A00826080937A0080917A00816064
:1016200080937A0080917A00806880937A0010928B
:10163000C10061E08CE090E00E94F903E09160015C
:10164000F091610182E08083E0915C01F0915D01A5
:101650001082E0915E01F0915F018FEC8083109227
:101660006801E0916401F091650186E08083E0917A
:101670006201F0916301808180618083E091620169
:10168000F0916301808188608083E0916201F09134
:101690006301808180688083E0916201F091630141
:1016A00080818F7D808362E087E00E94B60962E0DE
:1016B00085E00E94B60961E08DE00E94B60961E014
:1016C00084E00E94B60961E089E00E94B60960E00A
:1016D00086E00E94DA0860E08DE00E94DA0860E0AF
:1016E00084E00E94DA0861E089E00E94DA086DE097
:1016F00070E080E090E00E9435048B0188E090E08B
:101700000E94FB03811114C048E853E160E070E0DF
:101710008DE090E00E947D046FEF89E090E00E94F0
:10172000F90361E088E090E00E94F90308E813E122
:10173000C801110FAA0BBB0B8093490390934A0376
:10174000A0934B03B0934C0388E496E0909352032C
:101750008093510380E595E0909354038093530365
:101760008EE592E090932B0380932A038AE592E022
:1017700090932D0380932C03F89482E08093B00023
:101780008093B10094E69093B3001092B2008093DE
:10179000700078948093ED011092F1018091EE0138
:1017A00060E00E94B60986E592E09093C5028093BE
:1017B000C40281E792E09093D2028093D1028AE042
:1017C00090E00E94FB030E94460783E792E090931B
:1017D000F0028093EF020E94750780EB95E09093F2
:1017E00012038093110380E090E00E94C10882E11F
:1017F00090E00E94FB03882339F083E190E00E948F
:10180000FB0381110E94FD0380E2282E312C9AEF08
:10181000492E512C612C712C82E493E00E947606B3
:101820008FE193E00E94760684EF91E090934B0164
:1018300080934A018091F10190E090934D01809353
:101840004C018091BE0290E090934F0180934E0135
:101850008091ED01853009F0E8C08091F60190910A
:10186000F701885891098D35910588F48091F1012F
:10187000843041F48091F8019091F9018097479765
:1018800008F42AC58091F101843408F00CC58091D8
:10189000F1018A3108F493C58091F4019091F5012A
:1018A000843F9140B0F410924901109248018FEFAB
:1018B0009FEFDC018093440190934501A093460182
:1018C000B0934701ABE0B0E0B0934101A093400179
:1018D000A7C08091F6019091F70185974B9708F08A
:1018E0006EC5EAEFF1E082E090E040E050E0BA013E
:1018F0008C010F5F1F4F2091F10130E00217130799
:101900006CF49F0122503109D9012D913C9127504F
:1019100031092730310508F437C5C801019795957D
:10192000879590934901809348010C972CF410926D
:1019300049011092480143C5409344015093450129
:10194000609346017093470184E090E00AC0C09222
:101950004401D0924501E0924601F09247018CE0AB
:1019600090E09093410180934001C0904401D09059
:101970004501E0904601F0904701BFEFCB16DB0632
:10198000EB06FB0609F44CC080912A0190912B01D3
:10199000009751F560E070E0CB010E9435044B01E7
:1019A0005C0164E070E080E090E00E943504C814BF
:1019B000D904EA04FB0449F420912801309129015B
:1019C000232B19F40E94FD032BC0C616D706E80688
:1019D000F90631F58091280190912901029701F5CE
:1019E00081E00E947A051CC08130910571F4B70135
:1019F000A60180E090E00E947D0481E080932701B1
:101A00008CEC92E00E94F4040BC0029749F4B701F9
:101A1000A60184E090E00E947D0481E0809327018C
:101A200082E08093ED011092F101809113038823ED
:101A300009F469C0809109030E9498088C01809183
:101A40001403909115030817190759F180910B039E
:101A500090910C0308171907A9F480911C038111B8
:101A60000DC081E080931C030E94760A60931603E8
:101A700070931703809318039093190381E0809368
:101A80001D030FC080911D03882359F080911A0314
:101A900090911B03019690931B0380931A0310925D
:101AA0001D0380911C03882351F10E94760AC09087
:101AB0001603D0901703E0901803F0901903DC018F
:101AC000CB018C199D09AE09BF09C0900D03D090C0
:101AD0000E03E0900F03F09010038C159D05AE05EA
:101AE000BF0568F01092130310921C03E0911103DC
:101AF000F0911203309719F089E093E00995109363
:101B00001503009314038091040390910503029739
:101B100009F0A2C12091D9023091DA0223303105B7
:101B200071F0C90105978230910548F0049702973A
:101B300030F081E02B30310519F080E001C081E008
:101B400090910603992321F0811102C0109206039F
:101B5000809102038823E9F00E94760A0091F60240
:101B60001091F7022091F8023091F902DC01CB01CB
:101B7000801B910BA20BB30B0091FA021091FB0298
:101B80002091FC023091FD0280179107A207B30754
:101B900078F4809103038823C1F02091FE023091F4
:101BA000FF028091000390910103281739076CF020
:101BB0000E940909E091EF02F091F002309709F4D8
:101BC0004BC189ED92E0099547C10E94760A0091C8
:101BD000F2021091F3022091F4023091F502601BA1
:101BE000710B820B930B40910603411158C0409139
:101BF000F102442371F1C090DC02D090DD02E0904C
:101C0000DE02F090DF026C157D058E059F0508F45D
:101C100023C18091FE029091FF0201969093FF02F2
:101C20008093FE021092F1028091E0029091E10215
:101C3000A091E202B091E302080F191F2A1F3B1F77
:101C40000093F2021093F3022093F4023093F50212
:101C50003DC0C090E002D090E102E090E202F0903E
:101C6000E3026C157D058E059F0508F4F5C081E043
:101C70008093F1028091DC029091DD02A091DE025E
:101C8000B091DF02080F191F2A1F3B1F0093F202B9
:101C90001093F3022093F4023093F50277C0209161
:101CA00007033091080321153105E1F40091E002AA
:101CB0001091E1022091E2023091E3026017710776
:101CC0008207930718F081E090E01EC08091DB024C
:101CD000882311F061E001C060E08091D9020E9488
:101CE000DA08BAC021303105D1F5C090E402D090B5
:101CF000E502E090E602F090E7026C157D058E05A6
:101D00009F0538F082E090E09093080380930703EA
:101D100069C00E94AB1A4B015C01C701B6010E9469
:101D2000AB1A9B01AC01C501B4010E94031A6B01FF
:101D30007C016091EC0270E080E090E00E94AD1ABE
:101D40004B015C01A7019601C701B6010E945D1B12
:101D50009B01AC01C501B4010E945D1B77C022301C
:101D6000310511F50091DC021091DD022091DE02B7
:101D70003091DF02601771078207930738F0E3E0C4
:101D8000F0E0F0930803E09307032CC09091DB028E
:101D90008091EC02992329F06FEF70E0681B7109C4
:101DA00057C0682F70E054C02330310509F054C08B
:101DB000C090E802D090E902E090EA02F090EB02D5
:101DC0006C157D058E059F05C0F08091FE029091F7
:101DD000FF0201969093FF028093FE021092080387
:101DE000109207030E94760A6093F2027093F30246
:101DF0008093F4029093F5022FC00E94AB1A4B011E
:101E00005C01C701B6010E94AB1A9B01AC01C50180
:101E1000B4010E94031A4B015C016091EC0270E076
:101E200080E090E00E94AD1A6B017C01A501940155
:101E3000C501B4010E945D1BA70196010E945D1BB4
:101E40009B01AC01C701B6010E9491190E94751A4D
:101E50008091D9020E94F2098BE090E00E94FB037E
:101E6000182F8CE090E00E94FB03F82E01E0811116
:101E700001C000E080912A0190912B01892B09F08B
:101E800060C0812F90E020912801309129012130FC
:101E9000310531F0A9014350510942305105A0F5F7
:101EA000029719F40E940909EBC0809104039091F4
:101EB0000503029709F4E4C0FF2009F14092DC0217
:101EC0005092DD026092DE027092DF024092E002E8
:101ED0005092E1026092E2027092E3024092E402C8
:101EE0005092E5026092E6027092E7024092E802A8
:101EF0005092E9026092EA027092EB02BEC084EF57
:101F000091E0A0E0B0E0A9C02230310541F4823078
:101F1000910541F2019761F48AE090E00BC0232B18
:101F200009F0AEC08230910509F4BCCF0197A1F74A
:101F300089E090E00E94FB030E9446070E9475071B
:101F40009FC080912701882309F456C08091260103
:101F5000811196C081E0809326010E9409090E94A8
:101F6000DA07FF2009F14092DC025092DD02609214
:101F7000DE027092DF024092E0025092E102609233
:101F8000E2027092E3024092E4025092E502609213
:101F9000E6027092E7024092E8025092E9026092F3
:101FA000EA027092EB0214C084EF91E0A0E0B0E08E
:101FB0008093DC029093DD02A093DE02B093DF02F7
:101FC0008093E0029093E102A093E202B093E302D7
:101FD00080912A0190912B018130910521F4602F8D
:101FE00081E090E006C0029709F04AC0602F82E0CD
:101FF00090E00E94680944C0809104039091050319
:102000000297F1F1FF2029F18EE390E0A0E0B0E02B
:102010008093DC029093DD02A093DE02B093DF0296
:102020008093E0029093E102A093E202B093E30276
:102030008093E4029093E502A093E602B093E70256
:102040008093E8029093E902A093EA02B093EB0236
:1020500014C08DE790E0A0E0B0E08093DC029093A4
:10206000DD02A093DE02B093DF028093E002909342
:10207000E102A093E202B093E302802F0E942A09BA
:102080008FEB92E00E94AA0480912801909129018F
:10209000892B11F460E001C061E084E00E94DA085D
:1020A0008CEC92E00E94AA0480E591E00E94A301DA
:1020B000892B09F4F5C080E591E00E9481018F33FE
:1020C000A9F481E090E090933F0180933E0188E085
:1020D000E6E3F1E0DF01282F1D922A95E9F7EEE211
:1020E000F1E0DF011D928A95E9F708C08C3759F4B9
:1020F00082E090E090933F0180933E0110922D0189
:1021000010922C01CDC0813209F0A2C010923F0183
:1021100010923E0110922D0110922C0185E990E061
:102120000E94B10786E391E00E94120888E890E0DF
:102130000E94B1078EE291E00E94120864E870E00C
:1021400086E391E00E94CC18892B41F48EE291E065
:102150000E948718682F89E090E00FC060E870E067
:1021600086E391E00E94CC18892B51F48EE291E035
:102170000E948718682F8AE090E00E94E50390C0D3
:102180006CE770E086E391E00E94CC18892B41F463
:102190008EE291E00E948718682F8BE090E0EDCFEF
:1021A00068E770E086E391E00E94CC18892B41F447
:1021B0008EE291E00E948718682F8CE090E0DDCFDE
:1021C00064E770E086E391E00E94CC18892B19F453
:1021D0000E94040565C060E770E086E391E00E941C
:1021E000CC18892B59F48EE291E00E94A518AB011E
:1021F000BC018DE090E00E947D0452C06CE670E06E
:1022000086E391E00E94CC18892B41F48EE291E0A4
:102210000E948718682F81E190E0AFCF68E670E0F8
:1022200086E391E00E94CC18892BD1F58EE291E0F3
:102230000E948718682F82E190E00E94E50382E106
:1022400091E00E949F078EE291E00E94120828C050
:1022500020913E0130913F012130310579F42091E8
:102260002C0130912D01A9014F5F5F4F50932D013B
:1022700040932C01F901EA5CFE4F11C02230310578
:1022800079F420912C0130912D01A9014F5F5F4F0E
:1022900050932D0140932C01F901E25DFE4F8083A4
:1022A0000E944A02B9CA8091F8019091F9018254C2
:1022B00091098E9708F0EBCA80E090E040E050E092
:1022C000BA01FC01E650FE4F2081318129503109CD
:1022D00029303105D8F0DBCA8091FA019091FB01D9
:1022E0000997099708F0CECA109249011092480147
:1022F0008FEF9FEFDC018093440190934501A09301
:102300004601B0934701A3E0B0E0DECAFC01E4500F
:10231000FE4F20813181275131092231310538F5B5
:10232000440F551F661F771F416004968038910542
:1023300041F6309249012092480140934401509364
:1023400045016093460170934701E3E0F0E00AC065
:1023500040934401509345016093460170934701B7
:10236000EBE0F0E0F0934101E0934001FECA2081F0
:102370003181265031092730310508F088CA440FD1
:10238000551F661F771FD1CF20813181235131091D
:102390002F30310540F4440F551F661F771F4160F1
:1023A00002963496A5CA208131812A5031092930FC
:1023B000310528F4440F551F661F771FF1CF809118
:1023C000F1018A3108F45EC08091F4019091F50129
:1023D0008032934008F467CA8091F6019091F7012A
:1023E000C697869708F04EC08091F8019091F90148
:1023F000C697869708F046C0ECEFF1E083E090E0E6
:1024000040E050E0BA018C010F5F1F4F2091F101B5
:1024100030E00217130764F49F0122503109D901FB
:102420002D913C912C5031092B30310580F0C801A1
:1024300001979595879590934901809348010C9752
:102440000CF086CF10924901109248011BC02081E8
:102450003181255231092B31310540F4440F551F8C
:10246000661F771F416002963496CDCF208131815F
:102470002C5031092A30310528F4440F551F661FAE
:10248000771FF1CF8091F101823208F44EC0809124
:10249000F6019091F7010697079708F046C0EAEF1A
:1024A000F1E082E090E0C12CD12C76019C012F5FFD
:1024B0003F4F4091F10150E024173507CCF4DF0184
:1024C00012974D915C9111974E5151094731510529
:1024D000F0F4CC0CDD1CEE1CFF1C6894C0F84081AD
:1024E000518134964350510945305105E0F0C901FE
:1024F000019795958795909349018093480140975E
:102500000CF025CA10924901109248010EC04D915D
:102510005C914C5051094B30510538F4CC0CDD1C0A
:10252000EE1CFF1CDCCF0296C1CF1C821B8281E017
:1025300090E09A8389838091F1018D3078F41C8238
:102540001B8281E090E09A83898380914C01909175
:102550004D01181619060CF46CC0C3C049E753E0CE
:10256000BE016D5F7F4FCE0101960E942008892B2E
:1025700031F749E753E0BE016D5F7F4FCE01019611
:102580000E9420080197D9F649E753E0BE016D5F2C
:102590007F4FCE0101960E942008892B81F6812C65
:1025A000912C540100E010E08091F10190E029812C
:1025B0003A812817390774F549E753E0BE016D5F8A
:1025C0007F4FCE0101960E9420087C0149E753E02D
:1025D000BE016D5F7F4FCE0101960E942008A1E0F1
:1025E000EA16F10451F4892B09F0A9CF880C991C43
:1025F000AA1CBB1C689480F80AC0EF2809F09FCF82
:10260000019709F09CCF880C991CAA1CBB1C0F5F7A
:102610001F4FCACF10934901009348018092440193
:1026200090924501A0924601B092470181E090E06E
:1026300098C9E0914A01F0914B0182E090E09A83C1
:1026400089838281938189974E9708F04AC083E0FD
:1026500090E09A838983848195810B970A9708F08B
:1026600040C04CEB51E0BE016D5F7F4FCE01019643
:102670000E942008892BA9F54CEB51E0BE016D5F4B
:102680007F4FCE0101960E942008019751F5812CC1
:10269000912C540100E010E020914C0130914D014B
:1026A00089819A81821793070CF00EC14CEB51E09F
:1026B000BE016D5F7F4FCE0101960E9420087C0114
:1026C0000330110509F0CAC04CEB51E0BE016D5F4B
:1026D0007F4FCE0101960E942008E816F90609F402
:1026E000BDC0E0914A01F0914B0182819381C69770
:1026F0008697E0F4848195814B974597B8F4DF0184
:1027000016967F0126ECE20EF11C20E030E040E05E
:1027100050E060E070E080E090E00D911C91119736
:10272000095011090830110508F4DDC08091F1014C
:102730008933E8F082819381895791098335910526
:10274000B0F484819581CA97899788F49F012A5FA4
:102750003F4FC12CD12C760143E050E0D9016D915F
:102760007C916A5071096930710508F4F8C0809154
:10277000F101823231F4828193810A97099708F43A
:1027800038C1828193818957910983359105D0F4AD
:102790008091F1018132B0F084819581CA97899747
:1027A00088F49F012A5F3F4FC12CD12C760143E072
:1027B00050E0D9016D917C916A50710969307105C1
:1027C00008F438C1828193818C549109C59778F4BB
:1027D0008091F101843031F484819581809747970D
:1027E00008F48BC18091F101843408F06DC18091AF
:1027F000F101863428F1828193810C970B9700F5C3
:102800008481958109970997D8F4868197818C975F
:102810004F97B0F48085918589974D9788F49F01F3
:10282000265F3F4FC12CD12C760145E050E0D90105
:102830006D917C916C5071096B30710508F4AEC1DB
:102840008091F101883508F44AC2828193818558CC
:1028500091098B35910508F4E9C141C24CEB51E077
:10286000BE016D5F7F4FCE0101960E9420086C0172
:102870000330110569F44CEB51E0BE016D5F7F4FF1
:10288000CE0101960E942008C816D90609F029CF6A
:10289000E114F10459F4CA94CD2809F022CF880C30
:1028A000991CAA1CBB1C689480F80BC0EA94EF2802
:1028B00009F017CFCD2809F014CF880C991CAA1C59
:1028C000BB1C0F5F1F4FE8CE1093490100934801D6
:1028D0008092440190924501A0924601B092470136
:1028E00082E090E03EC812960D911C911397015121
:1028F00011090D30110528F501E00E9445192160EC
:102900001496AE15BF0509F008CF2093440130930B
:102910004501409346015093470100E20E9460192F
:10292000209342013093430185E090E09093410170
:102930008093400180E390E09093490180934801A7
:1029400014C812960D911C9113970450110905306B
:10295000110508F0EBCE01E00E944519D1CFD90155
:1029600012966D917C9113976651710961317105D1
:1029700080F5D701C601880F991FAA1FBB1F6C01E4
:102980007D016894C0F84E5F5F4F2C5F3F4F4B3323
:10299000510509F0E3CE9F012A583F4FD9012D91EF
:1029A0003C912A5031092930310508F0E0CE2CE164
:1029B00030E03093490120934801C0924401D09205
:1029C0004501E0924601F09247018AE090E00C94C4
:1029D000B10CD90112966D917C91139766507109D3
:1029E0006730710508F0C3CECC0CDD1CEE1CFF1C5B
:1029F000CACF2091F101CF01820F911D820F911D4D
:102A0000DC0112978D919C910A97099708F0B9CE35
:102A100010924901109248018FEF9FEFDC018093E3
:102A2000440190934501A0934601B093470186E08D
:102A300090E036C2D90112966D917C911397665140
:102A400071096131710580F5D701C601880F991FA1
:102A5000AA1FBB1F6C017D016894C0F84E5F5F4FD9
:102A60002C5F3F4F4332510509F0A3CE9F012A5BF3
:102A70003F4FD9012D913C912A5031092930310520
:102A800008F0A0CE20E130E03093490120934801C6
:102A9000C0924401D0924501E0924601F092470174
:102AA00086E090E00C94B10CD90112966D917C9166
:102AB0001397665071096730710508F083CECC0C0E
:102AC000DD1CEE1CFF1CCACF8481958189549109BD
:102AD000C39708F08CCE9F012A5F3F4FBF016A5712
:102AE0007F4FC12CD12C7601D9014D915C91495079
:102AF000510949305105C8F07ACE868197810997EE
:102B0000099708F06FCE10924901109248018FEF9B
:102B10009FEFDC018093440190934501A09346010F
:102B2000B093470187E090E0BBC1D90112964D9167
:102B30005C9113974651510941315105F8F4D70181
:102B4000C601880F991FAA1FBB1F6C017D016894E5
:102B5000C0F82C5F3F4F2617370731F630924901F6
:102B600020924801C0924401D0924501E092460172
:102B7000F092470187E090E00C94B10CD9011296D5
:102B80004D915C911397465051094730510508F01B
:102B90002ECECC0CDD1CEE1CFF1CDBCFD901129617
:102BA0006D917C9113976E5171096731710570F5C4
:102BB000D701C601880F991FAA1FBB1F6C017D0199
:102BC0006894C0F84E5F5F4F2C5F3F4F453451050E
:102BD00009F02DCE9F0126573F4FD9012D913C91F1
:102BE0002C5031092B30310508F02ACE30924901A2
:102BF00020924801C0924401D0924501E0924601E2
:102C0000F092470188E090E00C94B10CD901129643
:102C10006D917C911397695071096930710508F0C5
:102C20000FCECC0CDD1CEE1CFF1CCCCF848195811B
:102C3000825491098E9708F052C08F01045C1F4F97
:102C40008DE190E020E030E04091F10150E044500F
:102C5000510984179507ACF4A80142505109DA01D3
:102C60004D915C91495051094830510518F137C0D8
:102C7000D8014D915C91485151094231510560F1A3
:102C8000CB010197959587959093490180934801D1
:102C90008A972CF1C901330FAA0BBB0B8093440117
:102CA00090934501A0934601B093470189E090E0DD
:102CB0000C94B10CBC016F5F7F4FD8014D915C91BA
:102CC000475051094730510598F6220F331F2160B4
:102CD00002960C5F1F4FB8CF220F331FF9CF8091A0
:102CE000F1018032E1F48281938106970697B8F46E
:102CF000848195810997099790F49F012A5F3F4F3E
:102D0000BF01625C7F4FC12CD12C7601D9014D915E
:102D10005C91465051094630510508F485C08091B8
:102D20004C0190914D0198878F83069714F40C9471
:102D3000100DDF011296BE83AD8355ECC52E5DE903
:102D4000D52E5CE1E52E51E8F52E03E010E0ED8193
:102D5000FE8164817581A080B18080E090E00E9456
:102D6000AB1A69877A878B879C87B50180E090E0F2
:102D70000E94AB1A4B015C012DEC3CEC4CE45FE390
:102D80000E945D1B9B01AC0169857A858B859C85C2
:102D90000E94FE1987FD19C02DEC3CEC4CE45FE36A
:102DA00069857A858B859C850E945D1B9B01AC01A2
:102DB000C501B4010E94FE19E82F880FFF0BEE2712
:102DC000FF0FEE1FFF27319602C0E0E0F0E0A70101
:102DD000960163E971E080E091E00E9408196F01BB
:102DE000FF0FEE08FF08C626D726E826F9260F5F54
:102DF0001F4F8D819E8102969E838D83AF81B88502
:102E00000A171B0709F0A3CFC0924401D0924501D5
:102E1000E0924601F0924701309249012092480128
:102E20008FEF9FEF0C94B10CD90112964D915C91EC
:102E30001397495151094331510510F5D701C60186
:102E4000880F991FAA1FBB1F6C017D016894C0F8F1
:102E50002C5F3F4F2617370709F058CF2EE030E0A0
:102E60003093490120934801C0924401D09245011A
:102E7000E0924601F09247018FE090E00C94B10C93
:102E8000D90112964D915C911397495051094930DF
:102E9000510508F044CFCC0CDD1CEE1CFF1CD8CF34
:102EA00090934101809340010C94100D7F928F927A
:102EB0009F92AF92BF92CF92DF92EF92FF920F93C9
:102EC0001F93CF93DF93E0E5F1E01382128288EE47
:102ED000C82E83E0D82EE12CF12CC482D582E68264
:102EE000F78284E091E09183808385EC90E0958780
:102EF000848784EC90E09787868780EC90E0918BC4
:102F0000808B81EC90E0938B828B82EC90E0958BB0
:102F1000848B86EC90E0978B868B118E128E138EAD
:102F2000148EC2E4D3E082E090E099838883772412
:102F300073947A8292E3892E912CA12CB12C8B82EE
:102F40009C82AD82BE82CF82D886E986FA861C86B4
:102F50001B861E861D86188A1F861A8A198A62E0B9
:102F60000E94B60901E010E01C8B0B8B1A8F098FB1
:102F70001D8A1E8A1F8A188E1B8E1C8E1D8E1E8E09
:102F80001F8E18A21AA219A2CFE1D3E088E090E028
:102F9000998388837A828B829C82AD82BE82CF8223
:102FA000D886E986FA861C861B861E861D86188AA8
:102FB0001F861A8A198A62E00E94B6091C8B0B8B45
:102FC0001A8F098F1D8A1E8A1F8A188E1B8E1C8ECF
:102FD0001D8E1E8E1F8E18A21AA219A2EDEEF1E010
:102FE00087E081831382C9E0D3E085E090E0998394
:102FF00088831B821A82CC82DD82EE82FF82198650
:10300000188662E00E94B6091A8685E00E94980838
:103010009C878B871D861E861F86188A1A8A198AA6
:103020001B8A1C8AE9EDF2E086E090E091838083C0
:10303000128284EF91E0A0E0B0E083839483A583C3
:10304000B68387839087A187B287138614861586F7
:1030500016861786108A118A128A8FEF838B158A3B
:10306000148A178A168A108E118E128E138E148E61
:10307000158E168E178E10A211A212A213A214A2E0
:1030800016A215A210A617A211A612A614A613A680
:1030900015A617A616A661E086E00E94B60960E0B4
:1030A00086E00E94DA08ECECF2E088E99AE3A0E01E
:1030B000B0E080839183A283B38314821682158249
:1030C000178210861186128614861386EFEBF2E0C3
:1030D00084E690E0A0E0B0E080839183A283B38394
:1030E0001482168215821782108611861286148623
:1030F0001386DF91CF911F910F91FF90EF90DF909A
:10310000CF90BF90AF909F908F907F900895FC01DB
:1031100088279927E89421912032E9F3293010F08B
:103120002E30C8F32B3241F02D3239F4689404C0AC
:103130000E94EA18820F911D219120532A30C0F37A
:103140001EF4909581959F4F08951F93FC01992738
:103150008827BC01E89411911032E9F3193010F07E
:103160001E30C8F31B3251F01D3249F4689406C07A
:103170000E94D518610F711D811D911D1191105371
:103180001A30B0F33EF490958095709561957F4F1D
:103190008F4F9F4F1F910895FB01DC018D9105908A
:1031A00080190110D9F3990B0895592F482F372F03
:1031B000262F660F771F881F991F660F771F881F9E
:1031C000991F620F731F841F951F660F771F881F3B
:1031D000991F08957AE0979F902D879F802D910DDC
:1031E00011240895F999FECF92BD81BDF89A9927CF
:1031F00080B50895262FF999FECF1FBA92BD81BDE3
:1032000020BD0FB6F894FA9AF99A0FBE0196089568
:10321000DB018F939F930E943A19BF91AF91A29FB8
:10322000800D911DA39F900DB29F900D11240895C4
:10323000A1E21A2EAA1BBB1BFD010DC0AA1FBB1FBA
:10324000EE1FFF1FA217B307E407F50720F0A21B2C
:10325000B30BE40BF50B661F771F881F991F1A9499
:1032600069F760957095809590959B01AC01BD01C3
:10327000CF0108950E948219A59F900DB49F900DD3
:10328000A49F800D911D112408950F93083090F094
:10329000982F872F762F652F542F432F322F2227D9
:1032A0000850F4CF220F331F441F551F661F771F8E
:1032B000881F991F0A95B2F70F91089597FB10F890
:1032C000169400080F93083098F00850232F342FDD
:1032D000452F562F672F782F892F902DF4CF0594E7
:1032E000979587957795679557954795379527953E
:1032F0000A95AAF70F910895EE0FFF1F0590F4911C
:10330000E02D0994A29FB001B39FC001A39F700D4F
:10331000811D1124911DB29F700D811D1124911DDD
:1033200008955058BB27AA270E94A9190C94231B63
:103330000E94151B38F00E941C1B20F039F49F3F9F
:1033400019F426F40C94121B0EF4E095E7FB0C9490
:103350000C1BE92F0E94341B58F3BA17620773073E
:103360008407950720F079F4A6F50C94561B0EF40B
:10337000E0950B2EBA2FA02D0B01B90190010C0185
:10338000CA01A0011124FF27591B99F0593F50F49D
:10339000503E68F11A16F040A22F232F342F4427F5
:1033A000585FF3CF469537952795A795F0405395ED
:1033B000C9F77EF41F16BA0B620B730B840BBAF0BD
:1033C0009150A1F0FF0FBB1F661F771F881FC2F728
:1033D0000EC0BA0F621F731F841F48F4879577953C
:1033E0006795B795F7959E3F08F0B0CF9395880FF6
:1033F00008F09927EE0F9795879508950E94E81A8F
:1034000008F481E008950E94171A0C94231B0E946F
:103410001C1B58F00E94151B40F029F45F3F29F057
:103420000C940C1B51110C94571B0C94121B0E94F2
:10343000341B68F39923B1F3552391F3951B550B76
:10344000BB27AA2762177307840738F09F5F5F4F77
:10345000220F331F441FAA1FA9F335D00E2E3AF0B6
:10346000E0E832D091505040E695001CCAF72BD0CE
:10347000FE2F29D0660F771F881FBB1F261737071F
:103480004807AB07B0E809F0BB0B802DBF01FF2751
:1034900093585F4F3AF09E3F510578F00C940C1B07
:1034A0000C94571B5F3FE4F3983ED4F386957795D1
:1034B0006795B795F7959F5FC9F7880F911D96950A
:1034C000879597F90895E1E0660F771F881FBB1F66
:1034D000621773078407BA0720F0621B730B840B13
:1034E000BA0BEE1F88F7E09508950E947C1A689445
:1034F000B1110C94571B08950E943C1B88F09F57F4
:1035000098F0B92F9927B751B0F0E1F0660F771F07
:10351000881F991F1AF0BA95C9F714C0B13091F0FD
:103520000E94561BB1E008950C94561B672F782F0C
:103530008827B85F39F0B93FCCF3869577956795C2
:10354000B395D9F73EF490958095709561957F4F2E
:103550008F4F9F4F0895E89409C097FB3EF49095D4
:103560008095709561957F4F8F4F9F4F9923A9F05C
:10357000F92F96E9BB279395F695879577956795EB
:10358000B795F111F8CFFAF4BB0F11F460FF1BC02F
:103590006F5F7F4F8F4F9F4F16C0882311F096E9C2
:1035A00011C0772321F09EE8872F762F05C0662370
:1035B00071F096E8862F70E060E02AF09A95660F29
:1035C000771F881FDAF7880F9695879597F90895E2
:1035D000990F0008550FAA0BE0E8FEEF1616170624
:1035E000E807F907C0F012161306E407F50798F08C
:1035F000621B730B840B950B39F40A2661F0232BA5
:10360000242B252B21F408950A2609F4A140A69520
:103610008FEF811D811D089597F99F6780E870E005
:1036200060E008959FEF80EC089500240A94161638
:10363000170618060906089500240A9412161306A0
:10364000140605060895092E0394000C11F488232E
:1036500052F0BB0F40F4BF2B11F460FF04C06F5F4A
:103660007F4F8F4F9F4F089557FD9058440F551F20
:1036700059F05F3F71F04795880F97FB991F61F0F4
:103680009F3F79F087950895121613061406551F6B
:10369000F2CF4695F1DF08C0161617061806991FD7
:1036A000F1CF86957105610508940895E894BB27CC
:1036B00066277727CB0197F908950E94701B0C9419
:1036C000231B0E94151B38F00E941C1B20F0952321
:1036D00011F00C940C1B0C94121B11240C94571B0E
:1036E0000E94341B70F3959FC1F3950F50E0551F56
:1036F000629FF001729FBB27F00DB11D639FAA2747
:10370000F00DB11DAA1F649F6627B00DA11D661F95
:10371000829F2227B00DA11D621F739FB00DA11DB6
:10372000621F839FA00D611D221F749F3327A00D70
:10373000611D231F849F600D211D822F762F6A2F0C
:1037400011249F5750409AF0F1F088234AF0EE0F71
:10375000FF1FBB1F661F771F881F91505040A9F79E
:103760009E3F510580F00C940C1B0C94571B5F3F3F
:10377000E4F3983ED4F3869577956795B795F795DA
:10378000E7959F5FC1F7FE2B880F911D9695879552
:1037900097F9089581E090E0F8940C94CF1BF89489
:0237A000FFCF59
:1037A20000000000DB01440172012802A301810133
:1037B2009501706F7765722076616C75652069730B
:0637C20020000D0A0000CA
:00000001FF
