:100000000C941A010C9442010C9442010C9442018C
:100010000C9442010C9442010C9442010C94400453
:100020000C9442010C9442010C9442010C94420144
:100030000C9442010C9442010C9442010C94420134
:100040000C940E020C9442010C947E020C94580203
:100050000C9442010C9442010C9442010C94420114
:100060000C9442010C944201505752004C504100F4
:100070004C505400524543004C4246004C424E0006
:100080004C504C004C54500053657269616C2076A2
:10009000616C3A200053657269616C20636D643A4B
:1000A000200070726F675374617465206368616EBD
:1000B00067656420746F2050524F475F535441541A
:1000C000455F434F44455F4F4E0070726F675374F6
:1000D000617465206368616E67656420746F205089
:1000E000524F475F53544154455F4E4F4E45007346
:1000F00074617465206368616E67656420746F2045
:1001000053544154455F424F4F54494E4700737416
:10011000617465206368616E67656420746F205345
:10012000544154455F53485554444F574E007374DF
:10013000617465206368616E67656420746F205325
:10014000544154455F5245424F4F5400737461749B
:1001500065206368616E67656420746F2053544145
:1001600054455F4F46460070726F67537461746503
:10017000206368616E67656420746F2050524F473A
:100180005F53544154455F434F44455F4F464600DB
:100190007374617465206368616E67656420746F51
:1001A0002053544154455F4F464600737461746553
:1001B000206368616E67656420746F2053544154F6
:1001C000455F4F4E006E6F2070756C7365730070E5
:1001D000756C7365733A200000000000240027004E
:1001E0002A0000000000250028002B00000000006D
:1001F0002300260029000404040404040404020269
:100200000202020203030303030301020408102095
:1002100040800102040810200102040810200000A0
:1002200000080002010000030407000000000000B5
:100230000000C20F11241FBECFEFD8E0DEBFCDBF3C
:1002400011E0A0E0B1E0E6E6F7E202C005900D9211
:10025000A631B107D9F723E0A6E1B1E001C01D92B4
:10026000A335B207E1F711E0CAE1D1E004C021975C
:10027000FE010E949611C931D107C9F70E94080AF0
:100280000C94B1130C940000CF92DF92EF92FF9286
:100290000F931F93CF93DF936C017A018B01C0E022
:1002A000D0E0CE15DF0581F0D8016D918D01D6012A
:1002B000ED91FC910190F081E02DC6010995892B0B
:1002C00011F02196EECF7E01C701DF91CF911F91F2
:1002D0000F91FF90EF90DF90CF900895089580E008
:1002E00090E008958EE391E00E94E10221E0892BE5
:1002F00009F420E0822F08950E94AC131F93CF933E
:10030000DF93182FEB0161E00E94CC09209711F4D4
:1003100060E004C0CF3FD10539F461E0812FDF9167
:10032000CF911F910C94F008E12FF0E0E25EFD4FB9
:10033000E491E330F9F048F4E130B9F0E230A1F5AE
:1003400084B5806284BDC8BD34C0E730E9F0E830D0
:1003500019F1E43049F5809180008062809380003B
:10036000D0938B00C0938A0024C084B5806884BD7C
:10037000C7BD1FC080918000806880938000D093AB
:100380008900C093880015C08091B0008068809378
:10039000B000C093B3000DC08091B0008062809324
:1003A000B000C093B40005C0C038D1050CF0B5CF83
:1003B000AFCFDF91CF911F9108953FB7F89480910F
:1003C0003A0190913B01A0913C01B0913D0126B5CD
:1003D000A89B05C02F3F19F00196A11DB11D3FBF7D
:1003E000BA2FA92F982F8827820F911DA11DB11D0B
:1003F000BC01CD0142E0660F771F881F991F4A9507
:10040000D1F708952FB7F8946091360170913701B4
:1004100080913801909139012FBF08951F920F925A
:100420000FB60F9211242F933F938F939F93AF9307
:10043000BF938091360190913701A0913801B0911E
:1004400039013091350123E0230F2D3720F4019637
:10045000A11DB11D05C026E8230F0296A11DB11DE7
:10046000209335018093360190933701A093380192
:10047000B093390180913A0190913B01A0913C01E8
:10048000B0913D010196A11DB11D80933A01909359
:100490003B01A0933C01B0933D01BF91AF919F916F
:1004A0008F913F912F910F900FBE0F901F90189535
:1004B0001F920F920FB60F9211242F933F934F93D9
:1004C0005F936F937F938F939F93AF93BF93EF93BC
:1004D000FF938EE391E00E94AF03FF91EF91BF91F4
:1004E000AF919F918F917F916F915F914F913F91CC
:1004F0002F910F900FBE0F901F9018951F920F9283
:100500000FB60F9211242F938F939F93EF93FF9326
:10051000E0914E01F0914F018081E0915401F09102
:10052000550182FD12C09081809157018F5F8F73BA
:1005300020915801821751F0E0915701F0E0E25C00
:10054000FE4F958F8093570101C08081FF91EF91FD
:100550009F918F912F910F900FBE0F901F90189524
:10056000FC01538D448D252F30E0842F90E0821BB9
:10057000930B541710F0CF96089501970895FC013E
:10058000918D828D981761F0828DDF01A80FB11DCA
:100590005D968C91928D9F5F9F73928F90E00895EE
:1005A0008FEF9FEF0895FC01918D828D981731F0A8
:1005B000828DE80FF11D858D90E008958FEF9FEFFC
:1005C0000895FC01918D228D892F90E0805C9F4FD2
:1005D000821B91098F739927089580E090E0892B01
:1005E00029F00E94720181110C940000089560E0CE
:1005F0008DE00C94F00861E088E00C94F00860E075
:1006000088E00C94F00810921C0110921B0180915C
:10061000190190911A01029719F48091000102C00A
:10062000809116010E94E2078AEC90E00E9468081F
:10063000109218011092C6021092C50208950C94EF
:1006400003030E94760810921701109218018091FE
:100650001B0190911C018130910551F482E090E0E2
:1006600090931C0180931B0187E691E00C9468082D
:10067000029711F40C9403030895CF93DF93EC01D8
:100680000E9402026F83788789879A8781E090E0D1
:100690009C878B87DF91CF910895CF93C82F0E94BD
:1006A00003038091190190911A01049729F184E0C4
:1006B00090E090931A01809319018EE291E00E94DC
:1006C000680880E090E00E94D708CC23A9F061E0A0
:1006D0008DE00E94F00884EF91E0A0E0B0E080930C
:1006E000AD029093AE02A093AF02B093B0028DEA38
:1006F00092E0CF910C943D03CF910895CF93C82FF2
:100700000E9403038091190190911A01039729F126
:1007100083E090E090931A01809319018EE091E0BC
:100720000E94680881E090E00E94D708CC23A9F0DD
:1007300061E08DE00E94F00884E690E0A0E0B0E087
:100740008093AD029093AE02A093AF02B093B0023B
:100750008DEA92E0CF910C943D03CF910895FC0176
:10076000848DDF01A80FB11DA35ABF4F2C91848D3A
:1007700090E001968F739927848FA689B7892C936F
:10078000A089B1898C91837080648C93938D848DC2
:10079000981306C00288F389E02D80818F7D8083C5
:1007A0000895EF92FF920F931F93CF93DF93EC0185
:1007B00081E0888F9B8D8C8D981305C0E889F9891D
:1007C000808185FD26C0F62E0B8D10E00F5F1F4F38
:1007D0000F731127E02E8C8DE8120CC00FB607FCAA
:1007E000FACFE889F989808185FFF5CFCE010E9493
:1007F000AF03F1CF8B8DFE01E80FF11DE35AFF4FE0
:10080000F0829FB7F8940B8FEA89FB898081806220
:100810000AC09FB7F894EE89FF896083E889F98957
:1008200080818370806480839FBF81E090E0DF914E
:10083000CF911F910F91FF90EF900895CF93DF9389
:10084000EC01888D8823C9F0EA89FB89808185FDC8
:1008500005C0A889B9898C9186FD0FC00FB607FC29
:10086000F5CF808185FFF2CFA889B9898C9185FF6A
:10087000EDCFCE010E94AF03E7CFDF91CF91089576
:100880001F920F920FB60F9211242F933F934F9305
:100890005F936F937F938F939F93AF93BF93EF93E8
:1008A000FF938091DC010E94AE082091E00130911D
:1008B000E1012F5F3F4F3093E1012093E0019091E0
:1008C000DF01953618F096E09093DB019091DB0103
:1008D0009430C9F128F4923069F09330D1F05EC0C1
:1008E000953009F451C0963009F058C091E09093CA
:1008F000AC0251C0811152C02091E0013091E10160
:100900002436310508F442C01092AC021092DF0187
:100910001CC0813009F042C0E091DF0191E09E0FE0
:100920009093DF01F0E02091E0013091E101EE0FC2
:10093000FF1FE552FE4F308727831092E10110928E
:10094000E00194E029C0811117C0E091DF0191E03E
:100950009E0F9093DF01F0E02091E0013091E101E2
:10096000EE0FFF1FE552FE4F308727831092E10103
:100970001092E00193E010C02091E0013091E1017C
:100980002536310558F007C0811108C01092E101E9
:100990001092E00103C095E09093DB019091DE019D
:1009A0009923B9F081110AC08091DD01882321F0DB
:1009B0008091DD0161E009C02D9A0BC08091DD01BD
:1009C000882331F08091DD0160E00E94F00801C0D1
:1009D0002D98FF91EF91BF91AF919F918F917F9152
:1009E0006F915F914F913F912F910F900FBE0F909C
:1009F0001F9018951F93CF93DF93EC01162F0E9441
:100A00005E11181739F0612FCE01DF91CF911F9140
:100A10000C946611DF91CF911F9108950C9466118B
:100A20008F929F92AF92BF92EF92FF920F931F937C
:100A3000CF93DF93CDB7DEB7A1970FB6F894DEBFA3
:100A40000FBECDBFFC010189128910161106F4F505
:100A50008FEC91E00E944D089801012E000C440B90
:100A6000550B19A27E01F1E2EF0EF11C8AE0882EEF
:100A7000912CA12CB12CCA01B901A50194010E94AD
:100A80007411605DF70162937F0121153105410505
:100A9000510589F7CF010E943B0883E191E00E9454
:100AA0003B088091190190911A01029709F047C003
:100AB0000130110521F480E00E947E0340C0023025
:100AC0001105E9F580E00E944D0339C085EC91E005
:100AD0000E94680885E00E94AE08892BB1F482E08C
:100AE00090E090931A018093190161E083E190E016
:100AF0000E940E05809100010E94E2078BEA91E0BE
:100B00000E94680881E090E018C085E00E94AE086D
:100B10000197A9F410921A011092190160E083E183
:100B200090E00E940E05809116010E94E20780E984
:100B300091E00E94680880E090E00E94D708A196AA
:100B40000FB6F894DEBF0FBECDBFDF91CF911F91DE
:100B50000F91FF90EF90BF90AF909F908F9008956E
:100B60000C945E118091190190911A01019779F10D
:100B700081E090E090931A01809319018091000127
:100B80000E94E2078FEE90E00E9468081092FA023D
:100B90001092F90210920A0381E080930103809180
:100BA000F7020E94AE089093030380930203109211
:100BB000040310920503109206031092070310928B
:100BC00009031092080310920A0310920B03089570
:100BD0008FEF0E94E20781E090E090931C018093E8
:100BE0001B0182EA90E00E946808109218018AEBCB
:100BF00092E00C943D0380911B0190911C01892B84
:100C000009F581E190E00E94B00520911901309131
:100C10001A012230310591F4811103C081E00C9456
:100C20004D0310921A011092190160E083E190E0E7
:100C30000E940E058CE491E00C946808232B21F4AB
:100C40000C94E8050C9403030895CF92DF92EF9281
:100C5000FF920F931F93CF936B017C01CB010E94F6
:100C6000B005C82FC60101960E94B005182FC60115
:100C700002960E94B005082FC60103960E94B00597
:100C8000412F50E060E070E0762F652F542F44270D
:100C90004C0F511D611D711D10E020E030E09801E6
:100CA00011270027400F511F621F731F90E0A0E023
:100CB000B0E0B82FAA27992788278A019B01080F3F
:100CC000191F2A1F3B1FC901B801CF911F910F9116
:100CD000FF90EF90DF90CF900895CF92DF92EF9248
:100CE000FF92CF93DF93EC016A017B01642F0E9496
:100CF000FA049927F7FC9A958F2D7E2D6D2DCE0144
:100D000001960E94FA04B701992777FD9095892FE3
:100D1000CE0102960E94FA046F2D77278827992723
:100D2000CE010396DF91CF91FF90EF90DF90CF90AF
:100D30000C94FA0480911B0190911C01009769F4B6
:100D40008091190190911A01009711F40C94B20549
:100D50000297E9F481E00C947E038130910539F427
:100D600081E0809318018AEB92E00C943D03029796
:100D700071F460E070E0CB010E942506AB01BC017C
:100D800084E090E00E946D0681E080931801089550
:100D9000CF92DF92EF92FF920F931F93CF93DF9347
:100DA000FC0123853485232BA1F1EC010E94020272
:100DB0000F81188529853A85C880D980EA80FB8013
:100DC000AB01BC01401B510B620B730B4C155D0555
:100DD0006E057F05F0F04C81411103C01C861B8617
:100DE0000AC0D901C8018C0D9D1DAE1DBF1D8F838A
:100DF0009887A987BA87ED81FE81309751F0CE019F
:100E0000DF91CF911F910F91FF90EF90DF90CF90E6
:100E10000994DF91CF911F910F91FF90EF90DF9098
:100E2000CF900895CF92DF92EF92FF920F931F938E
:100E3000CF93DF93EC0188810E94AE088C018B89EF
:100E40009C890817190731F00E9402026D8B7E8B76
:100E50008F8B988F0E940202CD88DE88EF88F88CF5
:100E6000DC01CB018C199D09AE09BF09CB80DC8068
:100E7000ED80FE80C816D906EA06FB0608F06AC0B7
:100E8000898D9A8D08171907E9F11A8F098F8A81C0
:100E9000882321F00115110521F019C00130110539
:100EA000B1F481E090E09AA389A3EB85FC853097AB
:100EB00011F0CE0109958F8D811150C081E08F8F87
:100EC0000E9402026B8F7C8F8D8F9E8F47C01AA26B
:100ED00019A2ED85FE85309711F0CE0109958F8D11
:100EE000882349F088A1811106C0EF85F8893097E1
:100EF00011F0CE0109951F8E18A21B8E1C8E1D8E1F
:100F00001E8E2CC00E940202CB8CDC8CED8CFE8CE1
:100F1000DC01CB018C199D09AE09BF09CF80D884B3
:100F2000E984FA84C816D906EA06FB06B8F48F8D60
:100F30008823A1F088A1811111C081E088A382E0FB
:100F400090E09AA389A3E989FA89309739F0CE0114
:100F5000099504C08FEF9FEF9AA389A31C8B0B8B7D
:100F6000DF91CF911F910F91FF90EF90DF90CF9085
:100F70000895833081F028F4813099F08230A1F017
:100F800008958730A9F08830B9F08430D1F4809189
:100F900080008F7D03C0809180008F7780938000D8
:100FA000089584B58F7702C084B58F7D84BD089580
:100FB0008091B0008F7703C08091B0008F7D8093C7
:100FC000B00008958093DA028091C7029091C80220
:100FD0008330910559F09C012550310922303105AB
:100FE00028F02450310923303105B0F42091F20269
:100FF0003091F3022130310599F43091C9022091EA
:10100000DA02332329F06FEF70E0621B710902C02E
:10101000622F70E00C947E012FEF2093DA02E6CF6E
:1010200008958091F2029091F302019719F181E005
:101030008093DF0281E090E09093F3028093F202CC
:101040009091C9028091DA02992329F06FEF70E044
:10105000681B710902C0682F70E08091C7020E946E
:101060007E01E091DB02F091DC02309719F087EC11
:1010700092E009940895009769F0FC010190002026
:10108000E9F73197AF01481B590BBC018EE391E0A2
:101090000C94440180E090E008950F931F93CF9348
:1010A000DF938C01C0E0D0E0F801EC0FFD1F6491EC
:1010B000662341F08EE391E00E94D103892B11F069
:1010C0002196F2CFCE01DF91CF911F910F9108951C
:1010D000CF93DF930E944D08EC0183E191E00E94E1
:1010E0003B088C0F9D1FDF91CF9108958F929F92A7
:1010F000AF92BF92CF92DF92EF92FF920E94DD01FA
:101100004B015C0184EFC82EDD24D394E12CF12C3B
:101110000E94DD01DC01CB0188199909AA09BB09EC
:10112000883E9340A105B10598F321E0C21AD10889
:10113000E108F10888EE880E83E0981EA11CB11C1E
:10114000C114D104E104F10419F7FF90EF90DF908E
:10115000CF90BF90AF909F908F900895CF93DF93E3
:10116000282F30E0F901E25EFD4F8491F901E65F3E
:10117000FD4FD491F901EA50FE4FC491CC2391F078
:1011800081110E94B907EC2FF0E0EE0FFF1FE45130
:10119000FE4FA591B491EC91ED2381E090E021F414
:1011A00080E002C080E090E0DF91CF910895CF937E
:1011B000DF93C7EFD2E09B838A831B8A81E08A8713
:1011C00088810E94AE089C878B871D861E861F869D
:1011D000188A1A8A198A1B8A1C8ADF91CF9108956E
:1011E0001F93CF93DF93282F30E0F901E25EFD4F8C
:1011F0008491F901E65FFD4FD491F901EA50FE4F69
:10120000C491CC23C1F0162F81110E94B907EC2F95
:10121000F0E0EE0FFF1FEE51FE4FA591B4919FB786
:10122000F894111104C08C91D095D82302C0EC9190
:10123000DE2BDC939FBFDF91CF911F9108958091AA
:10124000F2029091F302892BD1F01092DF021092FA
:10125000F3021092F2028091C902882311F061E03A
:1012600001C060E08091C7020E94F008E091DB02BB
:10127000F091DC02309719F087EC92E00994089520
:10128000CF93DF93C82F1092DF020E940202609377
:10129000E0027093E1028093E2029093E3021092E5
:1012A000F0021092F102C093F4021092F602109232
:1012B000F502C091F202D091F30282E090E09093A7
:1012C000F3028093F2028091C902882311F061E059
:1012D00001C060E08091C7020E94F008229759F097
:1012E000E091DB02F091DC02309729F087EC92E08C
:1012F000DF91CF910994DF91CF9108950F931F93C0
:10130000CF93DF938C01C62F1092DF020E9402025E
:101310006093E0027093E1028093E2029093E30213
:101320001092ED021092EC021093EF020093EE0285
:101330001092F00281E08093F102C093F4021092C7
:10134000F6021092F502C091F202D091F30282E00F
:1013500090E09093F3028093F2028091C902882377
:1013600011F061E001C060E08091C7020E94F008C6
:10137000229769F0E091DB02F091DC02309739F0BE
:1013800087EC92E0DF91CF911F910F910994DF914B
:10139000CF911F910F910895CF93DF9390E0FC01BF
:1013A000E65FFD4F2491FC01EA50FE4F84918823B3
:1013B00061F190E0880F991FFC01E852FE4FC59142
:1013C000D491FC01EE51FE4FA591B491611109C079
:1013D0009FB7F8948881209582238883EC912E23EF
:1013E0000BC0623061F49FB7F8948881322F30953A
:1013F00083238883EC912E2B2C939FBF06C08FB73D
:10140000F894E8812E2B28838FBFDF91CF91089528
:10141000789484B5826084BD84B5816084BD85B5CF
:10142000826085BD85B5816085BD80916E008160DB
:1014300080936E0010928100809181008260809381
:101440008100809181008160809381008091800083
:101450008160809380008091B10084608093B100AE
:101460008091B00081608093B00080917A008460A8
:1014700080937A0080917A00826080937A008091D4
:101480007A00816080937A0080917A0080688093EE
:101490007A001092C100E0914E01F0914F0182E07C
:1014A0008083E0914A01F0914B011082E0914C0160
:1014B000F0914D018FEC808310925601E091520122
:1014C000F091530186E08083E0915001F091510149
:1014D000808180618083E0915001F0915101808191
:1014E00088608083E0915001F09151018081806893
:1014F0008083E0915001F091510180818F7D808344
:1015000062E087E00E94CC0962E085E00E94CC099D
:1015100061E08DE00E94CC0961E084E00E94CC098A
:1015200060E086E00E94F00860E08DE00E94F00834
:1015300060E084E00E94F00861E088E00E94CC094D
:1015400061E088E00E94F0088BE090E00E94B00526
:1015500090E090933401809333018CE090E00E94FE
:10156000B00590E0909332018093310189E090E0E2
:101570000E94B005809300018AE090E00E94B005CF
:10158000809316016DE070E080E090E00E942506F7
:10159000EB0188E090E00E94B005811117C048E897
:1015A00053E160E070E08DE090E00E946D068FEF07
:1015B000809300016FEF89E090E00E940E0561E0EA
:1015C00088E090E00E940E05C8E8D3E1CE01DD0F6F
:1015D000AA0BBB0B8093370390933803A093390376
:1015E000B0933A038AE996E09093400380933F03D7
:1015F0008BEF95E090934203809341038FEF92E04D
:1016000090931903809318038BEF92E090931B0340
:1016100080931A03F89482E08093B0008093B10025
:1016200094E69093B3001092B20080937000789487
:101630008093DB011092DF018091DC0160E00E9469
:10164000CC0987EF92E09093B3028093B2028FE1CE
:1016500093E09093C0028093BF0281E293E0909365
:10166000DE028093DD028AE090E00E94B005809364
:1016700016010E94E2070E94110880E195E0909314
:1016800000038093FF0280E090E00E94D70882E18F
:1016900090E00E94B005882339F083E190E00E9439
:1016A000B00581110E94B205C1E082E0282E312CE4
:1016B00001E010E09AEFC92ED12CE12CF12CD8E0FA
:1016C00080E393E00E9412078DE093E00E941207EE
:1016D00080910103882309F467C08091F7020E947A
:1016E000AE085C018091020390910303A816B9062D
:1016F00049F18091F9029091FA02A816B90699F47D
:1017000080910A0381110CC0C0930A030E94020257
:10171000609304037093050380930603909307037B
:10172000C0930B030FC080910B03882359F0809165
:10173000080390910903019690930903809308038D
:1017400010920B0380910A03882351F10E94020238
:1017500040900403509005036090060370900703C7
:10176000DC01CB0184199509A609B7094090FB0259
:101770005090FC026090FD027090FE028415950569
:10178000A605B70568F01092010310920A03E091D4
:10179000FF02F0910003309719F087EF92E009956E
:1017A000B0920303A09202038091F2029091F3029F
:1017B000029709F0AFC18091C7029091C8028330AF
:1017C000910581F09C01255031092230310550F0FE
:1017D000245031092230310528F021E00B9719F00F
:1017E00020E001C021E08091F402882321F0211142
:1017F00002C01092F4028091F0028823E9F00E9466
:1018000002028090E4029090E502A090E602B0907F
:10181000E702DC01CB0188199909AA09BB0980906C
:10182000E8029090E902A090EA02B090EB028815DD
:101830009905AA05BB0578F48091F1028823C1F0CF
:101840002091EC023091ED028091EE029091EF0236
:10185000281739076CF00E941F09E091DD02F09112
:10186000DE02309709F456C187EC92E0099552C127
:101870000E9402028090E0029090E102A090E202B9
:10188000B090E302681979098A099B092091F40252
:10189000211163C02091DF02222371F14090CA021E
:1018A0005090CB026090CC027090CD02641575050B
:1018B0008605970508F42EC18091EC029091ED0207
:1018C00001969093ED028093EC021092DF028091DA
:1018D000CE029091CF02A091D002B091D102880E99
:1018E000991EAA1EBB1E8092E0029092E102A09275
:1018F000E202B092E3024AC04090CE025090CF0282
:101900006090D0027090D102641575058605970528
:1019100008F400C1C093DF028091CA029091CB020B
:10192000A091CC02B091CD02880E991EAA1EBB1EBA
:101930008092E0029092E102A092E202B092E30271
:101940008091C9026091DA02882309F489C02FEFDF
:1019500030E0261B3109B901D9C02091F502309140
:10196000F60221153105F1F48090CE029090CF025D
:10197000A090D002B090D102681579058A059B0528
:1019800028F01093F6020093F5028AC08091C902F4
:10199000882311F061E001C060E08091C7020E94DD
:1019A000F008B8C021303105C1F58090D202909086
:1019B000D302A090D402B090D502681579058A05AB
:1019C0009B0528F03092F6022092F50269C00E9431
:1019D000B1122B013C01C501B4010E94B1129B015F
:1019E000AC01C301B2010E9409124B015C0160917C
:1019F000DA0270E080E090E00E94B3122B013C011B
:101A0000A5019401C501B4010E943F139B01AC01E3
:101A1000C301B2010E943F1377C02230310511F596
:101A20008090CA029090CB02A090CC02B090CD02E0
:101A3000681579058A059B0538F043E050E050931E
:101A4000F6024093F5022CC08091C9026091DA023F
:101A5000882331F08FEF90E0861B9109BC0156C0BE
:101A600070E054C02330310509F054C08090D60294
:101A70009090D702A090D802B090D902681579054D
:101A80008A059B05C0F08091EC029091ED020196D1
:101A90009093ED028093EC021092F6021092F50200
:101AA0000E9402026093E0027093E1028093E202DE
:101AB0009093E3022FC00E94B1122B013C01C5019B
:101AC000B4010E94B1129B01AC01C301B2010E949A
:101AD00009122B013C016091DA0270E080E090E095
:101AE0000E94B3124B015C01A3019201C301B20138
:101AF0000E943F13A50194010E943F139B01AC017A
:101B0000C501B4010E949C110E947B128091C70202
:101B10000E947E0180911B0190911C01892B09F08C
:101B200058C0209133013091340180911901909176
:101B30001A018130910531F0AC0143505109423016
:101B40005105D0F52130310519F40E941F09F3C069
:101B50008091F2029091F302029709F4ECC0209177
:101B60003101309132012115310509F1C092CA02CB
:101B7000D092CB02E092CC02F092CD02C092CE0283
:101B8000D092CF02E092D002F092D102C092D20263
:101B9000D092D302E092D402F092D502C092D60243
:101BA000D092D702E092D802F092D902BEC084EF60
:101BB00091E0A0E0B0E0A9C08230910519F0892B36
:101BC00009F0B9C02130310509F4BFCF0E941108D6
:101BD000B2C080911801882309F460C08091170178
:101BE0008111A9C0C09317010E941F090E947608A5
:101BF0008091310190913201009709F1C092CA029F
:101C0000D092CB02E092CC02F092CD02C092CE02F2
:101C1000D092CF02E092D002F092D102C092D202D2
:101C2000D092D302E092D402F092D502C092D602B2
:101C3000D092D702E092D802F092D90214C024EFD9
:101C400031E040E050E02093CA023093CB02409351
:101C5000CC025093CD022093CE023093CF0240931A
:101C6000D0025093D10220911B0130911C012130F0
:101C7000310539F461E0892B09F460E081E090E0FE
:101C80000AC02230310509F056C061E0892B09F401
:101C900060E082E090E00E947E094DC08091F202F7
:101CA0009091F302029709F446C0209131013091DE
:101CB00032012115310529F18EE390E0A0E0B0E07A
:101CC0008093CA029093CB02A093CC02B093CD0232
:101CD0008093CE029093CF02A093D002B093D10212
:101CE0008093D2029093D302A093D402B093D502F2
:101CF0008093D6029093D702A093D802B093D902D2
:101D000014C08DE790E0A0E0B0E08093CA02909309
:101D1000CB02A093CC02B093CD028093CE029093DD
:101D2000CF02A093D002B093D10281E0232B09F41B
:101D300080E00E9440098DEA92E00E94C8068091EE
:101D4000190190911A01892B11F460E001C061E042
:101D500084E00E94F0088AEB92E00E94C8068EE3BD
:101D600091E00E94E102892B09F409C18EE391E020
:101D70000E94BF028F3399F41093300100932F011A
:101D8000E7E2F1E0DF012D2F1D922A95E9F7EFE15F
:101D9000F1E0DF012D2F1D922A95E9F706C08C375F
:101DA00049F43092300120922F0110921E011092BE
:101DB0001D01E5C0813209F0BAC0109230011092C5
:101DC0002F0110921E0110921D0185E990E00E94E2
:101DD0004D0887E291E00E943B0883E191E00E9478
:101DE0003B0888E890E00E944D088FE191E00E9456
:101DF0003B0883E191E00E943B0864E870E087E2E1
:101E000091E00E943811892B81F48FE191E00E94CA
:101E1000F310B82EA92E682F8BE090E00E94FA04F0
:101E2000B0923301A0923401AAC060E870E087E26A
:101E300091E00E943811892B81F48FE191E00E949A
:101E4000F310B82EA92E682F8CE090E00E94FA04BF
:101E5000B0923101A092320192C06CE770E087E24B
:101E600091E00E943811892B69F48FE191E00E9482
:101E7000F310B82E682F89E090E00E94FA04B09227
:101E800000017DC068E770E087E291E00E943811B0
:101E9000892B69F48FE191E00E94F310B82E682F2E
:101EA0008AE090E00E94FA04B092160168C064E7EC
:101EB00070E087E291E00E943811892B19F40E94AA
:101EC000E8055DC060E770E087E291E00E943811AC
:101ED000892B59F48FE191E00E941111AB01BC01F3
:101EE0008DE090E00E946D064AC06CE670E087E2EB
:101EF00091E00E943811892B41F48FE191E00E941A
:101F0000F310682F81E190E00FC068E670E087E28F
:101F100091E00E943811892B91F58FE191E00E94A8
:101F2000F310682F82E190E00E94FA0428C020910B
:101F30002F01309130012130310579F420911D01BC
:101F400030911E01A9014F5F5F4F50931E014093D6
:101F50001D01F901E95DFE4F11C02230310579F410
:101F600020911D0130911E01A9014F5F5F4F5093D9
:101F70001E0140931D01F901E15EFE4F80830E9426
:101F8000ED029ECB7F928F929F92AF92BF92CF92A3
:101F9000DF92EF92FF920F931F93CF93DF93EEE3C5
:101FA000F1E01382128288EEC82E83E0D82EE12C55
:101FB000F12CC482D582E682F78285E091E091839C
:101FC000808385EC90E09587848784EC90E0978708
:101FD000868780EC90E0918B808B81EC90E0938BF6
:101FE000828B82EC90E0958B848B86EC90E0978BD3
:101FF000868B118E128E138E148EC0E3D3E082E096
:1020000090E099838883772473947A8292E3892E6F
:10201000912CA12CB12C8B829C82AD82BE82CF826E
:10202000D886E986FA861C861B861E861D86188A37
:102030001F861A8A198A62E00E94CC0901E010E02A
:102040001C8B0B8B1A8F098F1D8A1E8A1F8A188E74
:102050001B8E1C8E1D8E1E8E1F8E18A21AA219A2F8
:10206000CDE0D3E089E090E0998388837A828B8207
:102070009C82AD82BE82CF82D886E986FA861C8693
:102080001B861E861D86188A1F861A8A198A62E098
:102090000E94CC091C8B0B8B1A8F098F1D8A1E8AFC
:1020A0001F8A188E1B8E1C8E1D8E1E8E1F8E18A2D0
:1020B0001AA219A2EBEDF1E087E081831382C7EF4A
:1020C000D2E085E090E0998388831B821A82CC82DB
:1020D000DD82EE82FF821986188662E00E94CC09BA
:1020E0001A8685E00E94AE089C878B871D861E8617
:1020F0001F86188A1A8A198A1B8A1C8AE7ECF2E062
:1021000086E090E091838083128284EF91E0A0E0EA
:10211000B0E083839483A583B68387839087A18768
:10212000B28713861486158616861786108A118A3A
:10213000128A8FEF838B158A148A178A168A108E5B
:10214000118E128E138E148E158E168E178E10A26F
:1021500011A212A213A214A216A215A210A617A2CF
:1021600011A612A614A613A615A617A616A661E018
:1021700086E00E94CC0960E086E00E94F008EAEB6D
:10218000F2E088E99AE3A0E0B0E080839183A28343
:10219000B3831482168215821782108611861286E6
:1021A00014861386EDEAF2E084E690E0A0E0B0E069
:1021B00080839183A283B38314821682158217824F
:1021C00010861186128614861386DF91CF911F9197
:1021D0000F91FF90EF90DF90CF90BF90AF909F90C6
:1021E0008F907F900895FC0188279927E89421918A
:1021F0002032E9F3293010F02E30C8F32B3241F0B1
:102200002D3239F4689404C00E945611820F911D3A
:10221000219120532A30C0F31EF4909581959F4F51
:1022200008951F93FC0199278827BC01E894119118
:102230001032E9F3193010F01E30C8F31B3251F0A0
:102240001D3249F4689406C00E944111610F711D4E
:10225000811D911D119110531A30B0F33EF49095E9
:102260008095709561957F4F8F4F9F4F1F91089577
:10227000FB01DC018D91059080190110D9F3990BB8
:102280000895592F482F372F262F660F771F881F45
:10229000991F660F771F881F991F620F731F841F76
:1022A000951F660F771F881F991F08957AE0979FE3
:1022B000902D879F802D910D11240895F999FECFBF
:1022C00092BD81BDF89A992780B50895262FF99976
:1022D000FECF1FBA92BD81BD20BD0FB6F894FA9A09
:1022E000F99A0FBE01960895A1E21A2EAA1BBB1BF4
:1022F000FD010DC0AA1FBB1FEE1FFF1FA217B307D2
:10230000E407F50720F0A21BB30BE40BF50B661FE7
:10231000771F881F991F1A9469F7609570958095AB
:1023200090959B01AC01BD01CF010895EE0FFF1FF9
:102330000590F491E02D09945058BB27AA270E94DC
:10234000B4110C9405130E94F71238F00E94FE128B
:1023500020F039F49F3F19F426F40C94F4120EF493
:10236000E095E7FB0C94EE12E92F0E94161358F348
:10237000BA17620773078407950720F079F4A6F56A
:102380000C9438130EF4E0950B2EBA2FA02D0B01F0
:10239000B90190010C01CA01A0011124FF27591BAA
:1023A00099F0593F50F4503E68F11A16F040A22FB0
:1023B000232F342F4427585FF3CF46953795279521
:1023C000A795F0405395C9F77EF41F16BA0B620B20
:1023D000730B840BBAF09150A1F0FF0FBB1F661F67
:1023E000771F881FC2F70EC0BA0F621F731F841FAA
:1023F00048F4879577956795B795F7959E3F08F0D0
:10240000B0CF9395880F08F09927EE0F9795879591
:1024100008950E941D120C9405130E94FE1258F09C
:102420000E94F71240F029F45F3F29F00C94EE125D
:1024300051110C9439130C94F4120E94161368F382
:102440009923B1F3552391F3951B550BBB27AA276D
:1024500062177307840738F09F5F5F4F220F331FA7
:10246000441FAA1FA9F335D00E2E3AF0E0E832D06F
:1024700091505040E695001CCAF72BD0FE2F29D072
:10248000660F771F881FBB1F261737074807AB0744
:10249000B0E809F0BB0B802DBF01FF2793585F4FB9
:1024A0003AF09E3F510578F00C94EE120C943913DB
:1024B0005F3FE4F3983ED4F3869577956795B7959B
:1024C000F7959F5FC9F7880F911D9695879597F9A6
:1024D0000895E1E0660F771F881FBB1F621773071F
:1024E0008407BA0720F0621B730B840BBA0BEE1F34
:1024F00088F7E09508950E9482126894B1110C94B7
:10250000391308950E941E1388F09F5798F0B92F31
:102510009927B751B0F0E1F0660F771F881F991F18
:102520001AF0BA95C9F714C0B13091F00E9438136F
:10253000B1E008950C943813672F782F8827B85F7F
:1025400039F0B93FCCF3869577956795B395D9F770
:102550003EF490958095709561957F4F8F4F9F4F7A
:102560000895E89409C097FB3EF490958095709586
:1025700061957F4F8F4F9F4F9923A9F0F92F96E9CF
:10258000BB279395F695879577956795B795F11144
:10259000F8CFFAF4BB0F11F460FF1BC06F5F7F4FE1
:1025A0008F4F9F4F16C0882311F096E911C07723F3
:1025B00021F09EE8872F762F05C0662371F096E8FC
:1025C000862F70E060E02AF09A95660F771F881FCB
:1025D000DAF7880F9695879597F9089597F99F6789
:1025E00080E870E060E008959FEF80EC089500249B
:1025F0000A941616170618060906089500240A9468
:1026000012161306140605060895092E0394000CED
:1026100011F4882352F0BB0F40F4BF2B11F460FF7C
:1026200004C06F5F7F4F8F4F9F4F089557FD9058A5
:10263000440F551F59F05F3F71F04795880F97FB86
:10264000991F61F09F3F79F0879508951216130640
:102650001406551FF2CF4695F1DF08C0161617066F
:102660001806991FF1CF86957105610508940895A4
:10267000E894BB2766277727CB0197F908950E9436
:1026800052130C9405130E94F71238F00E94FE12A8
:1026900020F0952311F00C94EE120C94F4121124F6
:1026A0000C9439130E94161370F3959FC1F3950F84
:1026B00050E0551F629FF001729FBB27F00DB11DC6
:1026C000639FAA27F00DB11DAA1F649F6627B00D56
:1026D000A11D661F829F2227B00DA11D621F739F3F
:1026E000B00DA11D621F839FA00D611D221F749F4D
:1026F0003327A00D611D231F849F600D211D822F94
:10270000762F6A2F11249F5750409AF0F1F08823BA
:102710004AF0EE0FFF1FBB1F661F771F881F9150E7
:102720005040A9F79E3F510580F00C94EE120C9496
:1027300039135F3FE4F3983ED4F386957795679518
:10274000B795F795E7959F5FC1F7FE2B880F911D11
:102750009695879597F9089581E090E0F8940C9408
:06276000B113F894FFCF55
:10276600FF00000000D1034401B0021E04E102BFD5
:0627760002D3020D0A006F
:00000001FF
