:100000000C9418010C9440010C9440010C94400194
:100010000C9440010C9440010C9440010C94E502B6
:100020000C9440010C9440010C9440010C9440014C
:100030000C9440010C9440010C9440010C9440013C
:100040000C94600A0C9440010C94B3020C948D0241
:100050000C9440010C9440010C9440010C9440011C
:100060000C9440010C9440014C5041004C50540001
:10007000524543004C504C004C5450004C424600FA
:100080004C424E0053657269616C2076616C3A2077
:100090000053657269616C20636D643A200073746B
:1000A000617465206368616E67656420746F2053B6
:1000B000544154455F424F4F54494E470073746159
:1000C0007465206368616E67656420746F205354A3
:1000D0004154455F53485554444F574E0073746123
:1000E0007465206368616E67656420746F20535483
:1000F0004154455F5245424F4F540070726F6753F1
:1001000074617465206368616E67656420746F2034
:1001100050524F475F53544154455F434F44455FEE
:100120004F4E0070726F675374617465206368612D
:100130006E67656420746F2050524F475F5354417F
:1001400054455F4E4F4E450073746174652063687B
:10015000616E67656420746F2053544154455F4F4E
:1001600046460070726F67537461746520636861FE
:100170006E67656420746F2050524F475F5354413F
:1001800054455F434F44455F4F4646007374617466
:1001900065206368616E67656420746F2053544105
:1001A00054455F4F4646007374617465206368610F
:1001B0006E67656420746F2053544154455F4F4E01
:1001C000006E6F2070756C7365730070756C73656D
:1001D000733A200000000000240027002A000000DD
:1001E0000000250028002B0000000000230026004E
:1001F00029000404040404040404020202020202AA
:1002000003030303030301020408102040800102DA
:100210000408102001020408102000000008000259
:1002200001000003040700000000000000001A178E
:1002300011241FBECFEFD8E0DEBFCDBF11E0A0E09C
:10024000B1E0EAE2F7E302C005900D92A631B107F2
:10025000D9F723E0A6E1B1E001C01D92AE35B207A7
:10026000E1F711E0C8E1D1E004C02197FE010E944E
:100270004019C731D107C9F70E94AA0A0C94931BF1
:100280000C940000CF92DF92EF92FF920F931F9396
:10029000CF93DF936C017A018B01C0E0D0E0CE15E3
:1002A000DF0581F0D8016D918D01D601ED91FC91B2
:1002B0000190F081E02DC6010995892B11F021965E
:1002C000EECF7E01C701DF91CF911F910F91FF907B
:1002D000EF90DF90CF900895089580E090E008952A
:1002E000FC01538D448D252F30E0842F90E0821B3C
:1002F000930B541710F0CF96089501970895FC01C1
:10030000918D828D981761F0828DDF01A80FB11D4C
:100310005D968C91928D9F5F9F73928F90E0089570
:100320008FEF9FEF0895FC01918D828D981731F02A
:10033000828DE80FF11D858D90E008958FEF9FEF7E
:100340000895FC01918D228D892F90E0805C9F4F54
:10035000821B91098F739927089580E491E00E9490
:10036000A10121E0892B09F420E0822F0895FC01EE
:10037000848DDF01A80FB11DA35ABF4F2C91848D2E
:1003800090E001968F739927848FA689B7892C9363
:10039000A089B1898C91837080648C93938D848DB6
:1003A000981306C00288F389E02D80818F7D8083B9
:1003B0000895EF92FF920F931F93CF93DF93EC0179
:1003C00081E0888F9B8D8C8D981305C0E889F98911
:1003D000808185FD26C0F62E0B8D10E00F5F1F4F2C
:1003E0000F731127E02E8C8DE8120CC00FB607FC9E
:1003F000FACFE889F989808185FFF5CFCE010E9487
:10040000B701F1CF8B8DFE01E80FF11DE35AFF4FCD
:10041000F0829FB7F8940B8FEA89FB898081806214
:100420000AC09FB7F894EE89FF896083E889F9894B
:1004300080818370806480839FBF81E090E0DF9142
:10044000CF911F910F91FF90EF900895CF93DF937D
:10045000EC01888D8823C9F0EA89FB89808185FDBC
:1004600005C0A889B9898C9186FD0FC00FB607FC1D
:10047000F5CF808185FFF2CFA889B9898C9185FF5E
:10048000EDCFCE010E94B701E7CFDF91CF91089564
:1004900080E090E0892B29F00E94AD0181110C943D
:1004A000000008950E948E1B60E08DE00C94B80857
:1004B00061E089E00C94B80860E089E00C94B80829
:1004C00010921B0110921A0183E291E00E94B8077A
:1004D000109217011092C8021092C70208950C944E
:1004E00060020E94C60710921601109217018091B7
:1004F0001A0190911B018130910551F482E090E046
:1005000090931B0180931A0183E691E00C94B80745
:10051000029711F40C94600208951F920F920FB687
:100520000F9211242F933F934F935F936F937F9379
:100530008F939F93AF93BF93EF93FF9380E491E0EA
:100540000E94B701FF91EF91BF91AF919F918F9161
:100550007F916F915F914F913F912F910F900FBEBF
:100560000F901F9018951F920F920FB60F921124A3
:100570002F938F939F93EF93FF93E0915001F0910E
:1005800051018081E0915601F091570182FD12C026
:100590009081809159018F5F8F7320915A0182174A
:1005A00051F0E0915901F0E0E05CFE4F958F8093AF
:1005B000590101C08081FF91EF919F918F912F91FF
:1005C0000F900FBE0F901F9018951F920F920FB6AD
:1005D0000F9211242F933F934F935F936F937F93C9
:1005E0008F939F93AF93BF93EF93FF938091DE011F
:1005F0000E9476082091E2013091E3012F5F3F4F86
:100600003093E3012093E2019091E101953618F0D7
:1006100096E09093DD019091DD019430C9F128F4CA
:10062000923069F09330D1F05EC0953009F451C03A
:10063000963009F058C091E09093AE0251C08111FC
:1006400052C02091E2013091E3012436310508F4D3
:1006500042C01092AE021092E1011CC0813009F03C
:1006600042C0E091E10191E09E0F9093E101F0E042
:100670002091E2013091E301EE0FFF1FE352FE4FA4
:10068000308727831092E3011092E20194E029C0A1
:10069000811117C0E091E10191E09E0F9093E1017B
:1006A000F0E02091E2013091E301EE0FFF1FE352F1
:1006B000FE4F308727831092E3011092E20193E00E
:1006C00010C02091E2013091E3012536310558F048
:1006D00007C0811108C01092E3011092E20103C02B
:1006E00095E09093DD019091E0019923B9F081119B
:1006F0000AC08091DF01882321F08091DF0161E051
:1007000009C02D9A0BC08091DF01882331F08091C0
:10071000DF0160E00E94B80801C02D98FF91EF91C1
:10072000BF91AF919F918F917F916F915F914F9109
:100730003F912F910F900FBE0F901F901895CF9261
:10074000DF92EF92FF92CF93DF93EC01072E000C24
:10075000880B990B0E94711A6B017C0120E030E03C
:1007600040E45FE30E94211B20E030E048E452E4D3
:100770000E94C7190E94391AC617D707D4F020E083
:1007800030E040EA5FE3C701B6010E94211B20E090
:1007900030E048E452E40E94C71920E030E040E82D
:1007A0005FE30E9456190E94391A21E06C177D07F9
:1007B0000CF420E0822F90E0DF91CF91FF90EF903A
:1007C000DF90CF9008951F93CF93DF93EC01162F06
:1007D0000E94B618181739F0612FCE01DF91CF9122
:1007E0001F910C94BE18DF91CF911F9108950C9426
:1007F000B6188091180190911901019789F181E053
:1008000090E0909319018093180189E090E00E9494
:10081000F7030E9432078EE990E00E94B807109219
:10082000FC021092FB0210920C0381E08093030300
:100830008091F9020E947608909305038093040347
:1008400010920603109207031092080310920903F6
:1008500010920B0310920A0310920C0310920D03D6
:100860000895CF92DF92EF92FF920F931F93CF9351
:100870006B017C01CB010E94F703C82FC6010196D2
:100880000E94F703182FC60102960E94F703082F53
:10089000C60103960E94F703412F50E060E070E02C
:1008A000762F652F542F44274C0F511D611D711D4C
:1008B00010E020E030E0980111270027400F511F81
:1008C000621F731F90E0A0E0B0E0B82FAA2799271D
:1008D00088278A019B01080F191F2A1F3B1FC90186
:1008E000B801CF911F910F91FF90EF90DF90CF90C3
:1008F0000895CF92DF92EF92FF92CF93DF93EC01B6
:100900006A017B01642F0E94E3039927F7FC9A9503
:100910008F2D7E2D6D2DCE0101960E94E303B70130
:10092000992777FD9095892FCE0102960E94E303C7
:100930006F2D772788279927CE010396DF91CF91D6
:10094000FF90EF90DF90CF900C94E303CF92DF9273
:10095000EF92FF920F931F93CF93DF93FC012385B8
:100960003485232BA1F1EC010E94540A0F811885D4
:1009700029853A85C880D980EA80FB80AB01BC011B
:10098000401B510B620B730B4C155D056E057F050B
:10099000F0F04C81411103C01C861B860AC0D901AE
:1009A000C8018C0D9D1DAE1DBF1D8F839887A98723
:1009B000BA87ED81FE81309751F0CE01DF91CF9162
:1009C0001F910F91FF90EF90DF90CF900994DF91EE
:1009D000CF911F910F91FF90EF90DF90CF900895EE
:1009E000CF93DF93EC010E94540A6F837887898745
:1009F0009A8781E090E09C878B87DF91CF91089563
:100A000089E090E00E94F7030E94320781E090E0C5
:100A100090931B0180931A018BEF90E00E94B8071E
:100A2000109217018CEB92E00C94F004CF9320917C
:100A30001801309119012430310561F1C82F84E08B
:100A400090E0909319018093180189E090E00E9452
:100A5000F7030E9432078DED90E00E94B80780E016
:100A600090E00E949F08CC23A9F061E08DE00E94F5
:100A7000B80884EF91E0A0E0B0E08093AF029093DB
:100A8000B002A093B102B093B2028FEA92E0CF918C
:100A90000C94F004CF91089580911A0190911B015C
:100AA000892BE1F481E190E00E94F7032091180185
:100AB000309119012230310569F4811103C081E0C0
:100AC0000C941605109219011092180188E491E017
:100AD0000C94B807232B21F40C9400050C946002AD
:100AE0000895CF93209118013091190123303105D9
:100AF00061F1C82F83E090E0909319018093180171
:100B000089E090E00E94F7030E9432078DEB90E0AD
:100B10000E94B80781E090E00E949F08CC23A9F0D2
:100B200061E08DE00E94B80884E690E0A0E0B0E0CB
:100B30008093AF029093B002A093B102B093B2023F
:100B40008FEA92E0CF910C94F004CF9108958F92A8
:100B50009F92AF92BF92EF92FF920F931F93CF930A
:100B6000DF93CDB7DEB7A1970FB6F894DEBF0FBE07
:100B7000CDBFFC010189128910161106ECF58BEC32
:100B800091E00E949D079801012E000C440B550B2B
:100B900019A27E01F1E2EF0EF11C8AE0882E912C61
:100BA000A12CB12CCA01B901A50194010E94DC1845
:100BB000605DF70162937F01211531054105510503
:100BC00089F7CF010E948B0782E191E00E948B0799
:100BD00080911801909119010297A9F50130110532
:100BE00021F480E00E9471052EC00230110559F5F4
:100BF00080E00E94160527C081EC91E00E94B807B2
:100C000085E00E947608892B69F482E090E0909359
:100C100019018093180187EA91E00E94B80781E0EA
:100C200090E00FC085E00E947608019761F4109271
:100C30001901109218018CE891E00E94B80780E039
:100C400090E00E949F08A1960FB6F894DEBF0FBEF9
:100C5000CDBFDF91CF911F910F91FF90EF90BF908B
:100C6000AF909F908F90089580911A0190911B01F1
:100C7000009769F48091180190911901009711F47F
:100C80000C94F9030297E9F481E00C94710581302A
:100C9000910539F481E0809317018CEB92E00C947C
:100CA000F004029771F460E070E0CB010E9431041F
:100CB000AB01BC0184E090E00E94790481E0809364
:100CC00017010895CF92DF92EF92FF920F931F9337
:100CD000CF93DF93EC0188810E9476088C018B8989
:100CE0009C890817190731F00E94540A6D8B7E8B7E
:100CF0008F8B988F0E94540ACD88DE88EF88F88CFD
:100D0000DC01CB018C199D09AE09BF09CB80DC80C9
:100D1000ED80FE80C816D906EA06FB0608F06AC018
:100D2000898D9A8D08171907E9F11A8F098F8A8121
:100D3000882321F00115110521F019C0013011059A
:100D4000B1F481E090E09AA389A3EB85FC8530970C
:100D500011F0CE0109958F8D811150C081E08F8FE8
:100D60000E94540A6B8F7C8F8D8F9E8F47C01AA272
:100D700019A2ED85FE85309711F0CE0109958F8D72
:100D8000882349F088A1811106C0EF85F889309742
:100D900011F0CE0109951F8E18A21B8E1C8E1D8E80
:100DA0001E8E2CC00E94540ACB8CDC8CED8CFE8CE9
:100DB000DC01CB018C199D09AE09BF09CF80D88415
:100DC000E984FA84C816D906EA06FB06B8F48F8DC2
:100DD0008823A1F088A1811111C081E088A382E05D
:100DE00090E09AA389A3E989FA89309739F0CE0176
:100DF000099504C08FEF9FEF9AA389A31C8B0B8BDF
:100E0000DF91CF911F910F91FF90EF90DF90CF90E6
:100E10000895833081F028F4813099F08230A1F078
:100E200008958730A9F08830B9F08430D1F48091EA
:100E300080008F7D03C0809180008F778093800039
:100E4000089584B58F7702C084B58F7D84BD0895E1
:100E50008091B0008F7703C08091B0008F7D809328
:100E6000B00008958093DC028091C9029091CA027B
:100E70008330910559F09C0125503109223031050C
:100E800028F02450310923303105B0F42091F402C8
:100E90003091F5022130310599F43091CB02209147
:100EA000DC02332329F06FEF70E0621B710902C08E
:100EB000622F70E00C94D0092FEF2093DC02E6CF74
:100EC00008958091F4029091F502019719F181E063
:100ED0008093E10281E090E09093F5028093F40228
:100EE0009091CB028091DC02992329F06FEF70E0A2
:100EF000681B710902C0682F70E08091C9020E94CE
:100F0000D009E091DD02F091DE02309719F089EC12
:100F100092E009940895009769F0FC010190002087
:100F2000E9F73197AF01481B590BBC0180E491E010
:100F30000C94420180E090E008950F931F93CF93AB
:100F4000DF938C01C0E0D0E0F801EC0FFD1F64914D
:100F5000662341F080E491E00E94D901892B11F0D1
:100F60002196F2CFCE01DF91CF911F910F9108957D
:100F7000CF93DF930E949D07EC0182E191E00E94F4
:100F80008B078C0F9D1FDF91CF9108958F929F92B9
:100F9000AF92BF92CF92DF92EF92FF920E942F0A00
:100FA0004B015C0184EFC82EDD24D394E12CF12C9D
:100FB0000E942F0ADC01CB0188199909AA09BB09F3
:100FC000883E9340A105B10598F321E0C21AD108EB
:100FD000E108F10888EE880E83E0981EA11CB11C80
:100FE000C114D104E104F10419F7FF90EF90DF90F0
:100FF000CF90BF90AF909F908F9008958F929F92C7
:10100000AF92BF92CF92DF92EF92FF920F931F9316
:10101000CF93DF93FC0120813181E0913C01F0917D
:101020003D012E173F070CF04FC0F901EE0FFF1FD7
:10103000A0913A01B0913B01EA0FFB1FA080B18063
:10104000217033276901F1E0CF26232B19F42CE915
:101050003FEF02C024E630E07A018B01EC01490148
:10106000840E951EB401C5010E949F03892B99F43B
:101070008E0C9F1CB401C5010E949F03892B71F443
:10108000B701680D791DC5010E949F03892BF9F0F6
:1010900023E030E005C021E030E002C022E030E093
:1010A000F801808191810196821793071CF4918346
:1010B000808308C0F801118210828881998101968D
:1010C00099838883C60105C081E090E002C08FEF5C
:1010D0009FEFDF91CF911F910F91FF90EF90DF90E5
:1010E000CF90BF90AF909F908F900895CF93DF9354
:1010F000282F30E0F901E65EFD4F8491F901EA5FA7
:10110000FD4FD491F901EE50FE4FC491CC2391F0E4
:1011100081110E940907EC2FF0E0EE0FFF1FE8514C
:10112000FE4FA591B491EC91ED2381E090E021F484
:1011300080E002C080E090E0DF91CF910895CF93EE
:10114000DF93C9EFD2E09B838A831B8A81E08A8781
:1011500088810E9476089C878B871D861E861F8645
:10116000188A1A8A198A1B8A1C8ADF91CF910895DE
:101170001F93CF93DF93282F30E0F901E65EFD4FF8
:101180008491F901EA5FFD4FD491F901EE50FE4FD1
:10119000C491CC23C1F0162F81110E940907EC2FB6
:1011A000F0E0EE0FFF1FE252FE4FA591B4919FB702
:1011B000F894111104C08C91D095D82302C0EC9101
:1011C000DE2BDC939FBFDF91CF911F91089580911B
:1011D000F4029091F502892BD1F01092E102109265
:1011E000F5021092F4028091CB02882311F061E0A5
:1011F00001C060E08091C9020E94B808E091DD0260
:10120000F091DE02309719F089EC92E0099408958C
:10121000CF93DF93C82F1092E1020E94540A60938B
:10122000E2027093E3028093E4029093E50210924D
:10123000F2021092F302C093F6021092F80210929A
:10124000F702C091F402D091F50282E090E0909311
:10125000F5028093F4028091CB02882311F061E0C3
:1012600001C060E08091C9020E94B808229759F03D
:10127000E091DD02F091DE02309729F089EC92E0F6
:10128000DF91CF910994DF91CF9108950F931F9330
:10129000CF93DF938C01C62F1092E1020E94540A73
:1012A0006093E2027093E3028093E4029093E5027C
:1012B0001092EF021092EE021093F1020093F002EE
:1012C0001092F20281E08093F302C093F602109232
:1012D000F8021092F702C091F402D091F50282E078
:1012E00090E09093F5028093F4028091CB028823E2
:1012F00011F061E001C060E08091C9020E94B8086D
:10130000229769F0E091DD02F091DE02309739F02A
:1013100089EC92E0DF91CF911F910F910994DF91B9
:10132000CF911F910F910895CF93DF9390E0FC012F
:10133000EA5FFD4F2491FC01EE50FE4F849188231B
:1013400061F190E0880F991FFC01EC52FE4FC591AE
:10135000D491FC01E252FE4FA591B491611109C0F4
:101360009FB7F8948881209582238883EC912E235F
:101370000BC0623061F49FB7F8948881322F3095AA
:1013800083238883EC912E2B2C939FBF06C08FB7AD
:10139000F894E8812E2B28838FBFDF91CF91089599
:1013A0001F93CF93DF93182FEB0161E00E94940904
:1013B000209711F460E004C0CF3FD10539F461E01B
:1013C000812FDF91CF911F910C94B808E12FF0E0AD
:1013D000E65EFD4FE491E330F9F048F4E130B9F016
:1013E000E230A1F584B5806284BDC8BD34C0E73069
:1013F000E9F0E83019F1E43049F58091800080622D
:1014000080938000D0938B00C0938A0024C084B561
:10141000806884BDC7BD1FC08091800080688093B4
:101420008000D0938900C093880015C08091B000DF
:1014300080688093B000C093B3000DC08091B0006D
:1014400080628093B000C093B40005C0C038D1055D
:101450000CF0B5CFAFCFDF91CF911F9108953FB77B
:10146000F89480915A0390915B03A0915C03B09132
:101470005D0326B5A89B05C02F3F19F00196A11D5D
:10148000B11D3FBFBA2FA92F982F8827820F911D1A
:10149000A11DB11DBC01CD0142E0660F771F881F61
:1014A000991F4A95D1F708952FB7F8946091560384
:1014B0007091570380915803909159032FBF08955D
:1014C0001F920F920FB60F9211242F933F938F9379
:1014D0009F93AF93BF938091560390915703A09130
:1014E0005803B09159033091550323E0230F2D3752
:1014F00020F40196A11DB11D05C026E8230F029618
:10150000A11DB11D2093550380935603909357035B
:10151000A0935803B093590380915A0390915B03B1
:10152000A0915C03B0915D030196A11DB11D809354
:101530005A0390935B03A0935C03B0935D03BF9148
:10154000AF919F918F913F912F910F900FBE0F9070
:101550001F901895CF93DF93CDB7DEB72C970FB6BA
:10156000F894DEBF0FBECDBF789484B5826084BD91
:1015700084B5816084BD85B5826085BD85B5816097
:1015800085BD80916E00816080936E001092810015
:1015900080918100826080938100809181008160D0
:1015A0008093810080918000816080938000809191
:1015B000B10084608093B1008091B000816080931D
:1015C000B00080917A00846080937A0080917A00E4
:1015D000826080937A0080917A00816080937A00A3
:1015E00080917A00806880937A001092C10061E057
:1015F0008CE090E00E94BE18E0915001F091510102
:1016000082E08083E0914C01F0914D011082E091E5
:101610004E01F0914F018FEC808310925801E091C0
:101620005401F091550186E08083E0915201F091E0
:101630005301808180618083E0915201F0915301D8
:10164000808188608083E0915201F0915301808114
:1016500080688083E0915201F091530180818F7DF9
:10166000808362E087E00E94940962E085E00E9446
:10167000940961E08DE00E94940961E084E00E9499
:10168000940961E089E00E94940960E086E00E948C
:10169000B80860E08DE00E94B80860E084E00E9435
:1016A000B80861E089E00E94B8086DE070E080E071
:1016B00090E00E9431048B0188E090E00E94F703E3
:1016C000811114C048E853E160E070E08DE090E0E3
:1016D0000E9479046FEF89E090E00E94BE1861E0FB
:1016E00088E090E00E94BE1808E813E1C801110FDD
:1016F000AA0BBB0B8093390390933A03A0933B034F
:10170000B0933C0384E396E09093420380934103BB
:101710008CE495E090934403809343038CE592E03E
:1017200090931B0380931A0388E592E090931D0326
:1017300080931C03F89482E08093B0008093B10002
:1017400094E69093B3001092B20080937000789466
:101750008093DD011092E1018091DE0160E00E9442
:10176000940984E592E09093B5028093B4028FE6E9
:1017700092E09093C2028093C1028AE090E00E94BE
:10178000F7030E94320781E792E09093E002809392
:10179000DF020E94610787EA95E09093020380933D
:1017A000010380E090E00E949F0880E2282E312C07
:1017B0009AEF492E512C612C712C82E393E00E9408
:1017C00062068FE093E00E94620684EE91E09093BF
:1017D0003B0180933A018091E10190E090933D01BB
:1017E00080933C018091AE0290E090933F01809302
:1017F0003E018091DD01853009F0E5C08091E60170
:101800009091E701885891098D35910588F4809170
:10181000E101843041F48091E8019091E9018097E1
:10182000479708F415C58091E101843408F0F7C4A6
:101830008091E1018A3108F473C58091E4019091AF
:10184000E501843F914098F41092390110923801DB
:101850008FEF9FEFDC018093340190933501A093CB
:101860003601B0933701ABE0B0E00C940E178091D5
:10187000E6019091E70185974B9708F051C5EAEE94
:10188000F1E082E090E040E050E0BA018C010F5FAF
:101890001F4F2091E10130E0021713076CF49F0104
:1018A00022503109D9012D913C912750310927301F
:1018B000310508F41AC5C80101979595879590934D
:1018C0003901809338010C972CF410923901109251
:1018D000380126C540933401509335016093360199
:1018E0007093370184E090E00AC0C0923401D09236
:1018F0003501E0923601F09237018CE090E0909350
:10190000310180933001C0903401D0903501E090D6
:101910003601F0903701BFEFCB16DB06EB06FB0676
:1019200009F44CC080911A0190911B01009751F568
:1019300060E070E0CB010E9431044B015C0164E087
:1019400070E080E090E00E943104C814D904EA04F9
:10195000FB0449F42091180130911901232B19F44B
:101960000E94F9032BC0C616D706E806F90631F522
:101970008091180190911901029701F581E00E9470
:1019800071051CC08130910571F4B701A60180E09A
:1019900090E00E94790481E0809317018CEB92E043
:1019A0000E94F0040BC0029749F4B701A60184E03D
:1019B00090E00E94790481E08093170182E0809397
:1019C000DD011092E10180910303882309F469C0CD
:1019D0008091F9020E9476088C0180910403909115
:1019E00005030817190759F18091FB029091FC0239
:1019F00008171907A9F480910C0381110DC081E02B
:101A000080930C030E94540A6093060370930703AB
:101A1000809308039093090381E080930D030FC026
:101A200080910D03882359F080910A0390910B0354
:101A3000019690930B0380930A0310920D038091FB
:101A40000C03882351F10E94540AC0900603D090E1
:101A50000703E0900803F0900903DC01CB018C1927
:101A60009D09AE09BF09C090FD02D090FE02E09032
:101A7000FF02F09000038C159D05AE05BF0568F0D0
:101A80001092030310920C03E0910103F091020302
:101A9000309719F089EF92E00995109305030093B0
:101AA00004038091F4029091F502029709F0A2C11B
:101AB0002091C9023091CA022330310571F0C90169
:101AC00005978230910548F00497029730F081E045
:101AD0002B30310519F080E001C081E09091F602D1
:101AE000992321F0811102C01092F6028091F20236
:101AF0008823E9F00E94540A0091E6021091E7025F
:101B00002091E8023091E902DC01CB01801B910BAE
:101B1000A20BB30B0091EA021091EB022091EC02B0
:101B20003091ED0280179107A207B30778F48091F6
:101B3000F3028823C1F02091EE023091EF028091F0
:101B4000F0029091F102281739076CF00E94E70823
:101B5000E091DF02F091E002309709F44BC189EC8B
:101B600092E0099547C10E94540A0091E202109147
:101B7000E3022091E4023091E502601B710B820BBD
:101B8000930B4091F602411158C04091E102442369
:101B900071F1C090CC02D090CD02E090CE02F090D6
:101BA000CF026C157D058E059F0508F423C1809139
:101BB000EE029091EF0201969093EF028093EE0275
:101BC0001092E1028091D0029091D102A091D202B4
:101BD000B091D302080F191F2A1F3B1F0093E20286
:101BE0001093E3022093E4023093E5023DC0C090DD
:101BF000D002D090D102E090D202F090D3026C15C6
:101C00007D058E059F0508F4F5C081E08093E10213
:101C10008091CC029091CD02A091CE02B091CF02E2
:101C2000080F191F2A1F3B1F0093E2021093E302C3
:101C30002093E4023093E50277C02091F7023091BF
:101C4000F80221153105E1F40091D0021091D10282
:101C50002091D2023091D302601771078207930757
:101C600018F081E090E01EC08091CB02882311F033
:101C700061E001C060E08091C9020E94B808BAC06A
:101C800021303105D1F5C090D402D090D502E0903A
:101C9000D602F090D7026C157D058E059F0538F0B1
:101CA00082E090E09093F8028093F70269C00E946E
:101CB0006F1A4B015C01C701B6010E946F1A9B01AC
:101CC000AC01C501B4010E94C7196B017C01609190
:101CD000DC0270E080E090E00E94711A4B015C0130
:101CE000A7019601C701B6010E94211B9B01AC010F
:101CF000C501B4010E94211B77C02230310511F5C6
:101D00000091CC021091CD022091CE023091CF02F1
:101D1000601771078207930738F0E3E0F0E0F09373
:101D2000F802E093F7022CC09091CB028091DC0284
:101D3000992329F06FEF70E0681B710957C0682F75
:101D400070E054C02330310509F054C0C090D8026F
:101D5000D090D902E090DA02F090DB026C157D059C
:101D60008E059F05C0F08091EE029091EF020196E2
:101D70009093EF028093EE021092F8021092F70215
:101D80000E94540A6093E2027093E3028093E4029B
:101D90009093E5022FC00E946F1A4B015C01C701AE
:101DA000B6010E946F1A9B01AC01C501B4010E94EB
:101DB000C7194B015C016091DC0270E080E090E0AB
:101DC0000E94711A6B017C01A5019401C501B40147
:101DD0000E94211BA70196010E94211B9B01AC01BF
:101DE000C701B6010E9455190E94391A8091C90293
:101DF0000E94D0098BE090E00E94F703182F8CE03E
:101E000090E00E94F703F82E01E0811101C000E08C
:101E100080911A0190911B01892B09F060C0812FDC
:101E200090E020911801309119012130310531F0F5
:101E3000A9014350510942305105A0F5029719F408
:101E40000E94E708EBC08091F4029091F50202979E
:101E500009F4E4C0FF2009F14092CC025092CD0277
:101E60006092CE027092CF024092D0025092D10284
:101E70006092D2027092D3024092D4025092D50264
:101E80006092D6027092D7024092D8025092D90244
:101E90006092DA027092DB02BEC084EF91E0A0E0B3
:101EA000B0E0A9C02230310541F48230910541F201
:101EB000019761F48AE090E00BC0232B09F0AEC0DB
:101EC0008230910509F4BCCF0197A1F789E090E039
:101ED0000E94F7030E9432070E9461079FC0809111
:101EE0001701882309F456C080911601811196C00C
:101EF00081E0809316010E94E7080E94C607FF2038
:101F000009F14092CC025092CD026092CE027092C2
:101F1000CF024092D0025092D1026092D2027092CF
:101F2000D3024092D4025092D5026092D6027092AF
:101F3000D7024092D8025092D9026092DA0270928F
:101F4000DB0214C084EF91E0A0E0B0E08093CC020B
:101F50009093CD02A093CE02B093CF028093D00293
:101F60009093D102A093D202B093D30280911A0130
:101F700090911B018130910521F4602F81E090E068
:101F800006C0029709F04AC0602F82E090E00E94EC
:101F9000460944C08091F4029091F5020297F1F154
:101FA000FF2029F18EE390E0A0E0B0E08093CC0226
:101FB0009093CD02A093CE02B093CF028093D00233
:101FC0009093D102A093D202B093D3028093D40213
:101FD0009093D502A093D602B093D7028093D802F3
:101FE0009093D902A093DA02B093DB0214C08DE77C
:101FF00090E0A0E0B0E08093CC029093CD02A0935B
:10200000CE02B093CF028093D0029093D102A093DE
:10201000D202B093D302802F0E9408098FEA92E087
:102020000E94A6048091180190911901892B11F446
:1020300060E001C061E084E00E94B8088CEB92E0AF
:102040000E94A60480E491E00E94A101892B09F47A
:10205000E3C080E491E00E947F018F33A9F481E026
:1020600090E090932F0180932E0188E0E6E2F1E06A
:10207000DF01282F1D922A95E9F7EEE1F1E0DF015B
:102080001D928A95E9F708C08C3759F482E090E0F8
:1020900090932F0180932E0110921D0110921C012C
:1020A000BBC0813209F090C010922F0110922E0116
:1020B00010921D0110921C0181E990E00E949D0781
:1020C00086E291E00E948B0782E191E00E948B07FB
:1020D00084E890E00E949D078EE191E00E948B07CA
:1020E00082E191E00E948B0760E870E086E291E077
:1020F0000E949018892B41F48EE191E00E944B18C8
:10210000682F89E090E05DC06CE770E086E291E0C6
:102110000E949018892B41F48EE191E00E944B18A7
:10212000682F8AE090E04DC068E770E086E291E0B9
:102130000E949018892B41F48EE191E00E944B1887
:10214000682F8BE090E03DC064E770E086E291E0AC
:102150000E949018892B41F48EE191E00E944B1867
:10216000682F8CE090E02DC060E770E086E291E09F
:102170000E949018892B19F40E9400054DC06CE64E
:1021800070E086E291E00E949018892B59F48EE16C
:1021900091E00E946918AB01BC018DE090E00E94C3
:1021A00079043AC068E670E086E291E00E949018F7
:1021B000892B91F58EE191E00E944B18682F81E107
:1021C00090E00E94E30328C020912E0130912F015E
:1021D0002130310579F420911C0130911D01A901B4
:1021E0004F5F5F4F50931D0140931C01F901EA5D61
:1021F000FE4F11C02230310579F420911C0130913D
:102200001D01A9014F5F5F4F50931D0140931C01B9
:10221000F901E25EFE4F80830E944802CECA80919F
:10222000E8019091E901825491098E9708F000CB62
:1022300080E090E040E050E0BA01FC01E651FE4F42
:10224000208131812950310929303105D8F0F0CA77
:102250008091EA019091EB010997099708F0E3CA90
:1022600010923901109238018FEF9FEFDC018093BB
:10227000340190933501A0933601B0933701A3E068
:10228000B0E0CCC5FC01E451FE4F208131812751E3
:10229000310922313105E0F4440F551F661F771FC5
:1022A000416004968038910541F6309239012092C0
:1022B0003801409334015093350160933601709397
:1022C0003701A3E0B0E0B0933101A09330011BCB04
:1022D00020813181265031092730310508F0A8CA04
:1022E000440F551F661F771FDCCF2081318123519A
:1022F00031092F30310540F4440F551F661F771FF9
:10230000416002963496C2CA208131812A50310937
:102310002930310528F4440F551F661F771FF1CF70
:102320008091E1018A3108F46CC08091E4019091C0
:10233000E5018032934008F487CA8091E6019091CC
:10234000E701C697869708F05CC08091E8019091FC
:10235000E901C697869708F054C0ECEEF1E083E0FF
:1023600090E040E050E0BA018C010F5F1F4F2091D8
:10237000E10130E00217130764F49F012250310994
:10238000D9012D913C912C5031092B303105F0F0C1
:10239000C8010197959587959093390180933801ED
:1023A0000C972CF410923901109238012AC04093F6
:1023B0003401509335016093360170933701EBE09F
:1023C000F0E0F0933101E09330019DCA208131812A
:1023D000255231092B31310540F4440F551F661F3A
:1023E000771F416002963496BFCF208131812C50F7
:1023F00031092A30310528F4440F551F661F771F15
:10240000F1CF8091E101823208F44EC08091E60163
:102410009091E7010697079708F046C0EAEEF1E0D1
:1024200082E090E0C12CD12C76019C012F5F3F4FC0
:102430004091E10150E024173507CCF4DF011297F9
:102440004D915C9111974E51510947315105F0F46E
:10245000CC0CDD1CEE1CFF1C6894C0F8408151813F
:1024600034964350510945305105E0F0C9010197B8
:1024700095958795909339018093380140970CF09A
:1024800034CA10923901109238010EC04D915C91FE
:102490004C5051094B30510538F4CC0CDD1CEE1C6E
:1024A000FF1CDCCF0296C1CF1C821B8281E090E032
:1024B0009A8389838091E1018D3078F41C821B829C
:1024C00081E090E09A83898380913C0190913D0165
:1024D000181619060CF46CC0C3C049E753E0BE01DE
:1024E0006D5F7F4FCE0101960E94FE07892B31F769
:1024F00049E753E0BE016D5F7F4FCE0101960E9418
:10250000FE070197D9F649E753E0BE016D5F7F4FA3
:10251000CE0101960E94FE07892B81F6812C912C19
:10252000540100E010E08091E10190E029813A81BE
:102530002817390774F549E753E0BE016D5F7F4FF7
:10254000CE0101960E94FE077C0149E753E0BE01DF
:102550006D5F7F4FCE0101960E94FE07A1E0EA1653
:10256000F10451F4892B09F0A9CF880C991CAA1CFD
:10257000BB1C689480F80AC0EF2809F09FCF019730
:1025800009F09CCF880C991CAA1CBB1C0F5F1F4F25
:10259000CACF109339010093380180923401909290
:1025A0003501A0923601B092370181E090E0A7C9D1
:1025B000E0913A01F0913B0182E090E09A838983B7
:1025C0008281938189974E9708F04AC083E090E01A
:1025D0009A838983848195810B970A9708F040C07C
:1025E0004CEB51E0BE016D5F7F4FCE0101960E9422
:1025F000FE07892BA9F54CEB51E0BE016D5F7F4FC3
:10260000CE0101960E94FE07019751F5812C912C75
:10261000540100E010E020913C0130913D0189819E
:102620009A81821793070CF00EC14CEB51E0BE016A
:102630006D5F7F4FCE0101960E94FE077C01033043
:10264000110509F0CAC04CEB51E0BE016D5F7F4F30
:10265000CE0101960E94FE07E816F90609F4BDC0F6
:10266000E0913A01F0913B0182819381C697869770
:10267000E0F4848195814B974597B8F4DF01169675
:102680007F0126ECE20EF11C20E030E040E050E05B
:1026900060E070E080E090E00D911C91119709508E
:1026A00011090830110508F4DDC08091E10189337A
:1026B000E8F0828193818957910983359105B0F4BF
:1026C00084819581CA97899788F49F012A5F3F4F3B
:1026D000C12CD12C760143E050E0D9016D917C9161
:1026E0006A5071096930710508F4F8C08091E10100
:1026F000823231F4828193810A97099708F438C1B4
:10270000828193818957910983359105D0F4809115
:10271000E1018132B0F084819581CA97899788F46C
:102720009F012A5F3F4FC12CD12C760143E050E03E
:10273000D9016D917C916A5071096930710508F475
:1027400038C1828193818C549109C59778F4809126
:10275000E101843031F4848195818097479708F4B2
:102760008BC18091E101843408F06DC18091E10159
:10277000863428F1828193810C970B9700F5848130
:10278000958109970997D8F4868197818C974F97FF
:10279000B0F48085918589974D9788F49F01265FD5
:1027A0003F4FC12CD12C760145E050E0D9016D910D
:1027B0007C916C5071096B30710508F4ADC180914A
:1027C000E101883508F449C28281938185589109D5
:1027D0008B35910508F4E8C140C24CEB51E0BE01D5
:1027E0006D5F7F4FCE0101960E94FE076C010330A2
:1027F000110569F44CEB51E0BE016D5F7F4FCE01D6
:1028000001960E94FE07C816D90609F029CFE114E7
:10281000F10459F4CA94CD2809F022CF880C991CF0
:10282000AA1CBB1C689480F80BC0EA94EF2809F03E
:1028300017CFCD2809F014CF880C991CAA1CBB1CFB
:102840000F5F1F4FE8CE109339010093380180923B
:10285000340190923501A0923601B092370182E0A6
:1028600090E04DC812960D911C91139701511109DA
:102870000D30110528F501E00E9409192160149618
:10288000AE15BF0509F008CF209334013093350110
:10289000409336015093370100E20E94241920939F
:1028A00032013093330185E090E0909331018093C1
:1028B000300180E390E0909339018093380123C880
:1028C00012960D911C9113970450110905301105B2
:1028D00008F0EBCE01E00E940919D1CFD901129680
:1028E0006D917C911397665171096131710580F585
:1028F000D701C601880F991FAA1FBB1F6C017D015C
:102900006894C0F84E5F5F4F2C5F3F4F4B335105CB
:1029100009F0E3CE9F012A583F4FD9012D913C91F8
:102920002A5031092930310508F0E0CE2CE130E0A1
:102930003093390120933801C0923401D09235018F
:10294000E0923601F09237018AE090E00C947F0C1F
:10295000D90112966D917C91139766507109673079
:10296000710508F0C3CECC0CDD1CEE1CFF1CCACFD9
:102970002091E101CF01820F911D820F911DDC0199
:1029800012978D919C910A97099708F0B9CE1092F1
:102990003901109238018FEF9FEFDC0180933401F1
:1029A00090933501A0933601B093370186E090E013
:1029B0003BC2D90112966D917C91139766517109B2
:1029C0006131710580F5D701C601880F991FAA1FD3
:1029D000BB1F6C017D016894C0F84E5F5F4F2C5F98
:1029E0003F4F4332510509F0A3CE9F012A5B3F4F71
:1029F000D9012D913C912A5031092930310508F037
:102A0000A0CE20E130E03093390120933801C0920C
:102A10003401D0923501E0923601F092370186E020
:102A200090E00C947F0CD90112966D917C911397D4
:102A3000665071096730710508F083CECC0CDD1C3F
:102A4000EE1CFF1CCACF8481958189549109C397DC
:102A500008F08CCE9F012A5F3F4FBF016A577F4F1E
:102A6000C12CD12C7601D9014D915C91495051096D
:102A700049305105C8F07ACE868197810997099728
:102A800008F06FCE10923901109238018FEF9FEF4E
:102A9000DC018093340190933501A0933601B0930B
:102AA000370187E090E0C0C1D90112964D915C9149
:102AB0001397465151094131510518F112964D9124
:102AC0005C911397465051094730510508F04ECE9E
:102AD000CC0CDD1CEE1CFF1C2C5F3F4F261737076C
:102AE00011F63092390120923801C0923401D0920F
:102AF0003501E0923601F092370187E090E00C94C6
:102B00007F0CD701C601880F991FAA1FBB1F6C013C
:102B10007D016894C0F8E0CFD90112966D917C9147
:102B200013976E5171096731710570F5D701C601B0
:102B3000880F991FAA1FBB1F6C017D016894C0F804
:102B40004E5F5F4F2C5F3F4F4534510509F02ECE4D
:102B50009F0126573F4FD9012D913C912C503109AF
:102B60002B30310508F02BCE3092390120923801FC
:102B7000C0923401D0923501E0923601F0923701D3
:102B800088E090E00C947F0CD90112966D917C91B5
:102B90001397695071096930710508F010CECC0C9B
:102BA000DD1CEE1CFF1CCCCF8481958182549109E1
:102BB0008E9708F052C08F01045C1F4F8DE190E0AA
:102BC00020E030E04091E10150E044505109841789
:102BD0009507ACF4A80142505109DA014D915C917E
:102BE000495051094830510518F137C0D8014D916D
:102BF0005C91485151094231510560F1CB01019777
:102C00009595879590933901809338018A972CF197
:102C1000C901330FAA0BBB0B80933401909335018C
:102C2000A0933601B093370189E090E00C947F0CBB
:102C3000BC016F5F7F4FD8014D915C9147505109A6
:102C40004730510598F6220F331F216002960C5F22
:102C50001F4FB8CF220F331FF9CF8091E10180328F
:102C6000E1F48281938106970697B8F48481958177
:102C70000997099790F49F012A5F3F4FBF01625C5B
:102C80007F4FC12CD12C7601D9014D915C914650DA
:102C900051094630510508F485C080913C0190915E
:102CA0003D0198878F83069714F40C94DE0CDF01A6
:102CB0001296BE83AD8355ECC52E5DE9D52E5CE141
:102CC000E52E51E8F52E03E010E0ED81FE816481F0
:102CD0007581A080B18080E090E00E946F1A6987C2
:102CE0007A878B879C87B50180E090E00E946F1AFD
:102CF0004B015C012DEC3CEC4CE45FE30E94211B9A
:102D00009B01AC0169857A858B859C850E94C219DF
:102D100087FD19C02DEC3CEC4CE45FE369857A85B6
:102D20008B859C850E94211B9B01AC01C501B401D0
:102D30000E94C219E82F880FFF0BEE27FF0FEE1F2E
:102D4000FF27319602C0E0E0F0E0A701960163E9B9
:102D500071E080E091E00E94CC186F01FF0FEE0857
:102D6000FF08C626D726E826F9260F5F1F4F8D815C
:102D70009E8102969E838D83AF81B8850A171B07BB
:102D800009F0A3CFC0923401D0923501E092360110
:102D9000F092370130923901209238018FEF9FEF86
:102DA0000C947F0CD90112964D915C911397495167
:102DB00051094331510510F5D701C601880F991FFC
:102DC000AA1FBB1F6C017D016894C0F82C5F3F4FA8
:102DD0002617370709F058CF2EE030E0309339013D
:102DE00020933801C0923401D0923501E09236012F
:102DF000F09237018FE090E00C947F0CD90112968D
:102E00004D915C911397495051094930510508F093
:102E100044CFCC0CDD1CEE1CFF1CD8CFB09331018D
:102E2000A09330010C94DE0C90933101809330011B
:102E30000C94DE0C7F928F929F92AF92BF92CF92B2
:102E4000DF92EF92FF920F931F93CF93DF93E0E413
:102E5000F1E01382128288EEC82E83E0D82EE12C96
:102E6000F12CC482D582E682F78284E091E09183DE
:102E7000808385EC90E09587848784EC90E0978749
:102E8000868780EC90E0918B808B81EC90E0938B37
:102E9000828B82EC90E0958B848B86EC90E0978B14
:102EA000868B118E128E138E148EC2E3D3E082E0D5
:102EB00090E099838883772473947A8292E3892EB1
:102EC000912CA12CB12C8B829C82AD82BE82CF82B0
:102ED000D886E986FA861C861B861E861D86188A79
:102EE0001F861A8A198A62E00E94940901E010E0A4
:102EF0001C8B0B8B1A8F098F1D8A1E8A1F8A188EB6
:102F00001B8E1C8E1D8E1E8E1F8E18A21AA219A239
:102F1000CFE0D3E088E090E0998388837A828B8247
:102F20009C82AD82BE82CF82D886E986FA861C86D4
:102F30001B861E861D86188A1F861A8A198A62E0D9
:102F40000E9494091C8B0B8B1A8F098F1D8A1E8A75
:102F50001F8A188E1B8E1C8E1D8E1E8E1F8E18A211
:102F60001AA219A2EDEDF1E087E081831382C9EF87
:102F7000D2E085E090E0998388831B821A82CC821C
:102F8000DD82EE82FF821986188662E00E94940933
:102F90001A8685E00E9476089C878B871D861E8690
:102FA0001F86188A1A8A198A1B8A1C8AE9ECF2E0A1
:102FB00086E090E091838083128284EF91E0A0E02C
:102FC000B0E083839483A583B68387839087A187AA
:102FD000B28713861486158616861786108A118A7C
:102FE000128A8FEF838B158A148A178A168A108E9D
:102FF000118E128E138E148E158E168E178E10A2B1
:1030000011A212A213A214A216A215A210A617A210
:1030100011A612A614A613A615A617A616A661E059
:1030200086E00E94940960E086E00E94B808ECEB1C
:10303000F2E088E99AE3A0E0B0E080839183A28384
:10304000B383148216821582178210861186128627
:1030500014861386EFEAF2E084E690E0A0E0B0E0A8
:1030600080839183A283B383148216821582178290
:1030700010861186128614861386DF91CF911F91D8
:103080000F91FF90EF90DF90CF90BF90AF909F9007
:103090008F907F900895FC0188279927E8942191CB
:1030A0002032E9F3293010F02E30C8F32B3241F0F2
:1030B0002D3239F4689404C00E94AE18820F911D1D
:1030C000219120532A30C0F31EF4909581959F4F93
:1030D00008951F93FC0199278827BC01E89411915A
:1030E0001032E9F3193010F01E30C8F31B3251F0E2
:1030F0001D3249F4689406C00E949918610F711D31
:10310000811D911D119110531A30B0F33EF490952A
:103110008095709561957F4F8F4F9F4F1F910895B8
:10312000FB01DC018D91059080190110D9F3990BF9
:103130000895592F482F372F262F660F771F881F86
:10314000991F660F771F881F991F620F731F841FB7
:10315000951F660F771F881F991F08957AE0979F24
:10316000902D879F802D910D11240895F999FECF00
:1031700092BD81BDF89A992780B50895262FF999B7
:10318000FECF1FBA92BD81BD20BD0FB6F894FA9A4A
:10319000F99A0FBE01960895DB018F939F930E94C9
:1031A000FE18BF91AF91A29F800D911DA39F900D1E
:1031B000B29F900D11240895A1E21A2EAA1BBB1BE9
:1031C000FD010DC0AA1FBB1FEE1FFF1FA217B307F3
:1031D000E407F50720F0A21BB30BE40BF50B661F09
:1031E000771F881F991F1A9469F7609570958095CD
:1031F00090959B01AC01BD01CF0108950E94461935
:10320000A59F900DB49F900DA49F800D911D11243A
:1032100008950F93083090F0982F872F762F652F01
:10322000542F432F322F22270850F4CF220F331F61
:10323000441F551F661F771F881F991F0A95B2F7F5
:103240000F91089597FB10F8169400080F9308301B
:1032500098F00850232F342F452F562F672F782FA3
:10326000892F902DF4CF059497958795779567953D
:1032700057954795379527950A95AAF70F91089581
:10328000EE0FFF1F0590F491E02D0994A29FB0016D
:10329000B39FC001A39F700D811D1124911DB29F8A
:1032A000700D811D1124911D08955058BB27AA2728
:1032B0000E946D190C94E71A0E94D91A38F00E94E6
:1032C000E01A20F039F49F3F19F426F40C94D61A32
:1032D0000EF4E095E7FB0C94D01AE92F0E94F81A3F
:1032E00058F3BA17620773078407950720F079F43B
:1032F000A6F50C941A1B0EF4E0950B2EBA2FA02DF8
:103300000B01B90190010C01CA01A0011124FF2792
:10331000591B99F0593F50F4503E68F11A16F0408D
:10332000A22F232F342F4427585FF3CF469537958C
:103330002795A795F0405395C9F77EF41F16BA0B51
:10334000620B730B840BBAF09150A1F0FF0FBB1FFF
:10335000661F771F881FC2F70EC0BA0F621F731F48
:10336000841F48F4879577956795B795F7959E3FA5
:1033700008F0B0CF9395880F08F09927EE0F979536
:10338000879508950E94AC1A08F481E008950E9480
:10339000DB190C94E71A0E94E01A58F00E94D91A1F
:1033A00040F029F45F3F29F00C94D01A51110C948D
:1033B0001B1B0C94D61A0E94F81A68F39923B1F3D8
:1033C000552391F3951B550BBB27AA27621773074B
:1033D000840738F09F5F5F4F220F331F441FAA1FDF
:1033E000A9F335D00E2E3AF0E0E832D0915050409B
:1033F000E695001CCAF72BD0FE2F29D0660F771F49
:10340000881FBB1F261737074807AB07B0E809F02E
:10341000BB0B802DBF01FF2793585F4F3AF09E3FB3
:10342000510578F00C94D01A0C941B1B5F3FE4F309
:10343000983ED4F3869577956795B795F7959F5FF6
:10344000C9F7880F911D9695879597F90895E1E042
:10345000660F771F881FBB1F621773078407BA07A1
:1034600020F0621B730B840BBA0BEE1F88F7E095FC
:1034700008950E94401A6894B1110C941B1B089582
:103480000E94001B88F09F5798F0B92F9927B751D9
:10349000B0F0E1F0660F771F881F991F1AF0BA95F8
:1034A000C9F714C0B13091F00E941A1BB1E0089521
:1034B0000C941A1B672F782F8827B85F39F0B93F13
:1034C000CCF3869577956795B395D9F73EF49095AB
:1034D0008095709561957F4F8F4F9F4F0895E89429
:1034E00009C097FB3EF490958095709561957F4F4C
:1034F0008F4F9F4F9923A9F0F92F96E9BB279395FA
:10350000F695879577956795B795F111F8CFFAF409
:10351000BB0F11F460FF1BC06F5F7F4F8F4F9F4F3A
:1035200016C0882311F096E911C0772321F09EE898
:10353000872F762F05C0662371F096E8862F70E0FE
:1035400060E02AF09A95660F771F881FDAF7880FD8
:103550009695879597F90895990F0008550FAA0B2E
:10356000E0E8FEEF16161706E807F907C0F0121696
:103570001306E407F50798F0621B730B840B950B99
:1035800039F40A2661F0232B242B252B21F40895EE
:103590000A2609F4A140A6958FEF811D811D08958B
:1035A00097F99F6780E870E060E008959FEF80ECF6
:1035B000089500240A941616170618060906089599
:1035C00000240A9412161306140605060895092EFF
:1035D0000394000C11F4882352F0BB0F40F4BF2B6E
:1035E00011F460FF04C06F5F7F4F8F4F9F4F0895AE
:1035F00057FD9058440F551F59F05F3F71F04795A4
:10360000880F97FB991F61F09F3F79F08795089588
:10361000121613061406551FF2CF4695F1DF08C0A7
:10362000161617061806991FF1CF869571056105C4
:1036300008940895E894BB2766277727CB0197F96C
:1036400008950E94341B0C94E71A0E94D91A38F08E
:103650000E94E01A20F0952311F00C94D01A0C94DB
:10366000D61A11240C941B1B0E94F81A70F3959F14
:10367000C1F3950F50E0551F629FF001729FBB2769
:10368000F00DB11D639FAA27F00DB11DAA1F649F05
:103690006627B00DA11D661F829F2227B00DA11DB8
:1036A000621F739FB00DA11D621F839FA00D611D3E
:1036B000221F749F3327A00D611D231F849F600D5F
:1036C000211D822F762F6A2F11249F5750409AF088
:1036D000F1F088234AF0EE0FFF1FBB1F661F771F14
:1036E000881F91505040A9F79E3F510580F00C94DF
:1036F000D01A0C941B1B5F3FE4F3983ED4F38695DD
:1037000077956795B795F795E7959F5FC1F7FE2B7E
:10371000880F911D9695879597F9089581E090E01F
:0A372000F8940C94931BF894FFCF6B
:10372A0000000000D901420170012602A1017F01B7
:06373A0093010D0A0000DE
:00000001FF
