:100000000C941A010C9442010C9442010C9442018C
:100010000C9442010C9442010C9442010C94F402A1
:100020000C9442010C9442010C9442010C94420144
:100030000C9442010C9442010C9442010C94420134
:100040000C94BE090C9442010C94A4010C947E0102
:100050000C9442010C9442010C9442010C94420114
:100060000C9442010C944201505752004C504100F4
:100070004C505400524543004C4246004C424E0006
:100080004C504C004C54500053657269616C2076A2
:10009000616C3A200053657269616C20636D643A4B
:1000A000200070726F675374617465206368616EBD
:1000B00067656420746F2050524F475F535441541A
:1000C000455F434F44455F4F4E0070726F675374F6
:1000D000617465206368616E67656420746F205089
:1000E000524F475F53544154455F4E4F4E45007346
:1000F00074617465206368616E67656420746F2045
:1001000053544154455F424F4F54494E4700737416
:10011000617465206368616E67656420746F205345
:10012000544154455F53485554444F574E007374DF
:10013000617465206368616E67656420746F205325
:10014000544154455F5245424F4F5400737461749B
:1001500065206368616E67656420746F2053544145
:1001600054455F4F46460070726F67537461746503
:10017000206368616E67656420746F2050524F473A
:100180005F53544154455F434F44455F4F464600DB
:100190007374617465206368616E67656420746F51
:1001A0002053544154455F4F464600737461746553
:1001B000206368616E67656420746F2053544154F6
:1001C000455F4F4E006E6F2070756C7365730070E5
:1001D000756C7365733A200000000000240027004E
:1001E0002A0000000000250028002B00000000006D
:1001F0002300260029000404040404040404020269
:100200000202020203030303030301020408102095
:1002100040800102040810200102040810200000A0
:1002200000080002010000030407000000000000B5
:100230000000DB1011241FBECFEFD8E0DEBFCDBF22
:1002400011E0A0E0B1E0EEE3FAE202C005900D9209
:10025000A631B107D9F723E0A6E1B1E001C01D92B4
:10026000A336B207E1F711E0CAE1D1E004C021975B
:10027000FE010E94CA12C931D107C9F70E94080ABB
:100280000C941D150C940000CF92DF92EF92FF9218
:100290000F931F93CF93DF936C017A018B01C0E022
:1002A000D0E0CE15DF0581F0D8016D918D01D6012A
:1002B000ED91FC910190F081E02DC6010995892B0B
:1002C00011F02196EECF7E01C701DF91CF911F91F2
:1002D0000F91FF90EF90DF90CF900895089580E008
:1002E00090E0089585E491E00E94070221E0892BC7
:1002F00009F420E0822F08950E9418151F920F9292
:100300000FB60F9211242F933F934F935F936F93E8
:100310007F938F939F93AF93BF93EF93FF9385E466
:1003200091E00E946302FF91EF91BF91AF919F9185
:100330008F917F916F915F914F913F912F910F908E
:100340000FBE0F901F9018951F920F920FB60F922D
:1003500011242F938F939F93EF93FF93E091550177
:10036000F09156018081E0915B01F0915C0182FD8A
:1003700012C0908180915E018F5F8F7320915F0129
:10038000821751F0E0915E01F0E0EB5BFE4F958F3C
:1003900080935E0101C08081FF91EF919F918F91C9
:1003A0002F910F900FBE0F901F901895FC01538D49
:1003B000448D252F30E0842F90E0821B930B54173F
:1003C00010F0CF96089501970895FC01918D828DCC
:1003D000981761F0828DDF01A80FB11D5D968C9199
:1003E000928D9F5F9F73928F90E008958FEF9FEFA4
:1003F0000895FC01918D828D981731F0828DE80F60
:10040000F11D858D90E008958FEF9FEF0895FC0119
:10041000918D228D892F90E0805C9F4F821B9109E6
:100420008F739927089580E090E0892B29F00E942E
:10043000720181110C940000089560E08DE00C942D
:10044000160861E088E00C94160860E088E00C94DF
:10045000160810921C0110921B01809119019091B5
:100460001A01029719F48091000102C080911601CF
:100470000E9408078AEC90E00E948E0710921801F3
:100480001092CD021092CC0208950C9429020E9481
:100490009C07109217011092180180911B019091F6
:1004A0001C018130910551F482E090E090931C0191
:1004B00080931B0187E691E00C948E07029711F45C
:1004C0000C9429020895FC01848DDF01A80FB11D51
:1004D000A35ABF4F2C91848D90E001968F7399277A
:1004E000848FA689B7892C93A089B1898C91837058
:1004F00080648C93938D848D981306C00288F38951
:10050000E02D80818F7D80830895EF92FF920F937D
:100510001F93CF93DF93EC0181E0888F9B8D8C8DAF
:10052000981305C0E889F989808185FD26C0F62EDB
:100530000B8D10E00F5F1F4F0F731127E02E8C8D76
:10054000E8120CC00FB607FCFACFE889F989808160
:1005500085FFF5CFCE010E946302F1CF8B8DFE01A6
:10056000E80FF11DE35AFF4FF0829FB7F8940B8F0D
:10057000EA89FB89808180620AC09FB7F894EE897E
:10058000FF896083E889F989808183708064808332
:100590009FBF81E090E0DF91CF911F910F91FF907D
:1005A000EF900895CF93DF93EC01888D8823C9F0F5
:1005B000EA89FB89808185FD05C0A889B9898C916C
:1005C00086FD0FC00FB607FCF5CF808185FFF2CF07
:1005D000A889B9898C9185FFEDCFCE010E94630275
:1005E000E7CFDF91CF9108951F920F920FB60F9230
:1005F00011242F933F934F935F936F937F938F9328
:100600009F93AF93BF93EF93FF938091E3010E9479
:10061000D4072091E7013091E8012F5F3F4F3093DD
:10062000E8012093E7019091E601953618F096E0F5
:100630009093E2019091E2019430C9F128F4923054
:1006400069F09330D1F05EC0953009F451C0963016
:1006500009F058C091E09093B30251C0811152C08B
:100660002091E7013091E8012436310508F442C0B9
:100670001092B3021092E6011CC0813009F042C012
:10068000E091E60191E09E0F9093E601F0E0209169
:10069000E7013091E801EE0FFF1FEE51FE4F30876A
:1006A00027831092E8011092E70194E029C081119C
:1006B00017C0E091E60191E09E0F9093E601F0E013
:1006C0002091E7013091E801EE0FFF1FEE51FE4F40
:1006D000308727831092E8011092E70193E010C061
:1006E0002091E7013091E8012536310558F007C027
:1006F000811108C01092E8011092E70103C095E053
:100700009093E2019091E5019923B9F081110AC01B
:100710008091E401882321F08091E40161E009C027
:100720002D9A0BC08091E401882331F08091E4017F
:1007300060E00E94160801C02D98FF91EF91BF91D3
:10074000AF919F918F917F916F915F914F913F9169
:100750002F910F900FBE0F901F9018951F93CF935E
:10076000DF93EC01162F0E947712181739F0612FD2
:10077000CE01DF91CF911F910C947F12DF91CF9129
:100780001F9108950C947F120C9477128091190197
:1007900090911A01019779F181E090E090931A010C
:1007A00080931901809100010E9408078FEE90E06C
:1007B0000E948E0710920103109200031092110301
:1007C00081E0809308038091FE020E94D4079093F9
:1007D0000A038093090310920B0310920C031092EA
:1007E0000D0310920E031092100310920F0310923B
:1007F0001103109212030895CF92DF92EF92FF92AD
:100800000F931F93CF936B017C01CB010E94C40314
:10081000C82FC60101960E94C403182FC601029674
:100820000E94C403082FC60103960E94C403412FEF
:1008300050E060E070E0762F652F542F44274C0F76
:10084000511D611D711D10E020E030E0980111275D
:100850000027400F511F621F731F90E0A0E0B0E01F
:10086000B82FAA27992788278A019B01080F191FEB
:100870002A1F3B1FC901B801CF911F910F91FF9013
:10088000EF90DF90CF900895CF92DF92EF92FF929A
:10089000CF93DF93EC016A017B01642F0E94AE03CA
:1008A0009927F7FC9A958F2D7E2D6D2DCE010196FF
:1008B0000E94AE03B701992777FD9095892FCE014D
:1008C00002960E94AE036F2D772788279927CE01C5
:1008D0000396DF91CF91FF90EF90DF90CF900C9433
:1008E000AE03CF92DF92EF92FF920F931F93CF93BD
:1008F000DF93FC0123853485232BA1F1EC010E94B9
:10090000B2090F81188529853A85C880D980EA8087
:10091000FB80AB01BC01401B510B620B730B4C15F0
:100920005D056E057F05F0F04C81411103C01C860A
:100930001B860AC0D901C8018C0D9D1DAE1DBF1DAF
:100940008F839887A987BA87ED81FE81309751F010
:10095000CE01DF91CF911F910F91FF90EF90DF902B
:10096000CF900994DF91CF911F910F91FF90EF905D
:10097000DF90CF900895CF93DF93EC010E94B209EE
:100980006F83788789879A8781E090E09C878B873F
:10099000DF91CF910895CF93C82F0E9429028091B3
:1009A000190190911A01049729F184E090E0909345
:1009B0001A01809319018EE291E00E948E0780E077
:1009C00090E00E94FD07CC23A9F061E08DE00E9439
:1009D000160884EF91E0A0E0B0E08093B402909319
:1009E000B502A093B602B093B70284EB92E0CF9128
:1009F0000C94BB04CF910895CF93C82F0E94290275
:100A00008091190190911A01039729F183E090E0F8
:100A100090931A01809319018EE091E00E948E0755
:100A200081E090E00E94FD07CC23A9F061E08DE019
:100A30000E94160884E690E0A0E0B0E08093B40243
:100A40009093B502A093B602B093B70284EB92E004
:100A5000CF910C94BB04CF9108958F929F92AF9247
:100A6000BF92EF92FF920F931F93CF93DF93CDB777
:100A7000DEB7A1970FB6F894DEBF0FBECDBFFC0165
:100A80000189128910161106F4F58FEC91E00E948D
:100A900073079801012E000C440B550B19A27E011F
:100AA000F1E2EF0EF11C8AE0882E912CA12CB12CE2
:100AB000CA01B901A50194010E949D12605DF70170
:100AC00062937F01211531054105510589F7CF0159
:100AD0000E94610783E191E00E9461078091190102
:100AE00090911A01029709F047C00130110521F4D5
:100AF00080E00E94FC0440C002301105E9F580E06E
:100B00000E94CB0439C085EC91E00E948E0785E0FD
:100B10000E94D407892BB1F482E090E090931A01EF
:100B20008093190161E083E190E00E94C20380910B
:100B300000010E9408078BEA91E00E948E0781E085
:100B400090E018C085E00E94D4070197A9F41092A4
:100B50001A011092190160E083E190E00E94C20343
:100B6000809116010E94080780E991E00E948E079B
:100B700080E090E00E94FD07A1960FB6F894DEBFDA
:100B80000FBECDBFDF91CF911F910F91FF90EF90DE
:100B9000BF90AF909F908F90089580911B0190918E
:100BA0001C01009769F48091190190911A01009736
:100BB00011F40C94C6030297E9F481E00C94FC0450
:100BC0008130910539F481E08093180181EC92E045
:100BD0000C94BB04029771F460E070E0CB010E94BA
:100BE000FC03AB01BC0184E090E00E94440481E07E
:100BF0008093180108958FEF0E94080781E090E02C
:100C000090931C0180931B0182EA90E00E948E0762
:100C10001092180181EC92E00C94BB0480911B01AE
:100C200090911C01892B09F581E190E00E94C40399
:100C30002091190130911A012230310591F481116E
:100C400003C081E00C94CB0410921A011092190198
:100C500060E083E190E00E94C2038CE491E00C9498
:100C60008E07232B21F40C94FB050C942902089584
:100C7000CF92DF92EF92FF920F931F93CF93DF9368
:100C8000EC0188810E94D4078C018B899C8908170C
:100C9000190731F00E94B2096D8B7E8B8F8B988F74
:100CA0000E94B209CD88DE88EF88F88CDC01CB0188
:100CB0008C199D09AE09BF09CB80DC80ED80FE80D8
:100CC000C816D906EA06FB0608F06AC0898D9A8D17
:100CD00008171907E9F11A8F098F8A81882321F0F3
:100CE0000115110521F019C001301105B1F481E0A1
:100CF00090E09AA389A3EB85FC85309711F0CE0193
:100D000009958F8D811150C081E08F8F0E94B209AB
:100D10006B8F7C8F8D8F9E8F47C01AA219A2ED8595
:100D2000FE85309711F0CE0109958F8D882349F00B
:100D300088A1811106C0EF85F889309711F0CE01A6
:100D400009951F8E18A21B8E1C8E1D8E1E8E2CC008
:100D50000E94B209CB8CDC8CED8CFE8CDC01CB01CB
:100D60008C199D09AE09BF09CF80D884E984FA8423
:100D7000C816D906EA06FB06B8F48F8D8823A1F0C1
:100D800088A1811111C081E088A382E090E09AA33C
:100D900089A3E989FA89309739F0CE01099504C011
:100DA0008FEF9FEF9AA389A31C8B0B8BDF91CF91C1
:100DB0001F910F91FF90EF90DF90CF9008958330B7
:100DC00081F028F4813099F08230A1F008958730C5
:100DD000A9F08830B9F08430D1F4809180008F7D03
:100DE00003C0809180008F7780938000089584B540
:100DF0008F7702C084B58F7D84BD08958091B00047
:100E00008F7703C08091B0008F7D8093B0000895EC
:100E10008093E1028091CE029091CF0283309105C0
:100E200059F09C01255031092230310528F0245019
:100E3000310923303105B0F42091F9023091FA02E2
:100E40002130310599F43091D0022091E102332311
:100E500029F06FEF70E0621B710902C0622F70E031
:100E60000C942E092FEF2093E102E6CF0895809194
:100E7000F9029091FA02019719F181E08093E6025C
:100E800081E090E09093FA028093F9029091D00271
:100E90008091E102992329F06FEF70E0681B7109DE
:100EA00002C0682F70E08091CE020E942E09E0916E
:100EB000E202F091E302309719F08EEC92E009948F
:100EC0000895009769F0FC0101900020E9F731973F
:100ED000AF01481B590BBC0185E491E00C9444011F
:100EE00080E090E008950F931F93CF93DF938C01E0
:100EF000C0E0D0E0F801EC0FFD1F6491662341F0E3
:100F000085E491E00E948502892B11F02196F2CFB1
:100F1000CE01DF91CF911F910F910895CF93DF9371
:100F20000E947307EC0183E191E00E9461078C0F3E
:100F30009D1FDF91CF9108958F929F92AF92BF92A4
:100F4000CF92DF92EF92FF920E948D094B015C01DC
:100F500084EFC82EDD24D394E12CF12C0E948D095E
:100F6000DC01CB0188199909AA09BB09883E934085
:100F7000A105B10598F321E0C21AD108E108F108F2
:100F800088EE880E83E0981EA11CB11CC114D10408
:100F9000E104F10419F7FF90EF90DF90CF90BF903C
:100FA000AF909F908F900895CF93DF93282F30E0DC
:100FB000F901E25EFD4F8491F901E65FFD4FD491A6
:100FC000F901EA50FE4FC491CC2391F081110E94A7
:100FD000DF06EC2FF0E0EE0FFF1FE451FE4FA5916E
:100FE000B491EC91ED2381E090E021F480E002C027
:100FF00080E090E0DF91CF910895CF93DF93CEEF23
:10100000D2E09B838A831B8A81E08A8788810E9441
:10101000D4079C878B871D861E861F86188A1A8A8E
:10102000198A1B8A1C8ADF91CF9108951F93CF9351
:10103000DF93282F30E0F901E25EFD4F8491F90142
:10104000E65FFD4FD491F901EA50FE4FC491CC23E5
:10105000C1F0162F81110E94DF06EC2FF0E0EE0F99
:10106000FF1FEE51FE4FA591B4919FB7F894111157
:1010700004C08C91D095D82302C0EC91DE2BDC9378
:101080009FBFDF91CF911F9108958091F9029091B8
:10109000FA02892BD1F01092E6021092FA02109215
:1010A000F9028091D002882311F061E001C060E074
:1010B0008091CE020E941608E091E202F091E302D4
:1010C000309719F08EEC92E009940895CF93DF9356
:1010D000C82F1092E6020E94B2096093E702709353
:1010E000E8028093E9029093EA021092F7021092CC
:1010F000F802C093FB021092FD021092FC02C09114
:10110000F902D091FA0282E090E09093FA02809383
:10111000F9028091D002882311F061E001C060E003
:101120008091CE020E941608229759F0E091E202C7
:10113000F091E302309729F08EEC92E0DF91CF91AD
:101140000994DF91CF9108950F931F93CF93DF936D
:101150008C01C62F1092E6020E94B2096093E7024A
:101160007093E8028093E9029093EA021092F402ED
:101170001092F3021093F6020093F5021092F70218
:1011800081E08093F802C093FB021092FD0210925E
:10119000FC02C091F902D091FA0282E090E09093B3
:1011A000FA028093F9028091D002882311F061E065
:1011B00001C060E08091CE020E941608229769F07B
:1011C000E091E202F091E302309739F08EEC92E088
:1011D000DF91CF911F910F910994DF91CF911F91D2
:1011E0000F910895CF93DF9390E0FC01E65FFD4FF0
:1011F0002491FC01EA50FE4F8491882361F190E034
:10120000880F991FFC01E852FE4FC591D491FC0153
:10121000EE51FE4FA591B491611109C09FB7F894AA
:101220008881209582238883EC912E230BC0623025
:1012300061F49FB7F8948881322F30958323888397
:10124000EC912E2B2C939FBF06C08FB7F894E881AA
:101250002E2B28838FBFDF91CF9108951F93CF93BB
:10126000DF93182FEB0161E00E94F208209711F440
:1012700060E004C0CF3FD10539F461E0812FDF91F8
:10128000CF911F910C941608E12FF0E0E25EFD4F24
:10129000E491E330F9F048F4E130B9F0E230A1F53F
:1012A00084B5806284BDC8BD34C0E730E9F0E83061
:1012B00019F1E43049F580918000806280938000CC
:1012C000D0938B00C0938A0024C084B5806884BD0D
:1012D000C7BD1FC080918000806880938000D0933C
:1012E0008900C093880015C08091B0008068809309
:1012F000B000C093B3000DC08091B00080628093B5
:10130000B000C093B40005C0C038D1050CF0B5CF13
:10131000AFCFDF91CF911F9108953FB7F89480919F
:101320005F0390916003A0916103B091620326B5C1
:10133000A89B05C02F3F19F00196A11DB11D3FBF0D
:10134000BA2FA92F982F8827820F911DA11DB11D9B
:10135000BC01CD0142E0660F771F881F991F4A9597
:10136000D1F708952FB7F89460915B0370915C03F7
:1013700080915D0390915E032FBF08951F920F929D
:101380000FB60F9211242F933F938F939F93AF9398
:10139000BF9380915B0390915C03A0915D03B0913A
:1013A0005E0330915A0323E0230F2D3720F401967A
:1013B000A11DB11D05C026E8230F0296A11DB11D78
:1013C00020935A0380935B0390935C03A0935D0387
:1013D000B0935E0380915F0390916003A0916103DD
:1013E000B09162030196A11DB11D80935F0390939C
:1013F0006003A0936103B0936203BF91AF919F918B
:101400008F913F912F910F900FBE0F901F901895C5
:10141000CF93DF9300D000D000D0CDB7DEB7789463
:1014200084B5826084BD84B5816084BD85B58260E9
:1014300085BD85B5816085BD80916E00816080939A
:101440006E00109281008091810082608093810003
:101450008091810081608093810080918000816013
:10146000809380008091B10084608093B10080916E
:10147000B00081608093B00080917A008460809396
:101480007A0080917A00826080937A0080917A005D
:10149000816080937A0080917A00806880937A00DE
:1014A0001092C100E0915501F091560182E08083D5
:1014B000E0915101F09152011082E0915301F091BD
:1014C00054018FEC808310925D01E0915901F091FD
:1014D0005A0186E08083E0915701F09158018081A4
:1014E00080618083E0915701F0915801808188608C
:1014F0008083E0915701F09158018081806880835A
:10150000E0915701F091580180818F7D808362E0E6
:1015100087E00E94F20862E085E00E94F20861E044
:101520008DE00E94F20861E084E00E94F20860E031
:1015300086E00E94160860E08DE00E94160860E0D8
:1015400084E00E94160861E088E00E94F20861E0F1
:1015500088E00E9416088BE090E00E94C40390E0AF
:1015600090933401809333018CE090E00E94C40397
:1015700090E0909332018093310189E090E00E94E5
:10158000C403809300018AE090E00E94C40380932A
:1015900016016DE070E080E090E00E94FC037A8329
:1015A000698388E090E00E94C403811119C048E873
:1015B00053E160E070E08DE090E00E9444048FEF22
:1015C000809300016FEF89E090E00E94C20361E028
:1015D00088E090E00E94C20328E833E13A8329833F
:1015E00049815A81CA01550FAA0BBB0B80933E0358
:1015F00090933F03A0934003B09341038DEC95E09B
:1016000090934703809346038EE096E090934903BE
:101610008093480385E292E09093200380931F0318
:1016200081E292E09093220380932103F89482E078
:101630008093B0008093B10094E69093B300109231
:10164000B2008093700078948093E2011092E601DA
:101650008091E30160E00E94F2088DE192E09093B6
:10166000BA028093B90285E492E09093C702809316
:10167000C60287E492E09093E5028093E4028AE058
:1016800090E00E94C403809316010E9408070E9404
:1016900037078DE295E0909307038093060380E07F
:1016A00090E00E94FD0782E190E00E94C40388233D
:1016B00039F083E190E00E94C40381110E94C603C7
:1016C0003AEF432E512C612C712C87E393E00E945A
:1016D000380684E193E00E94380689EE91E0909309
:1016E000400180933F018091E601082F10E01093A4
:1016F0004201009341018091B30290E09093440134
:10170000809343018091E201853009F0DFC006300B
:1017100011050CF44CC5AFEEB1E0BE83AD8393E090
:10172000292E312C25ECC22E2DE9D22E2CE1E22ED1
:1017300021E8F22E201631060CF05CC0ED81FE810E
:10174000608171813497208131813A83298380E0DF
:1017500090E00E94F9134B015C0149815A81BA0162
:1017600080E090E00E94F91369837A838B839C83E5
:101770002DEC3CEC4CE45FE30E94AB149B01AC010C
:10178000C501B4010E944C1387FD19C02DEC3CEC3F
:101790004CE45FE3C501B4010E94AB149B01AC01B2
:1017A00069817A818B819C810E944C13E82F880F7C
:1017B000FF0BEE27FF0FEE1FFF27319602C0E0E080
:1017C000F0E0A701960163E971E080E091E00E94FA
:1017D0008D126F01FF0FEE08FF08C626D726E826F8
:1017E000F9265FEF251A350A8D819E8102969E8328
:1017F0008D83A0CFC0923901D0923A01E0923B0193
:10180000F0923C01A0E2B0E0B0933E01A0933D0114
:10181000EFEFFFEFF0933601E0933501FFEFCF16C6
:10182000DF06EF06FF0609F44CC080911B01909182
:101830001C01009751F560E070E0CB010E94FC03B1
:101840004B015C0164E070E080E090E00E94FC03EA
:101850008C149D04AE04BF0449F420911901309109
:101860001A01232B19F40E94C6032BC06C157D05A9
:101870008E059F0531F58091190190911A0102970B
:1018800001F581E00E94FC041CC08130910571F4D7
:10189000B701A60180E090E00E94440481E08093BB
:1018A000180181EC92E00E94BB040BC0029749F43E
:1018B000B701A60184E090E00E94440481E0809397
:1018C000180122E02093E2011092E60180910803C2
:1018D000882309F46EC08091FE020E94D4079A8387
:1018E00089838091090390910A0349815A8148179D
:1018F000590759F180910003909101034817590746
:10190000A9F48091110381110DC081E0809311032E
:101910000E94B20960930B0370930C0380930D0334
:1019200090930E0381E0809312030FC08091120305
:10193000882359F080910F039091100301969093A2
:10194000100380930F0310921203809111038823D8
:1019500051F10E94B20900910B0310910C032091E8
:101960000D0330910E03DC01CB01801B910BA20B08
:10197000B30B0091020310910303209104033091F3
:10198000050380179107A207B30768F010920803B8
:1019900010921103E0910603F0910703309719F0BC
:1019A0008EEF92E0099589819A8190930A03809342
:1019B00009038091F9029091FA02029709F0B4C1EB
:1019C0008091CE029091CF028330910581F09C01ED
:1019D000255031092230310550F024503109223090
:1019E000310528F021E00B9719F020E001C021E03B
:1019F0008091FB02882321F0211102C01092FB028A
:101A00008091F7028823E9F00E94B2090091EB026D
:101A10001091EC022091ED023091EE02DC01CB013D
:101A2000801B910BA20BB30B0091EF021091F002FF
:101A30002091F1023091F20280179107A207B307BB
:101A400078F48091F8028823C1F02091F30230915C
:101A5000F4028091F5029091F602281739076CF094
:101A60000E944508E091E402F091E502309709F404
:101A70005BC18EEC92E0099557C10E94B2090091BA
:101A8000E7021091E8022091E9023091EA02601B1E
:101A9000710B820B930B4091FB02411164C040918A
:101AA000E602442371F1C090D102D090D202E090BE
:101AB000D302F090D4026C157D058E059F0508F4C5
:101AC00033C18091F3029091F40201969093F40255
:101AD0008093F3021092E6028091D5029091D60293
:101AE000A091D702B091D802080F191F2A1F3B1FDF
:101AF0000093E7021093E8022093E9023093EA0290
:101B00004DC0C090D502D090D602E090D702F090A0
:101B1000D8026C157D058E059F0508F405C181E08E
:101B20008093E6028091D1029091D202A091D302DB
:101B3000B091D402080F191F2A1F3B1F0093E70220
:101B40001093E8022093E9023093EA028091D002D8
:101B50006091E102882309F48DC0AFEFB0E0A61BCD
:101B6000B109BD01DDC02091FC023091FD022115BB
:101B7000310501F50091D5021091D6022091D702CE
:101B80003091D802601771078207930738F0E1E0BF
:101B9000F0E0F093FD02E093FC028CC08091D00253
:101BA000882311F061E001C060E08091CE020E94C4
:101BB0001608BAC021303105D1F5C090D902D090B5
:101BC000DA02E090DB02F090DC026C157D058E05F8
:101BD0009F0538F022E030E03093FD022093FC02B4
:101BE00069C00E94F9134B015C01C701B6010E9454
:101BF000F9139B01AC01C501B4010E9451136B01A3
:101C00007C016091E10270E080E090E00E94FB13B3
:101C10004B015C01A7019601C701B6010E94AB14FC
:101C20009B01AC01C501B4010E94AB1477C0223006
:101C3000310511F50091D1021091D2022091D30209
:101C40003091D402601771078207930738F043E0A0
:101C500050E05093FD024093FC022CC08091D002D2
:101C60006091E102882331F08FEF90E0861B9109AB
:101C7000BC0156C070E054C02330310509F054C097
:101C8000C090DD02D090DE02E090DF02F090E00232
:101C90006C157D058E059F05C0F08091F302909133
:101CA000F40201969093F4028093F3021092FD02E5
:101CB0001092FC020E94B2096093E7027093E8025E
:101CC0008093E9029093EA022FC00E94F9134B011E
:101CD0005C01C701B6010E94F9139B01AC01C5016B
:101CE000B4010E9451134B015C016091E10270E06C
:101CF00080E090E00E94FB136B017C01A501940140
:101D0000C501B4010E94AB14A70196010E94AB1457
:101D10009B01AC01C701B6010E94DF120E94C313F0
:101D20008091CE020E942E0980911B0190911C018E
:101D3000892B09F058C020913301309134018091F2
:101D4000190190911A018130910531F0AC01435095
:101D5000510942305105D0F52130310519F40E9466
:101D60004508F4C08091F9029091FA02029709F4B3
:101D7000EDC020913101309132012115310509F179
:101D80004092D1025092D2026092D3027092D40259
:101D90004092D5025092D6026092D7027092D80239
:101DA0004092D9025092DA026092DB027092DC0219
:101DB0004092DD025092DE026092DF027092E002F9
:101DC000BFC084EF91E0A0E0B0E0AAC082309105EE
:101DD00019F0892B09F0BAC02130310509F4BFCFC1
:101DE0000E943707B3C080911801882309F461C0AD
:101DF000809117018111AAC081E0809317010E9490
:101E000045080E949C078091310190913201009712
:101E100009F14092D1025092D2026092D3027092A4
:101E2000D4024092D5025092D6026092D7027092AC
:101E3000D8024092D9025092DA026092DB0270928C
:101E4000DC024092DD025092DE026092DF0270926C
:101E5000E00214C024EF31E040E050E02093D102D2
:101E60003093D2024093D3025093D4022093D502F0
:101E70003093D6024093D7025093D80220911B0191
:101E800030911C012130310539F461E0892B09F4CE
:101E900060E081E090E00AC02230310509F056C0D0
:101EA00061E0892B09F460E082E090E00E94A408E0
:101EB0004DC08091F9029091FA02029709F446C050
:101EC00020913101309132012115310529F18EE344
:101ED00090E0A0E0B0E08093D1029093D202A09372
:101EE000D302B093D4028093D5029093D602A093EC
:101EF000D702B093D8028093D9029093DA02A093CC
:101F0000DB02B093DC028093DD029093DE02A093AB
:101F1000DF02B093E00214C08DE790E0A0E0B0E0F3
:101F20008093D1029093D202A093D302B093D402B3
:101F30008093D5029093D602A093D702B093D80293
:101F400081E0232B09F480E00E94660884EB92E094
:101F50000E9471048091190190911A01892B11F44A
:101F600060E001C061E084E00E94160881EC92E02C
:101F70000E94710485E491E00E940702892B09F414
:101F800013C185E491E00E94E5018F33A9F4A1E03B
:101F9000B0E0B0933001A0932F0188E0E7E2F1E0D8
:101FA000DF01282F1D922A95E9F7EFE1F1E0DF012B
:101FB0001D928A95E9F708C08C3759F4E2E0F0E009
:101FC000F0933001E0932F0110921E0110921D0139
:101FD000EBC0813209F0C0C01092300110922F0185
:101FE00010921E0110921D0185E990E00E94730776
:101FF00087E291E00E94610783E191E00E9461071E
:1020000088E890E00E9473078FE191E00E946107E9
:1020100083E191E00E94610764E870E087E291E06B
:102020000E945112892B91F48FE191E00E940C12D1
:1020300089839D83682F8BE090E00E94AE03F98135
:10204000F09333012D8120933401AEC060E870E03D
:1020500087E291E00E945112892B91F48FE191E087
:102060000E940C1289839D83682F8CE090E00E946F
:10207000AE033981309331014D814093320194C0D8
:102080006CE770E087E291E00E945112892B71F4B5
:102090008FE191E00E940C128983682F89E090E023
:1020A0000E94AE035981509300017EC068E770E042
:1020B00087E291E00E945112892B71F48FE191E047
:1020C0000E940C128983682F8AE090E00E94AE0380
:1020D00089818093160168C064E770E087E291E02F
:1020E0000E945112892B19F40E94FB055DC060E724
:1020F00070E087E291E00E945112892B59F48FE140
:1021000091E00E942A12AB01BC018DE090E00E9498
:1021100044044AC06CE670E087E291E00E945112EC
:10212000892B41F48FE191E00E940C12682F81E12C
:1021300090E00FC068E670E087E291E00E945112E3
:10214000892B91F58FE191E00E940C12682F82E1BA
:1021500090E00E94AE0328C020912F013091300101
:102160002130310579F420911D0130911E01A90122
:102170004F5F5F4F50931E0140931D01F901E95DD0
:10218000FE4F11C02230310579F420911D013091AC
:102190001E01A9014F5F5F4F50931E0140931D0127
:1021A000F901E15EFE4F80830E9413028ECA92E025
:1021B0009093E20189CB7F928F929F92AF92BF92D0
:1021C000CF92DF92EF92FF920F931F93CF93DF9303
:1021D000E5E4F1E01382128288EEC82E83E0D82E67
:1021E000E12CF12CC482D582E682F78285E091E071
:1021F0009183808385EC90E09587848784EC90E0E0
:102200009787868780EC90E0918B808B81EC90E0C3
:10221000938B828B82EC90E0958B848B86EC90E0A4
:10222000978B868B118E128E138E148EC7E3D3E09C
:1022300082E090E099838883772473947A8292E392
:10224000892E912CA12CB12C8B829C82AD82BE82D6
:10225000CF82D886E986FA861C861B861E861D8656
:10226000188A1F861A8A198A62E00E94F20801E021
:1022700010E01C8B0B8B1A8F098F1D8A1E8A1F8AF8
:10228000188E1B8E1C8E1D8E1E8E1F8E18A21AA2DB
:1022900019A2C4E1D3E089E090E0998388837A822F
:1022A0008B829C82AD82BE82CF82D886E986FA86F6
:1022B0001C861B861E861D86188A1F861A8A198A06
:1022C00062E00E94F2081C8B0B8B1A8F098F1D8A0B
:1022D0001E8A1F8A188E1B8E1C8E1D8E1E8E1F8EB0
:1022E00018A21AA219A2E2EEF1E087E0818313821C
:1022F000CEEFD2E085E090E0998388831B821A823A
:10230000CC82DD82EE82FF821986188662E00E940E
:10231000F2081A8685E00E94D4079C878B871D8669
:102320001E861F86188A1A8A198A1B8A1C8AEEEC56
:10233000F2E086E090E091838083128284EF91E066
:10234000A0E0B0E083839483A583B68387839087DE
:10235000A187B28713861486158616861786108A7B
:10236000118A128A8FEF838B158A148A178A168A2C
:10237000108E118E128E138E148E158E168E178E51
:1023800010A211A212A213A214A216A215A210A6A4
:1023900017A211A612A614A613A615A617A616A66E
:1023A00061E086E00E94F20860E086E00E94160884
:1023B000E1ECF2E088E99AE3A0E0B0E08083918369
:1023C000A283B38314821682158217821086118627
:1023D000128614861386E4EBF2E084E690E0A0E037
:1023E000B0E080839183A283B38314821682158226
:1023F000178210861186128614861386DF91CF917C
:102400001F910F91FF90EF90DF90CF90BF90AF9012
:102410009F908F907F900895FC0188279927E894DA
:1024200021912032E9F3293010F02E30C8F32B32FD
:1024300041F02D3239F4689404C00E946F12820F6B
:10244000911D219120532A30C0F31EF4909581955F
:102450009F4F08951F93FC0199278827BC01E8949A
:1024600011911032E9F3193010F01E30C8F31B320D
:1024700051F01D3249F4689406C00E945A12610F4F
:10248000711D811D911D119110531A30B0F33EF44E
:1024900090958095709561957F4F8F4F9F4F1F91BD
:1024A0000895FB01DC018D91059080190110D9F38D
:1024B000990B0895592F482F372F262F660F771F16
:1024C000881F991F660F771F881F991F620F731F40
:1024D000841F951F660F771F881F991F08957AE044
:1024E000979F902D879F802D910D11240895F99924
:1024F000FECF92BD81BDF89A992780B50895262F09
:10250000F999FECF1FBA92BD81BD20BD0FB6F894D8
:10251000FA9AF99A0FBE01960895DB018F939F9363
:102520000E94BF12BF91AF91A29F800D911DA39FEA
:10253000900DB29F900D11240895A1E21A2EAA1BAE
:10254000BB1BFD010DC0AA1FBB1FEE1FFF1FA21763
:10255000B307E407F50720F0A21BB30BE40BF50B60
:10256000661F771F881F991F1A9469F760957095E9
:10257000809590959B01AC01BD01CF0108950E940B
:10258000D012A59F900DB49F900DA49F800D911D1A
:1025900011240895EE0FFF1F0590F491E02D09948A
:1025A000A29FB001B39FC001A39F700D811D112494
:1025B000911DB29F700D811D1124911D08955058D9
:1025C000BB27AA270E94F7120C9471140E9463146F
:1025D00038F00E946A1420F039F49F3F19F426F471
:1025E0000C9460140EF4E095E7FB0C945A14E92F58
:1025F0000E94821458F3BA1762077307840795077D
:1026000020F079F4A6F50C94A4140EF4E0950B2EAA
:10261000BA2FA02D0B01B90190010C01CA01A00134
:102620001124FF27591B99F0593F50F4503E68F18F
:102630001A16F040A22F232F342F4427585FF3CFD0
:10264000469537952795A795F0405395C9F77EF4A1
:102650001F16BA0B620B730B840BBAF09150A1F0EA
:10266000FF0FBB1F661F771F881FC2F70EC0BA0F70
:10267000621F731F841F48F4879577956795B795F8
:10268000F7959E3F08F0B0CF9395880F08F09927F3
:10269000EE0F9795879508950E94361408F481E00F
:1026A00008950E9465130C9471140E946A1458F0E6
:1026B0000E94631440F029F45F3F29F00C945A14EF
:1026C00051110C94A5140C9460140E94821468F3A8
:1026D0009923B1F3552391F3951B550BBB27AA27DB
:1026E00062177307840738F09F5F5F4F220F331F15
:1026F000441FAA1FA9F335D00E2E3AF0E0E832D0DD
:1027000091505040E695001CCAF72BD0FE2F29D0DF
:10271000660F771F881FBB1F261737074807AB07B1
:10272000B0E809F0BB0B802DBF01FF2793585F4F26
:102730003AF09E3F510578F00C945A140C94A5146D
:102740005F3FE4F3983ED4F3869577956795B79508
:10275000F7959F5FC9F7880F911D9695879597F913
:102760000895E1E0660F771F881FBB1F621773078C
:102770008407BA0720F0621B730B840BBA0BEE1FA1
:1027800088F7E09508950E94CA136894B1110C94DB
:10279000A51408950E948A1488F09F5798F0B92FC5
:1027A0009927B751B0F0E1F0660F771F881F991F86
:1027B0001AF0BA95C9F714C0B13091F00E94A41470
:1027C000B1E008950C94A414672F782F8827B85F80
:1027D00039F0B93FCCF3869577956795B395D9F7DE
:1027E0003EF490958095709561957F4F8F4F9F4FE8
:1027F0000895E89409C097FB3EF4909580957095F4
:1028000061957F4F8F4F9F4F9923A9F0F92F96E93C
:10281000BB279395F695879577956795B795F111B1
:10282000F8CFFAF4BB0F11F460FF1BC06F5F7F4F4E
:102830008F4F9F4F16C0882311F096E911C0772360
:1028400021F09EE8872F762F05C0662371F096E869
:10285000862F70E060E02AF09A95660F771F881F38
:10286000DAF7880F9695879597F90895990F0008DC
:10287000550FAA0BE0E8FEEF16161706E807F90752
:10288000C0F012161306E407F50798F0621B730BED
:10289000840B950B39F40A2661F0232B242B252B6E
:1028A00021F408950A2609F4A140A6958FEF811D11
:1028B000811D089597F99F6780E870E060E00895B2
:1028C0009FEF80EC089500240A9416161706180648
:1028D0000906089500240A94121613061406050624
:1028E0000895092E0394000C11F4882352F0BB0FB5
:1028F00040F4BF2B11F460FF04C06F5F7F4F8F4F18
:102900009F4F089557FD9058440F551F59F05F3F52
:1029100071F04795880F97FB991F61F09F3F79F001
:1029200087950895121613061406551FF2CF469583
:10293000F1DF08C0161617061806991FF1CF869505
:102940007105610508940895E894BB2766277727E9
:10295000CB0197F908950E94BE140C9471140E9443
:10296000631438F00E946A1420F0952311F00C943F
:102970005A140C94601411240C94A5140E9482140F
:1029800070F3959FC1F3950F50E0551F629FF001C2
:10299000729FBB27F00DB11D639FAA27F00DB11DDB
:1029A000AA1F649F6627B00DA11D661F829F222764
:1029B000B00DA11D621F739FB00DA11D621F839FEB
:1029C000A00D611D221F749F3327A00D611D231FC1
:1029D000849F600D211D822F762F6A2F11249F570F
:1029E00050409AF0F1F088234AF0EE0FFF1FBB1F12
:1029F000661F771F881F91505040A9F79E3F5105D1
:102A000080F00C945A140C94A5145F3FE4F3983EA4
:102A1000D4F3869577956795B795F795E7959F5F7A
:102A2000C1F7FE2B880F911D9695879597F908950C
:0E2A300081E090E0F8940C941D15F894FFCF0F
:102A3E00FF0000000085024401D601D2020702E524
:062A4E0001F9010D0A0070
:00000001FF
