:100000000C941A010C9442010C9442010C9442018C
:100010000C9442010C9442010C9442010C94E702AE
:100020000C9442010C9442010C9442010C94420144
:100030000C9442010C9442010C9442010C94420134
:100040000C94740A0C9442010C94B5020C948F0227
:100050000C9442010C9442010C9442010C94420114
:100060000C9442010C944201505752004C504100F4
:100070004C505400524543004C504C004C545000DE
:100080004C4246004C424E0053657269616C2076CA
:10009000616C3A200053657269616C20636D643A4B
:1000A00020007374617465206368616E6765642005
:1000B000746F2053544154455F424F4F54494E474B
:1000C000007374617465206368616E676564207491
:1000D0006F2053544154455F53485554444F574E35
:1000E000007374617465206368616E676564207471
:1000F0006F2053544154455F5245424F4F54007056
:10010000726F675374617465206368616E676564BC
:1001100020746F2050524F475F53544154455F4302
:100120004F44455F4F4E0070726F67537461746542
:10013000206368616E67656420746F2050524F477A
:100140005F53544154455F4E4F4E45007374617484
:1001500065206368616E67656420746F2053544145
:1001600054455F4F46460070726F67537461746503
:10017000206368616E67656420746F2050524F473A
:100180005F53544154455F434F44455F4F464600DB
:100190007374617465206368616E67656420746F51
:1001A0002053544154455F4F464600737461746553
:1001B000206368616E67656420746F2053544154F6
:1001C000455F4F4E006E6F2070756C7365730070E5
:1001D000756C7365733A200000000000240027004E
:1001E0002A0000000000250028002B00000000006D
:1001F0002300260029000404040404040404020269
:100200000202020203030303030301020408102095
:1002100040800102040810200102040810200000A0
:1002200000080002010000030407000000000000B5
:100230000000411711241FBECFEFD8E0DEBFCDBFB5
:1002400011E0A0E0B1E0E8E7F7E302C005900D920D
:10025000A631B107D9F723E0A6E1B1E001C01D92B4
:10026000AE35B207E1F711E0CAE1D1E004C0219751
:10027000FE010E946719C931D107C9F70E94BE0A61
:100280000C94BA1B0C940000CF92DF92EF92FF9275
:100290000F931F93CF93DF936C017A018B01C0E022
:1002A000D0E0CE15DF0581F0D8016D918D01D6012A
:1002B000ED91FC910190F081E02DC6010995892B0B
:1002C00011F02196EECF7E01C701DF91CF911F91F2
:1002D0000F91FF90EF90DF90CF900895089580E008
:1002E00090E00895FC01538D448D252F30E0842F3C
:1002F00090E0821B930B541710F0CF96089501974E
:100300000895FC01918D828D981761F0828DDF0137
:10031000A80FB11D5D968C91928D9F5F9F73928FF8
:1003200090E008958FEF9FEF0895FC01918D828DED
:10033000981731F0828DE80FF11D858D90E00895BA
:100340008FEF9FEF0895FC01918D228D892F90E012
:10035000805C9F4F821B91098F739927089580E4D9
:1003600091E00E94A30121E0892B09F420E0822F73
:100370000895FC01848DDF01A80FB11DA35ABF4F62
:100380002C91848D90E001968F739927848FA68994
:10039000B7892C93A089B1898C91837080648C93E8
:1003A000938D848D981306C00288F389E02D808197
:1003B0008F7D80830895EF92FF920F931F93CF93C9
:1003C000DF93EC0181E0888F9B8D8C8D981305C0A5
:1003D000E889F989808185FD26C0F62E0B8D10E015
:1003E0000F5F1F4F0F731127E02E8C8DE8120CC08A
:1003F0000FB607FCFACFE889F989808185FFF5CF30
:10040000CE010E94B901F1CF8B8DFE01E80FF11DE5
:10041000E35AFF4FF0829FB7F8940B8FEA89FB896C
:10042000808180620AC09FB7F894EE89FF8960835B
:10043000E889F98980818370806480839FBF81E02F
:1004400090E0DF91CF911F910F91FF90EF90089571
:10045000CF93DF93EC01888D8823C9F0EA89FB896B
:10046000808185FD05C0A889B9898C9186FD0FC062
:100470000FB607FCF5CF808185FFF2CFA889B98937
:100480008C9185FFEDCFCE010E94B901E7CFDF91BE
:10049000CF91089580E090E0892B29F00E94AF0170
:1004A00081110C94000008950E94B51B60E08DE05E
:1004B0000C94CC0861E089E00C94CC0860E089E001
:1004C0000C94CC0810921B0110921A0187E291E063
:1004D0000E94CC07109217011092C8021092C70216
:1004E00008950C9462020E94DA071092160110928D
:1004F000170180911A0190911B018130910551F4EF
:1005000082E090E090931B0180931A0187E691E0CE
:100510000C94CC07029711F40C94620208951F9278
:100520000F920FB60F9211242F933F934F935F9327
:100530006F937F938F939F93AF93BF93EF93FF93AB
:1005400080E491E00E94B901FF91EF91BF91AF91DA
:100550009F918F917F916F915F914F913F912F91DB
:100560000F900FBE0F901F9018951F920F920FB60D
:100570000F9211242F938F939F93EF93FF93E0910A
:100580005001F09151018081E0915601F0915701A5
:1005900082FD12C09081809159018F5F8F732091ED
:1005A0005A01821751F0E0915901F0E0E05CFE4FF2
:1005B000958F8093590101C08081FF91EF919F91A8
:1005C0008F912F910F900FBE0F901F9018951F9233
:1005D0000F920FB60F9211242F933F934F935F9377
:1005E0006F937F938F939F93AF93BF93EF93FF93FB
:1005F0008091DE010E948A082091E2013091E3019E
:100600002F5F3F4F3093E3012093E2019091E1018E
:10061000953618F096E09093DD019091DD019430CD
:10062000C9F128F4923069F09330D1F05EC0953072
:1006300009F451C0963009F058C091E09093AE0291
:1006400051C0811152C02091E2013091E301243662
:10065000310508F442C01092AE021092E1011CC0B4
:10066000813009F042C0E091E10191E09E0F90934A
:10067000E101F0E02091E2013091E301EE0FFF1F74
:10068000E352FE4F308727831092E3011092E2017C
:1006900094E029C0811117C0E091E10191E09E0F23
:1006A0009093E101F0E02091E2013091E301EE0F3F
:1006B000FF1FE352FE4F308727831092E301109211
:1006C000E20193E010C02091E2013091E301253670
:1006D000310558F007C0811108C01092E301109253
:1006E000E20103C095E09093DD019091E001992330
:1006F000B9F081110AC08091DF01882321F0809137
:10070000DF0161E009C02D9A0BC08091DF018823D1
:1007100031F08091DF0160E00E94CC0801C02D988B
:10072000FF91EF91BF91AF919F918F917F916F91C9
:100730005F914F913F912F910F900FBE0F901F909F
:100740001895CF92DF92EF92FF92CF93DF93EC0157
:10075000072E000C880B990B0E94981A6B017C01E4
:1007600020E030E040E45FE30E94481B20E030E0FE
:1007700048E452E40E94EE190E94601AC617D70797
:10078000D4F020E030E040EA5FE3C701B6010E9408
:10079000481B20E030E048E452E40E94EE1920E0DB
:1007A00030E040E85FE30E947D190E94601A21E07A
:1007B0006C177D070CF420E0822F90E0DF91CF9141
:1007C000FF90EF90DF90CF9008951F93CF93DF932A
:1007D000EC01162F0E94DD18181739F0612FCE0199
:1007E000DF91CF911F910C94E518DF91CF911F916C
:1007F00008950C94E5180C94DD18809118019091DF
:100800001901019789F181E090E09093190180939B
:10081000180189E090E00E94FB030E94460782EAEB
:1008200090E00E94CC071092FC021092FB02109202
:100830000C0381E0809303038091F9020E948A08EF
:10084000909305038093040310920603109207030C
:10085000109208031092090310920B0310920A03DE
:1008600010920C0310920D030895CF92DF92EF9235
:10087000FF920F931F93CF936B017C01CB010E94DA
:10088000FB03C82FC60101960E94FB03182FC60167
:1008900002960E94FB03082FC60103960E94FB03E9
:1008A000412F50E060E070E0762F652F542F4427F1
:1008B0004C0F511D611D711D10E020E030E09801CA
:1008C00011270027400F511F621F731F90E0A0E007
:1008D000B0E0B82FAA27992788278A019B01080F23
:1008E000191F2A1F3B1FC901B801CF911F910F91FA
:1008F000FF90EF90DF90CF900895CF92DF92EF922C
:10090000FF92CF93DF93EC016A017B01642F0E9479
:10091000E5039927F7FC9A958F2D7E2D6D2DCE013D
:1009200001960E94E503B701992777FD9095892FDD
:10093000CE0102960E94E5036F2D7727882799271D
:10094000CE010396DF91CF91FF90EF90DF90CF9093
:100950000C94E503CF92DF92EF92FF920F931F93D7
:10096000CF93DF93FC0123853485232BA1F1EC0188
:100970000E94680A0F81188529853A85C880D98028
:10098000EA80FB80AB01BC01401B510B620B730B77
:100990004C155D056E057F05F0F04C81411103C0DB
:1009A0001C861B860AC0D901C8018C0D9D1DAE1D79
:1009B000BF1D8F839887A987BA87ED81FE81309705
:1009C00051F0CE01DF91CF911F910F91FF90EF90E9
:1009D000DF90CF900994DF91CF911F910F91FF90FD
:1009E000EF90DF90CF900895CF93DF93EC010E94BA
:1009F000680A6F83788789879A8781E090E09C876F
:100A00008B87DF91CF91089589E090E00E94FB03EE
:100A10000E94460781E090E090931B0180931A01A9
:100A20008FEF90E00E94CC07109217018CEB92E0C0
:100A30000C94F404CF9320911801309119012430C3
:100A4000310561F1C82F84E090E090931901809303
:100A5000180189E090E00E94FB030E94460781EEA6
:100A600090E00E94CC0780E090E00E94B308CC2385
:100A7000A9F061E08DE00E94CC0884EF91E0A0E055
:100A8000B0E08093AF029093B002A093B102B09314
:100A9000B2028FEA92E0CF910C94F404CF910895C2
:100AA00080911A0190911B01892B09F581E190E059
:100AB0000E94FB0320911801309119012230310569
:100AC00091F4811103C081E00C941A051092190170
:100AD0001092180160E083E190E00E94F9038CE439
:100AE00091E00C94CC07232B21F40C9404050C9476
:100AF00062020895CF93209118013091190123309B
:100B0000310561F1C82F83E090E090931901809343
:100B1000180189E090E00E94FB030E94460781ECE7
:100B200090E00E94CC0781E090E00E94B308CC23C3
:100B3000A9F061E08DE00E94CC0884E690E0A0E09E
:100B4000B0E08093AF029093B002A093B102B09353
:100B5000B2028FEA92E0CF910C94F404CF91089501
:100B60008F929F92AF92BF92EF92FF920F931F933B
:100B7000CF93DF93CDB7DEB7A1970FB6F894DEBF62
:100B80000FBECDBFFC010189128910161106F4F5C4
:100B90008FEC91E00E94B1079801012E000C440BEC
:100BA000550B19A27E01F1E2EF0EF11C8AE0882EAE
:100BB000912CA12CB12CCA01B901A50194010E946C
:100BC0000319605DF70162937F012115310541052D
:100BD000510589F7CF010E949F0782E191E00E94B1
:100BE0009F078091180190911901029709F03FC069
:100BF0000130110521F480E00E947A0538C00230EE
:100C00001105A9F580E00E941A0531C085EC91E03C
:100C10000E94CC0785E00E948A08892B91F482E02B
:100C200090E0909319018093180161E083E190E0D6
:100C30000E94F9038BEA91E00E94CC0781E090E0EA
:100C400014C085E00E948A08019789F41092190166
:100C50001092180160E083E190E00E94F90380E9BE
:100C600091E00E94CC0780E090E00E94B308A1963A
:100C70000FB6F894DEBF0FBECDBFDF91CF911F91AD
:100C80000F91FF90EF90BF90AF909F908F9008953D
:100C900080911A0190911B01009769F480911801CD
:100CA00090911901009711F40C94FD030297E9F457
:100CB00081E00C947A058130910539F481E08093CC
:100CC00017018CEB92E00C94F404029771F460E04D
:100CD00070E0CB010E943504AB01BC0184E090E0E0
:100CE0000E947D0481E0809317010895CF92DF92E6
:100CF000EF92FF920F931F93CF93DF93EC018881C4
:100D00000E948A088C018B899C890817190731F089
:100D10000E94680A6D8B7E8B8F8B988F0E94680A69
:100D2000CD88DE88EF88F88CDC01CB018C199D0919
:100D3000AE09BF09CB80DC80ED80FE80C816D906E5
:100D4000EA06FB0608F06AC0898D9A8D0817190714
:100D5000E9F11A8F098F8A81882321F00115110585
:100D600021F019C001301105B1F481E090E09AA39F
:100D700089A3EB85FC85309711F0CE0109958F8D05
:100D8000811150C081E08F8F0E94680A6B8F7C8F29
:100D90008D8F9E8F47C01AA219A2ED85FE853097D0
:100DA00011F0CE0109958F8D882349F088A181111A
:100DB00006C0EF85F889309711F0CE0109951F8E96
:100DC00018A21B8E1C8E1D8E1E8E2CC00E94680ABF
:100DD000CB8CDC8CED8CFE8CDC01CB018C199D095D
:100DE000AE09BF09CF80D884E984FA84C816D90631
:100DF000EA06FB06B8F48F8D8823A1F088A1811143
:100E000011C081E088A382E090E09AA389A3E989D8
:100E1000FA89309739F0CE01099504C08FEF9FEF22
:100E20009AA389A31C8B0B8BDF91CF911F910F91FC
:100E3000FF90EF90DF90CF900895833081F028F4F9
:100E4000813099F08230A1F008958730A9F0883080
:100E5000B9F08430D1F4809180008F7D03C08091FF
:100E600080008F7780938000089584B58F7702C0CB
:100E700084B58F7D84BD08958091B0008F7703C0C5
:100E80008091B0008F7D8093B00008958093DC0244
:100E90008091C9029091CA028330910559F09C015A
:100EA000255031092230310528F0245031092330F2
:100EB0003105B0F42091F4023091F5022130310572
:100EC00099F43091CB022091DC02332329F06FEFAB
:100ED00070E0621B710902C0622F70E00C94E4099B
:100EE0002FEF2093DC02E6CF08958091F4029091D9
:100EF000F502019719F181E08093E10281E090E031
:100F00009093F5028093F4029091CB028091DC02E1
:100F1000992329F06FEF70E0681B710902C0682FF8
:100F200070E08091C9020E94E409E091DD02F09135
:100F3000DE02309719F089EC92E009940895009749
:100F400069F0FC0101900020E9F73197AF01481BDF
:100F5000590BBC0180E491E00C94440180E090E0E6
:100F600008950F931F93CF93DF938C01C0E0D0E0DF
:100F7000F801EC0FFD1F6491662341F080E491E0DD
:100F80000E94DB01892B11F02196F2CFCE01DF9177
:100F9000CF911F910F910895CF93DF930E94B107D6
:100FA000EC0182E191E00E949F078C0F9D1FDF9171
:100FB000CF9108958F929F92AF92BF92CF92DF927E
:100FC000EF92FF920E94430A4B015C0184EFC82E0E
:100FD000DD24D394E12CF12C0E94430ADC01CB01E7
:100FE00088199909AA09BB09883E9340A105B10552
:100FF00098F321E0C21AD108E108F10888EE880EC2
:1010000083E0981EA11CB11CC114D104E104F104B9
:1010100019F7FF90EF90DF90CF90BF90AF909F9027
:101020008F9008958F929F92AF92BF92CF92DF924E
:10103000EF92FF920F931F93CF93DF93FC012081D8
:101040003181E0913C01F0913D012E173F070CF0FA
:101050004FC0F901EE0FFF1FA0913A01B0913B0183
:10106000EA0FFB1FA080B180217033276901F1E0F6
:10107000CF26232B19F42CE93FEF02C024E630E001
:101080007A018B01EC014901840E951EB401C50162
:101090000E94A103892B99F48E0C9F1CB401C501F9
:1010A0000E94A103892B71F4B701680D791DC50158
:1010B0000E94A103892BF9F023E030E005C021E074
:1010C00030E002C022E030E0F80180819181019699
:1010D000821793071CF49183808308C0F801118262
:1010E000108288819981019699838883C60105C001
:1010F00081E090E002C08FEF9FEFDF91CF911F91D1
:101100000F91FF90EF90DF90CF90BF90AF909F90A6
:101110008F900895CF93DF93282F30E0F901E25E9E
:10112000FD4F8491F901E65FFD4FD491F901EA503A
:10113000FE4FC491CC2391F081110E941D07EC2F2A
:10114000F0E0EE0FFF1FE451FE4FA591B491EC913A
:10115000ED2381E090E021F480E002C080E090E0A7
:10116000DF91CF910895CF93DF93C9EFD2E09B83B6
:101170008A831B8A81E08A8788810E948A089C87EB
:101180008B871D861E861F86188A1A8A198A1B8AD3
:101190001C8ADF91CF9108951F93CF93DF93282F5F
:1011A00030E0F901E25EFD4F8491F901E65FFD4F09
:1011B000D491F901EA50FE4FC491CC23C1F0162F0F
:1011C00081110E941D07EC2FF0E0EE0FFF1FEE5182
:1011D000FE4FA591B4919FB7F894111104C08C9162
:1011E000D095D82302C0EC91DE2BDC939FBFDF911A
:1011F000CF911F9108958091F4029091F502892B6F
:10120000D1F01092E1021092F5021092F402809156
:10121000CB02882311F061E001C060E08091C90237
:101220000E94CC08E091DD02F091DE02309719F0C7
:1012300089EC92E009940895CF93DF93C82F109220
:10124000E1020E94680A6093E2027093E3028093D5
:10125000E4029093E5021092F2021092F302C0931E
:10126000F6021092F8021092F702C091F402D091A7
:10127000F50282E090E09093F5028093F402809171
:10128000CB02882311F061E001C060E08091C902C7
:101290000E94CC08229759F0E091DD02F091DE0225
:1012A000309729F089EC92E0DF91CF910994DF919A
:1012B000CF9108950F931F93CF93DF938C01C62F87
:1012C0001092E1020E94680A6093E2027093E302C6
:1012D0008093E4029093E5021092EF021092EE02E6
:1012E0001093F1020093F0021092F20281E08093D9
:1012F000F302C093F6021092F8021092F702C09126
:10130000F402D091F50282E090E09093F502809390
:10131000F4028091CB02882311F061E001C060E00B
:101320008091C9020E94CC08229769F0E091DD0209
:10133000F091DE02309739F089EC92E0DF91CF91A5
:101340001F910F910994DF91CF911F910F910895F3
:10135000CF93DF9390E0FC01E65FFD4F2491FC0109
:10136000EA50FE4F8491882361F190E0880F991F25
:10137000FC01E852FE4FC591D491FC01EE51FE4FA5
:10138000A591B491611109C09FB7F8948881209507
:1013900082238883EC912E230BC0623061F49FB7C7
:1013A000F8948881322F309583238883EC912E2BFB
:1013B0002C939FBF06C08FB7F894E8812E2B28830B
:1013C0008FBFDF91CF9108951F93CF93DF93182F95
:1013D000EB0161E00E94A809209711F460E004C0CD
:1013E000CF3FD10539F461E0812FDF91CF911F917B
:1013F0000C94CC08E12FF0E0E25EFD4FE491E33085
:10140000F9F048F4E130B9F0E230A1F584B580623A
:1014100084BDC8BD34C0E730E9F0E83019F1E430EC
:1014200049F580918000806280938000D0938B008A
:10143000C0938A0024C084B5806884BDC7BD1FC026
:1014400080918000806880938000D0938900C09351
:10145000880015C08091B00080688093B000C09370
:10146000B3000DC08091B00080628093B000C09343
:10147000B40005C0C038D1050CF0B5CFAFCFDF91B7
:10148000CF911F9108953FB7F89480915A0390919E
:101490005B03A0915C03B0915D0326B5A89B05C0DA
:1014A0002F3F19F00196A11DB11D3FBFBA2FA92FE3
:1014B000982F8827820F911DA11DB11DBC01CD0160
:1014C00042E0660F771F881F991F4A95D1F708954C
:1014D0002FB7F89460915603709157038091580389
:1014E000909159032FBF08951F920F920FB60F923C
:1014F00011242F933F938F939F93AF93BF9380912A
:10150000560390915703A0915803B091590330911D
:10151000550323E0230F2D3720F40196A11DB11DA3
:1015200005C026E8230F0296A11DB11D2093550387
:101530008093560390935703A0935803B093590395
:1015400080915A0390915B03A0915C03B0915D037D
:101550000196A11DB11D80935A0390935B03A09344
:101560005C03B0935D03BF91AF919F918F913F91C9
:101570002F910F900FBE0F901F901895CF93DF9370
:10158000CDB7DEB72C970FB6F894DEBF0FBECDBF38
:10159000789484B5826084BD84B5816084BD85B54E
:1015A000826085BD85B5816085BD80916E0081605A
:1015B00080936E0010928100809181008260809300
:1015C0008100809181008160809381008091800002
:1015D0008160809380008091B10084608093B1002D
:1015E0008091B00081608093B00080917A00846027
:1015F00080937A0080917A00826080937A00809153
:101600007A00816080937A0080917A00806880936C
:101610007A001092C10061E08CE090E00E94F90332
:10162000E0915001F091510182E08083E0914C0102
:10163000F0914D011082E0914E01F0914F018FEC3D
:10164000808310925801E0915401F091550186E099
:101650008083E0915201F091530180818061808309
:10166000E0915201F0915301808188608083E09184
:101670005201F0915301808180688083E091520192
:10168000F091530180818F7D808362E087E00E942A
:10169000A80962E085E00E94A80961E08DE00E944F
:1016A000A80961E084E00E94A80961E089E00E9445
:1016B000A80960E086E00E94CC0860E08DE00E940E
:1016C000CC0860E084E00E94CC0861E089E00E94E0
:1016D000CC086DE070E080E090E00E9435048B0162
:1016E00088E090E00E94FB03811114C048E853E1B8
:1016F00060E070E08DE090E00E947D046FEF89E093
:1017000090E00E94F90361E088E090E00E94F90314
:1017100008E813E1C801110FAA0BBB0B8093390332
:1017200090933A03A0933B03B0933C0388E496E084
:10173000909342038093410380E595E090934403A6
:10174000809343038EE592E090931B0380931A03EA
:101750008AE592E090931D0380931C03F89482E045
:101760008093B0008093B10094E69093B300109200
:10177000B2008093700078948093DD011092E101B3
:101780008091DE0160E00E94A80986E592E09093D6
:10179000B5028093B40281E792E09093C2028093F5
:1017A000C1028AE090E00E94FB030E94460783E7A3
:1017B00092E09093E0028093DF020E94750780EB35
:1017C00095E0909302038093010380E090E00E94F3
:1017D000B30882E190E00E94FB03882339F083E1A3
:1017E00090E00E94FB0381110E94FD0380E2282EFD
:1017F000312C9AEF492E512C612C712C82E393E00D
:101800000E9476068FE093E00E94760684EE91E0D7
:1018100090933B0180933A018091E10190E0909395
:101820003D0180933C018091AE0290E090933F0196
:1018300080933E018091DD01853009F0E8C0809100
:10184000E6019091E701885891098D35910588F45A
:101850008091E101843041F48091E8019091E901A7
:101860008097479708F423C58091E101843408F0FC
:1018700005C58091E1018A3108F48CC58091E401AD
:101880009091E501843F9140B0F41092390110929B
:1018900038018FEF9FEFDC01809334019093350185
:1018A000A0933601B0933701ABE0B0E0B0933101C3
:1018B000A0933001A7C08091E6019091E701859740
:1018C0004B9708F067C5EAEEF1E082E090E040E077
:1018D00050E0BA018C010F5F1F4F2091E10130E011
:1018E000021713076CF49F0122503109D9012D9181
:1018F0003C91275031092730310508F430C5C80123
:1019000001979595879590933901809338010C97AD
:101910002CF410923901109238013CC540933401E7
:1019200050933501609336017093370184E090E065
:101930000AC0C0923401D0923501E0923601F09293
:1019400037018CE090E09093310180933001C0909A
:101950003401D0903501E0903601F0903701BFEFAF
:10196000CB16DB06EB06FB0609F44CC080911A018E
:1019700090911B01009751F560E070E0CB010E944F
:1019800035044B015C0164E070E080E090E00E946F
:101990003504C814D904EA04FB0449F42091180161
:1019A00030911901232B19F40E94FD032BC0C61698
:1019B000D706E806F90631F58091180190911901D2
:1019C000029701F581E00E947A051CC081309105E3
:1019D00071F4B701A60180E090E00E947D0481E0EF
:1019E000809317018CEB92E00E94F4040BC00297E5
:1019F00049F4B701A60184E090E00E947D0481E0F3
:101A00008093170182E08093DD011092E1018091C3
:101A10000303882309F469C08091F9020E948A08AF
:101A20008C0180910403909105030817190759F15F
:101A30008091FB029091FC0208171907A9F480918C
:101A40000C0381110DC081E080930C030E94680A91
:101A50006093060370930703809308039093090330
:101A600081E080930D030FC080910D03882359F00E
:101A700080910A0390910B03019690930B0380933E
:101A80000A0310920D0380910C03882351F10E94E8
:101A9000680AC0900603D0900703E0900803F09016
:101AA0000903DC01CB018C199D09AE09BF09C09067
:101AB000FD02D090FE02E090FF02F09000038C1532
:101AC0009D05AE05BF0568F01092030310920C034C
:101AD000E0910103F0910203309719F089EF92E051
:101AE000099510930503009304038091F4029091EB
:101AF000F502029709F0A2C12091C9023091CA02F1
:101B00002330310571F0C90105978230910548F005
:101B10000497029730F081E02B30310519F080E016
:101B200001C081E09091F602992321F0811102C059
:101B30001092F6028091F2028823E9F00E94680A6E
:101B40000091E6021091E7022091E8023091E9024B
:101B5000DC01CB01801B910BA20BB30B0091EA02BD
:101B60001091EB022091EC023091ED028017910769
:101B7000A207B30778F48091F3028823C1F0209183
:101B8000EE023091EF028091F0029091F10228175D
:101B900039076CF00E94FB08E091DF02F091E0024F
:101BA000309709F44BC189EC92E0099547C10E9436
:101BB000680A0091E2021091E3022091E402309160
:101BC000E502601B710B820B930B4091F6024111F1
:101BD00058C04091E102442371F1C090CC02D090F2
:101BE000CD02E090CE02F090CF026C157D058E05FF
:101BF0009F0508F423C18091EE029091EF020196B7
:101C00009093EF028093EE021092E1028091D00255
:101C10009091D102A091D202B091D302080F191F66
:101C20002A1F3B1F0093E2021093E3022093E40279
:101C30003093E5023DC0C090D002D090D102E09038
:101C4000D202F090D3026C157D058E059F0508F435
:101C5000F5C081E08093E1028091CC029091CD02A9
:101C6000A091CE02B091CF02080F191F2A1F3B1F6F
:101C70000093E2021093E3022093E4023093E50222
:101C800077C02091F7023091F80221153105E1F477
:101C90000091D0021091D1022091D2023091D30252
:101CA000601771078207930718F081E090E01EC06B
:101CB0008091CB02882311F061E001C060E0809147
:101CC000C9020E94CC08BAC021303105D1F5C090BC
:101CD000D402D090D502E090D602F090D7026C15D5
:101CE0007D058E059F0538F082E090E09093F80224
:101CF0008093F70269C00E94961A4B015C01C701EC
:101D0000B6010E94961A9B01AC01C501B4010E9464
:101D1000EE196B017C016091DC0270E080E090E0E4
:101D20000E94981A4B015C01A7019601C701B601F8
:101D30000E94481B9B01AC01C501B4010E94481BD5
:101D400077C02230310511F50091CC021091CD02FF
:101D50002091CE023091CF0260177107820793075E
:101D600038F0E3E0F0E0F093F802E093F7022CC0E3
:101D70009091CB028091DC02992329F06FEF70E003
:101D8000681B710957C0682F70E054C023303105BB
:101D900009F054C0C090D802D090D902E090DA0285
:101DA000F090DB026C157D058E059F05C0F08091DB
:101DB000EE029091EF0201969093EF028093EE0273
:101DC0001092F8021092F7020E94680A6093E202F1
:101DD0007093E3028093E4029093E5022FC00E9487
:101DE000961A4B015C01C701B6010E94961A9B012D
:101DF000AC01C501B4010E94EE194B015C01609178
:101E0000DC0270E080E090E00E94981A6B017C0197
:101E1000A5019401C501B4010E94481BA7019601C8
:101E20000E94481B9B01AC01C701B6010E947C19AE
:101E30000E94601A8091C9020E94E4098BE090E040
:101E40000E94FB03F82E8CE090E00E94FB03082F19
:101E500011E0811101C010E080911A0190911B01E5
:101E6000892B09F05BC08091180190911901813094
:101E7000910531F09C012350310922303105A8F53C
:101E8000F2E0FF1203C00E94FB08E7C08091F40259
:101E90009091F502029709F4E0C0002309F1409205
:101EA000CC025092CD026092CE027092CF0240924C
:101EB000D0025092D1026092D2027092D30240922C
:101EC000D4025092D5026092D6027092D70240920C
:101ED000D8025092D9026092DA027092DB02BAC044
:101EE00084EF91E0A0E0B0E0A5C08230910531F42C
:101EF00092E0F91641F289E090E009C0892B09F0DF
:101F0000ACC0A2E0FA1609F4BECF8AE090E00E94CD
:101F1000FB030E9446070E9475079FC0809117012E
:101F2000882309F456C080911601811196C081E082
:101F3000809316010E94FB080E94DA07002309F132
:101F40004092CC025092CD026092CE027092CF02AB
:101F50004092D0025092D1026092D2027092D3028B
:101F60004092D4025092D5026092D6027092D7026B
:101F70004092D8025092D9026092DA027092DB024B
:101F800014C084EF91E0A0E0B0E08093CC02909385
:101F9000CD02A093CE02B093CF028093D002909353
:101FA000D102A093D202B093D30280911A019091F2
:101FB0001B018130910521F4612F81E090E006C082
:101FC000029709F04AC0612F82E090E00E945A090E
:101FD00044C08091F4029091F5020297F1F1002340
:101FE00029F18EE390E0A0E0B0E08093CC029093E2
:101FF000CD02A093CE02B093CF028093D0029093F3
:10200000D102A093D202B093D3028093D4029093D2
:10201000D502A093D602B093D7028093D8029093B2
:10202000D902A093DA02B093DB0214C08DE790E0EE
:10203000A0E0B0E08093CC029093CD02A093CE02BA
:10204000B093CF028093D0029093D102A093D2029A
:10205000B093D302812F0E941C098FEA92E00E9464
:10206000AA048091180190911901892B11F460E064
:1020700001C061E084E00E94CC088CEB92E00E94F9
:10208000AA0480E491E00E94A301892B09F4F3C023
:1020900080E491E00E9481018F33A9F481E090E017
:1020A00090932F0180932E0188E0E6E2F1E0DF01BA
:1020B000282F1D922A95E9F7EEE1F1E0DF011D924C
:1020C0008A95E9F708C08C3759F482E090E0909344
:1020D0002F0180932E0110921D0110921C01CBC084
:1020E000813209F0A0C010922F0110922E0110929F
:1020F0001D0110921C0185E990E00E94B10786E263
:1021000091E00E949F0782E191E00E949F0788E88A
:1021100090E00E94B1078EE191E00E949F0782E16A
:1021200091E00E949F0764E870E086E291E00E94DF
:10213000B718892B41F48EE191E00E947218682F44
:1021400089E090E06DC060E870E086E291E00E9476
:10215000B718892B41F48EE191E00E947218682F24
:102160008AE090E05DC06CE770E086E291E00E945A
:10217000B718892B41F48EE191E00E947218682F04
:102180008BE090E04DC068E770E086E291E00E944D
:10219000B718892B41F48EE191E00E947218682FE4
:1021A0008CE090E03DC064E770E086E291E00E9440
:1021B000B718892B19F40E9404055DC060E770E030
:1021C00086E291E00E94B718892B59F48EE191E0E4
:1021D0000E949018AB01BC018DE090E00E947D044C
:1021E0004AC06CE670E086E291E00E94B718892B45
:1021F00041F48EE191E00E947218682F81E190E035
:102200000FC068E670E086E291E00E94B718892B63
:1022100091F58EE191E00E947218682F82E190E0C2
:102220000E94E50328C020912E0130912F0121301A
:10223000310579F420911C0130911D01A9014F5FF6
:102240005F4F50931D0140931C01F901EA5DFE4F61
:1022500011C02230310579F420911C0130911D010B
:10226000A9014F5F5F4F50931D0140931C01F9017D
:10227000E25EFE4F80830E944A02C0CA8091E8015C
:102280009091E901825491098E9708F0F2CA80E09A
:1022900090E040E050E0BA01FC01E651FE4F2081A1
:1022A00031812950310929303105D8F0E2CA8091B5
:1022B000EA019091EB010997099708F0D5CA1092AD
:1022C0003901109238018FEF9FEFDC0180933401C8
:1022D00090933501A0933601B0933701A3E0B0E0AD
:1022E000E5CAFC01E451FE4F2081318127513109BB
:1022F0002231310538F5440F551F661F771F4160A5
:1023000004968038910541F63092390120923801C7
:102310004093340150933501609336017093370137
:10232000E3E0F0E00AC0409334015093350160933C
:10233000360170933701EBE0F0E0F0933101E09368
:10234000300105CB208131812650310927303105FC
:1023500008F08FCA440F551F661F771FD1CF208109
:102360003181235131092F30310540F4440F551F7D
:10237000661F771F416002963496ACCA2081318176
:102380002A5031092930310528F4440F551F661FA2
:10239000771FF1CF8091E1018A3108F45EC080910E
:1023A000E4019091E5018032934008F46ECA809177
:1023B000E6019091E701C697869708F04EC080919C
:1023C000E8019091E901C697869708F046C0ECEEC7
:1023D000F1E083E090E040E050E0BA018C010F5F53
:1023E0001F4F2091E10130E00217130764F49F01B1
:1023F00022503109D9012D913C912C5031092B30BB
:10240000310580F0C8010197959587959093390122
:10241000809338010C970CF086CF109239011092FE
:1024200038011BC020813181255231092B31310502
:1024300040F4440F551F661F771F41600296349683
:10244000CDCF208131812C5031092A30310528F43B
:10245000440F551F661F771FF1CF8091E101823233
:1024600008F44EC08091E6019091E7010697079726
:1024700008F046C0EAEEF1E082E090E0C12CD12CF9
:1024800076019C012F5F3F4F4091E10150E02417FE
:102490003507CCF4DF0112974D915C9111974E51A5
:1024A000510947315105F0F4CC0CDD1CEE1CFF1C2A
:1024B0006894C0F8408151813496435051094530A9
:1024C0005105E0F0C90101979595879590933901E1
:1024D0008093380140970CF02CCA10923901109269
:1024E00038010EC04D915C914C5051094B30510553
:1024F00038F4CC0CDD1CEE1CFF1CDCCF0296C1CFE7
:102500001C821B8281E090E09A8389838091E101A3
:102510008D3078F41C821B8281E090E09A8389835D
:1025200080913C0190913D01181619060CF46CC085
:10253000C3C049E753E0BE016D5F7F4FCE010196F6
:102540000E941208892B31F749E753E0BE016D5F05
:102550007F4FCE0101960E9412080197D9F649E7F4
:1025600053E0BE016D5F7F4FCE0101960E941208BD
:10257000892B81F6812C912C540100E010E0809190
:10258000E10190E029813A812817390774F549E77C
:1025900053E0BE016D5F7F4FCE0101960E9412088D
:1025A0007C0149E753E0BE016D5F7F4FCE0101968C
:1025B0000E941208A1E0EA16F10451F4892B09F0F7
:1025C000A9CF880C991CAA1CBB1C689480F80AC06F
:1025D000EF2809F09FCF019709F09CCF880C991C38
:1025E000AA1CBB1C0F5F1F4FCACF10933901009369
:1025F00038018092340190923501A0923601B09258
:10260000370181E090E09FC9E0913A01F0913B01F0
:1026100082E090E09A8389838281938189974E97A3
:1026200008F04AC083E090E09A8389838481958191
:102630000B970A9708F040C04CEB51E0BE016D5F6C
:102640007F4FCE0101960E941208892BA9F54CEB11
:1026500051E0BE016D5F7F4FCE0101960E941208CE
:10266000019751F5812C912C540100E010E020914C
:102670003C0130913D0189819A81821793070CF0CA
:102680000EC14CEB51E0BE016D5F7F4FCE01019654
:102690000E9412087C010330110509F0CAC04CEBFE
:1026A00051E0BE016D5F7F4FCE0101960E9412087E
:1026B000E816F90609F4BDC0E0913A01F0913B013A
:1026C00082819381C6978697E0F4848195814B97A8
:1026D0004597B8F4DF0116967F0126ECE20EF11C57
:1026E00020E030E040E050E060E070E080E090E02A
:1026F0000D911C911197095011090830110508F42A
:10270000DDC08091E1018933E8F0828193818957AE
:10271000910983359105B0F484819581CA97899791
:1027200088F49F012A5F3F4FC12CD12C760143E0F2
:1027300050E0D9016D917C916A5071096930710541
:1027400008F4F8C08091E101823231F482819381F2
:102750000A97099708F438C18281938189579109B2
:1027600083359105D0F48091E1018132B0F084810C
:102770009581CA97899788F49F012A5F3F4FC12CA2
:10278000D12C760143E050E0D9016D917C916A50E3
:1027900071096930710508F438C1828193818C54C4
:1027A0009109C59778F48091E101843031F48481F6
:1027B00095818097479708F48BC18091E10184341B
:1027C00008F06DC18091E101863428F18281938106
:1027D0000C970B9700F58481958109970997D8F498
:1027E000868197818C974F97B0F4808591858997E2
:1027F0004D9788F49F01265F3F4FC12CD12C760165
:1028000045E050E0D9016D917C916C5071096B30BD
:10281000710508F4AEC18091E101883508F44AC21F
:1028200082819381855891098B35910508F4E9C11E
:1028300041C24CEB51E0BE016D5F7F4FCE0101966E
:102840000E9412086C010330110569F44CEB51E051
:10285000BE016D5F7F4FCE0101960E941208C8161F
:10286000D90609F029CFE114F10459F4CA94CD280E
:1028700009F022CF880C991CAA1CBB1C689480F814
:102880000BC0EA94EF2809F017CFCD2809F014CF38
:10289000880C991CAA1CBB1C0F5F1F4FE8CE10931D
:1028A0003901009338018092340190923501A09251
:1028B0003601B092370182E090E045C812960D9142
:1028C0001C911397015111090D30110528F501E0F4
:1028D0000E94301921601496AE15BF0509F008CF8B
:1028E00020933401309335014093360150933701E2
:1028F00000E20E944B19209332013093330185E0AE
:1029000090E0909331018093300180E390E09093C8
:102910003901809338011BC812960D911C911397B1
:10292000045011090530110508F0EBCE01E00E94BA
:102930003019D1CFD90112966D917C9113976651C0
:1029400071096131710580F5D701C601880F991FA2
:10295000AA1FBB1F6C017D016894C0F84E5F5F4FDA
:102960002C5F3F4F4B33510509F0E3CE9F012A58AE
:102970003F4FD9012D913C912A5031092930310521
:1029800008F0E0CE2CE130E030933901209338019B
:10299000C0923401D0923501E0923601F0923701B5
:1029A0008AE090E00C94A30CD90112966D917C9171
:1029B0001397665071096730710508F0C3CECC0CCF
:1029C000DD1CEE1CFF1CCACF2091E101CF01820F5C
:1029D000911D820F911DDC0112978D919C910A9798
:1029E000099708F0B9CE10923901109238018FEF93
:1029F0009FEFDC018093340190933501A093360161
:102A0000B093370186E090E036C2D90112966D91FD
:102A10007C911397665171096131710580F5D70179
:102A2000C601880F991FAA1FBB1F6C017D01689406
:102A3000C0F84E5F5F4F2C5F3F4F4332510509F0A6
:102A4000A3CE9F012A5B3F4FD9012D913C912A5083
:102A500031092930310508F0A0CE20E130E0309373
:102A6000390120933801C0923401D0923501E092AF
:102A70003601F092370186E090E00C94A30CD90166
:102A800012966D917C9113976650710967307105AC
:102A900008F083CECC0CDD1CEE1CFF1CCACF848159
:102AA000958189549109C39708F08CCE9F012A5FC4
:102AB0003F4FBF016A577F4FC12CD12C7601D901FE
:102AC0004D915C914950510949305105C8F07ACE79
:102AD000868197810997099708F06FCE1092390186
:102AE000109238018FEF9FEFDC01809334019093B7
:102AF0003501A0933601B093370187E090E0BBC168
:102B0000D90112964D915C9113974651510941316B
:102B10005105F8F4D701C601880F991FAA1FBB1FE2
:102B20006C017D016894C0F82C5F3F4F2617370772
:102B300031F63092390120923801C0923401D0929E
:102B40003501E0923601F092370187E090E00C9475
:102B5000A30CD90112964D915C91139746505109DF
:102B60004730510508F02ECECC0CDD1CEE1CFF1CAE
:102B7000DBCFD90112966D917C9113976E5171093B
:102B80006731710570F5D701C601880F991FAA1F1B
:102B9000BB1F6C017D016894C0F84E5F5F4F2C5FD6
:102BA0003F4F4534510509F02DCE9F0126573F4F29
:102BB000D9012D913C912C5031092B30310508F071
:102BC0002ACE3092390120923801C0923401D0923D
:102BD0003501E0923601F092370188E090E00C94E4
:102BE000A30CD90112966D917C91139769507109CC
:102BF0006930710508F00FCECC0CDD1CEE1CFF1CFB
:102C0000CCCF84819581825491098E9708F052C06F
:102C10008F01045C1F4F8DE190E020E030E0409197
:102C2000E10150E04450510984179507ACF4A80124
:102C300042505109DA014D915C9149505109483097
:102C4000510518F137C0D8014D915C914851510997
:102C50004231510560F1CB0101979595879590938D
:102C60003901809338018A972CF1C901330FAA0BDF
:102C7000BB0B8093340190933501A0933601B09340
:102C8000370189E090E00C94A30CBC016F5F7F4F8B
:102C9000D8014D915C91475051094730510598F644
:102CA000220F331F216002960C5F1F4FB8CF220FF7
:102CB000331FF9CF8091E1018032E1F48281938169
:102CC00006970697B8F4848195810997099790F43F
:102CD0009F012A5F3F4FBF01625C7F4FC12CD12C07
:102CE0007601D9014D915C9146505109463051050C
:102CF00008F485C080913C0190913D0198878F83B5
:102D0000069714F40C94020DDF011296BE83AD8376
:102D100055ECC52E5DE9D52E5CE1E52E51E8F52E8A
:102D200003E010E0ED81FE8164817581A080B180B7
:102D300080E090E00E94961A69877A878B879C874B
:102D4000B50180E090E00E94961A4B015C012DECE9
:102D50003CEC4CE45FE30E94481B9B01AC0169859D
:102D60007A858B859C850E94E91987FD19C02DEC19
:102D70003CEC4CE45FE369857A858B859C850E94F9
:102D8000481B9B01AC01C501B4010E94E919E82F61
:102D9000880FFF0BEE27FF0FEE1FFF27319602C0B3
:102DA000E0E0F0E0A701960163E971E080E091E0E6
:102DB0000E94F3186F01FF0FEE08FF08C626D72602
:102DC000E826F9260F5F1F4F8D819E8102969E8314
:102DD0008D83AF81B8850A171B0709F0A3CFC09276
:102DE0003401D0923501E0923601F09237013092F1
:102DF0003901209238018FEF9FEF0C94A30CD90179
:102E000012964D915C9113974951510943315105E7
:102E100010F5D701C601880F991FAA1FBB1F6C01AF
:102E20007D016894C0F82C5F3F4F2617370709F0E3
:102E300058CF2EE030E03093390120933801C09212
:102E40003401D0923501E0923601F09237018FE0E3
:102E500090E00C94A30CD90112964D915C911397BC
:102E6000495051094930510508F044CFCC0CDD1CC4
:102E7000EE1CFF1CD8CF90933101809330010C944D
:102E8000020D7F928F929F92AF92BF92CF92DF926C
:102E9000EF92FF920F931F93CF93DF93E0E4F1E063
:102EA0001382128288EEC82E83E0D82EE12CF12CFA
:102EB000C482D582E682F78284E091E091838083A8
:102EC00085EC90E09587848784EC90E097878687EF
:102ED00080EC90E0918B808B81EC90E0938B828BE7
:102EE00082EC90E0958B848B86EC90E0978B868BC0
:102EF000118E128E138E148EC2E3D3E082E090E026
:102F000099838883772473947A8292E3892E912C13
:102F1000A12CB12C8B829C82AD82BE82CF82D886BE
:102F2000E986FA861C861B861E861D86188A1F86E1
:102F30001A8A198A62E00E94A80901E010E01C8B3D
:102F40000B8B1A8F098F1D8A1E8A1F8A188E1B8E63
:102F50001C8E1D8E1E8E1F8E18A21AA219A2CFE0E3
:102F6000D3E088E090E0998388837A828B829C8288
:102F7000AD82BE82CF82D886E986FA861C861B8601
:102F80001E861D86188A1F861A8A198A62E00E9488
:102F9000A8091C8B0B8B1A8F098F1D8A1E8A1F8A0A
:102FA000188E1B8E1C8E1D8E1E8E1F8E18A21AA2AE
:102FB00019A2EDEDF1E087E081831382C9EFD2E041
:102FC00085E090E0998388831B821A82CC82DD821F
:102FD000EE82FF821986188662E00E94A8091A868E
:102FE00085E00E948A089C878B871D861E861F8627
:102FF000188A1A8A198A1B8A1C8AE9ECF2E086E090
:1030000090E091838083128284EF91E0A0E0B0E0B1
:1030100083839483A583B68387839087A187B287B0
:1030200013861486158616861786108A118A128AC8
:103030008FEF838B158A148A178A168A108E118E49
:10304000128E138E148E158E168E178E10A211A24C
:1030500012A213A214A216A215A210A617A211A6BC
:1030600012A614A613A615A617A616A661E086E05A
:103070000E94A80960E086E00E94CC08ECEBF2E038
:1030800088E99AE3A0E0B0E080839183A283B383D0
:103090001482168215821782108611861286148673
:1030A0001386EFEAF2E084E690E0A0E0B0E08083EF
:1030B0009183A283B38314821682158217821086AD
:1030C0001186128614861386DF91CF911F910F917E
:1030D000FF90EF90DF90CF90BF90AF909F908F9038
:1030E0007F900895FC0188279927E8942191203248
:1030F000E9F3293010F02E30C8F32B3241F02D3295
:1031000039F4689404C00E94D518820F911D219152
:1031100020532A30C0F31EF4909581959F4F089557
:103120001F93FC0199278827BC01E8941191103264
:10313000E9F3193010F01E30C8F31B3251F01D3284
:1031400049F4689406C00E94C018610F711D811D6A
:10315000911D119110531A30B0F33EF49095809563
:10316000709561957F4F8F4F9F4F1F910895FB0181
:10317000DC018D91059080190110D9F3990B089508
:10318000592F482F372F262F660F771F881F991F1B
:10319000660F771F881F991F620F731F841F951F6B
:1031A000660F771F881F991F08957AE0979F902DCB
:1031B000879F802D910D11240895F999FECF92BD1E
:1031C00081BDF89A992780B50895262FF999FECFE9
:1031D0001FBA92BD81BD20BD0FB6F894FA9AF99A34
:1031E0000FBE01960895DB018F939F930E942519CE
:1031F000BF91AF91A29F800D911DA39F900DB29F93
:10320000900D11240895A1E21A2EAA1BBB1BFD01EB
:103210000DC0AA1FBB1FEE1FFF1FA217B307E407B5
:10322000F50720F0A21BB30BE40BF50B661F771F0D
:10323000881F991F1A9469F76095709580959095ED
:103240009B01AC01BD01CF0108950E946D19A59F9E
:10325000900DB49F900DA49F800D911D1124089591
:103260000F93083090F0982F872F762F652F542FCB
:10327000432F322F22270850F4CF220F331F441F31
:10328000551F661F771F881F991F0A95B2F70F9168
:10329000089597FB10F8169400080F93083098F0E3
:1032A0000850232F342F452F562F672F782F892F23
:1032B000902DF4CF059497958795779567955795B9
:1032C0004795379527950A95AAF70F910895EE0F20
:1032D000FF1F0590F491E02D0994A29FB001B39FC8
:1032E000C001A39F700D811D1124911DB29F700D0F
:1032F000811D1124911D08955058BB27AA270E94B3
:1033000094190C940E1B0E94001B38F00E94071B9E
:1033100020F039F49F3F19F426F40C94FD1A0EF4B2
:10332000E095E7FB0C94F71AE92F0E941F1B58F356
:10333000BA17620773078407950720F079F4A6F59A
:103340000C94411B0EF4E0950B2EBA2FA02D0B010F
:10335000B90190010C01CA01A0011124FF27591BDA
:1033600099F0593F50F4503E68F11A16F040A22FE0
:10337000232F342F4427585FF3CF46953795279551
:10338000A795F0405395C9F77EF41F16BA0B620B50
:10339000730B840BBAF09150A1F0FF0FBB1F661F97
:1033A000771F881FC2F70EC0BA0F621F731F841FDA
:1033B00048F4879577956795B795F7959E3F08F000
:1033C000B0CF9395880F08F09927EE0F97958795C2
:1033D00008950E94D31A08F481E008950E94021A09
:1033E0000C940E1B0E94071B58F00E94001B40F01B
:1033F00029F45F3F29F00C94F71A51110C94421BE9
:103400000C94FD1A0E941F1B68F39923B1F35523F6
:1034100091F3951B550BBB27AA27621773078407E7
:1034200038F09F5F5F4F220F331F441FAA1FA9F37D
:1034300035D00E2E3AF0E0E832D091505040E6956B
:10344000001CCAF72BD0FE2F29D0660F771F881FCC
:10345000BB1F261737074807AB07B0E809F0BB0BBF
:10346000802DBF01FF2793585F4F3AF09E3F5105D3
:1034700078F00C94F71A0C94421B5F3FE4F3983EEB
:10348000D4F3869577956795B795F7959F5FC9F7BC
:10349000880F911D9695879597F90895E1E0660F3D
:1034A000771F881FBB1F621773078407BA0720F0B6
:1034B000621B730B840BBA0BEE1F88F7E09508951F
:1034C0000E94671A6894B1110C94421B08950E94DF
:1034D000271B88F09F5798F0B92F9927B751B0F064
:1034E000E1F0660F771F881F991F1AF0BA95C9F788
:1034F00014C0B13091F00E94411BB1E008950C94CA
:10350000411B672F782F8827B85F39F0B93FCCF37C
:10351000869577956795B395D9F73EF49095809504
:10352000709561957F4F8F4F9F4F0895E89409C024
:1035300097FB3EF490958095709561957F4F8F4FE6
:103540009F4F9923A9F0F92F96E9BB279395F695FC
:10355000879577956795B795F111F8CFFAF4BB0F7A
:1035600011F460FF1BC06F5F7F4F8F4F9F4F16C0DE
:10357000882311F096E911C0772321F09EE8872F68
:10358000762F05C0662371F096E8862F70E060E024
:103590002AF09A95660F771F881FDAF7880F96959D
:1035A000879597F90895990F0008550FAA0BE0E841
:1035B000FEEF16161706E807F907C0F012161306F5
:1035C000E407F50798F0621B730B840B950B39F435
:1035D0000A2661F0232B242B252B21F408950A269B
:1035E00009F4A140A6958FEF811D811D089597F9DB
:1035F0009F6780E870E060E008959FEF80EC089599
:1036000000240A94161617061806090608950024C1
:103610000A9412161306140605060895092E03943B
:10362000000C11F4882352F0BB0F40F4BF2B11F4AF
:1036300060FF04C06F5F7F4F8F4F9F4F089557FD0E
:103640009058440F551F59F05F3F71F04795880F10
:1036500097FB991F61F09F3F79F0879508951216A7
:1036600013061406551FF2CF4695F1DF08C0161653
:1036700017061806991FF1CF869571056105089404
:103680000895E894BB2766277727CB0197F908951B
:103690000E945B1B0C940E1B0E94001B38F00E94C2
:1036A000071B20F0952311F00C94F71A0C94FD1AC7
:1036B00011240C94421B0E941F1B70F3959FC1F3B1
:1036C000950F50E0551F629FF001729FBB27F00DD0
:1036D000B11D639FAA27F00DB11DAA1F649F662725
:1036E000B00DA11D661F829F2227B00DA11D621F74
:1036F000739FB00DA11D621F839FA00D611D221F2E
:10370000749F3327A00D611D231F849F600D211D11
:10371000822F762F6A2F11249F5750409AF0F1F094
:1037200088234AF0EE0FFF1FBB1F661F771F881FFD
:1037300091505040A9F79E3F510580F00C94F71A24
:103740000C94421B5F3FE4F3983ED4F38695779543
:103750006795B795F795E7959F5FC1F7FE2B880FA3
:10376000911D9695879597F9089581E090E0F894DA
:083770000C94BA1BF894FFCF82
:1037780000000000DB01440172012802A30181015D
:0637880095010D0A00008E
:00000001FF
